{"abi":[{"inputs":[{"internalType":"address payable","name":"_postCreator","type":"address"},{"internalType":"string","name":"_postText","type":"string"},{"internalType":"string","name":"_postDate","type":"string"},{"internalType":"uint256","name":"_requestedAmount","type":"uint256"}],"name":"createPost","outputs":[],"stateMutability":"nonpayable","type":"function"},{"inputs":[{"internalType":"uint256","name":"index","type":"uint256"},{"internalType":"uint256","name":"amount","type":"uint256"},{"internalType":"address","name":"donatorAddress","type":"address"}],"name":"donate","outputs":[],"stateMutability":"payable","type":"function"},{"inputs":[{"internalType":"bool","name":"ongoing","type":"bool"}],"name":"getDonations","outputs":[{"components":[{"internalType":"address payable","name":"postCreator","type":"address"},{"internalType":"string","name":"postText","type":"string"},{"internalType":"string","name":"postDate","type":"string"},{"internalType":"uint256","name":"requestedAmount","type":"uint256"},{"internalType":"uint256","name":"receivedAmount","type":"uint256"},{"components":[{"internalType":"address","name":"donatorAddress","type":"address"},{"internalType":"uint256","name":"donatedAmount","type":"uint256"}],"internalType":"struct DonationContract.DonatorStruct[]","name":"donators","type":"tuple[]"},{"internalType":"uint256","name":"postIndex","type":"uint256"}],"internalType":"struct DonationContract.DonationStruct[]","name":"","type":"tuple[]"}],"stateMutability":"view","type":"function"},{"inputs":[{"internalType":"uint256","name":"index","type":"uint256"},{"internalType":"bool","name":"ongoing","type":"bool"}],"name":"getDonatorsOfPost","outputs":[{"components":[{"internalType":"address","name":"donatorAddress","type":"address"},{"internalType":"uint256","name":"donatedAmount","type":"uint256"}],"internalType":"struct DonationContract.DonatorStruct[]","name":"","type":"tuple[]"}],"stateMutability":"view","type":"function"},{"inputs":[{"internalType":"uint256","name":"index","type":"uint256"},{"internalType":"bool","name":"ongoing","type":"bool"}],"name":"getSingleDonation","outputs":[{"components":[{"internalType":"address payable","name":"postCreator","type":"address"},{"internalType":"string","name":"postText","type":"string"},{"internalType":"string","name":"postDate","type":"string"},{"internalType":"uint256","name":"requestedAmount","type":"uint256"},{"internalType":"uint256","name":"receivedAmount","type":"uint256"},{"components":[{"internalType":"address","name":"donatorAddress","type":"address"},{"internalType":"uint256","name":"donatedAmount","type":"uint256"}],"internalType":"struct DonationContract.DonatorStruct[]","name":"donators","type":"tuple[]"},{"internalType":"uint256","name":"postIndex","type":"uint256"}],"internalType":"struct DonationContract.DonationStruct","name":"","type":"tuple"}],"stateMutability":"view","type":"function"}],"devdoc":{"kind":"dev","methods":{},"version":1},"evm":{"assembly":"    /* \"DonationContract.sol\":60:4788  contract DonationContract {... */\n  mstore(0x40, 0x80)\n    /* \"DonationContract.sol\":857:858  0 */\n  0x00\n    /* \"DonationContract.sol\":834:858  uint256 ongoingIndex = 0 */\n  0x0b\n  sstore\n    /* \"DonationContract.sol\":931:932  0 */\n  0x00\n    /* \"DonationContract.sol\":907:932  uint256 finishedIndex = 0 */\n  0x0c\n  sstore\n    /* \"DonationContract.sol\":60:4788  contract DonationContract {... */\n  callvalue\n  dup1\n  iszero\n  tag_1\n  jumpi\n  0x00\n  dup1\n  revert\ntag_1:\n  pop\n  dataSize(sub_0)\n  dup1\n  dataOffset(sub_0)\n  0x00\n  codecopy\n  0x00\n  return\nstop\n\nsub_0: assembly {\n        /* \"DonationContract.sol\":60:4788  contract DonationContract {... */\n      mstore(0x40, 0x80)\n      jumpi(tag_1, lt(calldatasize, 0x04))\n      shr(0xe0, calldataload(0x00))\n      dup1\n      0x1788db6b\n      eq\n      tag_2\n      jumpi\n      dup1\n      0x65d054fd\n      eq\n      tag_3\n      jumpi\n      dup1\n      0x67c59b56\n      eq\n      tag_4\n      jumpi\n      dup1\n      0x7c64cff1\n      eq\n      tag_5\n      jumpi\n      dup1\n      0xb0862bd2\n      eq\n      tag_6\n      jumpi\n    tag_1:\n      0x00\n      dup1\n      revert\n        /* \"DonationContract.sol\":2644:2925  function getDonatorsOfPost(uint256 index, bool ongoing)... */\n    tag_2:\n      callvalue\n      dup1\n      iszero\n      tag_7\n      jumpi\n      0x00\n      dup1\n      revert\n    tag_7:\n      pop\n      tag_8\n      0x04\n      dup1\n      calldatasize\n      sub\n      dup2\n      add\n      swap1\n      tag_9\n      swap2\n      swap1\n      tag_10\n      jump\t// in\n    tag_9:\n      tag_11\n      jump\t// in\n    tag_8:\n      mload(0x40)\n      tag_12\n      swap2\n      swap1\n      tag_13\n      jump\t// in\n    tag_12:\n      mload(0x40)\n      dup1\n      swap2\n      sub\n      swap1\n      return\n        /* \"DonationContract.sol\":2070:2300  function getDonations(bool ongoing)... */\n    tag_3:\n      callvalue\n      dup1\n      iszero\n      tag_14\n      jumpi\n      0x00\n      dup1\n      revert\n    tag_14:\n      pop\n      tag_15\n      0x04\n      dup1\n      calldatasize\n      sub\n      dup2\n      add\n      swap1\n      tag_16\n      swap2\n      swap1\n      tag_17\n      jump\t// in\n    tag_16:\n      tag_18\n      jump\t// in\n    tag_15:\n      mload(0x40)\n      tag_19\n      swap2\n      swap1\n      tag_20\n      jump\t// in\n    tag_19:\n      mload(0x40)\n      dup1\n      swap2\n      sub\n      swap1\n      return\n        /* \"DonationContract.sol\":2350:2612  function getSingleDonation(uint256 index, bool ongoing)... */\n    tag_4:\n      callvalue\n      dup1\n      iszero\n      tag_21\n      jumpi\n      0x00\n      dup1\n      revert\n    tag_21:\n      pop\n      tag_22\n      0x04\n      dup1\n      calldatasize\n      sub\n      dup2\n      add\n      swap1\n      tag_23\n      swap2\n      swap1\n      tag_10\n      jump\t// in\n    tag_23:\n      tag_24\n      jump\t// in\n    tag_22:\n      mload(0x40)\n      tag_25\n      swap2\n      swap1\n      tag_26\n      jump\t// in\n    tag_25:\n      mload(0x40)\n      dup1\n      swap2\n      sub\n      swap1\n      return\n        /* \"DonationContract.sol\":964:2033  function createPost(... */\n    tag_5:\n      callvalue\n      dup1\n      iszero\n      tag_27\n      jumpi\n      0x00\n      dup1\n      revert\n    tag_27:\n      pop\n      tag_28\n      0x04\n      dup1\n      calldatasize\n      sub\n      dup2\n      add\n      swap1\n      tag_29\n      swap2\n      swap1\n      tag_30\n      jump\t// in\n    tag_29:\n      tag_31\n      jump\t// in\n    tag_28:\n      stop\n        /* \"DonationContract.sol\":2957:4785  function donate(... */\n    tag_6:\n      tag_32\n      0x04\n      dup1\n      calldatasize\n      sub\n      dup2\n      add\n      swap1\n      tag_33\n      swap2\n      swap1\n      tag_34\n      jump\t// in\n    tag_33:\n      tag_35\n      jump\t// in\n    tag_32:\n      stop\n        /* \"DonationContract.sol\":2644:2925  function getDonatorsOfPost(uint256 index, bool ongoing)... */\n    tag_11:\n        /* \"DonationContract.sol\":2748:2770  DonatorStruct[] memory */\n      0x60\n        /* \"DonationContract.sol\":2792:2799  ongoing */\n      dup2\n        /* \"DonationContract.sol\":2788:2867  if (ongoing) {... */\n      iszero\n      tag_37\n      jumpi\n        /* \"DonationContract.sol\":2823:2839  ongoingDonations */\n      0x0a\n        /* \"DonationContract.sol\":2840:2845  index */\n      dup4\n        /* \"DonationContract.sol\":2823:2846  ongoingDonations[index] */\n      dup2\n      sload\n      dup2\n      lt\n      tag_38\n      jumpi\n      tag_39\n      tag_40\n      jump\t// in\n    tag_39:\n    tag_38:\n      swap1\n      0x00\n      mstore\n      keccak256(0x00, 0x20)\n      swap1\n      0x07\n      mul\n      add\n        /* \"DonationContract.sol\":2823:2855  ongoingDonations[index].donators */\n      0x05\n      add\n        /* \"DonationContract.sol\":2816:2855  return ongoingDonations[index].donators */\n      dup1\n      sload\n      dup1\n      0x20\n      mul\n      0x20\n      add\n      mload(0x40)\n      swap1\n      dup2\n      add\n      0x40\n      mstore\n      dup1\n      swap3\n      swap2\n      swap1\n      dup2\n      dup2\n      mstore\n      0x20\n      add\n      0x00\n      swap1\n    tag_42:\n      dup3\n      dup3\n      lt\n      iszero\n      tag_43\n      jumpi\n      dup4\n      dup3\n      swap1\n      0x00\n      mstore\n      keccak256(0x00, 0x20)\n      swap1\n      0x02\n      mul\n      add\n      mload(0x40)\n      dup1\n      0x40\n      add\n      0x40\n      mstore\n      swap1\n      dup2\n      0x00\n      dup3\n      add\n      0x00\n      swap1\n      sload\n      swap1\n      0x0100\n      exp\n      swap1\n      div\n      0xffffffffffffffffffffffffffffffffffffffff\n      and\n      0xffffffffffffffffffffffffffffffffffffffff\n      and\n      0xffffffffffffffffffffffffffffffffffffffff\n      and\n      dup2\n      mstore\n      0x20\n      add\n      0x01\n      dup3\n      add\n      sload\n      dup2\n      mstore\n      pop\n      pop\n      dup2\n      mstore\n      0x20\n      add\n      swap1\n      0x01\n      add\n      swap1\n      jump(tag_42)\n    tag_43:\n      pop\n      pop\n      pop\n      pop\n      swap1\n      pop\n      jump(tag_36)\n        /* \"DonationContract.sol\":2788:2867  if (ongoing) {... */\n    tag_37:\n        /* \"DonationContract.sol\":2884:2901  finishedDonations */\n      0x09\n        /* \"DonationContract.sol\":2902:2907  index */\n      dup4\n        /* \"DonationContract.sol\":2884:2908  finishedDonations[index] */\n      dup2\n      sload\n      dup2\n      lt\n      tag_45\n      jumpi\n      tag_46\n      tag_40\n      jump\t// in\n    tag_46:\n    tag_45:\n      swap1\n      0x00\n      mstore\n      keccak256(0x00, 0x20)\n      swap1\n      0x07\n      mul\n      add\n        /* \"DonationContract.sol\":2884:2917  finishedDonations[index].donators */\n      0x05\n      add\n        /* \"DonationContract.sol\":2877:2917  return finishedDonations[index].donators */\n      dup1\n      sload\n      dup1\n      0x20\n      mul\n      0x20\n      add\n      mload(0x40)\n      swap1\n      dup2\n      add\n      0x40\n      mstore\n      dup1\n      swap3\n      swap2\n      swap1\n      dup2\n      dup2\n      mstore\n      0x20\n      add\n      0x00\n      swap1\n    tag_48:\n      dup3\n      dup3\n      lt\n      iszero\n      tag_49\n      jumpi\n      dup4\n      dup3\n      swap1\n      0x00\n      mstore\n      keccak256(0x00, 0x20)\n      swap1\n      0x02\n      mul\n      add\n      mload(0x40)\n      dup1\n      0x40\n      add\n      0x40\n      mstore\n      swap1\n      dup2\n      0x00\n      dup3\n      add\n      0x00\n      swap1\n      sload\n      swap1\n      0x0100\n      exp\n      swap1\n      div\n      0xffffffffffffffffffffffffffffffffffffffff\n      and\n      0xffffffffffffffffffffffffffffffffffffffff\n      and\n      0xffffffffffffffffffffffffffffffffffffffff\n      and\n      dup2\n      mstore\n      0x20\n      add\n      0x01\n      dup3\n      add\n      sload\n      dup2\n      mstore\n      pop\n      pop\n      dup2\n      mstore\n      0x20\n      add\n      swap1\n      0x01\n      add\n      swap1\n      jump(tag_48)\n    tag_49:\n      pop\n      pop\n      pop\n      pop\n      swap1\n      pop\n        /* \"DonationContract.sol\":2644:2925  function getDonatorsOfPost(uint256 index, bool ongoing)... */\n    tag_36:\n      swap3\n      swap2\n      pop\n      pop\n      jump\t// out\n        /* \"DonationContract.sol\":2070:2300  function getDonations(bool ongoing)... */\n    tag_18:\n        /* \"DonationContract.sol\":2154:2177  DonationStruct[] memory */\n      0x60\n        /* \"DonationContract.sol\":2199:2206  ongoing */\n      dup2\n        /* \"DonationContract.sol\":2195:2258  if (ongoing) {... */\n      iszero\n      tag_52\n      jumpi\n        /* \"DonationContract.sol\":2230:2246  ongoingDonations */\n      0x0a\n        /* \"DonationContract.sol\":2223:2246  return ongoingDonations */\n      dup1\n      sload\n      dup1\n      0x20\n      mul\n      0x20\n      add\n      mload(0x40)\n      swap1\n      dup2\n      add\n      0x40\n      mstore\n      dup1\n      swap3\n      swap2\n      swap1\n      dup2\n      dup2\n      mstore\n      0x20\n      add\n      0x00\n      swap1\n    tag_53:\n      dup3\n      dup3\n      lt\n      iszero\n      tag_54\n      jumpi\n      dup4\n      dup3\n      swap1\n      0x00\n      mstore\n      keccak256(0x00, 0x20)\n      swap1\n      0x07\n      mul\n      add\n      mload(0x40)\n      dup1\n      0xe0\n      add\n      0x40\n      mstore\n      swap1\n      dup2\n      0x00\n      dup3\n      add\n      0x00\n      swap1\n      sload\n      swap1\n      0x0100\n      exp\n      swap1\n      div\n      0xffffffffffffffffffffffffffffffffffffffff\n      and\n      0xffffffffffffffffffffffffffffffffffffffff\n      and\n      0xffffffffffffffffffffffffffffffffffffffff\n      and\n      dup2\n      mstore\n      0x20\n      add\n      0x01\n      dup3\n      add\n      dup1\n      sload\n      tag_56\n      swap1\n      tag_57\n      jump\t// in\n    tag_56:\n      dup1\n      0x1f\n      add\n      0x20\n      dup1\n      swap2\n      div\n      mul\n      0x20\n      add\n      mload(0x40)\n      swap1\n      dup2\n      add\n      0x40\n      mstore\n      dup1\n      swap3\n      swap2\n      swap1\n      dup2\n      dup2\n      mstore\n      0x20\n      add\n      dup3\n      dup1\n      sload\n      tag_58\n      swap1\n      tag_57\n      jump\t// in\n    tag_58:\n      dup1\n      iszero\n      tag_59\n      jumpi\n      dup1\n      0x1f\n      lt\n      tag_60\n      jumpi\n      0x0100\n      dup1\n      dup4\n      sload\n      div\n      mul\n      dup4\n      mstore\n      swap2\n      0x20\n      add\n      swap2\n      jump(tag_59)\n    tag_60:\n      dup3\n      add\n      swap2\n      swap1\n      0x00\n      mstore\n      keccak256(0x00, 0x20)\n      swap1\n    tag_61:\n      dup2\n      sload\n      dup2\n      mstore\n      swap1\n      0x01\n      add\n      swap1\n      0x20\n      add\n      dup1\n      dup4\n      gt\n      tag_61\n      jumpi\n      dup3\n      swap1\n      sub\n      0x1f\n      and\n      dup3\n      add\n      swap2\n    tag_59:\n      pop\n      pop\n      pop\n      pop\n      pop\n      dup2\n      mstore\n      0x20\n      add\n      0x02\n      dup3\n      add\n      dup1\n      sload\n      tag_62\n      swap1\n      tag_57\n      jump\t// in\n    tag_62:\n      dup1\n      0x1f\n      add\n      0x20\n      dup1\n      swap2\n      div\n      mul\n      0x20\n      add\n      mload(0x40)\n      swap1\n      dup2\n      add\n      0x40\n      mstore\n      dup1\n      swap3\n      swap2\n      swap1\n      dup2\n      dup2\n      mstore\n      0x20\n      add\n      dup3\n      dup1\n      sload\n      tag_63\n      swap1\n      tag_57\n      jump\t// in\n    tag_63:\n      dup1\n      iszero\n      tag_64\n      jumpi\n      dup1\n      0x1f\n      lt\n      tag_65\n      jumpi\n      0x0100\n      dup1\n      dup4\n      sload\n      div\n      mul\n      dup4\n      mstore\n      swap2\n      0x20\n      add\n      swap2\n      jump(tag_64)\n    tag_65:\n      dup3\n      add\n      swap2\n      swap1\n      0x00\n      mstore\n      keccak256(0x00, 0x20)\n      swap1\n    tag_66:\n      dup2\n      sload\n      dup2\n      mstore\n      swap1\n      0x01\n      add\n      swap1\n      0x20\n      add\n      dup1\n      dup4\n      gt\n      tag_66\n      jumpi\n      dup3\n      swap1\n      sub\n      0x1f\n      and\n      dup3\n      add\n      swap2\n    tag_64:\n      pop\n      pop\n      pop\n      pop\n      pop\n      dup2\n      mstore\n      0x20\n      add\n      0x03\n      dup3\n      add\n      sload\n      dup2\n      mstore\n      0x20\n      add\n      0x04\n      dup3\n      add\n      sload\n      dup2\n      mstore\n      0x20\n      add\n      0x05\n      dup3\n      add\n      dup1\n      sload\n      dup1\n      0x20\n      mul\n      0x20\n      add\n      mload(0x40)\n      swap1\n      dup2\n      add\n      0x40\n      mstore\n      dup1\n      swap3\n      swap2\n      swap1\n      dup2\n      dup2\n      mstore\n      0x20\n      add\n      0x00\n      swap1\n    tag_67:\n      dup3\n      dup3\n      lt\n      iszero\n      tag_68\n      jumpi\n      dup4\n      dup3\n      swap1\n      0x00\n      mstore\n      keccak256(0x00, 0x20)\n      swap1\n      0x02\n      mul\n      add\n      mload(0x40)\n      dup1\n      0x40\n      add\n      0x40\n      mstore\n      swap1\n      dup2\n      0x00\n      dup3\n      add\n      0x00\n      swap1\n      sload\n      swap1\n      0x0100\n      exp\n      swap1\n      div\n      0xffffffffffffffffffffffffffffffffffffffff\n      and\n      0xffffffffffffffffffffffffffffffffffffffff\n      and\n      0xffffffffffffffffffffffffffffffffffffffff\n      and\n      dup2\n      mstore\n      0x20\n      add\n      0x01\n      dup3\n      add\n      sload\n      dup2\n      mstore\n      pop\n      pop\n      dup2\n      mstore\n      0x20\n      add\n      swap1\n      0x01\n      add\n      swap1\n      jump(tag_67)\n    tag_68:\n      pop\n      pop\n      pop\n      pop\n      dup2\n      mstore\n      0x20\n      add\n      0x06\n      dup3\n      add\n      sload\n      dup2\n      mstore\n      pop\n      pop\n      dup2\n      mstore\n      0x20\n      add\n      swap1\n      0x01\n      add\n      swap1\n      jump(tag_53)\n    tag_54:\n      pop\n      pop\n      pop\n      pop\n      swap1\n      pop\n      jump(tag_51)\n        /* \"DonationContract.sol\":2195:2258  if (ongoing) {... */\n    tag_52:\n        /* \"DonationContract.sol\":2275:2292  finishedDonations */\n      0x09\n        /* \"DonationContract.sol\":2268:2292  return finishedDonations */\n      dup1\n      sload\n      dup1\n      0x20\n      mul\n      0x20\n      add\n      mload(0x40)\n      swap1\n      dup2\n      add\n      0x40\n      mstore\n      dup1\n      swap3\n      swap2\n      swap1\n      dup2\n      dup2\n      mstore\n      0x20\n      add\n      0x00\n      swap1\n    tag_70:\n      dup3\n      dup3\n      lt\n      iszero\n      tag_71\n      jumpi\n      dup4\n      dup3\n      swap1\n      0x00\n      mstore\n      keccak256(0x00, 0x20)\n      swap1\n      0x07\n      mul\n      add\n      mload(0x40)\n      dup1\n      0xe0\n      add\n      0x40\n      mstore\n      swap1\n      dup2\n      0x00\n      dup3\n      add\n      0x00\n      swap1\n      sload\n      swap1\n      0x0100\n      exp\n      swap1\n      div\n      0xffffffffffffffffffffffffffffffffffffffff\n      and\n      0xffffffffffffffffffffffffffffffffffffffff\n      and\n      0xffffffffffffffffffffffffffffffffffffffff\n      and\n      dup2\n      mstore\n      0x20\n      add\n      0x01\n      dup3\n      add\n      dup1\n      sload\n      tag_73\n      swap1\n      tag_57\n      jump\t// in\n    tag_73:\n      dup1\n      0x1f\n      add\n      0x20\n      dup1\n      swap2\n      div\n      mul\n      0x20\n      add\n      mload(0x40)\n      swap1\n      dup2\n      add\n      0x40\n      mstore\n      dup1\n      swap3\n      swap2\n      swap1\n      dup2\n      dup2\n      mstore\n      0x20\n      add\n      dup3\n      dup1\n      sload\n      tag_74\n      swap1\n      tag_57\n      jump\t// in\n    tag_74:\n      dup1\n      iszero\n      tag_75\n      jumpi\n      dup1\n      0x1f\n      lt\n      tag_76\n      jumpi\n      0x0100\n      dup1\n      dup4\n      sload\n      div\n      mul\n      dup4\n      mstore\n      swap2\n      0x20\n      add\n      swap2\n      jump(tag_75)\n    tag_76:\n      dup3\n      add\n      swap2\n      swap1\n      0x00\n      mstore\n      keccak256(0x00, 0x20)\n      swap1\n    tag_77:\n      dup2\n      sload\n      dup2\n      mstore\n      swap1\n      0x01\n      add\n      swap1\n      0x20\n      add\n      dup1\n      dup4\n      gt\n      tag_77\n      jumpi\n      dup3\n      swap1\n      sub\n      0x1f\n      and\n      dup3\n      add\n      swap2\n    tag_75:\n      pop\n      pop\n      pop\n      pop\n      pop\n      dup2\n      mstore\n      0x20\n      add\n      0x02\n      dup3\n      add\n      dup1\n      sload\n      tag_78\n      swap1\n      tag_57\n      jump\t// in\n    tag_78:\n      dup1\n      0x1f\n      add\n      0x20\n      dup1\n      swap2\n      div\n      mul\n      0x20\n      add\n      mload(0x40)\n      swap1\n      dup2\n      add\n      0x40\n      mstore\n      dup1\n      swap3\n      swap2\n      swap1\n      dup2\n      dup2\n      mstore\n      0x20\n      add\n      dup3\n      dup1\n      sload\n      tag_79\n      swap1\n      tag_57\n      jump\t// in\n    tag_79:\n      dup1\n      iszero\n      tag_80\n      jumpi\n      dup1\n      0x1f\n      lt\n      tag_81\n      jumpi\n      0x0100\n      dup1\n      dup4\n      sload\n      div\n      mul\n      dup4\n      mstore\n      swap2\n      0x20\n      add\n      swap2\n      jump(tag_80)\n    tag_81:\n      dup3\n      add\n      swap2\n      swap1\n      0x00\n      mstore\n      keccak256(0x00, 0x20)\n      swap1\n    tag_82:\n      dup2\n      sload\n      dup2\n      mstore\n      swap1\n      0x01\n      add\n      swap1\n      0x20\n      add\n      dup1\n      dup4\n      gt\n      tag_82\n      jumpi\n      dup3\n      swap1\n      sub\n      0x1f\n      and\n      dup3\n      add\n      swap2\n    tag_80:\n      pop\n      pop\n      pop\n      pop\n      pop\n      dup2\n      mstore\n      0x20\n      add\n      0x03\n      dup3\n      add\n      sload\n      dup2\n      mstore\n      0x20\n      add\n      0x04\n      dup3\n      add\n      sload\n      dup2\n      mstore\n      0x20\n      add\n      0x05\n      dup3\n      add\n      dup1\n      sload\n      dup1\n      0x20\n      mul\n      0x20\n      add\n      mload(0x40)\n      swap1\n      dup2\n      add\n      0x40\n      mstore\n      dup1\n      swap3\n      swap2\n      swap1\n      dup2\n      dup2\n      mstore\n      0x20\n      add\n      0x00\n      swap1\n    tag_83:\n      dup3\n      dup3\n      lt\n      iszero\n      tag_84\n      jumpi\n      dup4\n      dup3\n      swap1\n      0x00\n      mstore\n      keccak256(0x00, 0x20)\n      swap1\n      0x02\n      mul\n      add\n      mload(0x40)\n      dup1\n      0x40\n      add\n      0x40\n      mstore\n      swap1\n      dup2\n      0x00\n      dup3\n      add\n      0x00\n      swap1\n      sload\n      swap1\n      0x0100\n      exp\n      swap1\n      div\n      0xffffffffffffffffffffffffffffffffffffffff\n      and\n      0xffffffffffffffffffffffffffffffffffffffff\n      and\n      0xffffffffffffffffffffffffffffffffffffffff\n      and\n      dup2\n      mstore\n      0x20\n      add\n      0x01\n      dup3\n      add\n      sload\n      dup2\n      mstore\n      pop\n      pop\n      dup2\n      mstore\n      0x20\n      add\n      swap1\n      0x01\n      add\n      swap1\n      jump(tag_83)\n    tag_84:\n      pop\n      pop\n      pop\n      pop\n      dup2\n      mstore\n      0x20\n      add\n      0x06\n      dup3\n      add\n      sload\n      dup2\n      mstore\n      pop\n      pop\n      dup2\n      mstore\n      0x20\n      add\n      swap1\n      0x01\n      add\n      swap1\n      jump(tag_70)\n    tag_71:\n      pop\n      pop\n      pop\n      pop\n      swap1\n      pop\n        /* \"DonationContract.sol\":2070:2300  function getDonations(bool ongoing)... */\n    tag_51:\n      swap2\n      swap1\n      pop\n      jump\t// out\n        /* \"DonationContract.sol\":2350:2612  function getSingleDonation(uint256 index, bool ongoing)... */\n    tag_24:\n        /* \"DonationContract.sol\":2454:2475  DonationStruct memory */\n      tag_86\n      tag_87\n      jump\t// in\n    tag_86:\n        /* \"DonationContract.sol\":2497:2504  ongoing */\n      dup2\n        /* \"DonationContract.sol\":2493:2563  if (ongoing) {... */\n      iszero\n      tag_89\n      jumpi\n        /* \"DonationContract.sol\":2528:2544  ongoingDonations */\n      0x0a\n        /* \"DonationContract.sol\":2545:2550  index */\n      dup4\n        /* \"DonationContract.sol\":2528:2551  ongoingDonations[index] */\n      dup2\n      sload\n      dup2\n      lt\n      tag_90\n      jumpi\n      tag_91\n      tag_40\n      jump\t// in\n    tag_91:\n    tag_90:\n      swap1\n      0x00\n      mstore\n      keccak256(0x00, 0x20)\n      swap1\n      0x07\n      mul\n      add\n        /* \"DonationContract.sol\":2521:2551  return ongoingDonations[index] */\n      mload(0x40)\n      dup1\n      0xe0\n      add\n      0x40\n      mstore\n      swap1\n      dup2\n      0x00\n      dup3\n      add\n      0x00\n      swap1\n      sload\n      swap1\n      0x0100\n      exp\n      swap1\n      div\n      0xffffffffffffffffffffffffffffffffffffffff\n      and\n      0xffffffffffffffffffffffffffffffffffffffff\n      and\n      0xffffffffffffffffffffffffffffffffffffffff\n      and\n      dup2\n      mstore\n      0x20\n      add\n      0x01\n      dup3\n      add\n      dup1\n      sload\n      tag_93\n      swap1\n      tag_57\n      jump\t// in\n    tag_93:\n      dup1\n      0x1f\n      add\n      0x20\n      dup1\n      swap2\n      div\n      mul\n      0x20\n      add\n      mload(0x40)\n      swap1\n      dup2\n      add\n      0x40\n      mstore\n      dup1\n      swap3\n      swap2\n      swap1\n      dup2\n      dup2\n      mstore\n      0x20\n      add\n      dup3\n      dup1\n      sload\n      tag_94\n      swap1\n      tag_57\n      jump\t// in\n    tag_94:\n      dup1\n      iszero\n      tag_95\n      jumpi\n      dup1\n      0x1f\n      lt\n      tag_96\n      jumpi\n      0x0100\n      dup1\n      dup4\n      sload\n      div\n      mul\n      dup4\n      mstore\n      swap2\n      0x20\n      add\n      swap2\n      jump(tag_95)\n    tag_96:\n      dup3\n      add\n      swap2\n      swap1\n      0x00\n      mstore\n      keccak256(0x00, 0x20)\n      swap1\n    tag_97:\n      dup2\n      sload\n      dup2\n      mstore\n      swap1\n      0x01\n      add\n      swap1\n      0x20\n      add\n      dup1\n      dup4\n      gt\n      tag_97\n      jumpi\n      dup3\n      swap1\n      sub\n      0x1f\n      and\n      dup3\n      add\n      swap2\n    tag_95:\n      pop\n      pop\n      pop\n      pop\n      pop\n      dup2\n      mstore\n      0x20\n      add\n      0x02\n      dup3\n      add\n      dup1\n      sload\n      tag_98\n      swap1\n      tag_57\n      jump\t// in\n    tag_98:\n      dup1\n      0x1f\n      add\n      0x20\n      dup1\n      swap2\n      div\n      mul\n      0x20\n      add\n      mload(0x40)\n      swap1\n      dup2\n      add\n      0x40\n      mstore\n      dup1\n      swap3\n      swap2\n      swap1\n      dup2\n      dup2\n      mstore\n      0x20\n      add\n      dup3\n      dup1\n      sload\n      tag_99\n      swap1\n      tag_57\n      jump\t// in\n    tag_99:\n      dup1\n      iszero\n      tag_100\n      jumpi\n      dup1\n      0x1f\n      lt\n      tag_101\n      jumpi\n      0x0100\n      dup1\n      dup4\n      sload\n      div\n      mul\n      dup4\n      mstore\n      swap2\n      0x20\n      add\n      swap2\n      jump(tag_100)\n    tag_101:\n      dup3\n      add\n      swap2\n      swap1\n      0x00\n      mstore\n      keccak256(0x00, 0x20)\n      swap1\n    tag_102:\n      dup2\n      sload\n      dup2\n      mstore\n      swap1\n      0x01\n      add\n      swap1\n      0x20\n      add\n      dup1\n      dup4\n      gt\n      tag_102\n      jumpi\n      dup3\n      swap1\n      sub\n      0x1f\n      and\n      dup3\n      add\n      swap2\n    tag_100:\n      pop\n      pop\n      pop\n      pop\n      pop\n      dup2\n      mstore\n      0x20\n      add\n      0x03\n      dup3\n      add\n      sload\n      dup2\n      mstore\n      0x20\n      add\n      0x04\n      dup3\n      add\n      sload\n      dup2\n      mstore\n      0x20\n      add\n      0x05\n      dup3\n      add\n      dup1\n      sload\n      dup1\n      0x20\n      mul\n      0x20\n      add\n      mload(0x40)\n      swap1\n      dup2\n      add\n      0x40\n      mstore\n      dup1\n      swap3\n      swap2\n      swap1\n      dup2\n      dup2\n      mstore\n      0x20\n      add\n      0x00\n      swap1\n    tag_103:\n      dup3\n      dup3\n      lt\n      iszero\n      tag_104\n      jumpi\n      dup4\n      dup3\n      swap1\n      0x00\n      mstore\n      keccak256(0x00, 0x20)\n      swap1\n      0x02\n      mul\n      add\n      mload(0x40)\n      dup1\n      0x40\n      add\n      0x40\n      mstore\n      swap1\n      dup2\n      0x00\n      dup3\n      add\n      0x00\n      swap1\n      sload\n      swap1\n      0x0100\n      exp\n      swap1\n      div\n      0xffffffffffffffffffffffffffffffffffffffff\n      and\n      0xffffffffffffffffffffffffffffffffffffffff\n      and\n      0xffffffffffffffffffffffffffffffffffffffff\n      and\n      dup2\n      mstore\n      0x20\n      add\n      0x01\n      dup3\n      add\n      sload\n      dup2\n      mstore\n      pop\n      pop\n      dup2\n      mstore\n      0x20\n      add\n      swap1\n      0x01\n      add\n      swap1\n      jump(tag_103)\n    tag_104:\n      pop\n      pop\n      pop\n      pop\n      dup2\n      mstore\n      0x20\n      add\n      0x06\n      dup3\n      add\n      sload\n      dup2\n      mstore\n      pop\n      pop\n      swap1\n      pop\n      jump(tag_88)\n        /* \"DonationContract.sol\":2493:2563  if (ongoing) {... */\n    tag_89:\n        /* \"DonationContract.sol\":2580:2597  finishedDonations */\n      0x09\n        /* \"DonationContract.sol\":2598:2603  index */\n      dup4\n        /* \"DonationContract.sol\":2580:2604  finishedDonations[index] */\n      dup2\n      sload\n      dup2\n      lt\n      tag_106\n      jumpi\n      tag_107\n      tag_40\n      jump\t// in\n    tag_107:\n    tag_106:\n      swap1\n      0x00\n      mstore\n      keccak256(0x00, 0x20)\n      swap1\n      0x07\n      mul\n      add\n        /* \"DonationContract.sol\":2573:2604  return finishedDonations[index] */\n      mload(0x40)\n      dup1\n      0xe0\n      add\n      0x40\n      mstore\n      swap1\n      dup2\n      0x00\n      dup3\n      add\n      0x00\n      swap1\n      sload\n      swap1\n      0x0100\n      exp\n      swap1\n      div\n      0xffffffffffffffffffffffffffffffffffffffff\n      and\n      0xffffffffffffffffffffffffffffffffffffffff\n      and\n      0xffffffffffffffffffffffffffffffffffffffff\n      and\n      dup2\n      mstore\n      0x20\n      add\n      0x01\n      dup3\n      add\n      dup1\n      sload\n      tag_109\n      swap1\n      tag_57\n      jump\t// in\n    tag_109:\n      dup1\n      0x1f\n      add\n      0x20\n      dup1\n      swap2\n      div\n      mul\n      0x20\n      add\n      mload(0x40)\n      swap1\n      dup2\n      add\n      0x40\n      mstore\n      dup1\n      swap3\n      swap2\n      swap1\n      dup2\n      dup2\n      mstore\n      0x20\n      add\n      dup3\n      dup1\n      sload\n      tag_110\n      swap1\n      tag_57\n      jump\t// in\n    tag_110:\n      dup1\n      iszero\n      tag_111\n      jumpi\n      dup1\n      0x1f\n      lt\n      tag_112\n      jumpi\n      0x0100\n      dup1\n      dup4\n      sload\n      div\n      mul\n      dup4\n      mstore\n      swap2\n      0x20\n      add\n      swap2\n      jump(tag_111)\n    tag_112:\n      dup3\n      add\n      swap2\n      swap1\n      0x00\n      mstore\n      keccak256(0x00, 0x20)\n      swap1\n    tag_113:\n      dup2\n      sload\n      dup2\n      mstore\n      swap1\n      0x01\n      add\n      swap1\n      0x20\n      add\n      dup1\n      dup4\n      gt\n      tag_113\n      jumpi\n      dup3\n      swap1\n      sub\n      0x1f\n      and\n      dup3\n      add\n      swap2\n    tag_111:\n      pop\n      pop\n      pop\n      pop\n      pop\n      dup2\n      mstore\n      0x20\n      add\n      0x02\n      dup3\n      add\n      dup1\n      sload\n      tag_114\n      swap1\n      tag_57\n      jump\t// in\n    tag_114:\n      dup1\n      0x1f\n      add\n      0x20\n      dup1\n      swap2\n      div\n      mul\n      0x20\n      add\n      mload(0x40)\n      swap1\n      dup2\n      add\n      0x40\n      mstore\n      dup1\n      swap3\n      swap2\n      swap1\n      dup2\n      dup2\n      mstore\n      0x20\n      add\n      dup3\n      dup1\n      sload\n      tag_115\n      swap1\n      tag_57\n      jump\t// in\n    tag_115:\n      dup1\n      iszero\n      tag_116\n      jumpi\n      dup1\n      0x1f\n      lt\n      tag_117\n      jumpi\n      0x0100\n      dup1\n      dup4\n      sload\n      div\n      mul\n      dup4\n      mstore\n      swap2\n      0x20\n      add\n      swap2\n      jump(tag_116)\n    tag_117:\n      dup3\n      add\n      swap2\n      swap1\n      0x00\n      mstore\n      keccak256(0x00, 0x20)\n      swap1\n    tag_118:\n      dup2\n      sload\n      dup2\n      mstore\n      swap1\n      0x01\n      add\n      swap1\n      0x20\n      add\n      dup1\n      dup4\n      gt\n      tag_118\n      jumpi\n      dup3\n      swap1\n      sub\n      0x1f\n      and\n      dup3\n      add\n      swap2\n    tag_116:\n      pop\n      pop\n      pop\n      pop\n      pop\n      dup2\n      mstore\n      0x20\n      add\n      0x03\n      dup3\n      add\n      sload\n      dup2\n      mstore\n      0x20\n      add\n      0x04\n      dup3\n      add\n      sload\n      dup2\n      mstore\n      0x20\n      add\n      0x05\n      dup3\n      add\n      dup1\n      sload\n      dup1\n      0x20\n      mul\n      0x20\n      add\n      mload(0x40)\n      swap1\n      dup2\n      add\n      0x40\n      mstore\n      dup1\n      swap3\n      swap2\n      swap1\n      dup2\n      dup2\n      mstore\n      0x20\n      add\n      0x00\n      swap1\n    tag_119:\n      dup3\n      dup3\n      lt\n      iszero\n      tag_120\n      jumpi\n      dup4\n      dup3\n      swap1\n      0x00\n      mstore\n      keccak256(0x00, 0x20)\n      swap1\n      0x02\n      mul\n      add\n      mload(0x40)\n      dup1\n      0x40\n      add\n      0x40\n      mstore\n      swap1\n      dup2\n      0x00\n      dup3\n      add\n      0x00\n      swap1\n      sload\n      swap1\n      0x0100\n      exp\n      swap1\n      div\n      0xffffffffffffffffffffffffffffffffffffffff\n      and\n      0xffffffffffffffffffffffffffffffffffffffff\n      and\n      0xffffffffffffffffffffffffffffffffffffffff\n      and\n      dup2\n      mstore\n      0x20\n      add\n      0x01\n      dup3\n      add\n      sload\n      dup2\n      mstore\n      pop\n      pop\n      dup2\n      mstore\n      0x20\n      add\n      swap1\n      0x01\n      add\n      swap1\n      jump(tag_119)\n    tag_120:\n      pop\n      pop\n      pop\n      pop\n      dup2\n      mstore\n      0x20\n      add\n      0x06\n      dup3\n      add\n      sload\n      dup2\n      mstore\n      pop\n      pop\n      swap1\n      pop\n        /* \"DonationContract.sol\":2350:2612  function getSingleDonation(uint256 index, bool ongoing)... */\n    tag_88:\n      swap3\n      swap2\n      pop\n      pop\n      jump\t// out\n        /* \"DonationContract.sol\":964:2033  function createPost(... */\n    tag_31:\n        /* \"DonationContract.sol\":1224:1225  0 */\n      0x00\n        /* \"DonationContract.sol\":1204:1220  _requestedAmount */\n      dup2\n        /* \"DonationContract.sol\":1204:1225  _requestedAmount != 0 */\n      sub\n        /* \"DonationContract.sol\":1196:1262  require(_requestedAmount != 0, \"Requested amount can not be zero\") */\n      tag_123\n      jumpi\n      mload(0x40)\n      0x08c379a000000000000000000000000000000000000000000000000000000000\n      dup2\n      mstore\n      0x04\n      add\n      tag_124\n      swap1\n      tag_125\n      jump\t// in\n    tag_124:\n      mload(0x40)\n      dup1\n      swap2\n      sub\n      swap1\n      revert\n    tag_123:\n        /* \"DonationContract.sol\":1343:1344  0 */\n      0x00\n        /* \"DonationContract.sol\":1322:1331  _postText */\n      dup4\n        /* \"DonationContract.sol\":1316:1339  bytes(_postText).length */\n      mload\n        /* \"DonationContract.sol\":1316:1344  bytes(_postText).length != 0 */\n      sub\n        /* \"DonationContract.sol\":1308:1374  require(bytes(_postText).length != 0, \"You have to add post text\") */\n      tag_126\n      jumpi\n      mload(0x40)\n      0x08c379a000000000000000000000000000000000000000000000000000000000\n      dup2\n      mstore\n      0x04\n      add\n      tag_127\n      swap1\n      tag_128\n      jump\t// in\n    tag_127:\n      mload(0x40)\n      dup1\n      swap2\n      sub\n      swap1\n      revert\n    tag_126:\n        /* \"DonationContract.sol\":1451:1463  _postCreator */\n      dup4\n        /* \"DonationContract.sol\":1416:1436  instanceOfPostStruct */\n      0x02\n        /* \"DonationContract.sol\":1416:1448  instanceOfPostStruct.postCreator */\n      0x00\n      add\n      0x00\n        /* \"DonationContract.sol\":1416:1463  instanceOfPostStruct.postCreator = _postCreator */\n      0x0100\n      exp\n      dup2\n      sload\n      dup2\n      0xffffffffffffffffffffffffffffffffffffffff\n      mul\n      not\n      and\n      swap1\n      dup4\n      0xffffffffffffffffffffffffffffffffffffffff\n      and\n      mul\n      or\n      swap1\n      sstore\n      pop\n        /* \"DonationContract.sol\":1506:1515  _postText */\n      dup3\n        /* \"DonationContract.sol\":1474:1494  instanceOfPostStruct */\n      0x02\n        /* \"DonationContract.sol\":1474:1503  instanceOfPostStruct.postText */\n      0x01\n      add\n        /* \"DonationContract.sol\":1474:1515  instanceOfPostStruct.postText = _postText */\n      swap1\n      dup2\n      tag_129\n      swap2\n      swap1\n      tag_130\n      jump\t// in\n    tag_129:\n      pop\n        /* \"DonationContract.sol\":1558:1567  _postDate */\n      dup2\n        /* \"DonationContract.sol\":1526:1546  instanceOfPostStruct */\n      0x02\n        /* \"DonationContract.sol\":1526:1555  instanceOfPostStruct.postDate */\n      dup1\n      add\n        /* \"DonationContract.sol\":1526:1567  instanceOfPostStruct.postDate = _postDate */\n      swap1\n      dup2\n      tag_131\n      swap2\n      swap1\n      tag_130\n      jump\t// in\n    tag_131:\n      pop\n        /* \"DonationContract.sol\":1617:1633  _requestedAmount */\n      dup1\n        /* \"DonationContract.sol\":1578:1598  instanceOfPostStruct */\n      0x02\n        /* \"DonationContract.sol\":1578:1614  instanceOfPostStruct.requestedAmount */\n      0x03\n      add\n        /* \"DonationContract.sol\":1578:1633  instanceOfPostStruct.requestedAmount = _requestedAmount */\n      dup2\n      swap1\n      sstore\n      pop\n        /* \"DonationContract.sol\":1712:1713  0 */\n      0x00\n        /* \"DonationContract.sol\":1674:1694  instanceOfPostStruct */\n      0x02\n        /* \"DonationContract.sol\":1674:1709  instanceOfPostStruct.receivedAmount */\n      0x04\n      add\n        /* \"DonationContract.sol\":1674:1713  instanceOfPostStruct.receivedAmount = 0 */\n      dup2\n      swap1\n      sstore\n      pop\n        /* \"DonationContract.sol\":1851:1863  ongoingIndex */\n      sload(0x0b)\n        /* \"DonationContract.sol\":1818:1838  instanceOfPostStruct */\n      0x02\n        /* \"DonationContract.sol\":1818:1848  instanceOfPostStruct.postIndex */\n      0x06\n      add\n        /* \"DonationContract.sol\":1818:1863  instanceOfPostStruct.postIndex = ongoingIndex */\n      dup2\n      swap1\n      sstore\n      pop\n        /* \"DonationContract.sol\":1916:1932  ongoingDonations */\n      0x0a\n        /* \"DonationContract.sol\":1938:1958  instanceOfPostStruct */\n      0x02\n        /* \"DonationContract.sol\":1916:1959  ongoingDonations.push(instanceOfPostStruct) */\n      swap1\n      dup1\n      0x01\n      dup2\n      sload\n      add\n      dup1\n      dup3\n      sstore\n      dup1\n      swap2\n      pop\n      pop\n      0x01\n      swap1\n      sub\n      swap1\n      0x00\n      mstore\n      keccak256(0x00, 0x20)\n      swap1\n      0x07\n      mul\n      add\n      0x00\n      swap1\n      swap2\n      swap1\n      swap2\n      swap1\n      swap2\n      pop\n      0x00\n      dup3\n      add\n      0x00\n      swap1\n      sload\n      swap1\n      0x0100\n      exp\n      swap1\n      div\n      0xffffffffffffffffffffffffffffffffffffffff\n      and\n      dup2\n      0x00\n      add\n      exp(0x0100, 0x00)\n      dup2\n      sload\n      dup2\n      0xffffffffffffffffffffffffffffffffffffffff\n      mul\n      not\n      and\n      swap1\n      dup4\n      0xffffffffffffffffffffffffffffffffffffffff\n      and\n      mul\n      or\n      swap1\n      sstore\n      pop\n      0x01\n      dup3\n      add\n      dup2\n      0x01\n      add\n      swap1\n      dup2\n      tag_133\n      swap2\n      swap1\n      tag_134\n      jump\t// in\n    tag_133:\n      pop\n      0x02\n      dup3\n      add\n      dup2\n      0x02\n      add\n      swap1\n      dup2\n      tag_135\n      swap2\n      swap1\n      tag_134\n      jump\t// in\n    tag_135:\n      pop\n      0x03\n      dup3\n      add\n      sload\n      dup2\n      0x03\n      add\n      sstore\n      0x04\n      dup3\n      add\n      sload\n      dup2\n      0x04\n      add\n      sstore\n      0x05\n      dup3\n      add\n      dup2\n      0x05\n      add\n      swap1\n      dup1\n      sload\n      tag_136\n      swap3\n      swap2\n      swap1\n      tag_137\n      jump\t// in\n    tag_136:\n      pop\n      0x06\n      dup3\n      add\n      sload\n      dup2\n      0x06\n      add\n      sstore\n      pop\n      pop\n        /* \"DonationContract.sol\":2011:2023  ongoingIndex */\n      0x0b\n      0x00\n        /* \"DonationContract.sol\":2011:2025  ongoingIndex++ */\n      dup2\n      sload\n      dup1\n      swap3\n      swap2\n      swap1\n      tag_138\n      swap1\n      tag_139\n      jump\t// in\n    tag_138:\n      swap2\n      swap1\n      pop\n      sstore\n      pop\n        /* \"DonationContract.sol\":964:2033  function createPost(... */\n      pop\n      pop\n      pop\n      pop\n      jump\t// out\n        /* \"DonationContract.sol\":2957:4785  function donate(... */\n    tag_35:\n        /* \"DonationContract.sol\":3250:3266  ongoingDonations */\n      0x0a\n        /* \"DonationContract.sol\":3267:3272  index */\n      dup4\n        /* \"DonationContract.sol\":3250:3273  ongoingDonations[index] */\n      dup2\n      sload\n      dup2\n      lt\n      tag_141\n      jumpi\n      tag_142\n      tag_40\n      jump\t// in\n    tag_142:\n    tag_141:\n      swap1\n      0x00\n      mstore\n      keccak256(0x00, 0x20)\n      swap1\n      0x07\n      mul\n      add\n        /* \"DonationContract.sol\":3250:3288  ongoingDonations[index].receivedAmount */\n      0x04\n      add\n      sload\n        /* \"DonationContract.sol\":3187:3203  ongoingDonations */\n      0x0a\n        /* \"DonationContract.sol\":3204:3209  index */\n      dup5\n        /* \"DonationContract.sol\":3187:3210  ongoingDonations[index] */\n      dup2\n      sload\n      dup2\n      lt\n      tag_144\n      jumpi\n      tag_145\n      tag_40\n      jump\t// in\n    tag_145:\n    tag_144:\n      swap1\n      0x00\n      mstore\n      keccak256(0x00, 0x20)\n      swap1\n      0x07\n      mul\n      add\n        /* \"DonationContract.sol\":3187:3226  ongoingDonations[index].requestedAmount */\n      0x03\n      add\n      sload\n        /* \"DonationContract.sol\":3187:3288  ongoingDonations[index].requestedAmount -... */\n      tag_147\n      swap2\n      swap1\n      tag_148\n      jump\t// in\n    tag_147:\n        /* \"DonationContract.sol\":3160:3166  amount */\n      dup3\n        /* \"DonationContract.sol\":3160:3288  amount <=... */\n      gt\n      iszero\n        /* \"DonationContract.sol\":3138:3334  require(... */\n      tag_149\n      jumpi\n      mload(0x40)\n      0x08c379a000000000000000000000000000000000000000000000000000000000\n      dup2\n      mstore\n      0x04\n      add\n      tag_150\n      swap1\n      tag_151\n      jump\t// in\n    tag_150:\n      mload(0x40)\n      dup1\n      swap2\n      sub\n      swap1\n      revert\n    tag_149:\n        /* \"DonationContract.sol\":3369:3378  bool sent */\n      0x00\n        /* \"DonationContract.sol\":3380:3397  bytes memory data */\n      dup1\n        /* \"DonationContract.sol\":3401:3417  ongoingDonations */\n      0x0a\n        /* \"DonationContract.sol\":3418:3423  index */\n      dup6\n        /* \"DonationContract.sol\":3401:3424  ongoingDonations[index] */\n      dup2\n      sload\n      dup2\n      lt\n      tag_152\n      jumpi\n      tag_153\n      tag_40\n      jump\t// in\n    tag_153:\n    tag_152:\n      swap1\n      0x00\n      mstore\n      keccak256(0x00, 0x20)\n      swap1\n      0x07\n      mul\n      add\n        /* \"DonationContract.sol\":3401:3450  ongoingDonations[index]... */\n      0x00\n      add\n      0x00\n      swap1\n      sload\n      swap1\n      0x0100\n      exp\n      swap1\n      div\n      0xffffffffffffffffffffffffffffffffffffffff\n      and\n        /* \"DonationContract.sol\":3401:3469  ongoingDonations[index]... */\n      0xffffffffffffffffffffffffffffffffffffffff\n      and\n        /* \"DonationContract.sol\":3486:3493  1 ether */\n      0x0de0b6b3a7640000\n        /* \"DonationContract.sol\":3477:3483  amount */\n      dup6\n        /* \"DonationContract.sol\":3477:3493  amount / 1 ether */\n      tag_155\n      swap2\n      swap1\n      tag_156\n      jump\t// in\n    tag_155:\n        /* \"DonationContract.sol\":3401:3498  ongoingDonations[index]... */\n      mload(0x40)\n      tag_157\n      swap1\n      tag_158\n      jump\t// in\n    tag_157:\n      0x00\n      mload(0x40)\n      dup1\n      dup4\n      sub\n      dup2\n      dup6\n      dup8\n      gas\n      call\n      swap3\n      pop\n      pop\n      pop\n      returndatasize\n      dup1\n      0x00\n      dup2\n      eq\n      tag_161\n      jumpi\n      mload(0x40)\n      swap2\n      pop\n      and(add(returndatasize, 0x3f), not(0x1f))\n      dup3\n      add\n      0x40\n      mstore\n      returndatasize\n      dup3\n      mstore\n      returndatasize\n      0x00\n      0x20\n      dup5\n      add\n      returndatacopy\n      jump(tag_160)\n    tag_161:\n      0x60\n      swap2\n      pop\n    tag_160:\n      pop\n        /* \"DonationContract.sol\":3368:3498  (bool sent, bytes memory data) = ongoingDonations[index]... */\n      swap2\n      pop\n      swap2\n      pop\n        /* \"DonationContract.sol\":3517:3521  sent */\n      dup2\n        /* \"DonationContract.sol\":3509:3546  require(sent, \"Failed to send Ether\") */\n      tag_162\n      jumpi\n      mload(0x40)\n      0x08c379a000000000000000000000000000000000000000000000000000000000\n      dup2\n      mstore\n      0x04\n      add\n      tag_163\n      swap1\n      tag_164\n      jump\t// in\n    tag_163:\n      mload(0x40)\n      dup1\n      swap2\n      sub\n      swap1\n      revert\n    tag_162:\n        /* \"DonationContract.sol\":3622:3636  donatorAddress */\n      dup3\n        /* \"DonationContract.sol\":3587:3604  instanceOfDonator */\n      0x00\n        /* \"DonationContract.sol\":3587:3619  instanceOfDonator.donatorAddress */\n      dup1\n      add\n      0x00\n        /* \"DonationContract.sol\":3587:3636  instanceOfDonator.donatorAddress = donatorAddress */\n      0x0100\n      exp\n      dup2\n      sload\n      dup2\n      0xffffffffffffffffffffffffffffffffffffffff\n      mul\n      not\n      and\n      swap1\n      dup4\n      0xffffffffffffffffffffffffffffffffffffffff\n      and\n      mul\n      or\n      swap1\n      sstore\n      pop\n        /* \"DonationContract.sol\":3690:3697  1 ether */\n      0x0de0b6b3a7640000\n        /* \"DonationContract.sol\":3681:3687  amount */\n      dup5\n        /* \"DonationContract.sol\":3681:3697  amount / 1 ether */\n      tag_165\n      swap2\n      swap1\n      tag_156\n      jump\t// in\n    tag_165:\n        /* \"DonationContract.sol\":3647:3664  instanceOfDonator */\n      0x00\n        /* \"DonationContract.sol\":3647:3678  instanceOfDonator.donatedAmount */\n      0x01\n      add\n        /* \"DonationContract.sol\":3647:3697  instanceOfDonator.donatedAmount = amount / 1 ether */\n      dup2\n      swap1\n      sstore\n      pop\n        /* \"DonationContract.sol\":3737:3753  ongoingDonations */\n      0x0a\n        /* \"DonationContract.sol\":3754:3759  index */\n      dup6\n        /* \"DonationContract.sol\":3737:3760  ongoingDonations[index] */\n      dup2\n      sload\n      dup2\n      lt\n      tag_166\n      jumpi\n      tag_167\n      tag_40\n      jump\t// in\n    tag_167:\n    tag_166:\n      swap1\n      0x00\n      mstore\n      keccak256(0x00, 0x20)\n      swap1\n      0x07\n      mul\n      add\n        /* \"DonationContract.sol\":3737:3769  ongoingDonations[index].donators */\n      0x05\n      add\n        /* \"DonationContract.sol\":3775:3792  instanceOfDonator */\n      0x00\n        /* \"DonationContract.sol\":3737:3793  ongoingDonations[index].donators.push(instanceOfDonator) */\n      swap1\n      dup1\n      0x01\n      dup2\n      sload\n      add\n      dup1\n      dup3\n      sstore\n      dup1\n      swap2\n      pop\n      pop\n      0x01\n      swap1\n      sub\n      swap1\n      0x00\n      mstore\n      keccak256(0x00, 0x20)\n      swap1\n      0x02\n      mul\n      add\n      0x00\n      swap1\n      swap2\n      swap1\n      swap2\n      swap1\n      swap2\n      pop\n      0x00\n      dup3\n      add\n      0x00\n      swap1\n      sload\n      swap1\n      0x0100\n      exp\n      swap1\n      div\n      0xffffffffffffffffffffffffffffffffffffffff\n      and\n      dup2\n      0x00\n      add\n      exp(0x0100, 0x00)\n      dup2\n      sload\n      dup2\n      0xffffffffffffffffffffffffffffffffffffffff\n      mul\n      not\n      and\n      swap1\n      dup4\n      0xffffffffffffffffffffffffffffffffffffffff\n      and\n      mul\n      or\n      swap1\n      sstore\n      pop\n      0x01\n      dup3\n      add\n      sload\n      dup2\n      0x01\n      add\n      sstore\n      pop\n      pop\n        /* \"DonationContract.sol\":3892:3899  1 ether */\n      0x0de0b6b3a7640000\n        /* \"DonationContract.sol\":3883:3889  amount */\n      dup5\n        /* \"DonationContract.sol\":3883:3899  amount / 1 ether */\n      tag_170\n      swap2\n      swap1\n      tag_156\n      jump\t// in\n    tag_170:\n        /* \"DonationContract.sol\":3841:3857  ongoingDonations */\n      0x0a\n        /* \"DonationContract.sol\":3858:3863  index */\n      dup7\n        /* \"DonationContract.sol\":3841:3864  ongoingDonations[index] */\n      dup2\n      sload\n      dup2\n      lt\n      tag_171\n      jumpi\n      tag_172\n      tag_40\n      jump\t// in\n    tag_172:\n    tag_171:\n      swap1\n      0x00\n      mstore\n      keccak256(0x00, 0x20)\n      swap1\n      0x07\n      mul\n      add\n        /* \"DonationContract.sol\":3841:3879  ongoingDonations[index].receivedAmount */\n      0x04\n      add\n      0x00\n        /* \"DonationContract.sol\":3841:3899  ongoingDonations[index].receivedAmount += amount / 1 ether */\n      dup3\n      dup3\n      sload\n      tag_174\n      swap2\n      swap1\n      tag_175\n      jump\t// in\n    tag_174:\n      swap3\n      pop\n      pop\n      dup2\n      swap1\n      sstore\n      pop\n        /* \"DonationContract.sol\":4071:4087  ongoingDonations */\n      0x0a\n        /* \"DonationContract.sol\":4088:4093  index */\n      dup6\n        /* \"DonationContract.sol\":4071:4094  ongoingDonations[index] */\n      dup2\n      sload\n      dup2\n      lt\n      tag_176\n      jumpi\n      tag_177\n      tag_40\n      jump\t// in\n    tag_177:\n    tag_176:\n      swap1\n      0x00\n      mstore\n      keccak256(0x00, 0x20)\n      swap1\n      0x07\n      mul\n      add\n        /* \"DonationContract.sol\":4071:4109  ongoingDonations[index].receivedAmount */\n      0x04\n      add\n      sload\n        /* \"DonationContract.sol\":4015:4031  ongoingDonations */\n      0x0a\n        /* \"DonationContract.sol\":4032:4037  index */\n      dup7\n        /* \"DonationContract.sol\":4015:4038  ongoingDonations[index] */\n      dup2\n      sload\n      dup2\n      lt\n      tag_179\n      jumpi\n      tag_180\n      tag_40\n      jump\t// in\n    tag_180:\n    tag_179:\n      swap1\n      0x00\n      mstore\n      keccak256(0x00, 0x20)\n      swap1\n      0x07\n      mul\n      add\n        /* \"DonationContract.sol\":4015:4054  ongoingDonations[index].requestedAmount */\n      0x03\n      add\n      sload\n        /* \"DonationContract.sol\":4015:4109  ongoingDonations[index].requestedAmount ==... */\n      sub\n        /* \"DonationContract.sol\":3997:4778  if (... */\n      tag_182\n      jumpi\n        /* \"DonationContract.sol\":4202:4215  finishedIndex */\n      sload(0x0c)\n        /* \"DonationContract.sol\":4166:4182  ongoingDonations */\n      0x0a\n        /* \"DonationContract.sol\":4183:4188  index */\n      dup7\n        /* \"DonationContract.sol\":4166:4189  ongoingDonations[index] */\n      dup2\n      sload\n      dup2\n      lt\n      tag_183\n      jumpi\n      tag_184\n      tag_40\n      jump\t// in\n    tag_184:\n    tag_183:\n      swap1\n      0x00\n      mstore\n      keccak256(0x00, 0x20)\n      swap1\n      0x07\n      mul\n      add\n        /* \"DonationContract.sol\":4166:4199  ongoingDonations[index].postIndex */\n      0x06\n      add\n        /* \"DonationContract.sol\":4166:4215  ongoingDonations[index].postIndex = finishedIndex */\n      dup2\n      swap1\n      sstore\n      pop\n        /* \"DonationContract.sol\":4268:4285  finishedDonations */\n      0x09\n        /* \"DonationContract.sol\":4291:4307  ongoingDonations */\n      0x0a\n        /* \"DonationContract.sol\":4308:4313  index */\n      dup7\n        /* \"DonationContract.sol\":4291:4314  ongoingDonations[index] */\n      dup2\n      sload\n      dup2\n      lt\n      tag_186\n      jumpi\n      tag_187\n      tag_40\n      jump\t// in\n    tag_187:\n    tag_186:\n      swap1\n      0x00\n      mstore\n      keccak256(0x00, 0x20)\n      swap1\n      0x07\n      mul\n      add\n        /* \"DonationContract.sol\":4268:4315  finishedDonations.push(ongoingDonations[index]) */\n      swap1\n      dup1\n      0x01\n      dup2\n      sload\n      add\n      dup1\n      dup3\n      sstore\n      dup1\n      swap2\n      pop\n      pop\n      0x01\n      swap1\n      sub\n      swap1\n      0x00\n      mstore\n      keccak256(0x00, 0x20)\n      swap1\n      0x07\n      mul\n      add\n      0x00\n      swap1\n      swap2\n      swap1\n      swap2\n      swap1\n      swap2\n      pop\n      0x00\n      dup3\n      add\n      0x00\n      swap1\n      sload\n      swap1\n      0x0100\n      exp\n      swap1\n      div\n      0xffffffffffffffffffffffffffffffffffffffff\n      and\n      dup2\n      0x00\n      add\n      exp(0x0100, 0x00)\n      dup2\n      sload\n      dup2\n      0xffffffffffffffffffffffffffffffffffffffff\n      mul\n      not\n      and\n      swap1\n      dup4\n      0xffffffffffffffffffffffffffffffffffffffff\n      and\n      mul\n      or\n      swap1\n      sstore\n      pop\n      0x01\n      dup3\n      add\n      dup2\n      0x01\n      add\n      swap1\n      dup2\n      tag_190\n      swap2\n      swap1\n      tag_134\n      jump\t// in\n    tag_190:\n      pop\n      0x02\n      dup3\n      add\n      dup2\n      0x02\n      add\n      swap1\n      dup2\n      tag_191\n      swap2\n      swap1\n      tag_134\n      jump\t// in\n    tag_191:\n      pop\n      0x03\n      dup3\n      add\n      sload\n      dup2\n      0x03\n      add\n      sstore\n      0x04\n      dup3\n      add\n      sload\n      dup2\n      0x04\n      add\n      sstore\n      0x05\n      dup3\n      add\n      dup2\n      0x05\n      add\n      swap1\n      dup1\n      sload\n      tag_192\n      swap3\n      swap2\n      swap1\n      tag_137\n      jump\t// in\n    tag_192:\n      pop\n      0x06\n      dup3\n      add\n      sload\n      dup2\n      0x06\n      add\n      sstore\n      pop\n      pop\n        /* \"DonationContract.sol\":4374:4387  finishedIndex */\n      0x0c\n      0x00\n        /* \"DonationContract.sol\":4374:4389  finishedIndex++ */\n      dup2\n      sload\n      dup1\n      swap3\n      swap2\n      swap1\n      tag_193\n      swap1\n      tag_139\n      jump\t// in\n    tag_193:\n      swap2\n      swap1\n      pop\n      sstore\n      pop\n        /* \"DonationContract.sol\":4482:4498  ongoingDonations */\n      0x0a\n        /* \"DonationContract.sol\":4543:4544  1 */\n      0x01\n        /* \"DonationContract.sol\":4517:4533  ongoingDonations */\n      0x0a\n        /* \"DonationContract.sol\":4517:4540  ongoingDonations.length */\n      dup1\n      sload\n      swap1\n      pop\n        /* \"DonationContract.sol\":4517:4544  ongoingDonations.length - 1 */\n      tag_194\n      swap2\n      swap1\n      tag_148\n      jump\t// in\n    tag_194:\n        /* \"DonationContract.sol\":4482:4559  ongoingDonations[... */\n      dup2\n      sload\n      dup2\n      lt\n      tag_195\n      jumpi\n      tag_196\n      tag_40\n      jump\t// in\n    tag_196:\n    tag_195:\n      swap1\n      0x00\n      mstore\n      keccak256(0x00, 0x20)\n      swap1\n      0x07\n      mul\n      add\n        /* \"DonationContract.sol\":4456:4472  ongoingDonations */\n      0x0a\n        /* \"DonationContract.sol\":4473:4478  index */\n      dup7\n        /* \"DonationContract.sol\":4456:4479  ongoingDonations[index] */\n      dup2\n      sload\n      dup2\n      lt\n      tag_198\n      jumpi\n      tag_199\n      tag_40\n      jump\t// in\n    tag_199:\n    tag_198:\n      swap1\n      0x00\n      mstore\n      keccak256(0x00, 0x20)\n      swap1\n      0x07\n      mul\n      add\n        /* \"DonationContract.sol\":4456:4559  ongoingDonations[index] = ongoingDonations[... */\n      0x00\n      dup3\n      add\n      0x00\n      swap1\n      sload\n      swap1\n      0x0100\n      exp\n      swap1\n      div\n      0xffffffffffffffffffffffffffffffffffffffff\n      and\n      dup2\n      0x00\n      add\n      exp(0x0100, 0x00)\n      dup2\n      sload\n      dup2\n      0xffffffffffffffffffffffffffffffffffffffff\n      mul\n      not\n      and\n      swap1\n      dup4\n      0xffffffffffffffffffffffffffffffffffffffff\n      and\n      mul\n      or\n      swap1\n      sstore\n      pop\n      0x01\n      dup3\n      add\n      dup2\n      0x01\n      add\n      swap1\n      dup2\n      tag_201\n      swap2\n      swap1\n      tag_134\n      jump\t// in\n    tag_201:\n      pop\n      0x02\n      dup3\n      add\n      dup2\n      0x02\n      add\n      swap1\n      dup2\n      tag_202\n      swap2\n      swap1\n      tag_134\n      jump\t// in\n    tag_202:\n      pop\n      0x03\n      dup3\n      add\n      sload\n      dup2\n      0x03\n      add\n      sstore\n      0x04\n      dup3\n      add\n      sload\n      dup2\n      0x04\n      add\n      sstore\n      0x05\n      dup3\n      add\n      dup2\n      0x05\n      add\n      swap1\n      dup1\n      sload\n      tag_203\n      swap3\n      swap2\n      swap1\n      tag_137\n      jump\t// in\n    tag_203:\n      pop\n      0x06\n      dup3\n      add\n      sload\n      dup2\n      0x06\n      add\n      sstore\n      swap1\n      pop\n      pop\n        /* \"DonationContract.sol\":4574:4590  ongoingDonations */\n      0x0a\n        /* \"DonationContract.sol\":4574:4596  ongoingDonations.pop() */\n      dup1\n      sload\n      dup1\n      tag_204\n      jumpi\n      tag_205\n      tag_206\n      jump\t// in\n    tag_205:\n    tag_204:\n      0x01\n      swap1\n      sub\n      dup2\n      dup2\n      swap1\n      0x00\n      mstore\n      keccak256(0x00, 0x20)\n      swap1\n      0x07\n      mul\n      add\n      0x00\n      dup1\n      dup3\n      add\n      exp(0x0100, 0x00)\n      dup2\n      sload\n      swap1\n      0xffffffffffffffffffffffffffffffffffffffff\n      mul\n      not\n      and\n      swap1\n      sstore\n      0x01\n      dup3\n      add\n      0x00\n      tag_208\n      swap2\n      swap1\n      tag_209\n      jump\t// in\n    tag_208:\n      0x02\n      dup3\n      add\n      0x00\n      tag_210\n      swap2\n      swap1\n      tag_209\n      jump\t// in\n    tag_210:\n      0x03\n      dup3\n      add\n      0x00\n      swap1\n      sstore\n      0x04\n      dup3\n      add\n      0x00\n      swap1\n      sstore\n      0x05\n      dup3\n      add\n      0x00\n      tag_211\n      swap2\n      swap1\n      tag_212\n      jump\t// in\n    tag_211:\n      0x06\n      dup3\n      add\n      0x00\n      swap1\n      sstore\n      pop\n      pop\n      swap1\n      sstore\n        /* \"DonationContract.sol\":3997:4778  if (... */\n    tag_182:\n        /* \"DonationContract.sol\":3077:4785  {... */\n      pop\n      pop\n        /* \"DonationContract.sol\":2957:4785  function donate(... */\n      pop\n      pop\n      pop\n      jump\t// out\n    tag_87:\n      mload(0x40)\n      dup1\n      0xe0\n      add\n      0x40\n      mstore\n      dup1\n      and(0xffffffffffffffffffffffffffffffffffffffff, 0x00)\n      dup2\n      mstore\n      0x20\n      add\n      0x60\n      dup2\n      mstore\n      0x20\n      add\n      0x60\n      dup2\n      mstore\n      0x20\n      add\n      0x00\n      dup2\n      mstore\n      0x20\n      add\n      0x00\n      dup2\n      mstore\n      0x20\n      add\n      0x60\n      dup2\n      mstore\n      0x20\n      add\n      0x00\n      dup2\n      mstore\n      pop\n      swap1\n      jump\t// out\n    tag_137:\n      dup3\n      dup1\n      sload\n      dup3\n      dup3\n      sstore\n      swap1\n      0x00\n      mstore\n      keccak256(0x00, 0x20)\n      swap1\n      0x02\n      mul\n      dup2\n      add\n      swap3\n      dup3\n      iszero\n      tag_213\n      jumpi\n      0x00\n      mstore\n      keccak256(0x00, 0x20)\n      swap2\n      0x02\n      mul\n      dup3\n      add\n    tag_214:\n      dup3\n      dup2\n      gt\n      iszero\n      tag_215\n      jumpi\n      dup3\n      dup3\n      0x00\n      dup3\n      add\n      0x00\n      swap1\n      sload\n      swap1\n      0x0100\n      exp\n      swap1\n      div\n      0xffffffffffffffffffffffffffffffffffffffff\n      and\n      dup2\n      0x00\n      add\n      exp(0x0100, 0x00)\n      dup2\n      sload\n      dup2\n      0xffffffffffffffffffffffffffffffffffffffff\n      mul\n      not\n      and\n      swap1\n      dup4\n      0xffffffffffffffffffffffffffffffffffffffff\n      and\n      mul\n      or\n      swap1\n      sstore\n      pop\n      0x01\n      dup3\n      add\n      sload\n      dup2\n      0x01\n      add\n      sstore\n      pop\n      pop\n      swap2\n      0x02\n      add\n      swap2\n      swap1\n      0x02\n      add\n      swap1\n      jump(tag_214)\n    tag_215:\n    tag_213:\n      pop\n      swap1\n      pop\n      tag_216\n      swap2\n      swap1\n      tag_217\n      jump\t// in\n    tag_216:\n      pop\n      swap1\n      jump\t// out\n    tag_209:\n      pop\n      dup1\n      sload\n      tag_218\n      swap1\n      tag_57\n      jump\t// in\n    tag_218:\n      0x00\n      dup3\n      sstore\n      dup1\n      0x1f\n      lt\n      tag_220\n      jumpi\n      pop\n      jump(tag_219)\n    tag_220:\n      0x1f\n      add\n      0x20\n      swap1\n      div\n      swap1\n      0x00\n      mstore\n      keccak256(0x00, 0x20)\n      swap1\n      dup2\n      add\n      swap1\n      tag_221\n      swap2\n      swap1\n      tag_222\n      jump\t// in\n    tag_221:\n    tag_219:\n      pop\n      jump\t// out\n    tag_212:\n      pop\n      dup1\n      sload\n      0x00\n      dup3\n      sstore\n      0x02\n      mul\n      swap1\n      0x00\n      mstore\n      keccak256(0x00, 0x20)\n      swap1\n      dup2\n      add\n      swap1\n      tag_224\n      swap2\n      swap1\n      tag_217\n      jump\t// in\n    tag_224:\n      pop\n      jump\t// out\n    tag_217:\n    tag_225:\n      dup1\n      dup3\n      gt\n      iszero\n      tag_226\n      jumpi\n      0x00\n      dup1\n      dup3\n      add\n      exp(0x0100, 0x00)\n      dup2\n      sload\n      swap1\n      0xffffffffffffffffffffffffffffffffffffffff\n      mul\n      not\n      and\n      swap1\n      sstore\n      0x01\n      dup3\n      add\n      0x00\n      swap1\n      sstore\n      pop\n      0x02\n      add\n      jump(tag_225)\n    tag_226:\n      pop\n      swap1\n      jump\t// out\n    tag_222:\n    tag_227:\n      dup1\n      dup3\n      gt\n      iszero\n      tag_228\n      jumpi\n      0x00\n      dup2\n      0x00\n      swap1\n      sstore\n      pop\n      0x01\n      add\n      jump(tag_227)\n    tag_228:\n      pop\n      swap1\n      jump\t// out\n        /* \"#utility.yul\":7:82   */\n    tag_229:\n        /* \"#utility.yul\":40:46   */\n      0x00\n        /* \"#utility.yul\":73:75   */\n      0x40\n        /* \"#utility.yul\":67:76   */\n      mload\n        /* \"#utility.yul\":57:76   */\n      swap1\n      pop\n        /* \"#utility.yul\":7:82   */\n      swap1\n      jump\t// out\n        /* \"#utility.yul\":88:205   */\n    tag_230:\n        /* \"#utility.yul\":197:198   */\n      0x00\n        /* \"#utility.yul\":194:195   */\n      dup1\n        /* \"#utility.yul\":187:199   */\n      revert\n        /* \"#utility.yul\":211:328   */\n    tag_231:\n        /* \"#utility.yul\":320:321   */\n      0x00\n        /* \"#utility.yul\":317:318   */\n      dup1\n        /* \"#utility.yul\":310:322   */\n      revert\n        /* \"#utility.yul\":334:411   */\n    tag_232:\n        /* \"#utility.yul\":371:378   */\n      0x00\n        /* \"#utility.yul\":400:405   */\n      dup2\n        /* \"#utility.yul\":389:405   */\n      swap1\n      pop\n        /* \"#utility.yul\":334:411   */\n      swap2\n      swap1\n      pop\n      jump\t// out\n        /* \"#utility.yul\":417:539   */\n    tag_233:\n        /* \"#utility.yul\":490:514   */\n      tag_316\n        /* \"#utility.yul\":508:513   */\n      dup2\n        /* \"#utility.yul\":490:514   */\n      tag_232\n      jump\t// in\n    tag_316:\n        /* \"#utility.yul\":483:488   */\n      dup2\n        /* \"#utility.yul\":480:515   */\n      eq\n        /* \"#utility.yul\":470:533   */\n      tag_317\n      jumpi\n        /* \"#utility.yul\":529:530   */\n      0x00\n        /* \"#utility.yul\":526:527   */\n      dup1\n        /* \"#utility.yul\":519:531   */\n      revert\n        /* \"#utility.yul\":470:533   */\n    tag_317:\n        /* \"#utility.yul\":417:539   */\n      pop\n      jump\t// out\n        /* \"#utility.yul\":545:684   */\n    tag_234:\n        /* \"#utility.yul\":591:596   */\n      0x00\n        /* \"#utility.yul\":629:635   */\n      dup2\n        /* \"#utility.yul\":616:636   */\n      calldataload\n        /* \"#utility.yul\":607:636   */\n      swap1\n      pop\n        /* \"#utility.yul\":645:678   */\n      tag_319\n        /* \"#utility.yul\":672:677   */\n      dup2\n        /* \"#utility.yul\":645:678   */\n      tag_233\n      jump\t// in\n    tag_319:\n        /* \"#utility.yul\":545:684   */\n      swap3\n      swap2\n      pop\n      pop\n      jump\t// out\n        /* \"#utility.yul\":690:780   */\n    tag_235:\n        /* \"#utility.yul\":724:731   */\n      0x00\n        /* \"#utility.yul\":767:772   */\n      dup2\n        /* \"#utility.yul\":760:773   */\n      iszero\n        /* \"#utility.yul\":753:774   */\n      iszero\n        /* \"#utility.yul\":742:774   */\n      swap1\n      pop\n        /* \"#utility.yul\":690:780   */\n      swap2\n      swap1\n      pop\n      jump\t// out\n        /* \"#utility.yul\":786:902   */\n    tag_236:\n        /* \"#utility.yul\":856:877   */\n      tag_322\n        /* \"#utility.yul\":871:876   */\n      dup2\n        /* \"#utility.yul\":856:877   */\n      tag_235\n      jump\t// in\n    tag_322:\n        /* \"#utility.yul\":849:854   */\n      dup2\n        /* \"#utility.yul\":846:878   */\n      eq\n        /* \"#utility.yul\":836:896   */\n      tag_323\n      jumpi\n        /* \"#utility.yul\":892:893   */\n      0x00\n        /* \"#utility.yul\":889:890   */\n      dup1\n        /* \"#utility.yul\":882:894   */\n      revert\n        /* \"#utility.yul\":836:896   */\n    tag_323:\n        /* \"#utility.yul\":786:902   */\n      pop\n      jump\t// out\n        /* \"#utility.yul\":908:1041   */\n    tag_237:\n        /* \"#utility.yul\":951:956   */\n      0x00\n        /* \"#utility.yul\":989:995   */\n      dup2\n        /* \"#utility.yul\":976:996   */\n      calldataload\n        /* \"#utility.yul\":967:996   */\n      swap1\n      pop\n        /* \"#utility.yul\":1005:1035   */\n      tag_325\n        /* \"#utility.yul\":1029:1034   */\n      dup2\n        /* \"#utility.yul\":1005:1035   */\n      tag_236\n      jump\t// in\n    tag_325:\n        /* \"#utility.yul\":908:1041   */\n      swap3\n      swap2\n      pop\n      pop\n      jump\t// out\n        /* \"#utility.yul\":1047:1515   */\n    tag_10:\n        /* \"#utility.yul\":1112:1118   */\n      0x00\n        /* \"#utility.yul\":1120:1126   */\n      dup1\n        /* \"#utility.yul\":1169:1171   */\n      0x40\n        /* \"#utility.yul\":1157:1166   */\n      dup4\n        /* \"#utility.yul\":1148:1155   */\n      dup6\n        /* \"#utility.yul\":1144:1167   */\n      sub\n        /* \"#utility.yul\":1140:1172   */\n      slt\n        /* \"#utility.yul\":1137:1256   */\n      iszero\n      tag_327\n      jumpi\n        /* \"#utility.yul\":1175:1254   */\n      tag_328\n      tag_230\n      jump\t// in\n    tag_328:\n        /* \"#utility.yul\":1137:1256   */\n    tag_327:\n        /* \"#utility.yul\":1295:1296   */\n      0x00\n        /* \"#utility.yul\":1320:1373   */\n      tag_329\n        /* \"#utility.yul\":1365:1372   */\n      dup6\n        /* \"#utility.yul\":1356:1362   */\n      dup3\n        /* \"#utility.yul\":1345:1354   */\n      dup7\n        /* \"#utility.yul\":1341:1363   */\n      add\n        /* \"#utility.yul\":1320:1373   */\n      tag_234\n      jump\t// in\n    tag_329:\n        /* \"#utility.yul\":1310:1373   */\n      swap3\n      pop\n        /* \"#utility.yul\":1266:1383   */\n      pop\n        /* \"#utility.yul\":1422:1424   */\n      0x20\n        /* \"#utility.yul\":1448:1498   */\n      tag_330\n        /* \"#utility.yul\":1490:1497   */\n      dup6\n        /* \"#utility.yul\":1481:1487   */\n      dup3\n        /* \"#utility.yul\":1470:1479   */\n      dup7\n        /* \"#utility.yul\":1466:1488   */\n      add\n        /* \"#utility.yul\":1448:1498   */\n      tag_237\n      jump\t// in\n    tag_330:\n        /* \"#utility.yul\":1438:1498   */\n      swap2\n      pop\n        /* \"#utility.yul\":1393:1508   */\n      pop\n        /* \"#utility.yul\":1047:1515   */\n      swap3\n      pop\n      swap3\n      swap1\n      pop\n      jump\t// out\n        /* \"#utility.yul\":1521:1663   */\n    tag_238:\n        /* \"#utility.yul\":1616:1622   */\n      0x00\n        /* \"#utility.yul\":1650:1655   */\n      dup2\n        /* \"#utility.yul\":1644:1656   */\n      mload\n        /* \"#utility.yul\":1634:1656   */\n      swap1\n      pop\n        /* \"#utility.yul\":1521:1663   */\n      swap2\n      swap1\n      pop\n      jump\t// out\n        /* \"#utility.yul\":1669:1881   */\n    tag_239:\n        /* \"#utility.yul\":1796:1807   */\n      0x00\n        /* \"#utility.yul\":1830:1836   */\n      dup3\n        /* \"#utility.yul\":1825:1828   */\n      dup3\n        /* \"#utility.yul\":1818:1837   */\n      mstore\n        /* \"#utility.yul\":1870:1874   */\n      0x20\n        /* \"#utility.yul\":1865:1868   */\n      dup3\n        /* \"#utility.yul\":1861:1875   */\n      add\n        /* \"#utility.yul\":1846:1875   */\n      swap1\n      pop\n        /* \"#utility.yul\":1669:1881   */\n      swap3\n      swap2\n      pop\n      pop\n      jump\t// out\n        /* \"#utility.yul\":1887:2047   */\n    tag_240:\n        /* \"#utility.yul\":1982:1986   */\n      0x00\n        /* \"#utility.yul\":2005:2008   */\n      dup2\n        /* \"#utility.yul\":1997:2008   */\n      swap1\n      pop\n        /* \"#utility.yul\":2035:2039   */\n      0x20\n        /* \"#utility.yul\":2030:2033   */\n      dup3\n        /* \"#utility.yul\":2026:2040   */\n      add\n        /* \"#utility.yul\":2018:2040   */\n      swap1\n      pop\n        /* \"#utility.yul\":1887:2047   */\n      swap2\n      swap1\n      pop\n      jump\t// out\n        /* \"#utility.yul\":2053:2179   */\n    tag_241:\n        /* \"#utility.yul\":2090:2097   */\n      0x00\n        /* \"#utility.yul\":2130:2172   */\n      0xffffffffffffffffffffffffffffffffffffffff\n        /* \"#utility.yul\":2123:2128   */\n      dup3\n        /* \"#utility.yul\":2119:2173   */\n      and\n        /* \"#utility.yul\":2108:2173   */\n      swap1\n      pop\n        /* \"#utility.yul\":2053:2179   */\n      swap2\n      swap1\n      pop\n      jump\t// out\n        /* \"#utility.yul\":2185:2281   */\n    tag_242:\n        /* \"#utility.yul\":2222:2229   */\n      0x00\n        /* \"#utility.yul\":2251:2275   */\n      tag_336\n        /* \"#utility.yul\":2269:2274   */\n      dup3\n        /* \"#utility.yul\":2251:2275   */\n      tag_241\n      jump\t// in\n    tag_336:\n        /* \"#utility.yul\":2240:2275   */\n      swap1\n      pop\n        /* \"#utility.yul\":2185:2281   */\n      swap2\n      swap1\n      pop\n      jump\t// out\n        /* \"#utility.yul\":2287:2395   */\n    tag_243:\n        /* \"#utility.yul\":2364:2388   */\n      tag_338\n        /* \"#utility.yul\":2382:2387   */\n      dup2\n        /* \"#utility.yul\":2364:2388   */\n      tag_242\n      jump\t// in\n    tag_338:\n        /* \"#utility.yul\":2359:2362   */\n      dup3\n        /* \"#utility.yul\":2352:2389   */\n      mstore\n        /* \"#utility.yul\":2287:2395   */\n      pop\n      pop\n      jump\t// out\n        /* \"#utility.yul\":2401:2509   */\n    tag_244:\n        /* \"#utility.yul\":2478:2502   */\n      tag_340\n        /* \"#utility.yul\":2496:2501   */\n      dup2\n        /* \"#utility.yul\":2478:2502   */\n      tag_232\n      jump\t// in\n    tag_340:\n        /* \"#utility.yul\":2473:2476   */\n      dup3\n        /* \"#utility.yul\":2466:2503   */\n      mstore\n        /* \"#utility.yul\":2401:2509   */\n      pop\n      pop\n      jump\t// out\n        /* \"#utility.yul\":2601:3123   */\n    tag_245:\n        /* \"#utility.yul\":2744:2748   */\n      0x40\n        /* \"#utility.yul\":2739:2742   */\n      dup3\n        /* \"#utility.yul\":2735:2749   */\n      add\n        /* \"#utility.yul\":2841:2845   */\n      0x00\n        /* \"#utility.yul\":2834:2839   */\n      dup3\n        /* \"#utility.yul\":2830:2846   */\n      add\n        /* \"#utility.yul\":2824:2847   */\n      mload\n        /* \"#utility.yul\":2860:2923   */\n      tag_342\n        /* \"#utility.yul\":2917:2921   */\n      0x00\n        /* \"#utility.yul\":2912:2915   */\n      dup6\n        /* \"#utility.yul\":2908:2922   */\n      add\n        /* \"#utility.yul\":2894:2906   */\n      dup3\n        /* \"#utility.yul\":2860:2923   */\n      tag_243\n      jump\t// in\n    tag_342:\n        /* \"#utility.yul\":2759:2933   */\n      pop\n        /* \"#utility.yul\":3024:3028   */\n      0x20\n        /* \"#utility.yul\":3017:3022   */\n      dup3\n        /* \"#utility.yul\":3013:3029   */\n      add\n        /* \"#utility.yul\":3007:3030   */\n      mload\n        /* \"#utility.yul\":3043:3106   */\n      tag_343\n        /* \"#utility.yul\":3100:3104   */\n      0x20\n        /* \"#utility.yul\":3095:3098   */\n      dup6\n        /* \"#utility.yul\":3091:3105   */\n      add\n        /* \"#utility.yul\":3077:3089   */\n      dup3\n        /* \"#utility.yul\":3043:3106   */\n      tag_244\n      jump\t// in\n    tag_343:\n        /* \"#utility.yul\":2943:3116   */\n      pop\n        /* \"#utility.yul\":2713:3123   */\n      pop\n        /* \"#utility.yul\":2601:3123   */\n      pop\n      pop\n      jump\t// out\n        /* \"#utility.yul\":3129:3420   */\n    tag_246:\n        /* \"#utility.yul\":3254:3264   */\n      0x00\n        /* \"#utility.yul\":3275:3377   */\n      tag_345\n        /* \"#utility.yul\":3373:3376   */\n      dup4\n        /* \"#utility.yul\":3365:3371   */\n      dup4\n        /* \"#utility.yul\":3275:3377   */\n      tag_245\n      jump\t// in\n    tag_345:\n        /* \"#utility.yul\":3409:3413   */\n      0x40\n        /* \"#utility.yul\":3404:3407   */\n      dup4\n        /* \"#utility.yul\":3400:3414   */\n      add\n        /* \"#utility.yul\":3386:3414   */\n      swap1\n      pop\n        /* \"#utility.yul\":3129:3420   */\n      swap3\n      swap2\n      pop\n      pop\n      jump\t// out\n        /* \"#utility.yul\":3426:3567   */\n    tag_247:\n        /* \"#utility.yul\":3524:3528   */\n      0x00\n        /* \"#utility.yul\":3556:3560   */\n      0x20\n        /* \"#utility.yul\":3551:3554   */\n      dup3\n        /* \"#utility.yul\":3547:3561   */\n      add\n        /* \"#utility.yul\":3539:3561   */\n      swap1\n      pop\n        /* \"#utility.yul\":3426:3567   */\n      swap2\n      swap1\n      pop\n      jump\t// out\n        /* \"#utility.yul\":3663:4619   */\n    tag_248:\n        /* \"#utility.yul\":3838:3841   */\n      0x00\n        /* \"#utility.yul\":3867:3949   */\n      tag_348\n        /* \"#utility.yul\":3943:3948   */\n      dup3\n        /* \"#utility.yul\":3867:3949   */\n      tag_238\n      jump\t// in\n    tag_348:\n        /* \"#utility.yul\":3965:4079   */\n      tag_349\n        /* \"#utility.yul\":4072:4078   */\n      dup2\n        /* \"#utility.yul\":4067:4070   */\n      dup6\n        /* \"#utility.yul\":3965:4079   */\n      tag_239\n      jump\t// in\n    tag_349:\n        /* \"#utility.yul\":3958:4079   */\n      swap4\n      pop\n        /* \"#utility.yul\":4103:4187   */\n      tag_350\n        /* \"#utility.yul\":4181:4186   */\n      dup4\n        /* \"#utility.yul\":4103:4187   */\n      tag_240\n      jump\t// in\n    tag_350:\n        /* \"#utility.yul\":4210:4217   */\n      dup1\n        /* \"#utility.yul\":4241:4242   */\n      0x00\n        /* \"#utility.yul\":4226:4594   */\n    tag_351:\n        /* \"#utility.yul\":4251:4257   */\n      dup4\n        /* \"#utility.yul\":4248:4249   */\n      dup2\n        /* \"#utility.yul\":4245:4258   */\n      lt\n        /* \"#utility.yul\":4226:4594   */\n      iszero\n      tag_353\n      jumpi\n        /* \"#utility.yul\":4327:4333   */\n      dup2\n        /* \"#utility.yul\":4321:4334   */\n      mload\n        /* \"#utility.yul\":4354:4473   */\n      tag_354\n        /* \"#utility.yul\":4469:4472   */\n      dup9\n        /* \"#utility.yul\":4454:4467   */\n      dup3\n        /* \"#utility.yul\":4354:4473   */\n      tag_246\n      jump\t// in\n    tag_354:\n        /* \"#utility.yul\":4347:4473   */\n      swap8\n      pop\n        /* \"#utility.yul\":4496:4584   */\n      tag_355\n        /* \"#utility.yul\":4577:4583   */\n      dup4\n        /* \"#utility.yul\":4496:4584   */\n      tag_247\n      jump\t// in\n    tag_355:\n        /* \"#utility.yul\":4486:4584   */\n      swap3\n      pop\n        /* \"#utility.yul\":4286:4594   */\n      pop\n        /* \"#utility.yul\":4273:4274   */\n      0x01\n        /* \"#utility.yul\":4270:4271   */\n      dup2\n        /* \"#utility.yul\":4266:4275   */\n      add\n        /* \"#utility.yul\":4261:4275   */\n      swap1\n      pop\n        /* \"#utility.yul\":4226:4594   */\n      jump(tag_351)\n    tag_353:\n        /* \"#utility.yul\":4230:4244   */\n      pop\n        /* \"#utility.yul\":4610:4613   */\n      dup6\n        /* \"#utility.yul\":4603:4613   */\n      swap4\n      pop\n        /* \"#utility.yul\":3843:4619   */\n      pop\n      pop\n      pop\n        /* \"#utility.yul\":3663:4619   */\n      swap3\n      swap2\n      pop\n      pop\n      jump\t// out\n        /* \"#utility.yul\":4625:5110   */\n    tag_13:\n        /* \"#utility.yul\":4824:4828   */\n      0x00\n        /* \"#utility.yul\":4862:4864   */\n      0x20\n        /* \"#utility.yul\":4851:4860   */\n      dup3\n        /* \"#utility.yul\":4847:4865   */\n      add\n        /* \"#utility.yul\":4839:4865   */\n      swap1\n      pop\n        /* \"#utility.yul\":4911:4920   */\n      dup2\n        /* \"#utility.yul\":4905:4909   */\n      dup2\n        /* \"#utility.yul\":4901:4921   */\n      sub\n        /* \"#utility.yul\":4897:4898   */\n      0x00\n        /* \"#utility.yul\":4886:4895   */\n      dup4\n        /* \"#utility.yul\":4882:4899   */\n      add\n        /* \"#utility.yul\":4875:4922   */\n      mstore\n        /* \"#utility.yul\":4939:5103   */\n      tag_357\n        /* \"#utility.yul\":5098:5102   */\n      dup2\n        /* \"#utility.yul\":5089:5095   */\n      dup5\n        /* \"#utility.yul\":4939:5103   */\n      tag_248\n      jump\t// in\n    tag_357:\n        /* \"#utility.yul\":4931:5103   */\n      swap1\n      pop\n        /* \"#utility.yul\":4625:5110   */\n      swap3\n      swap2\n      pop\n      pop\n      jump\t// out\n        /* \"#utility.yul\":5116:5439   */\n    tag_17:\n        /* \"#utility.yul\":5172:5178   */\n      0x00\n        /* \"#utility.yul\":5221:5223   */\n      0x20\n        /* \"#utility.yul\":5209:5218   */\n      dup3\n        /* \"#utility.yul\":5200:5207   */\n      dup5\n        /* \"#utility.yul\":5196:5219   */\n      sub\n        /* \"#utility.yul\":5192:5224   */\n      slt\n        /* \"#utility.yul\":5189:5308   */\n      iszero\n      tag_359\n      jumpi\n        /* \"#utility.yul\":5227:5306   */\n      tag_360\n      tag_230\n      jump\t// in\n    tag_360:\n        /* \"#utility.yul\":5189:5308   */\n    tag_359:\n        /* \"#utility.yul\":5347:5348   */\n      0x00\n        /* \"#utility.yul\":5372:5422   */\n      tag_361\n        /* \"#utility.yul\":5414:5421   */\n      dup5\n        /* \"#utility.yul\":5405:5411   */\n      dup3\n        /* \"#utility.yul\":5394:5403   */\n      dup6\n        /* \"#utility.yul\":5390:5412   */\n      add\n        /* \"#utility.yul\":5372:5422   */\n      tag_237\n      jump\t// in\n    tag_361:\n        /* \"#utility.yul\":5362:5422   */\n      swap2\n      pop\n        /* \"#utility.yul\":5318:5432   */\n      pop\n        /* \"#utility.yul\":5116:5439   */\n      swap3\n      swap2\n      pop\n      pop\n      jump\t// out\n        /* \"#utility.yul\":5445:5589   */\n    tag_249:\n        /* \"#utility.yul\":5542:5548   */\n      0x00\n        /* \"#utility.yul\":5576:5581   */\n      dup2\n        /* \"#utility.yul\":5570:5582   */\n      mload\n        /* \"#utility.yul\":5560:5582   */\n      swap1\n      pop\n        /* \"#utility.yul\":5445:5589   */\n      swap2\n      swap1\n      pop\n      jump\t// out\n        /* \"#utility.yul\":5595:5809   */\n    tag_250:\n        /* \"#utility.yul\":5724:5735   */\n      0x00\n        /* \"#utility.yul\":5758:5764   */\n      dup3\n        /* \"#utility.yul\":5753:5756   */\n      dup3\n        /* \"#utility.yul\":5746:5765   */\n      mstore\n        /* \"#utility.yul\":5798:5802   */\n      0x20\n        /* \"#utility.yul\":5793:5796   */\n      dup3\n        /* \"#utility.yul\":5789:5803   */\n      add\n        /* \"#utility.yul\":5774:5803   */\n      swap1\n      pop\n        /* \"#utility.yul\":5595:5809   */\n      swap3\n      swap2\n      pop\n      pop\n      jump\t// out\n        /* \"#utility.yul\":5815:5977   */\n    tag_251:\n        /* \"#utility.yul\":5912:5916   */\n      0x00\n        /* \"#utility.yul\":5935:5938   */\n      dup2\n        /* \"#utility.yul\":5927:5938   */\n      swap1\n      pop\n        /* \"#utility.yul\":5965:5969   */\n      0x20\n        /* \"#utility.yul\":5960:5963   */\n      dup3\n        /* \"#utility.yul\":5956:5970   */\n      add\n        /* \"#utility.yul\":5948:5970   */\n      swap1\n      pop\n        /* \"#utility.yul\":5815:5977   */\n      swap2\n      swap1\n      pop\n      jump\t// out\n        /* \"#utility.yul\":5983:6087   */\n    tag_252:\n        /* \"#utility.yul\":6028:6035   */\n      0x00\n        /* \"#utility.yul\":6057:6081   */\n      tag_366\n        /* \"#utility.yul\":6075:6080   */\n      dup3\n        /* \"#utility.yul\":6057:6081   */\n      tag_241\n      jump\t// in\n    tag_366:\n        /* \"#utility.yul\":6046:6081   */\n      swap1\n      pop\n        /* \"#utility.yul\":5983:6087   */\n      swap2\n      swap1\n      pop\n      jump\t// out\n        /* \"#utility.yul\":6093:6225   */\n    tag_253:\n        /* \"#utility.yul\":6186:6218   */\n      tag_368\n        /* \"#utility.yul\":6212:6217   */\n      dup2\n        /* \"#utility.yul\":6186:6218   */\n      tag_252\n      jump\t// in\n    tag_368:\n        /* \"#utility.yul\":6181:6184   */\n      dup3\n        /* \"#utility.yul\":6174:6219   */\n      mstore\n        /* \"#utility.yul\":6093:6225   */\n      pop\n      pop\n      jump\t// out\n        /* \"#utility.yul\":6231:6330   */\n    tag_254:\n        /* \"#utility.yul\":6283:6289   */\n      0x00\n        /* \"#utility.yul\":6317:6322   */\n      dup2\n        /* \"#utility.yul\":6311:6323   */\n      mload\n        /* \"#utility.yul\":6301:6323   */\n      swap1\n      pop\n        /* \"#utility.yul\":6231:6330   */\n      swap2\n      swap1\n      pop\n      jump\t// out\n        /* \"#utility.yul\":6336:6495   */\n    tag_255:\n        /* \"#utility.yul\":6410:6421   */\n      0x00\n        /* \"#utility.yul\":6444:6450   */\n      dup3\n        /* \"#utility.yul\":6439:6442   */\n      dup3\n        /* \"#utility.yul\":6432:6451   */\n      mstore\n        /* \"#utility.yul\":6484:6488   */\n      0x20\n        /* \"#utility.yul\":6479:6482   */\n      dup3\n        /* \"#utility.yul\":6475:6489   */\n      add\n        /* \"#utility.yul\":6460:6489   */\n      swap1\n      pop\n        /* \"#utility.yul\":6336:6495   */\n      swap3\n      swap2\n      pop\n      pop\n      jump\t// out\n        /* \"#utility.yul\":6501:6747   */\n    tag_256:\n        /* \"#utility.yul\":6582:6583   */\n      0x00\n        /* \"#utility.yul\":6592:6705   */\n    tag_372:\n        /* \"#utility.yul\":6606:6612   */\n      dup4\n        /* \"#utility.yul\":6603:6604   */\n      dup2\n        /* \"#utility.yul\":6600:6613   */\n      lt\n        /* \"#utility.yul\":6592:6705   */\n      iszero\n      tag_374\n      jumpi\n        /* \"#utility.yul\":6691:6692   */\n      dup1\n        /* \"#utility.yul\":6686:6689   */\n      dup3\n        /* \"#utility.yul\":6682:6693   */\n      add\n        /* \"#utility.yul\":6676:6694   */\n      mload\n        /* \"#utility.yul\":6672:6673   */\n      dup2\n        /* \"#utility.yul\":6667:6670   */\n      dup5\n        /* \"#utility.yul\":6663:6674   */\n      add\n        /* \"#utility.yul\":6656:6695   */\n      mstore\n        /* \"#utility.yul\":6628:6630   */\n      0x20\n        /* \"#utility.yul\":6625:6626   */\n      dup2\n        /* \"#utility.yul\":6621:6631   */\n      add\n        /* \"#utility.yul\":6616:6631   */\n      swap1\n      pop\n        /* \"#utility.yul\":6592:6705   */\n      jump(tag_372)\n    tag_374:\n        /* \"#utility.yul\":6739:6740   */\n      0x00\n        /* \"#utility.yul\":6730:6736   */\n      dup5\n        /* \"#utility.yul\":6725:6728   */\n      dup5\n        /* \"#utility.yul\":6721:6737   */\n      add\n        /* \"#utility.yul\":6714:6741   */\n      mstore\n        /* \"#utility.yul\":6563:6747   */\n      pop\n        /* \"#utility.yul\":6501:6747   */\n      pop\n      pop\n      pop\n      jump\t// out\n        /* \"#utility.yul\":6753:6855   */\n    tag_257:\n        /* \"#utility.yul\":6794:6800   */\n      0x00\n        /* \"#utility.yul\":6845:6847   */\n      0x1f\n        /* \"#utility.yul\":6841:6848   */\n      not\n        /* \"#utility.yul\":6836:6838   */\n      0x1f\n        /* \"#utility.yul\":6829:6834   */\n      dup4\n        /* \"#utility.yul\":6825:6839   */\n      add\n        /* \"#utility.yul\":6821:6849   */\n      and\n        /* \"#utility.yul\":6811:6849   */\n      swap1\n      pop\n        /* \"#utility.yul\":6753:6855   */\n      swap2\n      swap1\n      pop\n      jump\t// out\n        /* \"#utility.yul\":6861:7218   */\n    tag_258:\n        /* \"#utility.yul\":6939:6942   */\n      0x00\n        /* \"#utility.yul\":6967:7006   */\n      tag_377\n        /* \"#utility.yul\":7000:7005   */\n      dup3\n        /* \"#utility.yul\":6967:7006   */\n      tag_254\n      jump\t// in\n    tag_377:\n        /* \"#utility.yul\":7022:7083   */\n      tag_378\n        /* \"#utility.yul\":7076:7082   */\n      dup2\n        /* \"#utility.yul\":7071:7074   */\n      dup6\n        /* \"#utility.yul\":7022:7083   */\n      tag_255\n      jump\t// in\n    tag_378:\n        /* \"#utility.yul\":7015:7083   */\n      swap4\n      pop\n        /* \"#utility.yul\":7092:7157   */\n      tag_379\n        /* \"#utility.yul\":7150:7156   */\n      dup2\n        /* \"#utility.yul\":7145:7148   */\n      dup6\n        /* \"#utility.yul\":7138:7142   */\n      0x20\n        /* \"#utility.yul\":7131:7136   */\n      dup7\n        /* \"#utility.yul\":7127:7143   */\n      add\n        /* \"#utility.yul\":7092:7157   */\n      tag_256\n      jump\t// in\n    tag_379:\n        /* \"#utility.yul\":7182:7211   */\n      tag_380\n        /* \"#utility.yul\":7204:7210   */\n      dup2\n        /* \"#utility.yul\":7182:7211   */\n      tag_257\n      jump\t// in\n    tag_380:\n        /* \"#utility.yul\":7177:7180   */\n      dup5\n        /* \"#utility.yul\":7173:7212   */\n      add\n        /* \"#utility.yul\":7166:7212   */\n      swap2\n      pop\n        /* \"#utility.yul\":6943:7218   */\n      pop\n        /* \"#utility.yul\":6861:7218   */\n      swap3\n      swap2\n      pop\n      pop\n      jump\t// out\n        /* \"#utility.yul\":7224:7426   */\n    tag_259:\n        /* \"#utility.yul\":7341:7352   */\n      0x00\n        /* \"#utility.yul\":7375:7381   */\n      dup3\n        /* \"#utility.yul\":7370:7373   */\n      dup3\n        /* \"#utility.yul\":7363:7382   */\n      mstore\n        /* \"#utility.yul\":7415:7419   */\n      0x20\n        /* \"#utility.yul\":7410:7413   */\n      dup3\n        /* \"#utility.yul\":7406:7420   */\n      add\n        /* \"#utility.yul\":7391:7420   */\n      swap1\n      pop\n        /* \"#utility.yul\":7224:7426   */\n      swap3\n      swap2\n      pop\n      pop\n      jump\t// out\n        /* \"#utility.yul\":7522:8458   */\n    tag_260:\n        /* \"#utility.yul\":7687:7690   */\n      0x00\n        /* \"#utility.yul\":7716:7798   */\n      tag_383\n        /* \"#utility.yul\":7792:7797   */\n      dup3\n        /* \"#utility.yul\":7716:7798   */\n      tag_238\n      jump\t// in\n    tag_383:\n        /* \"#utility.yul\":7814:7918   */\n      tag_384\n        /* \"#utility.yul\":7911:7917   */\n      dup2\n        /* \"#utility.yul\":7906:7909   */\n      dup6\n        /* \"#utility.yul\":7814:7918   */\n      tag_259\n      jump\t// in\n    tag_384:\n        /* \"#utility.yul\":7807:7918   */\n      swap4\n      pop\n        /* \"#utility.yul\":7942:8026   */\n      tag_385\n        /* \"#utility.yul\":8020:8025   */\n      dup4\n        /* \"#utility.yul\":7942:8026   */\n      tag_240\n      jump\t// in\n    tag_385:\n        /* \"#utility.yul\":8049:8056   */\n      dup1\n        /* \"#utility.yul\":8080:8081   */\n      0x00\n        /* \"#utility.yul\":8065:8433   */\n    tag_386:\n        /* \"#utility.yul\":8090:8096   */\n      dup4\n        /* \"#utility.yul\":8087:8088   */\n      dup2\n        /* \"#utility.yul\":8084:8097   */\n      lt\n        /* \"#utility.yul\":8065:8433   */\n      iszero\n      tag_388\n      jumpi\n        /* \"#utility.yul\":8166:8172   */\n      dup2\n        /* \"#utility.yul\":8160:8173   */\n      mload\n        /* \"#utility.yul\":8193:8312   */\n      tag_389\n        /* \"#utility.yul\":8308:8311   */\n      dup9\n        /* \"#utility.yul\":8293:8306   */\n      dup3\n        /* \"#utility.yul\":8193:8312   */\n      tag_246\n      jump\t// in\n    tag_389:\n        /* \"#utility.yul\":8186:8312   */\n      swap8\n      pop\n        /* \"#utility.yul\":8335:8423   */\n      tag_390\n        /* \"#utility.yul\":8416:8422   */\n      dup4\n        /* \"#utility.yul\":8335:8423   */\n      tag_247\n      jump\t// in\n    tag_390:\n        /* \"#utility.yul\":8325:8423   */\n      swap3\n      pop\n        /* \"#utility.yul\":8125:8433   */\n      pop\n        /* \"#utility.yul\":8112:8113   */\n      0x01\n        /* \"#utility.yul\":8109:8110   */\n      dup2\n        /* \"#utility.yul\":8105:8114   */\n      add\n        /* \"#utility.yul\":8100:8114   */\n      swap1\n      pop\n        /* \"#utility.yul\":8065:8433   */\n      jump(tag_386)\n    tag_388:\n        /* \"#utility.yul\":8069:8083   */\n      pop\n        /* \"#utility.yul\":8449:8452   */\n      dup6\n        /* \"#utility.yul\":8442:8452   */\n      swap4\n      pop\n        /* \"#utility.yul\":7692:8458   */\n      pop\n      pop\n      pop\n        /* \"#utility.yul\":7522:8458   */\n      swap3\n      swap2\n      pop\n      pop\n      jump\t// out\n        /* \"#utility.yul\":8552:10317   */\n    tag_261:\n        /* \"#utility.yul\":8671:8674   */\n      0x00\n        /* \"#utility.yul\":8707:8711   */\n      0xe0\n        /* \"#utility.yul\":8702:8705   */\n      dup4\n        /* \"#utility.yul\":8698:8712   */\n      add\n        /* \"#utility.yul\":8801:8805   */\n      0x00\n        /* \"#utility.yul\":8794:8799   */\n      dup4\n        /* \"#utility.yul\":8790:8806   */\n      add\n        /* \"#utility.yul\":8784:8807   */\n      mload\n        /* \"#utility.yul\":8820:8899   */\n      tag_392\n        /* \"#utility.yul\":8893:8897   */\n      0x00\n        /* \"#utility.yul\":8888:8891   */\n      dup7\n        /* \"#utility.yul\":8884:8898   */\n      add\n        /* \"#utility.yul\":8870:8882   */\n      dup3\n        /* \"#utility.yul\":8820:8899   */\n      tag_253\n      jump\t// in\n    tag_392:\n        /* \"#utility.yul\":8722:8909   */\n      pop\n        /* \"#utility.yul\":8995:8999   */\n      0x20\n        /* \"#utility.yul\":8988:8993   */\n      dup4\n        /* \"#utility.yul\":8984:9000   */\n      add\n        /* \"#utility.yul\":8978:9001   */\n      mload\n        /* \"#utility.yul\":9048:9051   */\n      dup5\n        /* \"#utility.yul\":9042:9046   */\n      dup3\n        /* \"#utility.yul\":9038:9052   */\n      sub\n        /* \"#utility.yul\":9031:9035   */\n      0x20\n        /* \"#utility.yul\":9026:9029   */\n      dup7\n        /* \"#utility.yul\":9022:9036   */\n      add\n        /* \"#utility.yul\":9015:9053   */\n      mstore\n        /* \"#utility.yul\":9074:9147   */\n      tag_393\n        /* \"#utility.yul\":9142:9146   */\n      dup3\n        /* \"#utility.yul\":9128:9140   */\n      dup3\n        /* \"#utility.yul\":9074:9147   */\n      tag_258\n      jump\t// in\n    tag_393:\n        /* \"#utility.yul\":9066:9147   */\n      swap2\n      pop\n        /* \"#utility.yul\":8919:9158   */\n      pop\n        /* \"#utility.yul\":9244:9248   */\n      0x40\n        /* \"#utility.yul\":9237:9242   */\n      dup4\n        /* \"#utility.yul\":9233:9249   */\n      add\n        /* \"#utility.yul\":9227:9250   */\n      mload\n        /* \"#utility.yul\":9297:9300   */\n      dup5\n        /* \"#utility.yul\":9291:9295   */\n      dup3\n        /* \"#utility.yul\":9287:9301   */\n      sub\n        /* \"#utility.yul\":9280:9284   */\n      0x40\n        /* \"#utility.yul\":9275:9278   */\n      dup7\n        /* \"#utility.yul\":9271:9285   */\n      add\n        /* \"#utility.yul\":9264:9302   */\n      mstore\n        /* \"#utility.yul\":9323:9396   */\n      tag_394\n        /* \"#utility.yul\":9391:9395   */\n      dup3\n        /* \"#utility.yul\":9377:9389   */\n      dup3\n        /* \"#utility.yul\":9323:9396   */\n      tag_258\n      jump\t// in\n    tag_394:\n        /* \"#utility.yul\":9315:9396   */\n      swap2\n      pop\n        /* \"#utility.yul\":9168:9407   */\n      pop\n        /* \"#utility.yul\":9500:9504   */\n      0x60\n        /* \"#utility.yul\":9493:9498   */\n      dup4\n        /* \"#utility.yul\":9489:9505   */\n      add\n        /* \"#utility.yul\":9483:9506   */\n      mload\n        /* \"#utility.yul\":9519:9582   */\n      tag_395\n        /* \"#utility.yul\":9576:9580   */\n      0x60\n        /* \"#utility.yul\":9571:9574   */\n      dup7\n        /* \"#utility.yul\":9567:9581   */\n      add\n        /* \"#utility.yul\":9553:9565   */\n      dup3\n        /* \"#utility.yul\":9519:9582   */\n      tag_244\n      jump\t// in\n    tag_395:\n        /* \"#utility.yul\":9417:9592   */\n      pop\n        /* \"#utility.yul\":9684:9688   */\n      0x80\n        /* \"#utility.yul\":9677:9682   */\n      dup4\n        /* \"#utility.yul\":9673:9689   */\n      add\n        /* \"#utility.yul\":9667:9690   */\n      mload\n        /* \"#utility.yul\":9703:9766   */\n      tag_396\n        /* \"#utility.yul\":9760:9764   */\n      0x80\n        /* \"#utility.yul\":9755:9758   */\n      dup7\n        /* \"#utility.yul\":9751:9765   */\n      add\n        /* \"#utility.yul\":9737:9749   */\n      dup3\n        /* \"#utility.yul\":9703:9766   */\n      tag_244\n      jump\t// in\n    tag_396:\n        /* \"#utility.yul\":9602:9776   */\n      pop\n        /* \"#utility.yul\":9862:9866   */\n      0xa0\n        /* \"#utility.yul\":9855:9860   */\n      dup4\n        /* \"#utility.yul\":9851:9867   */\n      add\n        /* \"#utility.yul\":9845:9868   */\n      mload\n        /* \"#utility.yul\":9915:9918   */\n      dup5\n        /* \"#utility.yul\":9909:9913   */\n      dup3\n        /* \"#utility.yul\":9905:9919   */\n      sub\n        /* \"#utility.yul\":9898:9902   */\n      0xa0\n        /* \"#utility.yul\":9893:9896   */\n      dup7\n        /* \"#utility.yul\":9889:9903   */\n      add\n        /* \"#utility.yul\":9882:9920   */\n      mstore\n        /* \"#utility.yul\":9941:10100   */\n      tag_397\n        /* \"#utility.yul\":10095:10099   */\n      dup3\n        /* \"#utility.yul\":10081:10093   */\n      dup3\n        /* \"#utility.yul\":9941:10100   */\n      tag_260\n      jump\t// in\n    tag_397:\n        /* \"#utility.yul\":9933:10100   */\n      swap2\n      pop\n        /* \"#utility.yul\":9786:10111   */\n      pop\n        /* \"#utility.yul\":10198:10202   */\n      0xc0\n        /* \"#utility.yul\":10191:10196   */\n      dup4\n        /* \"#utility.yul\":10187:10203   */\n      add\n        /* \"#utility.yul\":10181:10204   */\n      mload\n        /* \"#utility.yul\":10217:10280   */\n      tag_398\n        /* \"#utility.yul\":10274:10278   */\n      0xc0\n        /* \"#utility.yul\":10269:10272   */\n      dup7\n        /* \"#utility.yul\":10265:10279   */\n      add\n        /* \"#utility.yul\":10251:10263   */\n      dup3\n        /* \"#utility.yul\":10217:10280   */\n      tag_244\n      jump\t// in\n    tag_398:\n        /* \"#utility.yul\":10121:10290   */\n      pop\n        /* \"#utility.yul\":10307:10311   */\n      dup1\n        /* \"#utility.yul\":10300:10311   */\n      swap2\n      pop\n        /* \"#utility.yul\":8676:10317   */\n      pop\n        /* \"#utility.yul\":8552:10317   */\n      swap3\n      swap2\n      pop\n      pop\n      jump\t// out\n        /* \"#utility.yul\":10323:10599   */\n    tag_262:\n        /* \"#utility.yul\":10452:10462   */\n      0x00\n        /* \"#utility.yul\":10487:10593   */\n      tag_400\n        /* \"#utility.yul\":10589:10592   */\n      dup4\n        /* \"#utility.yul\":10581:10587   */\n      dup4\n        /* \"#utility.yul\":10487:10593   */\n      tag_261\n      jump\t// in\n    tag_400:\n        /* \"#utility.yul\":10473:10593   */\n      swap1\n      pop\n        /* \"#utility.yul\":10323:10599   */\n      swap3\n      swap2\n      pop\n      pop\n      jump\t// out\n        /* \"#utility.yul\":10605:10748   */\n    tag_263:\n        /* \"#utility.yul\":10705:10709   */\n      0x00\n        /* \"#utility.yul\":10737:10741   */\n      0x20\n        /* \"#utility.yul\":10732:10735   */\n      dup3\n        /* \"#utility.yul\":10728:10742   */\n      add\n        /* \"#utility.yul\":10720:10742   */\n      swap1\n      pop\n        /* \"#utility.yul\":10605:10748   */\n      swap2\n      swap1\n      pop\n      jump\t// out\n        /* \"#utility.yul\":10846:11997   */\n    tag_264:\n        /* \"#utility.yul\":11025:11028   */\n      0x00\n        /* \"#utility.yul\":11054:11138   */\n      tag_403\n        /* \"#utility.yul\":11132:11137   */\n      dup3\n        /* \"#utility.yul\":11054:11138   */\n      tag_249\n      jump\t// in\n    tag_403:\n        /* \"#utility.yul\":11154:11270   */\n      tag_404\n        /* \"#utility.yul\":11263:11269   */\n      dup2\n        /* \"#utility.yul\":11258:11261   */\n      dup6\n        /* \"#utility.yul\":11154:11270   */\n      tag_250\n      jump\t// in\n    tag_404:\n        /* \"#utility.yul\":11147:11270   */\n      swap4\n      pop\n        /* \"#utility.yul\":11296:11299   */\n      dup4\n        /* \"#utility.yul\":11341:11345   */\n      0x20\n        /* \"#utility.yul\":11333:11339   */\n      dup3\n        /* \"#utility.yul\":11329:11346   */\n      mul\n        /* \"#utility.yul\":11324:11327   */\n      dup6\n        /* \"#utility.yul\":11320:11347   */\n      add\n        /* \"#utility.yul\":11371:11457   */\n      tag_405\n        /* \"#utility.yul\":11451:11456   */\n      dup6\n        /* \"#utility.yul\":11371:11457   */\n      tag_251\n      jump\t// in\n    tag_405:\n        /* \"#utility.yul\":11480:11487   */\n      dup1\n        /* \"#utility.yul\":11511:11512   */\n      0x00\n        /* \"#utility.yul\":11496:11952   */\n    tag_406:\n        /* \"#utility.yul\":11521:11527   */\n      dup6\n        /* \"#utility.yul\":11518:11519   */\n      dup2\n        /* \"#utility.yul\":11515:11528   */\n      lt\n        /* \"#utility.yul\":11496:11952   */\n      iszero\n      tag_408\n      jumpi\n        /* \"#utility.yul\":11592:11601   */\n      dup5\n        /* \"#utility.yul\":11586:11590   */\n      dup5\n        /* \"#utility.yul\":11582:11602   */\n      sub\n        /* \"#utility.yul\":11577:11580   */\n      dup10\n        /* \"#utility.yul\":11570:11603   */\n      mstore\n        /* \"#utility.yul\":11643:11649   */\n      dup2\n        /* \"#utility.yul\":11637:11650   */\n      mload\n        /* \"#utility.yul\":11671:11795   */\n      tag_409\n        /* \"#utility.yul\":11790:11794   */\n      dup6\n        /* \"#utility.yul\":11775:11788   */\n      dup3\n        /* \"#utility.yul\":11671:11795   */\n      tag_262\n      jump\t// in\n    tag_409:\n        /* \"#utility.yul\":11663:11795   */\n      swap5\n      pop\n        /* \"#utility.yul\":11818:11908   */\n      tag_410\n        /* \"#utility.yul\":11901:11907   */\n      dup4\n        /* \"#utility.yul\":11818:11908   */\n      tag_263\n      jump\t// in\n    tag_410:\n        /* \"#utility.yul\":11808:11908   */\n      swap3\n      pop\n        /* \"#utility.yul\":11937:11941   */\n      0x20\n        /* \"#utility.yul\":11932:11935   */\n      dup11\n        /* \"#utility.yul\":11928:11942   */\n      add\n        /* \"#utility.yul\":11921:11942   */\n      swap10\n      pop\n        /* \"#utility.yul\":11556:11952   */\n      pop\n        /* \"#utility.yul\":11543:11544   */\n      0x01\n        /* \"#utility.yul\":11540:11541   */\n      dup2\n        /* \"#utility.yul\":11536:11545   */\n      add\n        /* \"#utility.yul\":11531:11545   */\n      swap1\n      pop\n        /* \"#utility.yul\":11496:11952   */\n      jump(tag_406)\n    tag_408:\n        /* \"#utility.yul\":11500:11514   */\n      pop\n        /* \"#utility.yul\":11968:11972   */\n      dup3\n        /* \"#utility.yul\":11961:11972   */\n      swap8\n      pop\n        /* \"#utility.yul\":11988:11991   */\n      dup8\n        /* \"#utility.yul\":11981:11991   */\n      swap6\n      pop\n        /* \"#utility.yul\":11030:11997   */\n      pop\n      pop\n      pop\n      pop\n      pop\n        /* \"#utility.yul\":10846:11997   */\n      swap3\n      swap2\n      pop\n      pop\n      jump\t// out\n        /* \"#utility.yul\":12003:12496   */\n    tag_20:\n        /* \"#utility.yul\":12206:12210   */\n      0x00\n        /* \"#utility.yul\":12244:12246   */\n      0x20\n        /* \"#utility.yul\":12233:12242   */\n      dup3\n        /* \"#utility.yul\":12229:12247   */\n      add\n        /* \"#utility.yul\":12221:12247   */\n      swap1\n      pop\n        /* \"#utility.yul\":12293:12302   */\n      dup2\n        /* \"#utility.yul\":12287:12291   */\n      dup2\n        /* \"#utility.yul\":12283:12303   */\n      sub\n        /* \"#utility.yul\":12279:12280   */\n      0x00\n        /* \"#utility.yul\":12268:12277   */\n      dup4\n        /* \"#utility.yul\":12264:12281   */\n      add\n        /* \"#utility.yul\":12257:12304   */\n      mstore\n        /* \"#utility.yul\":12321:12489   */\n      tag_412\n        /* \"#utility.yul\":12484:12488   */\n      dup2\n        /* \"#utility.yul\":12475:12481   */\n      dup5\n        /* \"#utility.yul\":12321:12489   */\n      tag_264\n      jump\t// in\n    tag_412:\n        /* \"#utility.yul\":12313:12489   */\n      swap1\n      pop\n        /* \"#utility.yul\":12003:12496   */\n      swap3\n      swap2\n      pop\n      pop\n      jump\t// out\n        /* \"#utility.yul\":12590:14365   */\n    tag_265:\n        /* \"#utility.yul\":12719:12722   */\n      0x00\n        /* \"#utility.yul\":12755:12759   */\n      0xe0\n        /* \"#utility.yul\":12750:12753   */\n      dup4\n        /* \"#utility.yul\":12746:12760   */\n      add\n        /* \"#utility.yul\":12849:12853   */\n      0x00\n        /* \"#utility.yul\":12842:12847   */\n      dup4\n        /* \"#utility.yul\":12838:12854   */\n      add\n        /* \"#utility.yul\":12832:12855   */\n      mload\n        /* \"#utility.yul\":12868:12947   */\n      tag_414\n        /* \"#utility.yul\":12941:12945   */\n      0x00\n        /* \"#utility.yul\":12936:12939   */\n      dup7\n        /* \"#utility.yul\":12932:12946   */\n      add\n        /* \"#utility.yul\":12918:12930   */\n      dup3\n        /* \"#utility.yul\":12868:12947   */\n      tag_253\n      jump\t// in\n    tag_414:\n        /* \"#utility.yul\":12770:12957   */\n      pop\n        /* \"#utility.yul\":13043:13047   */\n      0x20\n        /* \"#utility.yul\":13036:13041   */\n      dup4\n        /* \"#utility.yul\":13032:13048   */\n      add\n        /* \"#utility.yul\":13026:13049   */\n      mload\n        /* \"#utility.yul\":13096:13099   */\n      dup5\n        /* \"#utility.yul\":13090:13094   */\n      dup3\n        /* \"#utility.yul\":13086:13100   */\n      sub\n        /* \"#utility.yul\":13079:13083   */\n      0x20\n        /* \"#utility.yul\":13074:13077   */\n      dup7\n        /* \"#utility.yul\":13070:13084   */\n      add\n        /* \"#utility.yul\":13063:13101   */\n      mstore\n        /* \"#utility.yul\":13122:13195   */\n      tag_415\n        /* \"#utility.yul\":13190:13194   */\n      dup3\n        /* \"#utility.yul\":13176:13188   */\n      dup3\n        /* \"#utility.yul\":13122:13195   */\n      tag_258\n      jump\t// in\n    tag_415:\n        /* \"#utility.yul\":13114:13195   */\n      swap2\n      pop\n        /* \"#utility.yul\":12967:13206   */\n      pop\n        /* \"#utility.yul\":13292:13296   */\n      0x40\n        /* \"#utility.yul\":13285:13290   */\n      dup4\n        /* \"#utility.yul\":13281:13297   */\n      add\n        /* \"#utility.yul\":13275:13298   */\n      mload\n        /* \"#utility.yul\":13345:13348   */\n      dup5\n        /* \"#utility.yul\":13339:13343   */\n      dup3\n        /* \"#utility.yul\":13335:13349   */\n      sub\n        /* \"#utility.yul\":13328:13332   */\n      0x40\n        /* \"#utility.yul\":13323:13326   */\n      dup7\n        /* \"#utility.yul\":13319:13333   */\n      add\n        /* \"#utility.yul\":13312:13350   */\n      mstore\n        /* \"#utility.yul\":13371:13444   */\n      tag_416\n        /* \"#utility.yul\":13439:13443   */\n      dup3\n        /* \"#utility.yul\":13425:13437   */\n      dup3\n        /* \"#utility.yul\":13371:13444   */\n      tag_258\n      jump\t// in\n    tag_416:\n        /* \"#utility.yul\":13363:13444   */\n      swap2\n      pop\n        /* \"#utility.yul\":13216:13455   */\n      pop\n        /* \"#utility.yul\":13548:13552   */\n      0x60\n        /* \"#utility.yul\":13541:13546   */\n      dup4\n        /* \"#utility.yul\":13537:13553   */\n      add\n        /* \"#utility.yul\":13531:13554   */\n      mload\n        /* \"#utility.yul\":13567:13630   */\n      tag_417\n        /* \"#utility.yul\":13624:13628   */\n      0x60\n        /* \"#utility.yul\":13619:13622   */\n      dup7\n        /* \"#utility.yul\":13615:13629   */\n      add\n        /* \"#utility.yul\":13601:13613   */\n      dup3\n        /* \"#utility.yul\":13567:13630   */\n      tag_244\n      jump\t// in\n    tag_417:\n        /* \"#utility.yul\":13465:13640   */\n      pop\n        /* \"#utility.yul\":13732:13736   */\n      0x80\n        /* \"#utility.yul\":13725:13730   */\n      dup4\n        /* \"#utility.yul\":13721:13737   */\n      add\n        /* \"#utility.yul\":13715:13738   */\n      mload\n        /* \"#utility.yul\":13751:13814   */\n      tag_418\n        /* \"#utility.yul\":13808:13812   */\n      0x80\n        /* \"#utility.yul\":13803:13806   */\n      dup7\n        /* \"#utility.yul\":13799:13813   */\n      add\n        /* \"#utility.yul\":13785:13797   */\n      dup3\n        /* \"#utility.yul\":13751:13814   */\n      tag_244\n      jump\t// in\n    tag_418:\n        /* \"#utility.yul\":13650:13824   */\n      pop\n        /* \"#utility.yul\":13910:13914   */\n      0xa0\n        /* \"#utility.yul\":13903:13908   */\n      dup4\n        /* \"#utility.yul\":13899:13915   */\n      add\n        /* \"#utility.yul\":13893:13916   */\n      mload\n        /* \"#utility.yul\":13963:13966   */\n      dup5\n        /* \"#utility.yul\":13957:13961   */\n      dup3\n        /* \"#utility.yul\":13953:13967   */\n      sub\n        /* \"#utility.yul\":13946:13950   */\n      0xa0\n        /* \"#utility.yul\":13941:13944   */\n      dup7\n        /* \"#utility.yul\":13937:13951   */\n      add\n        /* \"#utility.yul\":13930:13968   */\n      mstore\n        /* \"#utility.yul\":13989:14148   */\n      tag_419\n        /* \"#utility.yul\":14143:14147   */\n      dup3\n        /* \"#utility.yul\":14129:14141   */\n      dup3\n        /* \"#utility.yul\":13989:14148   */\n      tag_260\n      jump\t// in\n    tag_419:\n        /* \"#utility.yul\":13981:14148   */\n      swap2\n      pop\n        /* \"#utility.yul\":13834:14159   */\n      pop\n        /* \"#utility.yul\":14246:14250   */\n      0xc0\n        /* \"#utility.yul\":14239:14244   */\n      dup4\n        /* \"#utility.yul\":14235:14251   */\n      add\n        /* \"#utility.yul\":14229:14252   */\n      mload\n        /* \"#utility.yul\":14265:14328   */\n      tag_420\n        /* \"#utility.yul\":14322:14326   */\n      0xc0\n        /* \"#utility.yul\":14317:14320   */\n      dup7\n        /* \"#utility.yul\":14313:14327   */\n      add\n        /* \"#utility.yul\":14299:14311   */\n      dup3\n        /* \"#utility.yul\":14265:14328   */\n      tag_244\n      jump\t// in\n    tag_420:\n        /* \"#utility.yul\":14169:14338   */\n      pop\n        /* \"#utility.yul\":14355:14359   */\n      dup1\n        /* \"#utility.yul\":14348:14359   */\n      swap2\n      pop\n        /* \"#utility.yul\":12724:14365   */\n      pop\n        /* \"#utility.yul\":12590:14365   */\n      swap3\n      swap2\n      pop\n      pop\n      jump\t// out\n        /* \"#utility.yul\":14371:14764   */\n    tag_26:\n        /* \"#utility.yul\":14524:14528   */\n      0x00\n        /* \"#utility.yul\":14562:14564   */\n      0x20\n        /* \"#utility.yul\":14551:14560   */\n      dup3\n        /* \"#utility.yul\":14547:14565   */\n      add\n        /* \"#utility.yul\":14539:14565   */\n      swap1\n      pop\n        /* \"#utility.yul\":14611:14620   */\n      dup2\n        /* \"#utility.yul\":14605:14609   */\n      dup2\n        /* \"#utility.yul\":14601:14621   */\n      sub\n        /* \"#utility.yul\":14597:14598   */\n      0x00\n        /* \"#utility.yul\":14586:14595   */\n      dup4\n        /* \"#utility.yul\":14582:14599   */\n      add\n        /* \"#utility.yul\":14575:14622   */\n      mstore\n        /* \"#utility.yul\":14639:14757   */\n      tag_422\n        /* \"#utility.yul\":14752:14756   */\n      dup2\n        /* \"#utility.yul\":14743:14749   */\n      dup5\n        /* \"#utility.yul\":14639:14757   */\n      tag_265\n      jump\t// in\n    tag_422:\n        /* \"#utility.yul\":14631:14757   */\n      swap1\n      pop\n        /* \"#utility.yul\":14371:14764   */\n      swap3\n      swap2\n      pop\n      pop\n      jump\t// out\n        /* \"#utility.yul\":14770:14908   */\n    tag_266:\n        /* \"#utility.yul\":14851:14883   */\n      tag_424\n        /* \"#utility.yul\":14877:14882   */\n      dup2\n        /* \"#utility.yul\":14851:14883   */\n      tag_252\n      jump\t// in\n    tag_424:\n        /* \"#utility.yul\":14844:14849   */\n      dup2\n        /* \"#utility.yul\":14841:14884   */\n      eq\n        /* \"#utility.yul\":14831:14902   */\n      tag_425\n      jumpi\n        /* \"#utility.yul\":14898:14899   */\n      0x00\n        /* \"#utility.yul\":14895:14896   */\n      dup1\n        /* \"#utility.yul\":14888:14900   */\n      revert\n        /* \"#utility.yul\":14831:14902   */\n    tag_425:\n        /* \"#utility.yul\":14770:14908   */\n      pop\n      jump\t// out\n        /* \"#utility.yul\":14914:15069   */\n    tag_267:\n        /* \"#utility.yul\":14968:14973   */\n      0x00\n        /* \"#utility.yul\":15006:15012   */\n      dup2\n        /* \"#utility.yul\":14993:15013   */\n      calldataload\n        /* \"#utility.yul\":14984:15013   */\n      swap1\n      pop\n        /* \"#utility.yul\":15022:15063   */\n      tag_427\n        /* \"#utility.yul\":15057:15062   */\n      dup2\n        /* \"#utility.yul\":15022:15063   */\n      tag_266\n      jump\t// in\n    tag_427:\n        /* \"#utility.yul\":14914:15069   */\n      swap3\n      swap2\n      pop\n      pop\n      jump\t// out\n        /* \"#utility.yul\":15075:15192   */\n    tag_268:\n        /* \"#utility.yul\":15184:15185   */\n      0x00\n        /* \"#utility.yul\":15181:15182   */\n      dup1\n        /* \"#utility.yul\":15174:15186   */\n      revert\n        /* \"#utility.yul\":15198:15315   */\n    tag_269:\n        /* \"#utility.yul\":15307:15308   */\n      0x00\n        /* \"#utility.yul\":15304:15305   */\n      dup1\n        /* \"#utility.yul\":15297:15309   */\n      revert\n        /* \"#utility.yul\":15321:15501   */\n    tag_270:\n        /* \"#utility.yul\":15369:15446   */\n      0x4e487b7100000000000000000000000000000000000000000000000000000000\n        /* \"#utility.yul\":15366:15367   */\n      0x00\n        /* \"#utility.yul\":15359:15447   */\n      mstore\n        /* \"#utility.yul\":15466:15470   */\n      0x41\n        /* \"#utility.yul\":15463:15464   */\n      0x04\n        /* \"#utility.yul\":15456:15471   */\n      mstore\n        /* \"#utility.yul\":15490:15494   */\n      0x24\n        /* \"#utility.yul\":15487:15488   */\n      0x00\n        /* \"#utility.yul\":15480:15495   */\n      revert\n        /* \"#utility.yul\":15507:15788   */\n    tag_271:\n        /* \"#utility.yul\":15590:15617   */\n      tag_432\n        /* \"#utility.yul\":15612:15616   */\n      dup3\n        /* \"#utility.yul\":15590:15617   */\n      tag_257\n      jump\t// in\n    tag_432:\n        /* \"#utility.yul\":15582:15588   */\n      dup2\n        /* \"#utility.yul\":15578:15618   */\n      add\n        /* \"#utility.yul\":15720:15726   */\n      dup2\n        /* \"#utility.yul\":15708:15718   */\n      dup2\n        /* \"#utility.yul\":15705:15727   */\n      lt\n        /* \"#utility.yul\":15684:15702   */\n      0xffffffffffffffff\n        /* \"#utility.yul\":15672:15682   */\n      dup3\n        /* \"#utility.yul\":15669:15703   */\n      gt\n        /* \"#utility.yul\":15666:15728   */\n      or\n        /* \"#utility.yul\":15663:15751   */\n      iszero\n      tag_433\n      jumpi\n        /* \"#utility.yul\":15731:15749   */\n      tag_434\n      tag_270\n      jump\t// in\n    tag_434:\n        /* \"#utility.yul\":15663:15751   */\n    tag_433:\n        /* \"#utility.yul\":15771:15781   */\n      dup1\n        /* \"#utility.yul\":15767:15769   */\n      0x40\n        /* \"#utility.yul\":15760:15782   */\n      mstore\n        /* \"#utility.yul\":15550:15788   */\n      pop\n        /* \"#utility.yul\":15507:15788   */\n      pop\n      pop\n      jump\t// out\n        /* \"#utility.yul\":15794:15923   */\n    tag_272:\n        /* \"#utility.yul\":15828:15834   */\n      0x00\n        /* \"#utility.yul\":15855:15875   */\n      tag_436\n      tag_229\n      jump\t// in\n    tag_436:\n        /* \"#utility.yul\":15845:15875   */\n      swap1\n      pop\n        /* \"#utility.yul\":15884:15917   */\n      tag_437\n        /* \"#utility.yul\":15912:15916   */\n      dup3\n        /* \"#utility.yul\":15904:15910   */\n      dup3\n        /* \"#utility.yul\":15884:15917   */\n      tag_271\n      jump\t// in\n    tag_437:\n        /* \"#utility.yul\":15794:15923   */\n      swap2\n      swap1\n      pop\n      jump\t// out\n        /* \"#utility.yul\":15929:16237   */\n    tag_273:\n        /* \"#utility.yul\":15991:15995   */\n      0x00\n        /* \"#utility.yul\":16081:16099   */\n      0xffffffffffffffff\n        /* \"#utility.yul\":16073:16079   */\n      dup3\n        /* \"#utility.yul\":16070:16100   */\n      gt\n        /* \"#utility.yul\":16067:16123   */\n      iszero\n      tag_439\n      jumpi\n        /* \"#utility.yul\":16103:16121   */\n      tag_440\n      tag_270\n      jump\t// in\n    tag_440:\n        /* \"#utility.yul\":16067:16123   */\n    tag_439:\n        /* \"#utility.yul\":16141:16170   */\n      tag_441\n        /* \"#utility.yul\":16163:16169   */\n      dup3\n        /* \"#utility.yul\":16141:16170   */\n      tag_257\n      jump\t// in\n    tag_441:\n        /* \"#utility.yul\":16133:16170   */\n      swap1\n      pop\n        /* \"#utility.yul\":16225:16229   */\n      0x20\n        /* \"#utility.yul\":16219:16223   */\n      dup2\n        /* \"#utility.yul\":16215:16230   */\n      add\n        /* \"#utility.yul\":16207:16230   */\n      swap1\n      pop\n        /* \"#utility.yul\":15929:16237   */\n      swap2\n      swap1\n      pop\n      jump\t// out\n        /* \"#utility.yul\":16243:16389   */\n    tag_274:\n        /* \"#utility.yul\":16340:16346   */\n      dup3\n        /* \"#utility.yul\":16335:16338   */\n      dup2\n        /* \"#utility.yul\":16330:16333   */\n      dup4\n        /* \"#utility.yul\":16317:16347   */\n      calldatacopy\n        /* \"#utility.yul\":16381:16382   */\n      0x00\n        /* \"#utility.yul\":16372:16378   */\n      dup4\n        /* \"#utility.yul\":16367:16370   */\n      dup4\n        /* \"#utility.yul\":16363:16379   */\n      add\n        /* \"#utility.yul\":16356:16383   */\n      mstore\n        /* \"#utility.yul\":16243:16389   */\n      pop\n      pop\n      pop\n      jump\t// out\n        /* \"#utility.yul\":16395:16820   */\n    tag_275:\n        /* \"#utility.yul\":16473:16478   */\n      0x00\n        /* \"#utility.yul\":16498:16564   */\n      tag_444\n        /* \"#utility.yul\":16514:16563   */\n      tag_445\n        /* \"#utility.yul\":16556:16562   */\n      dup5\n        /* \"#utility.yul\":16514:16563   */\n      tag_273\n      jump\t// in\n    tag_445:\n        /* \"#utility.yul\":16498:16564   */\n      tag_272\n      jump\t// in\n    tag_444:\n        /* \"#utility.yul\":16489:16564   */\n      swap1\n      pop\n        /* \"#utility.yul\":16587:16593   */\n      dup3\n        /* \"#utility.yul\":16580:16585   */\n      dup2\n        /* \"#utility.yul\":16573:16594   */\n      mstore\n        /* \"#utility.yul\":16625:16629   */\n      0x20\n        /* \"#utility.yul\":16618:16623   */\n      dup2\n        /* \"#utility.yul\":16614:16630   */\n      add\n        /* \"#utility.yul\":16663:16666   */\n      dup5\n        /* \"#utility.yul\":16654:16660   */\n      dup5\n        /* \"#utility.yul\":16649:16652   */\n      dup5\n        /* \"#utility.yul\":16645:16661   */\n      add\n        /* \"#utility.yul\":16642:16667   */\n      gt\n        /* \"#utility.yul\":16639:16751   */\n      iszero\n      tag_446\n      jumpi\n        /* \"#utility.yul\":16670:16749   */\n      tag_447\n      tag_269\n      jump\t// in\n    tag_447:\n        /* \"#utility.yul\":16639:16751   */\n    tag_446:\n        /* \"#utility.yul\":16760:16814   */\n      tag_448\n        /* \"#utility.yul\":16807:16813   */\n      dup5\n        /* \"#utility.yul\":16802:16805   */\n      dup3\n        /* \"#utility.yul\":16797:16800   */\n      dup6\n        /* \"#utility.yul\":16760:16814   */\n      tag_274\n      jump\t// in\n    tag_448:\n        /* \"#utility.yul\":16479:16820   */\n      pop\n        /* \"#utility.yul\":16395:16820   */\n      swap4\n      swap3\n      pop\n      pop\n      pop\n      jump\t// out\n        /* \"#utility.yul\":16840:17180   */\n    tag_276:\n        /* \"#utility.yul\":16896:16901   */\n      0x00\n        /* \"#utility.yul\":16945:16948   */\n      dup3\n        /* \"#utility.yul\":16938:16942   */\n      0x1f\n        /* \"#utility.yul\":16930:16936   */\n      dup4\n        /* \"#utility.yul\":16926:16943   */\n      add\n        /* \"#utility.yul\":16922:16949   */\n      slt\n        /* \"#utility.yul\":16912:17034   */\n      tag_450\n      jumpi\n        /* \"#utility.yul\":16953:17032   */\n      tag_451\n      tag_268\n      jump\t// in\n    tag_451:\n        /* \"#utility.yul\":16912:17034   */\n    tag_450:\n        /* \"#utility.yul\":17070:17076   */\n      dup2\n        /* \"#utility.yul\":17057:17077   */\n      calldataload\n        /* \"#utility.yul\":17095:17174   */\n      tag_452\n        /* \"#utility.yul\":17170:17173   */\n      dup5\n        /* \"#utility.yul\":17162:17168   */\n      dup3\n        /* \"#utility.yul\":17155:17159   */\n      0x20\n        /* \"#utility.yul\":17147:17153   */\n      dup7\n        /* \"#utility.yul\":17143:17160   */\n      add\n        /* \"#utility.yul\":17095:17174   */\n      tag_275\n      jump\t// in\n    tag_452:\n        /* \"#utility.yul\":17086:17174   */\n      swap2\n      pop\n        /* \"#utility.yul\":16902:17180   */\n      pop\n        /* \"#utility.yul\":16840:17180   */\n      swap3\n      swap2\n      pop\n      pop\n      jump\t// out\n        /* \"#utility.yul\":17186:18327   */\n    tag_30:\n        /* \"#utility.yul\":17300:17306   */\n      0x00\n        /* \"#utility.yul\":17308:17314   */\n      dup1\n        /* \"#utility.yul\":17316:17322   */\n      0x00\n        /* \"#utility.yul\":17324:17330   */\n      dup1\n        /* \"#utility.yul\":17373:17376   */\n      0x80\n        /* \"#utility.yul\":17361:17370   */\n      dup6\n        /* \"#utility.yul\":17352:17359   */\n      dup8\n        /* \"#utility.yul\":17348:17371   */\n      sub\n        /* \"#utility.yul\":17344:17377   */\n      slt\n        /* \"#utility.yul\":17341:17461   */\n      iszero\n      tag_454\n      jumpi\n        /* \"#utility.yul\":17380:17459   */\n      tag_455\n      tag_230\n      jump\t// in\n    tag_455:\n        /* \"#utility.yul\":17341:17461   */\n    tag_454:\n        /* \"#utility.yul\":17500:17501   */\n      0x00\n        /* \"#utility.yul\":17525:17586   */\n      tag_456\n        /* \"#utility.yul\":17578:17585   */\n      dup8\n        /* \"#utility.yul\":17569:17575   */\n      dup3\n        /* \"#utility.yul\":17558:17567   */\n      dup9\n        /* \"#utility.yul\":17554:17576   */\n      add\n        /* \"#utility.yul\":17525:17586   */\n      tag_267\n      jump\t// in\n    tag_456:\n        /* \"#utility.yul\":17515:17586   */\n      swap5\n      pop\n        /* \"#utility.yul\":17471:17596   */\n      pop\n        /* \"#utility.yul\":17663:17665   */\n      0x20\n        /* \"#utility.yul\":17652:17661   */\n      dup6\n        /* \"#utility.yul\":17648:17666   */\n      add\n        /* \"#utility.yul\":17635:17667   */\n      calldataload\n        /* \"#utility.yul\":17694:17712   */\n      0xffffffffffffffff\n        /* \"#utility.yul\":17686:17692   */\n      dup2\n        /* \"#utility.yul\":17683:17713   */\n      gt\n        /* \"#utility.yul\":17680:17797   */\n      iszero\n      tag_457\n      jumpi\n        /* \"#utility.yul\":17716:17795   */\n      tag_458\n      tag_231\n      jump\t// in\n    tag_458:\n        /* \"#utility.yul\":17680:17797   */\n    tag_457:\n        /* \"#utility.yul\":17821:17884   */\n      tag_459\n        /* \"#utility.yul\":17876:17883   */\n      dup8\n        /* \"#utility.yul\":17867:17873   */\n      dup3\n        /* \"#utility.yul\":17856:17865   */\n      dup9\n        /* \"#utility.yul\":17852:17874   */\n      add\n        /* \"#utility.yul\":17821:17884   */\n      tag_276\n      jump\t// in\n    tag_459:\n        /* \"#utility.yul\":17811:17884   */\n      swap4\n      pop\n        /* \"#utility.yul\":17606:17894   */\n      pop\n        /* \"#utility.yul\":17961:17963   */\n      0x40\n        /* \"#utility.yul\":17950:17959   */\n      dup6\n        /* \"#utility.yul\":17946:17964   */\n      add\n        /* \"#utility.yul\":17933:17965   */\n      calldataload\n        /* \"#utility.yul\":17992:18010   */\n      0xffffffffffffffff\n        /* \"#utility.yul\":17984:17990   */\n      dup2\n        /* \"#utility.yul\":17981:18011   */\n      gt\n        /* \"#utility.yul\":17978:18095   */\n      iszero\n      tag_460\n      jumpi\n        /* \"#utility.yul\":18014:18093   */\n      tag_461\n      tag_231\n      jump\t// in\n    tag_461:\n        /* \"#utility.yul\":17978:18095   */\n    tag_460:\n        /* \"#utility.yul\":18119:18182   */\n      tag_462\n        /* \"#utility.yul\":18174:18181   */\n      dup8\n        /* \"#utility.yul\":18165:18171   */\n      dup3\n        /* \"#utility.yul\":18154:18163   */\n      dup9\n        /* \"#utility.yul\":18150:18172   */\n      add\n        /* \"#utility.yul\":18119:18182   */\n      tag_276\n      jump\t// in\n    tag_462:\n        /* \"#utility.yul\":18109:18182   */\n      swap3\n      pop\n        /* \"#utility.yul\":17904:18192   */\n      pop\n        /* \"#utility.yul\":18231:18233   */\n      0x60\n        /* \"#utility.yul\":18257:18310   */\n      tag_463\n        /* \"#utility.yul\":18302:18309   */\n      dup8\n        /* \"#utility.yul\":18293:18299   */\n      dup3\n        /* \"#utility.yul\":18282:18291   */\n      dup9\n        /* \"#utility.yul\":18278:18300   */\n      add\n        /* \"#utility.yul\":18257:18310   */\n      tag_234\n      jump\t// in\n    tag_463:\n        /* \"#utility.yul\":18247:18310   */\n      swap2\n      pop\n        /* \"#utility.yul\":18202:18320   */\n      pop\n        /* \"#utility.yul\":17186:18327   */\n      swap3\n      swap6\n      swap2\n      swap5\n      pop\n      swap3\n      pop\n      jump\t// out\n        /* \"#utility.yul\":18333:18455   */\n    tag_277:\n        /* \"#utility.yul\":18406:18430   */\n      tag_465\n        /* \"#utility.yul\":18424:18429   */\n      dup2\n        /* \"#utility.yul\":18406:18430   */\n      tag_242\n      jump\t// in\n    tag_465:\n        /* \"#utility.yul\":18399:18404   */\n      dup2\n        /* \"#utility.yul\":18396:18431   */\n      eq\n        /* \"#utility.yul\":18386:18449   */\n      tag_466\n      jumpi\n        /* \"#utility.yul\":18445:18446   */\n      0x00\n        /* \"#utility.yul\":18442:18443   */\n      dup1\n        /* \"#utility.yul\":18435:18447   */\n      revert\n        /* \"#utility.yul\":18386:18449   */\n    tag_466:\n        /* \"#utility.yul\":18333:18455   */\n      pop\n      jump\t// out\n        /* \"#utility.yul\":18461:18600   */\n    tag_278:\n        /* \"#utility.yul\":18507:18512   */\n      0x00\n        /* \"#utility.yul\":18545:18551   */\n      dup2\n        /* \"#utility.yul\":18532:18552   */\n      calldataload\n        /* \"#utility.yul\":18523:18552   */\n      swap1\n      pop\n        /* \"#utility.yul\":18561:18594   */\n      tag_468\n        /* \"#utility.yul\":18588:18593   */\n      dup2\n        /* \"#utility.yul\":18561:18594   */\n      tag_277\n      jump\t// in\n    tag_468:\n        /* \"#utility.yul\":18461:18600   */\n      swap3\n      swap2\n      pop\n      pop\n      jump\t// out\n        /* \"#utility.yul\":18606:19225   */\n    tag_34:\n        /* \"#utility.yul\":18683:18689   */\n      0x00\n        /* \"#utility.yul\":18691:18697   */\n      dup1\n        /* \"#utility.yul\":18699:18705   */\n      0x00\n        /* \"#utility.yul\":18748:18750   */\n      0x60\n        /* \"#utility.yul\":18736:18745   */\n      dup5\n        /* \"#utility.yul\":18727:18734   */\n      dup7\n        /* \"#utility.yul\":18723:18746   */\n      sub\n        /* \"#utility.yul\":18719:18751   */\n      slt\n        /* \"#utility.yul\":18716:18835   */\n      iszero\n      tag_470\n      jumpi\n        /* \"#utility.yul\":18754:18833   */\n      tag_471\n      tag_230\n      jump\t// in\n    tag_471:\n        /* \"#utility.yul\":18716:18835   */\n    tag_470:\n        /* \"#utility.yul\":18874:18875   */\n      0x00\n        /* \"#utility.yul\":18899:18952   */\n      tag_472\n        /* \"#utility.yul\":18944:18951   */\n      dup7\n        /* \"#utility.yul\":18935:18941   */\n      dup3\n        /* \"#utility.yul\":18924:18933   */\n      dup8\n        /* \"#utility.yul\":18920:18942   */\n      add\n        /* \"#utility.yul\":18899:18952   */\n      tag_234\n      jump\t// in\n    tag_472:\n        /* \"#utility.yul\":18889:18952   */\n      swap4\n      pop\n        /* \"#utility.yul\":18845:18962   */\n      pop\n        /* \"#utility.yul\":19001:19003   */\n      0x20\n        /* \"#utility.yul\":19027:19080   */\n      tag_473\n        /* \"#utility.yul\":19072:19079   */\n      dup7\n        /* \"#utility.yul\":19063:19069   */\n      dup3\n        /* \"#utility.yul\":19052:19061   */\n      dup8\n        /* \"#utility.yul\":19048:19070   */\n      add\n        /* \"#utility.yul\":19027:19080   */\n      tag_234\n      jump\t// in\n    tag_473:\n        /* \"#utility.yul\":19017:19080   */\n      swap3\n      pop\n        /* \"#utility.yul\":18972:19090   */\n      pop\n        /* \"#utility.yul\":19129:19131   */\n      0x40\n        /* \"#utility.yul\":19155:19208   */\n      tag_474\n        /* \"#utility.yul\":19200:19207   */\n      dup7\n        /* \"#utility.yul\":19191:19197   */\n      dup3\n        /* \"#utility.yul\":19180:19189   */\n      dup8\n        /* \"#utility.yul\":19176:19198   */\n      add\n        /* \"#utility.yul\":19155:19208   */\n      tag_278\n      jump\t// in\n    tag_474:\n        /* \"#utility.yul\":19145:19208   */\n      swap2\n      pop\n        /* \"#utility.yul\":19100:19218   */\n      pop\n        /* \"#utility.yul\":18606:19225   */\n      swap3\n      pop\n      swap3\n      pop\n      swap3\n      jump\t// out\n        /* \"#utility.yul\":19231:19411   */\n    tag_40:\n        /* \"#utility.yul\":19279:19356   */\n      0x4e487b7100000000000000000000000000000000000000000000000000000000\n        /* \"#utility.yul\":19276:19277   */\n      0x00\n        /* \"#utility.yul\":19269:19357   */\n      mstore\n        /* \"#utility.yul\":19376:19380   */\n      0x32\n        /* \"#utility.yul\":19373:19374   */\n      0x04\n        /* \"#utility.yul\":19366:19381   */\n      mstore\n        /* \"#utility.yul\":19400:19404   */\n      0x24\n        /* \"#utility.yul\":19397:19398   */\n      0x00\n        /* \"#utility.yul\":19390:19405   */\n      revert\n        /* \"#utility.yul\":19417:19597   */\n    tag_279:\n        /* \"#utility.yul\":19465:19542   */\n      0x4e487b7100000000000000000000000000000000000000000000000000000000\n        /* \"#utility.yul\":19462:19463   */\n      0x00\n        /* \"#utility.yul\":19455:19543   */\n      mstore\n        /* \"#utility.yul\":19562:19566   */\n      0x22\n        /* \"#utility.yul\":19559:19560   */\n      0x04\n        /* \"#utility.yul\":19552:19567   */\n      mstore\n        /* \"#utility.yul\":19586:19590   */\n      0x24\n        /* \"#utility.yul\":19583:19584   */\n      0x00\n        /* \"#utility.yul\":19576:19591   */\n      revert\n        /* \"#utility.yul\":19603:19923   */\n    tag_57:\n        /* \"#utility.yul\":19647:19653   */\n      0x00\n        /* \"#utility.yul\":19684:19685   */\n      0x02\n        /* \"#utility.yul\":19678:19682   */\n      dup3\n        /* \"#utility.yul\":19674:19686   */\n      div\n        /* \"#utility.yul\":19664:19686   */\n      swap1\n      pop\n        /* \"#utility.yul\":19731:19732   */\n      0x01\n        /* \"#utility.yul\":19725:19729   */\n      dup3\n        /* \"#utility.yul\":19721:19733   */\n      and\n        /* \"#utility.yul\":19752:19770   */\n      dup1\n        /* \"#utility.yul\":19742:19823   */\n      tag_478\n      jumpi\n        /* \"#utility.yul\":19808:19812   */\n      0x7f\n        /* \"#utility.yul\":19800:19806   */\n      dup3\n        /* \"#utility.yul\":19796:19813   */\n      and\n        /* \"#utility.yul\":19786:19813   */\n      swap2\n      pop\n        /* \"#utility.yul\":19742:19823   */\n    tag_478:\n        /* \"#utility.yul\":19870:19872   */\n      0x20\n        /* \"#utility.yul\":19862:19868   */\n      dup3\n        /* \"#utility.yul\":19859:19873   */\n      lt\n        /* \"#utility.yul\":19839:19857   */\n      dup2\n        /* \"#utility.yul\":19836:19874   */\n      sub\n        /* \"#utility.yul\":19833:19917   */\n      tag_479\n      jumpi\n        /* \"#utility.yul\":19889:19907   */\n      tag_480\n      tag_279\n      jump\t// in\n    tag_480:\n        /* \"#utility.yul\":19833:19917   */\n    tag_479:\n        /* \"#utility.yul\":19654:19923   */\n      pop\n        /* \"#utility.yul\":19603:19923   */\n      swap2\n      swap1\n      pop\n      jump\t// out\n        /* \"#utility.yul\":19929:20098   */\n    tag_280:\n        /* \"#utility.yul\":20013:20024   */\n      0x00\n        /* \"#utility.yul\":20047:20053   */\n      dup3\n        /* \"#utility.yul\":20042:20045   */\n      dup3\n        /* \"#utility.yul\":20035:20054   */\n      mstore\n        /* \"#utility.yul\":20087:20091   */\n      0x20\n        /* \"#utility.yul\":20082:20085   */\n      dup3\n        /* \"#utility.yul\":20078:20092   */\n      add\n        /* \"#utility.yul\":20063:20092   */\n      swap1\n      pop\n        /* \"#utility.yul\":19929:20098   */\n      swap3\n      swap2\n      pop\n      pop\n      jump\t// out\n        /* \"#utility.yul\":20104:20286   */\n    tag_281:\n        /* \"#utility.yul\":20244:20278   */\n      0x52657175657374656420616d6f756e742063616e206e6f74206265207a65726f\n        /* \"#utility.yul\":20240:20241   */\n      0x00\n        /* \"#utility.yul\":20232:20238   */\n      dup3\n        /* \"#utility.yul\":20228:20242   */\n      add\n        /* \"#utility.yul\":20221:20279   */\n      mstore\n        /* \"#utility.yul\":20104:20286   */\n      pop\n      jump\t// out\n        /* \"#utility.yul\":20292:20658   */\n    tag_282:\n        /* \"#utility.yul\":20434:20437   */\n      0x00\n        /* \"#utility.yul\":20455:20522   */\n      tag_484\n        /* \"#utility.yul\":20519:20521   */\n      0x20\n        /* \"#utility.yul\":20514:20517   */\n      dup4\n        /* \"#utility.yul\":20455:20522   */\n      tag_280\n      jump\t// in\n    tag_484:\n        /* \"#utility.yul\":20448:20522   */\n      swap2\n      pop\n        /* \"#utility.yul\":20531:20624   */\n      tag_485\n        /* \"#utility.yul\":20620:20623   */\n      dup3\n        /* \"#utility.yul\":20531:20624   */\n      tag_281\n      jump\t// in\n    tag_485:\n        /* \"#utility.yul\":20649:20651   */\n      0x20\n        /* \"#utility.yul\":20644:20647   */\n      dup3\n        /* \"#utility.yul\":20640:20652   */\n      add\n        /* \"#utility.yul\":20633:20652   */\n      swap1\n      pop\n        /* \"#utility.yul\":20292:20658   */\n      swap2\n      swap1\n      pop\n      jump\t// out\n        /* \"#utility.yul\":20664:21083   */\n    tag_125:\n        /* \"#utility.yul\":20830:20834   */\n      0x00\n        /* \"#utility.yul\":20868:20870   */\n      0x20\n        /* \"#utility.yul\":20857:20866   */\n      dup3\n        /* \"#utility.yul\":20853:20871   */\n      add\n        /* \"#utility.yul\":20845:20871   */\n      swap1\n      pop\n        /* \"#utility.yul\":20917:20926   */\n      dup2\n        /* \"#utility.yul\":20911:20915   */\n      dup2\n        /* \"#utility.yul\":20907:20927   */\n      sub\n        /* \"#utility.yul\":20903:20904   */\n      0x00\n        /* \"#utility.yul\":20892:20901   */\n      dup4\n        /* \"#utility.yul\":20888:20905   */\n      add\n        /* \"#utility.yul\":20881:20928   */\n      mstore\n        /* \"#utility.yul\":20945:21076   */\n      tag_487\n        /* \"#utility.yul\":21071:21075   */\n      dup2\n        /* \"#utility.yul\":20945:21076   */\n      tag_282\n      jump\t// in\n    tag_487:\n        /* \"#utility.yul\":20937:21076   */\n      swap1\n      pop\n        /* \"#utility.yul\":20664:21083   */\n      swap2\n      swap1\n      pop\n      jump\t// out\n        /* \"#utility.yul\":21089:21264   */\n    tag_283:\n        /* \"#utility.yul\":21229:21256   */\n      0x596f75206861766520746f2061646420706f7374207465787400000000000000\n        /* \"#utility.yul\":21225:21226   */\n      0x00\n        /* \"#utility.yul\":21217:21223   */\n      dup3\n        /* \"#utility.yul\":21213:21227   */\n      add\n        /* \"#utility.yul\":21206:21257   */\n      mstore\n        /* \"#utility.yul\":21089:21264   */\n      pop\n      jump\t// out\n        /* \"#utility.yul\":21270:21636   */\n    tag_284:\n        /* \"#utility.yul\":21412:21415   */\n      0x00\n        /* \"#utility.yul\":21433:21500   */\n      tag_490\n        /* \"#utility.yul\":21497:21499   */\n      0x19\n        /* \"#utility.yul\":21492:21495   */\n      dup4\n        /* \"#utility.yul\":21433:21500   */\n      tag_280\n      jump\t// in\n    tag_490:\n        /* \"#utility.yul\":21426:21500   */\n      swap2\n      pop\n        /* \"#utility.yul\":21509:21602   */\n      tag_491\n        /* \"#utility.yul\":21598:21601   */\n      dup3\n        /* \"#utility.yul\":21509:21602   */\n      tag_283\n      jump\t// in\n    tag_491:\n        /* \"#utility.yul\":21627:21629   */\n      0x20\n        /* \"#utility.yul\":21622:21625   */\n      dup3\n        /* \"#utility.yul\":21618:21630   */\n      add\n        /* \"#utility.yul\":21611:21630   */\n      swap1\n      pop\n        /* \"#utility.yul\":21270:21636   */\n      swap2\n      swap1\n      pop\n      jump\t// out\n        /* \"#utility.yul\":21642:22061   */\n    tag_128:\n        /* \"#utility.yul\":21808:21812   */\n      0x00\n        /* \"#utility.yul\":21846:21848   */\n      0x20\n        /* \"#utility.yul\":21835:21844   */\n      dup3\n        /* \"#utility.yul\":21831:21849   */\n      add\n        /* \"#utility.yul\":21823:21849   */\n      swap1\n      pop\n        /* \"#utility.yul\":21895:21904   */\n      dup2\n        /* \"#utility.yul\":21889:21893   */\n      dup2\n        /* \"#utility.yul\":21885:21905   */\n      sub\n        /* \"#utility.yul\":21881:21882   */\n      0x00\n        /* \"#utility.yul\":21870:21879   */\n      dup4\n        /* \"#utility.yul\":21866:21883   */\n      add\n        /* \"#utility.yul\":21859:21906   */\n      mstore\n        /* \"#utility.yul\":21923:22054   */\n      tag_493\n        /* \"#utility.yul\":22049:22053   */\n      dup2\n        /* \"#utility.yul\":21923:22054   */\n      tag_284\n      jump\t// in\n    tag_493:\n        /* \"#utility.yul\":21915:22054   */\n      swap1\n      pop\n        /* \"#utility.yul\":21642:22061   */\n      swap2\n      swap1\n      pop\n      jump\t// out\n        /* \"#utility.yul\":22067:22208   */\n    tag_285:\n        /* \"#utility.yul\":22116:22120   */\n      0x00\n        /* \"#utility.yul\":22139:22142   */\n      dup2\n        /* \"#utility.yul\":22131:22142   */\n      swap1\n      pop\n        /* \"#utility.yul\":22162:22165   */\n      dup2\n        /* \"#utility.yul\":22159:22160   */\n      0x00\n        /* \"#utility.yul\":22152:22166   */\n      mstore\n        /* \"#utility.yul\":22196:22200   */\n      0x20\n        /* \"#utility.yul\":22193:22194   */\n      0x00\n        /* \"#utility.yul\":22183:22201   */\n      keccak256\n        /* \"#utility.yul\":22175:22201   */\n      swap1\n      pop\n        /* \"#utility.yul\":22067:22208   */\n      swap2\n      swap1\n      pop\n      jump\t// out\n        /* \"#utility.yul\":22214:22307   */\n    tag_286:\n        /* \"#utility.yul\":22251:22257   */\n      0x00\n        /* \"#utility.yul\":22298:22300   */\n      0x20\n        /* \"#utility.yul\":22293:22295   */\n      0x1f\n        /* \"#utility.yul\":22286:22291   */\n      dup4\n        /* \"#utility.yul\":22282:22296   */\n      add\n        /* \"#utility.yul\":22278:22301   */\n      div\n        /* \"#utility.yul\":22268:22301   */\n      swap1\n      pop\n        /* \"#utility.yul\":22214:22307   */\n      swap2\n      swap1\n      pop\n      jump\t// out\n        /* \"#utility.yul\":22313:22420   */\n    tag_287:\n        /* \"#utility.yul\":22357:22365   */\n      0x00\n        /* \"#utility.yul\":22407:22412   */\n      dup3\n        /* \"#utility.yul\":22401:22405   */\n      dup3\n        /* \"#utility.yul\":22397:22413   */\n      shl\n        /* \"#utility.yul\":22376:22413   */\n      swap1\n      pop\n        /* \"#utility.yul\":22313:22420   */\n      swap3\n      swap2\n      pop\n      pop\n      jump\t// out\n        /* \"#utility.yul\":22426:22819   */\n    tag_288:\n        /* \"#utility.yul\":22495:22501   */\n      0x00\n        /* \"#utility.yul\":22545:22546   */\n      0x08\n        /* \"#utility.yul\":22533:22543   */\n      dup4\n        /* \"#utility.yul\":22529:22547   */\n      mul\n        /* \"#utility.yul\":22568:22665   */\n      tag_498\n        /* \"#utility.yul\":22598:22664   */\n      0xffffffffffffffffffffffffffffffffffffffffffffffffffffffffffffffff\n        /* \"#utility.yul\":22587:22596   */\n      dup3\n        /* \"#utility.yul\":22568:22665   */\n      tag_287\n      jump\t// in\n    tag_498:\n        /* \"#utility.yul\":22686:22725   */\n      tag_499\n        /* \"#utility.yul\":22716:22724   */\n      dup7\n        /* \"#utility.yul\":22705:22714   */\n      dup4\n        /* \"#utility.yul\":22686:22725   */\n      tag_287\n      jump\t// in\n    tag_499:\n        /* \"#utility.yul\":22674:22725   */\n      swap6\n      pop\n        /* \"#utility.yul\":22758:22762   */\n      dup1\n        /* \"#utility.yul\":22754:22763   */\n      not\n        /* \"#utility.yul\":22747:22752   */\n      dup5\n        /* \"#utility.yul\":22743:22764   */\n      and\n        /* \"#utility.yul\":22734:22764   */\n      swap4\n      pop\n        /* \"#utility.yul\":22807:22811   */\n      dup1\n        /* \"#utility.yul\":22797:22805   */\n      dup7\n        /* \"#utility.yul\":22793:22812   */\n      and\n        /* \"#utility.yul\":22786:22791   */\n      dup5\n        /* \"#utility.yul\":22783:22813   */\n      or\n        /* \"#utility.yul\":22773:22813   */\n      swap3\n      pop\n        /* \"#utility.yul\":22502:22819   */\n      pop\n      pop\n        /* \"#utility.yul\":22426:22819   */\n      swap4\n      swap3\n      pop\n      pop\n      pop\n      jump\t// out\n        /* \"#utility.yul\":22825:22885   */\n    tag_289:\n        /* \"#utility.yul\":22853:22856   */\n      0x00\n        /* \"#utility.yul\":22874:22879   */\n      dup2\n        /* \"#utility.yul\":22867:22879   */\n      swap1\n      pop\n        /* \"#utility.yul\":22825:22885   */\n      swap2\n      swap1\n      pop\n      jump\t// out\n        /* \"#utility.yul\":22891:23033   */\n    tag_290:\n        /* \"#utility.yul\":22941:22950   */\n      0x00\n        /* \"#utility.yul\":22974:23027   */\n      tag_502\n        /* \"#utility.yul\":22992:23026   */\n      tag_503\n        /* \"#utility.yul\":23001:23025   */\n      tag_504\n        /* \"#utility.yul\":23019:23024   */\n      dup5\n        /* \"#utility.yul\":23001:23025   */\n      tag_232\n      jump\t// in\n    tag_504:\n        /* \"#utility.yul\":22992:23026   */\n      tag_289\n      jump\t// in\n    tag_503:\n        /* \"#utility.yul\":22974:23027   */\n      tag_232\n      jump\t// in\n    tag_502:\n        /* \"#utility.yul\":22961:23027   */\n      swap1\n      pop\n        /* \"#utility.yul\":22891:23033   */\n      swap2\n      swap1\n      pop\n      jump\t// out\n        /* \"#utility.yul\":23039:23114   */\n    tag_291:\n        /* \"#utility.yul\":23082:23085   */\n      0x00\n        /* \"#utility.yul\":23103:23108   */\n      dup2\n        /* \"#utility.yul\":23096:23108   */\n      swap1\n      pop\n        /* \"#utility.yul\":23039:23114   */\n      swap2\n      swap1\n      pop\n      jump\t// out\n        /* \"#utility.yul\":23120:23389   */\n    tag_292:\n        /* \"#utility.yul\":23230:23269   */\n      tag_507\n        /* \"#utility.yul\":23261:23268   */\n      dup4\n        /* \"#utility.yul\":23230:23269   */\n      tag_290\n      jump\t// in\n    tag_507:\n        /* \"#utility.yul\":23291:23382   */\n      tag_508\n        /* \"#utility.yul\":23340:23381   */\n      tag_509\n        /* \"#utility.yul\":23364:23380   */\n      dup3\n        /* \"#utility.yul\":23340:23381   */\n      tag_291\n      jump\t// in\n    tag_509:\n        /* \"#utility.yul\":23332:23338   */\n      dup5\n        /* \"#utility.yul\":23325:23329   */\n      dup5\n        /* \"#utility.yul\":23319:23330   */\n      sload\n        /* \"#utility.yul\":23291:23382   */\n      tag_288\n      jump\t// in\n    tag_508:\n        /* \"#utility.yul\":23285:23289   */\n      dup3\n        /* \"#utility.yul\":23278:23383   */\n      sstore\n        /* \"#utility.yul\":23196:23389   */\n      pop\n        /* \"#utility.yul\":23120:23389   */\n      pop\n      pop\n      pop\n      jump\t// out\n        /* \"#utility.yul\":23395:23468   */\n    tag_293:\n        /* \"#utility.yul\":23440:23443   */\n      0x00\n        /* \"#utility.yul\":23395:23468   */\n      swap1\n      jump\t// out\n        /* \"#utility.yul\":23474:23663   */\n    tag_294:\n        /* \"#utility.yul\":23551:23583   */\n      tag_512\n      tag_293\n      jump\t// in\n    tag_512:\n        /* \"#utility.yul\":23592:23657   */\n      tag_513\n        /* \"#utility.yul\":23650:23656   */\n      dup2\n        /* \"#utility.yul\":23642:23648   */\n      dup5\n        /* \"#utility.yul\":23636:23640   */\n      dup5\n        /* \"#utility.yul\":23592:23657   */\n      tag_292\n      jump\t// in\n    tag_513:\n        /* \"#utility.yul\":23527:23663   */\n      pop\n        /* \"#utility.yul\":23474:23663   */\n      pop\n      pop\n      jump\t// out\n        /* \"#utility.yul\":23669:23855   */\n    tag_295:\n        /* \"#utility.yul\":23729:23849   */\n    tag_515:\n        /* \"#utility.yul\":23746:23749   */\n      dup2\n        /* \"#utility.yul\":23739:23744   */\n      dup2\n        /* \"#utility.yul\":23736:23750   */\n      lt\n        /* \"#utility.yul\":23729:23849   */\n      iszero\n      tag_517\n      jumpi\n        /* \"#utility.yul\":23800:23839   */\n      tag_518\n        /* \"#utility.yul\":23837:23838   */\n      0x00\n        /* \"#utility.yul\":23830:23835   */\n      dup3\n        /* \"#utility.yul\":23800:23839   */\n      tag_294\n      jump\t// in\n    tag_518:\n        /* \"#utility.yul\":23773:23774   */\n      0x01\n        /* \"#utility.yul\":23766:23771   */\n      dup2\n        /* \"#utility.yul\":23762:23775   */\n      add\n        /* \"#utility.yul\":23753:23775   */\n      swap1\n      pop\n        /* \"#utility.yul\":23729:23849   */\n      jump(tag_515)\n    tag_517:\n        /* \"#utility.yul\":23669:23855   */\n      pop\n      pop\n      jump\t// out\n        /* \"#utility.yul\":23861:24404   */\n    tag_296:\n        /* \"#utility.yul\":23962:23964   */\n      0x1f\n        /* \"#utility.yul\":23957:23960   */\n      dup3\n        /* \"#utility.yul\":23954:23965   */\n      gt\n        /* \"#utility.yul\":23951:24397   */\n      iszero\n      tag_520\n      jumpi\n        /* \"#utility.yul\":23996:24034   */\n      tag_521\n        /* \"#utility.yul\":24028:24033   */\n      dup2\n        /* \"#utility.yul\":23996:24034   */\n      tag_285\n      jump\t// in\n    tag_521:\n        /* \"#utility.yul\":24080:24109   */\n      tag_522\n        /* \"#utility.yul\":24098:24108   */\n      dup5\n        /* \"#utility.yul\":24080:24109   */\n      tag_286\n      jump\t// in\n    tag_522:\n        /* \"#utility.yul\":24070:24078   */\n      dup2\n        /* \"#utility.yul\":24066:24110   */\n      add\n        /* \"#utility.yul\":24263:24265   */\n      0x20\n        /* \"#utility.yul\":24251:24261   */\n      dup6\n        /* \"#utility.yul\":24248:24266   */\n      lt\n        /* \"#utility.yul\":24245:24294   */\n      iszero\n      tag_523\n      jumpi\n        /* \"#utility.yul\":24284:24292   */\n      dup2\n        /* \"#utility.yul\":24269:24292   */\n      swap1\n      pop\n        /* \"#utility.yul\":24245:24294   */\n    tag_523:\n        /* \"#utility.yul\":24307:24387   */\n      tag_524\n        /* \"#utility.yul\":24363:24385   */\n      tag_525\n        /* \"#utility.yul\":24381:24384   */\n      dup6\n        /* \"#utility.yul\":24363:24385   */\n      tag_286\n      jump\t// in\n    tag_525:\n        /* \"#utility.yul\":24353:24361   */\n      dup4\n        /* \"#utility.yul\":24349:24386   */\n      add\n        /* \"#utility.yul\":24336:24347   */\n      dup3\n        /* \"#utility.yul\":24307:24387   */\n      tag_295\n      jump\t// in\n    tag_524:\n        /* \"#utility.yul\":23966:24397   */\n      pop\n      pop\n        /* \"#utility.yul\":23951:24397   */\n    tag_520:\n        /* \"#utility.yul\":23861:24404   */\n      pop\n      pop\n      pop\n      jump\t// out\n        /* \"#utility.yul\":24410:24527   */\n    tag_297:\n        /* \"#utility.yul\":24464:24472   */\n      0x00\n        /* \"#utility.yul\":24514:24519   */\n      dup3\n        /* \"#utility.yul\":24508:24512   */\n      dup3\n        /* \"#utility.yul\":24504:24520   */\n      shr\n        /* \"#utility.yul\":24483:24520   */\n      swap1\n      pop\n        /* \"#utility.yul\":24410:24527   */\n      swap3\n      swap2\n      pop\n      pop\n      jump\t// out\n        /* \"#utility.yul\":24533:24702   */\n    tag_298:\n        /* \"#utility.yul\":24577:24583   */\n      0x00\n        /* \"#utility.yul\":24610:24661   */\n      tag_528\n        /* \"#utility.yul\":24658:24659   */\n      0x00\n        /* \"#utility.yul\":24654:24660   */\n      not\n        /* \"#utility.yul\":24646:24651   */\n      dup5\n        /* \"#utility.yul\":24643:24644   */\n      0x08\n        /* \"#utility.yul\":24639:24652   */\n      mul\n        /* \"#utility.yul\":24610:24661   */\n      tag_297\n      jump\t// in\n    tag_528:\n        /* \"#utility.yul\":24606:24662   */\n      not\n        /* \"#utility.yul\":24691:24695   */\n      dup1\n        /* \"#utility.yul\":24685:24689   */\n      dup4\n        /* \"#utility.yul\":24681:24696   */\n      and\n        /* \"#utility.yul\":24671:24696   */\n      swap2\n      pop\n        /* \"#utility.yul\":24584:24702   */\n      pop\n        /* \"#utility.yul\":24533:24702   */\n      swap3\n      swap2\n      pop\n      pop\n      jump\t// out\n        /* \"#utility.yul\":24707:25002   */\n    tag_299:\n        /* \"#utility.yul\":24783:24787   */\n      0x00\n        /* \"#utility.yul\":24929:24958   */\n      tag_530\n        /* \"#utility.yul\":24954:24957   */\n      dup4\n        /* \"#utility.yul\":24948:24952   */\n      dup4\n        /* \"#utility.yul\":24929:24958   */\n      tag_298\n      jump\t// in\n    tag_530:\n        /* \"#utility.yul\":24921:24958   */\n      swap2\n      pop\n        /* \"#utility.yul\":24991:24994   */\n      dup3\n        /* \"#utility.yul\":24988:24989   */\n      0x02\n        /* \"#utility.yul\":24984:24995   */\n      mul\n        /* \"#utility.yul\":24978:24982   */\n      dup3\n        /* \"#utility.yul\":24975:24996   */\n      or\n        /* \"#utility.yul\":24967:24996   */\n      swap1\n      pop\n        /* \"#utility.yul\":24707:25002   */\n      swap3\n      swap2\n      pop\n      pop\n      jump\t// out\n        /* \"#utility.yul\":25007:26402   */\n    tag_130:\n        /* \"#utility.yul\":25124:25161   */\n      tag_532\n        /* \"#utility.yul\":25157:25160   */\n      dup3\n        /* \"#utility.yul\":25124:25161   */\n      tag_254\n      jump\t// in\n    tag_532:\n        /* \"#utility.yul\":25226:25244   */\n      0xffffffffffffffff\n        /* \"#utility.yul\":25218:25224   */\n      dup2\n        /* \"#utility.yul\":25215:25245   */\n      gt\n        /* \"#utility.yul\":25212:25268   */\n      iszero\n      tag_533\n      jumpi\n        /* \"#utility.yul\":25248:25266   */\n      tag_534\n      tag_270\n      jump\t// in\n    tag_534:\n        /* \"#utility.yul\":25212:25268   */\n    tag_533:\n        /* \"#utility.yul\":25292:25330   */\n      tag_535\n        /* \"#utility.yul\":25324:25328   */\n      dup3\n        /* \"#utility.yul\":25318:25329   */\n      sload\n        /* \"#utility.yul\":25292:25330   */\n      tag_57\n      jump\t// in\n    tag_535:\n        /* \"#utility.yul\":25377:25444   */\n      tag_536\n        /* \"#utility.yul\":25437:25443   */\n      dup3\n        /* \"#utility.yul\":25429:25435   */\n      dup3\n        /* \"#utility.yul\":25423:25427   */\n      dup6\n        /* \"#utility.yul\":25377:25444   */\n      tag_296\n      jump\t// in\n    tag_536:\n        /* \"#utility.yul\":25471:25472   */\n      0x00\n        /* \"#utility.yul\":25495:25499   */\n      0x20\n        /* \"#utility.yul\":25482:25499   */\n      swap1\n      pop\n        /* \"#utility.yul\":25527:25529   */\n      0x1f\n        /* \"#utility.yul\":25519:25525   */\n      dup4\n        /* \"#utility.yul\":25516:25530   */\n      gt\n        /* \"#utility.yul\":25544:25545   */\n      0x01\n        /* \"#utility.yul\":25539:26157   */\n      dup2\n      eq\n      tag_538\n      jumpi\n        /* \"#utility.yul\":26201:26202   */\n      0x00\n        /* \"#utility.yul\":26218:26224   */\n      dup5\n        /* \"#utility.yul\":26215:26292   */\n      iszero\n      tag_539\n      jumpi\n        /* \"#utility.yul\":26267:26276   */\n      dup3\n        /* \"#utility.yul\":26262:26265   */\n      dup8\n        /* \"#utility.yul\":26258:26277   */\n      add\n        /* \"#utility.yul\":26252:26278   */\n      mload\n        /* \"#utility.yul\":26243:26278   */\n      swap1\n      pop\n        /* \"#utility.yul\":26215:26292   */\n    tag_539:\n        /* \"#utility.yul\":26318:26385   */\n      tag_540\n        /* \"#utility.yul\":26378:26384   */\n      dup6\n        /* \"#utility.yul\":26371:26376   */\n      dup3\n        /* \"#utility.yul\":26318:26385   */\n      tag_299\n      jump\t// in\n    tag_540:\n        /* \"#utility.yul\":26312:26316   */\n      dup7\n        /* \"#utility.yul\":26305:26386   */\n      sstore\n        /* \"#utility.yul\":26174:26396   */\n      pop\n        /* \"#utility.yul\":25509:26396   */\n      jump(tag_537)\n        /* \"#utility.yul\":25539:26157   */\n    tag_538:\n        /* \"#utility.yul\":25591:25595   */\n      0x1f\n        /* \"#utility.yul\":25587:25596   */\n      not\n        /* \"#utility.yul\":25579:25585   */\n      dup5\n        /* \"#utility.yul\":25575:25597   */\n      and\n        /* \"#utility.yul\":25625:25662   */\n      tag_541\n        /* \"#utility.yul\":25657:25661   */\n      dup7\n        /* \"#utility.yul\":25625:25662   */\n      tag_285\n      jump\t// in\n    tag_541:\n        /* \"#utility.yul\":25684:25685   */\n      0x00\n        /* \"#utility.yul\":25698:25906   */\n    tag_542:\n        /* \"#utility.yul\":25712:25719   */\n      dup3\n        /* \"#utility.yul\":25709:25710   */\n      dup2\n        /* \"#utility.yul\":25706:25720   */\n      lt\n        /* \"#utility.yul\":25698:25906   */\n      iszero\n      tag_544\n      jumpi\n        /* \"#utility.yul\":25791:25800   */\n      dup5\n        /* \"#utility.yul\":25786:25789   */\n      dup10\n        /* \"#utility.yul\":25782:25801   */\n      add\n        /* \"#utility.yul\":25776:25802   */\n      mload\n        /* \"#utility.yul\":25768:25774   */\n      dup3\n        /* \"#utility.yul\":25761:25803   */\n      sstore\n        /* \"#utility.yul\":25842:25843   */\n      0x01\n        /* \"#utility.yul\":25834:25840   */\n      dup3\n        /* \"#utility.yul\":25830:25844   */\n      add\n        /* \"#utility.yul\":25820:25844   */\n      swap2\n      pop\n        /* \"#utility.yul\":25889:25891   */\n      0x20\n        /* \"#utility.yul\":25878:25887   */\n      dup6\n        /* \"#utility.yul\":25874:25892   */\n      add\n        /* \"#utility.yul\":25861:25892   */\n      swap5\n      pop\n        /* \"#utility.yul\":25735:25739   */\n      0x20\n        /* \"#utility.yul\":25732:25733   */\n      dup2\n        /* \"#utility.yul\":25728:25740   */\n      add\n        /* \"#utility.yul\":25723:25740   */\n      swap1\n      pop\n        /* \"#utility.yul\":25698:25906   */\n      jump(tag_542)\n    tag_544:\n        /* \"#utility.yul\":25934:25940   */\n      dup7\n        /* \"#utility.yul\":25925:25932   */\n      dup4\n        /* \"#utility.yul\":25922:25941   */\n      lt\n        /* \"#utility.yul\":25919:26098   */\n      iszero\n      tag_545\n      jumpi\n        /* \"#utility.yul\":25992:26001   */\n      dup5\n        /* \"#utility.yul\":25987:25990   */\n      dup10\n        /* \"#utility.yul\":25983:26002   */\n      add\n        /* \"#utility.yul\":25977:26003   */\n      mload\n        /* \"#utility.yul\":26035:26083   */\n      tag_546\n        /* \"#utility.yul\":26077:26081   */\n      0x1f\n        /* \"#utility.yul\":26069:26075   */\n      dup10\n        /* \"#utility.yul\":26065:26082   */\n      and\n        /* \"#utility.yul\":26054:26063   */\n      dup3\n        /* \"#utility.yul\":26035:26083   */\n      tag_298\n      jump\t// in\n    tag_546:\n        /* \"#utility.yul\":26027:26033   */\n      dup4\n        /* \"#utility.yul\":26020:26084   */\n      sstore\n        /* \"#utility.yul\":25942:26098   */\n      pop\n        /* \"#utility.yul\":25919:26098   */\n    tag_545:\n        /* \"#utility.yul\":26144:26145   */\n      0x01\n        /* \"#utility.yul\":26140:26141   */\n      0x02\n        /* \"#utility.yul\":26132:26138   */\n      dup9\n        /* \"#utility.yul\":26128:26142   */\n      mul\n        /* \"#utility.yul\":26124:26146   */\n      add\n        /* \"#utility.yul\":26118:26122   */\n      dup9\n        /* \"#utility.yul\":26111:26147   */\n      sstore\n        /* \"#utility.yul\":25546:26157   */\n      pop\n      pop\n      pop\n        /* \"#utility.yul\":25509:26396   */\n    tag_537:\n      pop\n        /* \"#utility.yul\":25099:26402   */\n      pop\n      pop\n      pop\n        /* \"#utility.yul\":25007:26402   */\n      pop\n      pop\n      jump\t// out\n        /* \"#utility.yul\":26408:26557   */\n    tag_300:\n        /* \"#utility.yul\":26457:26463   */\n      0x00\n        /* \"#utility.yul\":26491:26496   */\n      dup2\n        /* \"#utility.yul\":26485:26497   */\n      sload\n        /* \"#utility.yul\":26475:26497   */\n      swap1\n      pop\n        /* \"#utility.yul\":26517:26550   */\n      tag_548\n        /* \"#utility.yul\":26543:26549   */\n      dup2\n        /* \"#utility.yul\":26517:26550   */\n      tag_57\n      jump\t// in\n    tag_548:\n        /* \"#utility.yul\":26507:26550   */\n      swap1\n      pop\n        /* \"#utility.yul\":26408:26557   */\n      swap2\n      swap1\n      pop\n      jump\t// out\n        /* \"#utility.yul\":26563:28014   */\n    tag_134:\n        /* \"#utility.yul\":26674:26677   */\n      dup2\n        /* \"#utility.yul\":26668:26672   */\n      dup2\n        /* \"#utility.yul\":26665:26678   */\n      sub\n        /* \"#utility.yul\":26662:26688   */\n      tag_550\n      jumpi\n        /* \"#utility.yul\":26681:26686   */\n      pop\n      pop\n      jump(tag_549)\n        /* \"#utility.yul\":26662:26688   */\n    tag_550:\n        /* \"#utility.yul\":26712:26746   */\n      tag_551\n        /* \"#utility.yul\":26742:26745   */\n      dup3\n        /* \"#utility.yul\":26712:26746   */\n      tag_300\n      jump\t// in\n    tag_551:\n        /* \"#utility.yul\":26811:26829   */\n      0xffffffffffffffff\n        /* \"#utility.yul\":26803:26809   */\n      dup2\n        /* \"#utility.yul\":26800:26830   */\n      gt\n        /* \"#utility.yul\":26797:26853   */\n      iszero\n      tag_552\n      jumpi\n        /* \"#utility.yul\":26833:26851   */\n      tag_553\n      tag_270\n      jump\t// in\n    tag_553:\n        /* \"#utility.yul\":26797:26853   */\n    tag_552:\n        /* \"#utility.yul\":26877:26915   */\n      tag_554\n        /* \"#utility.yul\":26909:26913   */\n      dup3\n        /* \"#utility.yul\":26903:26914   */\n      sload\n        /* \"#utility.yul\":26877:26915   */\n      tag_57\n      jump\t// in\n    tag_554:\n        /* \"#utility.yul\":26962:27029   */\n      tag_555\n        /* \"#utility.yul\":27022:27028   */\n      dup3\n        /* \"#utility.yul\":27014:27020   */\n      dup3\n        /* \"#utility.yul\":27008:27012   */\n      dup6\n        /* \"#utility.yul\":26962:27029   */\n      tag_296\n      jump\t// in\n    tag_555:\n        /* \"#utility.yul\":27056:27057   */\n      0x00\n        /* \"#utility.yul\":27085:27087   */\n      0x1f\n        /* \"#utility.yul\":27077:27083   */\n      dup4\n        /* \"#utility.yul\":27074:27088   */\n      gt\n        /* \"#utility.yul\":27102:27103   */\n      0x01\n        /* \"#utility.yul\":27097:27769   */\n      dup2\n      eq\n      tag_557\n      jumpi\n        /* \"#utility.yul\":27813:27814   */\n      0x00\n        /* \"#utility.yul\":27830:27836   */\n      dup5\n        /* \"#utility.yul\":27827:27904   */\n      iszero\n      tag_558\n      jumpi\n        /* \"#utility.yul\":27879:27888   */\n      dup3\n        /* \"#utility.yul\":27874:27877   */\n      dup8\n        /* \"#utility.yul\":27870:27889   */\n      add\n        /* \"#utility.yul\":27864:27890   */\n      sload\n        /* \"#utility.yul\":27855:27890   */\n      swap1\n      pop\n        /* \"#utility.yul\":27827:27904   */\n    tag_558:\n        /* \"#utility.yul\":27930:27997   */\n      tag_559\n        /* \"#utility.yul\":27990:27996   */\n      dup6\n        /* \"#utility.yul\":27983:27988   */\n      dup3\n        /* \"#utility.yul\":27930:27997   */\n      tag_299\n      jump\t// in\n    tag_559:\n        /* \"#utility.yul\":27924:27928   */\n      dup7\n        /* \"#utility.yul\":27917:27998   */\n      sstore\n        /* \"#utility.yul\":27786:28008   */\n      pop\n        /* \"#utility.yul\":27067:28008   */\n      jump(tag_556)\n        /* \"#utility.yul\":27097:27769   */\n    tag_557:\n        /* \"#utility.yul\":27149:27153   */\n      0x1f\n        /* \"#utility.yul\":27145:27154   */\n      not\n        /* \"#utility.yul\":27137:27143   */\n      dup5\n        /* \"#utility.yul\":27133:27155   */\n      and\n        /* \"#utility.yul\":27175:27211   */\n      tag_560\n        /* \"#utility.yul\":27207:27210   */\n      dup8\n        /* \"#utility.yul\":27175:27211   */\n      tag_285\n      jump\t// in\n    tag_560:\n        /* \"#utility.yul\":27168:27211   */\n      swap7\n      pop\n        /* \"#utility.yul\":27238:27275   */\n      tag_561\n        /* \"#utility.yul\":27270:27274   */\n      dup7\n        /* \"#utility.yul\":27238:27275   */\n      tag_285\n      jump\t// in\n    tag_561:\n        /* \"#utility.yul\":27297:27298   */\n      0x00\n        /* \"#utility.yul\":27311:27518   */\n    tag_562:\n        /* \"#utility.yul\":27325:27332   */\n      dup3\n        /* \"#utility.yul\":27322:27323   */\n      dup2\n        /* \"#utility.yul\":27319:27333   */\n      lt\n        /* \"#utility.yul\":27311:27518   */\n      iszero\n      tag_564\n      jumpi\n        /* \"#utility.yul\":27404:27413   */\n      dup5\n        /* \"#utility.yul\":27399:27402   */\n      dup10\n        /* \"#utility.yul\":27395:27414   */\n      add\n        /* \"#utility.yul\":27389:27415   */\n      sload\n        /* \"#utility.yul\":27381:27387   */\n      dup3\n        /* \"#utility.yul\":27374:27416   */\n      sstore\n        /* \"#utility.yul\":27455:27456   */\n      0x01\n        /* \"#utility.yul\":27447:27453   */\n      dup3\n        /* \"#utility.yul\":27443:27457   */\n      add\n        /* \"#utility.yul\":27433:27457   */\n      swap2\n      pop\n        /* \"#utility.yul\":27502:27503   */\n      0x01\n        /* \"#utility.yul\":27491:27500   */\n      dup6\n        /* \"#utility.yul\":27487:27504   */\n      add\n        /* \"#utility.yul\":27474:27504   */\n      swap5\n      pop\n        /* \"#utility.yul\":27348:27352   */\n      0x20\n        /* \"#utility.yul\":27345:27346   */\n      dup2\n        /* \"#utility.yul\":27341:27353   */\n      add\n        /* \"#utility.yul\":27336:27353   */\n      swap1\n      pop\n        /* \"#utility.yul\":27311:27518   */\n      jump(tag_562)\n    tag_564:\n        /* \"#utility.yul\":27546:27552   */\n      dup7\n        /* \"#utility.yul\":27537:27544   */\n      dup4\n        /* \"#utility.yul\":27534:27553   */\n      lt\n        /* \"#utility.yul\":27531:27710   */\n      iszero\n      tag_565\n      jumpi\n        /* \"#utility.yul\":27604:27613   */\n      dup5\n        /* \"#utility.yul\":27599:27602   */\n      dup10\n        /* \"#utility.yul\":27595:27614   */\n      add\n        /* \"#utility.yul\":27589:27615   */\n      sload\n        /* \"#utility.yul\":27647:27695   */\n      tag_566\n        /* \"#utility.yul\":27689:27693   */\n      0x1f\n        /* \"#utility.yul\":27681:27687   */\n      dup10\n        /* \"#utility.yul\":27677:27694   */\n      and\n        /* \"#utility.yul\":27666:27675   */\n      dup3\n        /* \"#utility.yul\":27647:27695   */\n      tag_298\n      jump\t// in\n    tag_566:\n        /* \"#utility.yul\":27639:27645   */\n      dup4\n        /* \"#utility.yul\":27632:27696   */\n      sstore\n        /* \"#utility.yul\":27554:27710   */\n      pop\n        /* \"#utility.yul\":27531:27710   */\n    tag_565:\n        /* \"#utility.yul\":27756:27757   */\n      0x01\n        /* \"#utility.yul\":27752:27753   */\n      0x02\n        /* \"#utility.yul\":27744:27750   */\n      dup9\n        /* \"#utility.yul\":27740:27754   */\n      mul\n        /* \"#utility.yul\":27736:27758   */\n      add\n        /* \"#utility.yul\":27730:27734   */\n      dup9\n        /* \"#utility.yul\":27723:27759   */\n      sstore\n        /* \"#utility.yul\":27104:27769   */\n      pop\n      pop\n      pop\n        /* \"#utility.yul\":27067:28008   */\n    tag_556:\n      pop\n        /* \"#utility.yul\":26652:28014   */\n      pop\n      pop\n      pop\n        /* \"#utility.yul\":26563:28014   */\n      pop\n      pop\n    tag_549:\n      jump\t// out\n        /* \"#utility.yul\":28020:28200   */\n    tag_301:\n        /* \"#utility.yul\":28068:28145   */\n      0x4e487b7100000000000000000000000000000000000000000000000000000000\n        /* \"#utility.yul\":28065:28066   */\n      0x00\n        /* \"#utility.yul\":28058:28146   */\n      mstore\n        /* \"#utility.yul\":28165:28169   */\n      0x11\n        /* \"#utility.yul\":28162:28163   */\n      0x04\n        /* \"#utility.yul\":28155:28170   */\n      mstore\n        /* \"#utility.yul\":28189:28193   */\n      0x24\n        /* \"#utility.yul\":28186:28187   */\n      0x00\n        /* \"#utility.yul\":28179:28194   */\n      revert\n        /* \"#utility.yul\":28206:28439   */\n    tag_139:\n        /* \"#utility.yul\":28245:28248   */\n      0x00\n        /* \"#utility.yul\":28268:28292   */\n      tag_569\n        /* \"#utility.yul\":28286:28291   */\n      dup3\n        /* \"#utility.yul\":28268:28292   */\n      tag_232\n      jump\t// in\n    tag_569:\n        /* \"#utility.yul\":28259:28292   */\n      swap2\n      pop\n        /* \"#utility.yul\":28314:28380   */\n      0xffffffffffffffffffffffffffffffffffffffffffffffffffffffffffffffff\n        /* \"#utility.yul\":28307:28312   */\n      dup3\n        /* \"#utility.yul\":28304:28381   */\n      sub\n        /* \"#utility.yul\":28301:28404   */\n      tag_570\n      jumpi\n        /* \"#utility.yul\":28384:28402   */\n      tag_571\n      tag_301\n      jump\t// in\n    tag_571:\n        /* \"#utility.yul\":28301:28404   */\n    tag_570:\n        /* \"#utility.yul\":28431:28432   */\n      0x01\n        /* \"#utility.yul\":28424:28429   */\n      dup3\n        /* \"#utility.yul\":28420:28433   */\n      add\n        /* \"#utility.yul\":28413:28433   */\n      swap1\n      pop\n        /* \"#utility.yul\":28206:28439   */\n      swap2\n      swap1\n      pop\n      jump\t// out\n        /* \"#utility.yul\":28445:28639   */\n    tag_148:\n        /* \"#utility.yul\":28485:28489   */\n      0x00\n        /* \"#utility.yul\":28505:28525   */\n      tag_573\n        /* \"#utility.yul\":28523:28524   */\n      dup3\n        /* \"#utility.yul\":28505:28525   */\n      tag_232\n      jump\t// in\n    tag_573:\n        /* \"#utility.yul\":28500:28525   */\n      swap2\n      pop\n        /* \"#utility.yul\":28539:28559   */\n      tag_574\n        /* \"#utility.yul\":28557:28558   */\n      dup4\n        /* \"#utility.yul\":28539:28559   */\n      tag_232\n      jump\t// in\n    tag_574:\n        /* \"#utility.yul\":28534:28559   */\n      swap3\n      pop\n        /* \"#utility.yul\":28583:28584   */\n      dup3\n        /* \"#utility.yul\":28580:28581   */\n      dup3\n        /* \"#utility.yul\":28576:28585   */\n      sub\n        /* \"#utility.yul\":28568:28585   */\n      swap1\n      pop\n        /* \"#utility.yul\":28607:28608   */\n      dup2\n        /* \"#utility.yul\":28601:28605   */\n      dup2\n        /* \"#utility.yul\":28598:28609   */\n      gt\n        /* \"#utility.yul\":28595:28632   */\n      iszero\n      tag_575\n      jumpi\n        /* \"#utility.yul\":28612:28630   */\n      tag_576\n      tag_301\n      jump\t// in\n    tag_576:\n        /* \"#utility.yul\":28595:28632   */\n    tag_575:\n        /* \"#utility.yul\":28445:28639   */\n      swap3\n      swap2\n      pop\n      pop\n      jump\t// out\n        /* \"#utility.yul\":28645:28813   */\n    tag_302:\n        /* \"#utility.yul\":28785:28805   */\n      0x43616e206e6f742073656e642065787472610000000000000000000000000000\n        /* \"#utility.yul\":28781:28782   */\n      0x00\n        /* \"#utility.yul\":28773:28779   */\n      dup3\n        /* \"#utility.yul\":28769:28783   */\n      add\n        /* \"#utility.yul\":28762:28806   */\n      mstore\n        /* \"#utility.yul\":28645:28813   */\n      pop\n      jump\t// out\n        /* \"#utility.yul\":28819:29185   */\n    tag_303:\n        /* \"#utility.yul\":28961:28964   */\n      0x00\n        /* \"#utility.yul\":28982:29049   */\n      tag_579\n        /* \"#utility.yul\":29046:29048   */\n      0x12\n        /* \"#utility.yul\":29041:29044   */\n      dup4\n        /* \"#utility.yul\":28982:29049   */\n      tag_280\n      jump\t// in\n    tag_579:\n        /* \"#utility.yul\":28975:29049   */\n      swap2\n      pop\n        /* \"#utility.yul\":29058:29151   */\n      tag_580\n        /* \"#utility.yul\":29147:29150   */\n      dup3\n        /* \"#utility.yul\":29058:29151   */\n      tag_302\n      jump\t// in\n    tag_580:\n        /* \"#utility.yul\":29176:29178   */\n      0x20\n        /* \"#utility.yul\":29171:29174   */\n      dup3\n        /* \"#utility.yul\":29167:29179   */\n      add\n        /* \"#utility.yul\":29160:29179   */\n      swap1\n      pop\n        /* \"#utility.yul\":28819:29185   */\n      swap2\n      swap1\n      pop\n      jump\t// out\n        /* \"#utility.yul\":29191:29610   */\n    tag_151:\n        /* \"#utility.yul\":29357:29361   */\n      0x00\n        /* \"#utility.yul\":29395:29397   */\n      0x20\n        /* \"#utility.yul\":29384:29393   */\n      dup3\n        /* \"#utility.yul\":29380:29398   */\n      add\n        /* \"#utility.yul\":29372:29398   */\n      swap1\n      pop\n        /* \"#utility.yul\":29444:29453   */\n      dup2\n        /* \"#utility.yul\":29438:29442   */\n      dup2\n        /* \"#utility.yul\":29434:29454   */\n      sub\n        /* \"#utility.yul\":29430:29431   */\n      0x00\n        /* \"#utility.yul\":29419:29428   */\n      dup4\n        /* \"#utility.yul\":29415:29432   */\n      add\n        /* \"#utility.yul\":29408:29455   */\n      mstore\n        /* \"#utility.yul\":29472:29603   */\n      tag_582\n        /* \"#utility.yul\":29598:29602   */\n      dup2\n        /* \"#utility.yul\":29472:29603   */\n      tag_303\n      jump\t// in\n    tag_582:\n        /* \"#utility.yul\":29464:29603   */\n      swap1\n      pop\n        /* \"#utility.yul\":29191:29610   */\n      swap2\n      swap1\n      pop\n      jump\t// out\n        /* \"#utility.yul\":29616:29796   */\n    tag_304:\n        /* \"#utility.yul\":29664:29741   */\n      0x4e487b7100000000000000000000000000000000000000000000000000000000\n        /* \"#utility.yul\":29661:29662   */\n      0x00\n        /* \"#utility.yul\":29654:29742   */\n      mstore\n        /* \"#utility.yul\":29761:29765   */\n      0x12\n        /* \"#utility.yul\":29758:29759   */\n      0x04\n        /* \"#utility.yul\":29751:29766   */\n      mstore\n        /* \"#utility.yul\":29785:29789   */\n      0x24\n        /* \"#utility.yul\":29782:29783   */\n      0x00\n        /* \"#utility.yul\":29775:29790   */\n      revert\n        /* \"#utility.yul\":29802:29987   */\n    tag_156:\n        /* \"#utility.yul\":29842:29843   */\n      0x00\n        /* \"#utility.yul\":29859:29879   */\n      tag_585\n        /* \"#utility.yul\":29877:29878   */\n      dup3\n        /* \"#utility.yul\":29859:29879   */\n      tag_232\n      jump\t// in\n    tag_585:\n        /* \"#utility.yul\":29854:29879   */\n      swap2\n      pop\n        /* \"#utility.yul\":29893:29913   */\n      tag_586\n        /* \"#utility.yul\":29911:29912   */\n      dup4\n        /* \"#utility.yul\":29893:29913   */\n      tag_232\n      jump\t// in\n    tag_586:\n        /* \"#utility.yul\":29888:29913   */\n      swap3\n      pop\n        /* \"#utility.yul\":29932:29933   */\n      dup3\n        /* \"#utility.yul\":29922:29957   */\n      tag_587\n      jumpi\n        /* \"#utility.yul\":29937:29955   */\n      tag_588\n      tag_304\n      jump\t// in\n    tag_588:\n        /* \"#utility.yul\":29922:29957   */\n    tag_587:\n        /* \"#utility.yul\":29979:29980   */\n      dup3\n        /* \"#utility.yul\":29976:29977   */\n      dup3\n        /* \"#utility.yul\":29972:29981   */\n      div\n        /* \"#utility.yul\":29967:29981   */\n      swap1\n      pop\n        /* \"#utility.yul\":29802:29987   */\n      swap3\n      swap2\n      pop\n      pop\n      jump\t// out\n        /* \"#utility.yul\":29993:30140   */\n    tag_305:\n        /* \"#utility.yul\":30094:30105   */\n      0x00\n        /* \"#utility.yul\":30131:30134   */\n      dup2\n        /* \"#utility.yul\":30116:30134   */\n      swap1\n      pop\n        /* \"#utility.yul\":29993:30140   */\n      swap3\n      swap2\n      pop\n      pop\n      jump\t// out\n        /* \"#utility.yul\":30146:30260   */\n    tag_306:\n      pop\n      jump\t// out\n        /* \"#utility.yul\":30266:30664   */\n    tag_307:\n        /* \"#utility.yul\":30425:30428   */\n      0x00\n        /* \"#utility.yul\":30446:30529   */\n      tag_592\n        /* \"#utility.yul\":30527:30528   */\n      0x00\n        /* \"#utility.yul\":30522:30525   */\n      dup4\n        /* \"#utility.yul\":30446:30529   */\n      tag_305\n      jump\t// in\n    tag_592:\n        /* \"#utility.yul\":30439:30529   */\n      swap2\n      pop\n        /* \"#utility.yul\":30538:30631   */\n      tag_593\n        /* \"#utility.yul\":30627:30630   */\n      dup3\n        /* \"#utility.yul\":30538:30631   */\n      tag_306\n      jump\t// in\n    tag_593:\n        /* \"#utility.yul\":30656:30657   */\n      0x00\n        /* \"#utility.yul\":30651:30654   */\n      dup3\n        /* \"#utility.yul\":30647:30658   */\n      add\n        /* \"#utility.yul\":30640:30658   */\n      swap1\n      pop\n        /* \"#utility.yul\":30266:30664   */\n      swap2\n      swap1\n      pop\n      jump\t// out\n        /* \"#utility.yul\":30670:31049   */\n    tag_158:\n        /* \"#utility.yul\":30854:30857   */\n      0x00\n        /* \"#utility.yul\":30876:31023   */\n      tag_595\n        /* \"#utility.yul\":31019:31022   */\n      dup3\n        /* \"#utility.yul\":30876:31023   */\n      tag_307\n      jump\t// in\n    tag_595:\n        /* \"#utility.yul\":30869:31023   */\n      swap2\n      pop\n        /* \"#utility.yul\":31040:31043   */\n      dup2\n        /* \"#utility.yul\":31033:31043   */\n      swap1\n      pop\n        /* \"#utility.yul\":30670:31049   */\n      swap2\n      swap1\n      pop\n      jump\t// out\n        /* \"#utility.yul\":31055:31225   */\n    tag_308:\n        /* \"#utility.yul\":31195:31217   */\n      0x4661696c656420746f2073656e64204574686572000000000000000000000000\n        /* \"#utility.yul\":31191:31192   */\n      0x00\n        /* \"#utility.yul\":31183:31189   */\n      dup3\n        /* \"#utility.yul\":31179:31193   */\n      add\n        /* \"#utility.yul\":31172:31218   */\n      mstore\n        /* \"#utility.yul\":31055:31225   */\n      pop\n      jump\t// out\n        /* \"#utility.yul\":31231:31597   */\n    tag_309:\n        /* \"#utility.yul\":31373:31376   */\n      0x00\n        /* \"#utility.yul\":31394:31461   */\n      tag_598\n        /* \"#utility.yul\":31458:31460   */\n      0x14\n        /* \"#utility.yul\":31453:31456   */\n      dup4\n        /* \"#utility.yul\":31394:31461   */\n      tag_280\n      jump\t// in\n    tag_598:\n        /* \"#utility.yul\":31387:31461   */\n      swap2\n      pop\n        /* \"#utility.yul\":31470:31563   */\n      tag_599\n        /* \"#utility.yul\":31559:31562   */\n      dup3\n        /* \"#utility.yul\":31470:31563   */\n      tag_308\n      jump\t// in\n    tag_599:\n        /* \"#utility.yul\":31588:31590   */\n      0x20\n        /* \"#utility.yul\":31583:31586   */\n      dup3\n        /* \"#utility.yul\":31579:31591   */\n      add\n        /* \"#utility.yul\":31572:31591   */\n      swap1\n      pop\n        /* \"#utility.yul\":31231:31597   */\n      swap2\n      swap1\n      pop\n      jump\t// out\n        /* \"#utility.yul\":31603:32022   */\n    tag_164:\n        /* \"#utility.yul\":31769:31773   */\n      0x00\n        /* \"#utility.yul\":31807:31809   */\n      0x20\n        /* \"#utility.yul\":31796:31805   */\n      dup3\n        /* \"#utility.yul\":31792:31810   */\n      add\n        /* \"#utility.yul\":31784:31810   */\n      swap1\n      pop\n        /* \"#utility.yul\":31856:31865   */\n      dup2\n        /* \"#utility.yul\":31850:31854   */\n      dup2\n        /* \"#utility.yul\":31846:31866   */\n      sub\n        /* \"#utility.yul\":31842:31843   */\n      0x00\n        /* \"#utility.yul\":31831:31840   */\n      dup4\n        /* \"#utility.yul\":31827:31844   */\n      add\n        /* \"#utility.yul\":31820:31867   */\n      mstore\n        /* \"#utility.yul\":31884:32015   */\n      tag_601\n        /* \"#utility.yul\":32010:32014   */\n      dup2\n        /* \"#utility.yul\":31884:32015   */\n      tag_309\n      jump\t// in\n    tag_601:\n        /* \"#utility.yul\":31876:32015   */\n      swap1\n      pop\n        /* \"#utility.yul\":31603:32022   */\n      swap2\n      swap1\n      pop\n      jump\t// out\n        /* \"#utility.yul\":32028:32219   */\n    tag_175:\n        /* \"#utility.yul\":32068:32071   */\n      0x00\n        /* \"#utility.yul\":32087:32107   */\n      tag_603\n        /* \"#utility.yul\":32105:32106   */\n      dup3\n        /* \"#utility.yul\":32087:32107   */\n      tag_232\n      jump\t// in\n    tag_603:\n        /* \"#utility.yul\":32082:32107   */\n      swap2\n      pop\n        /* \"#utility.yul\":32121:32141   */\n      tag_604\n        /* \"#utility.yul\":32139:32140   */\n      dup4\n        /* \"#utility.yul\":32121:32141   */\n      tag_232\n      jump\t// in\n    tag_604:\n        /* \"#utility.yul\":32116:32141   */\n      swap3\n      pop\n        /* \"#utility.yul\":32164:32165   */\n      dup3\n        /* \"#utility.yul\":32161:32162   */\n      dup3\n        /* \"#utility.yul\":32157:32166   */\n      add\n        /* \"#utility.yul\":32150:32166   */\n      swap1\n      pop\n        /* \"#utility.yul\":32185:32188   */\n      dup1\n        /* \"#utility.yul\":32182:32183   */\n      dup3\n        /* \"#utility.yul\":32179:32189   */\n      gt\n        /* \"#utility.yul\":32176:32212   */\n      iszero\n      tag_605\n      jumpi\n        /* \"#utility.yul\":32192:32210   */\n      tag_606\n      tag_301\n      jump\t// in\n    tag_606:\n        /* \"#utility.yul\":32176:32212   */\n    tag_605:\n        /* \"#utility.yul\":32028:32219   */\n      swap3\n      swap2\n      pop\n      pop\n      jump\t// out\n        /* \"#utility.yul\":32225:32405   */\n    tag_206:\n        /* \"#utility.yul\":32273:32350   */\n      0x4e487b7100000000000000000000000000000000000000000000000000000000\n        /* \"#utility.yul\":32270:32271   */\n      0x00\n        /* \"#utility.yul\":32263:32351   */\n      mstore\n        /* \"#utility.yul\":32370:32374   */\n      0x31\n        /* \"#utility.yul\":32367:32368   */\n      0x04\n        /* \"#utility.yul\":32360:32375   */\n      mstore\n        /* \"#utility.yul\":32394:32398   */\n      0x24\n        /* \"#utility.yul\":32391:32392   */\n      0x00\n        /* \"#utility.yul\":32384:32399   */\n      revert\n\n    auxdata: 0xa264697066735822122098bfa979e7c530ccd7dc46eb574b8297bf65bd1517a1785d5013b066120ec47064736f6c63430008100033\n}\n","bytecode":{"linkReferences":{},"object":"60806040526000600b556000600c5534801561001a57600080fd5b506128238061002a6000396000f3fe60806040526004361061004a5760003560e01c80631788db6b1461004f57806365d054fd1461008c57806367c59b56146100c95780637c64cff114610106578063b0862bd21461012f575b600080fd5b34801561005b57600080fd5b50610076600480360381019061007191906118b7565b61014b565b6040516100839190611a25565b60405180910390f35b34801561009857600080fd5b506100b360048036038101906100ae9190611a47565b610319565b6040516100c09190611d00565b60405180910390f35b3480156100d557600080fd5b506100f060048036038101906100eb91906118b7565b61088e565b6040516100fd9190611dcc565b60405180910390f35b34801561011257600080fd5b5061012d60048036038101906101289190611f4f565b610db4565b005b6101496004803603810190610144919061201a565b610fd8565b005b6060811561023557600a83815481106101675761016661206d565b5b9060005260206000209060070201600501805480602002602001604051908101604052809291908181526020016000905b8282101561022a57838290600052602060002090600202016040518060400160405290816000820160009054906101000a900473ffffffffffffffffffffffffffffffffffffffff1673ffffffffffffffffffffffffffffffffffffffff1673ffffffffffffffffffffffffffffffffffffffff16815260200160018201548152505081526020019060010190610198565b505050509050610313565b600983815481106102495761024861206d565b5b9060005260206000209060070201600501805480602002602001604051908101604052809291908181526020016000905b8282101561030c57838290600052602060002090600202016040518060400160405290816000820160009054906101000a900473ffffffffffffffffffffffffffffffffffffffff1673ffffffffffffffffffffffffffffffffffffffff1673ffffffffffffffffffffffffffffffffffffffff1681526020016001820154815250508152602001906001019061027a565b5050505090505b92915050565b606081156105d757600a805480602002602001604051908101604052809291908181526020016000905b828210156105cc57838290600052602060002090600702016040518060e00160405290816000820160009054906101000a900473ffffffffffffffffffffffffffffffffffffffff1673ffffffffffffffffffffffffffffffffffffffff1673ffffffffffffffffffffffffffffffffffffffff1681526020016001820180546103cc906120cb565b80601f01602080910402602001604051908101604052809291908181526020018280546103f8906120cb565b80156104455780601f1061041a57610100808354040283529160200191610445565b820191906000526020600020905b81548152906001019060200180831161042857829003601f168201915b5050505050815260200160028201805461045e906120cb565b80601f016020809104026020016040519081016040528092919081815260200182805461048a906120cb565b80156104d75780601f106104ac576101008083540402835291602001916104d7565b820191906000526020600020905b8154815290600101906020018083116104ba57829003601f168201915b50505050508152602001600382015481526020016004820154815260200160058201805480602002602001604051908101604052809291908181526020016000905b828210156105ab57838290600052602060002090600202016040518060400160405290816000820160009054906101000a900473ffffffffffffffffffffffffffffffffffffffff1673ffffffffffffffffffffffffffffffffffffffff1673ffffffffffffffffffffffffffffffffffffffff16815260200160018201548152505081526020019060010190610519565b50505050815260200160068201548152505081526020019060010190610343565b505050509050610889565b6009805480602002602001604051908101604052809291908181526020016000905b8282101561088257838290600052602060002090600702016040518060e00160405290816000820160009054906101000a900473ffffffffffffffffffffffffffffffffffffffff1673ffffffffffffffffffffffffffffffffffffffff1673ffffffffffffffffffffffffffffffffffffffff168152602001600182018054610682906120cb565b80601f01602080910402602001604051908101604052809291908181526020018280546106ae906120cb565b80156106fb5780601f106106d0576101008083540402835291602001916106fb565b820191906000526020600020905b8154815290600101906020018083116106de57829003601f168201915b50505050508152602001600282018054610714906120cb565b80601f0160208091040260200160405190810160405280929190818152602001828054610740906120cb565b801561078d5780601f106107625761010080835404028352916020019161078d565b820191906000526020600020905b81548152906001019060200180831161077057829003601f168201915b50505050508152602001600382015481526020016004820154815260200160058201805480602002602001604051908101604052809291908181526020016000905b8282101561086157838290600052602060002090600202016040518060400160405290816000820160009054906101000a900473ffffffffffffffffffffffffffffffffffffffff1673ffffffffffffffffffffffffffffffffffffffff1673ffffffffffffffffffffffffffffffffffffffff168152602001600182015481525050815260200190600101906107cf565b505050508152602001600682015481525050815260200190600101906105f9565b5050505090505b919050565b610896611652565b8115610b2757600a83815481106108b0576108af61206d565b5b90600052602060002090600702016040518060e00160405290816000820160009054906101000a900473ffffffffffffffffffffffffffffffffffffffff1673ffffffffffffffffffffffffffffffffffffffff1673ffffffffffffffffffffffffffffffffffffffff16815260200160018201805461092f906120cb565b80601f016020809104026020016040519081016040528092919081815260200182805461095b906120cb565b80156109a85780601f1061097d576101008083540402835291602001916109a8565b820191906000526020600020905b81548152906001019060200180831161098b57829003601f168201915b505050505081526020016002820180546109c1906120cb565b80601f01602080910402602001604051908101604052809291908181526020018280546109ed906120cb565b8015610a3a5780601f10610a0f57610100808354040283529160200191610a3a565b820191906000526020600020905b815481529060010190602001808311610a1d57829003601f168201915b50505050508152602001600382015481526020016004820154815260200160058201805480602002602001604051908101604052809291908181526020016000905b82821015610b0e57838290600052602060002090600202016040518060400160405290816000820160009054906101000a900473ffffffffffffffffffffffffffffffffffffffff1673ffffffffffffffffffffffffffffffffffffffff1673ffffffffffffffffffffffffffffffffffffffff16815260200160018201548152505081526020019060010190610a7c565b5050505081526020016006820154815250509050610dae565b60098381548110610b3b57610b3a61206d565b5b90600052602060002090600702016040518060e00160405290816000820160009054906101000a900473ffffffffffffffffffffffffffffffffffffffff1673ffffffffffffffffffffffffffffffffffffffff1673ffffffffffffffffffffffffffffffffffffffff168152602001600182018054610bba906120cb565b80601f0160208091040260200160405190810160405280929190818152602001828054610be6906120cb565b8015610c335780601f10610c0857610100808354040283529160200191610c33565b820191906000526020600020905b815481529060010190602001808311610c1657829003601f168201915b50505050508152602001600282018054610c4c906120cb565b80601f0160208091040260200160405190810160405280929190818152602001828054610c78906120cb565b8015610cc55780601f10610c9a57610100808354040283529160200191610cc5565b820191906000526020600020905b815481529060010190602001808311610ca857829003601f168201915b50505050508152602001600382015481526020016004820154815260200160058201805480602002602001604051908101604052809291908181526020016000905b82821015610d9957838290600052602060002090600202016040518060400160405290816000820160009054906101000a900473ffffffffffffffffffffffffffffffffffffffff1673ffffffffffffffffffffffffffffffffffffffff1673ffffffffffffffffffffffffffffffffffffffff16815260200160018201548152505081526020019060010190610d07565b50505050815260200160068201548152505090505b92915050565b60008103610df7576040517f08c379a0000000000000000000000000000000000000000000000000000000008152600401610dee90612159565b60405180910390fd5b6000835103610e3b576040517f08c379a0000000000000000000000000000000000000000000000000000000008152600401610e32906121c5565b60405180910390fd5b83600260000160006101000a81548173ffffffffffffffffffffffffffffffffffffffff021916908373ffffffffffffffffffffffffffffffffffffffff1602179055508260026001019081610e919190612391565b5081600280019081610ea39190612391565b50806002600301819055506000600260040181905550600b54600260060181905550600a600290806001815401808255809150506001900390600052602060002090600702016000909190919091506000820160009054906101000a900473ffffffffffffffffffffffffffffffffffffffff168160000160006101000a81548173ffffffffffffffffffffffffffffffffffffffff021916908373ffffffffffffffffffffffffffffffffffffffff16021790555060018201816001019081610f6d9190612479565b5060028201816002019081610f829190612479565b5060038201548160030155600482015481600401556005820181600501908054610fad9291906116a5565b50600682015481600601555050600b6000815480929190610fcd90612590565b919050555050505050565b600a8381548110610fec57610feb61206d565b5b906000526020600020906007020160040154600a84815481106110125761101161206d565b5b90600052602060002090600702016003015461102e91906125d8565b821115611070576040517f08c379a000000000000000000000000000000000000000000000000000000000815260040161106790612658565b60405180910390fd5b600080600a85815481106110875761108661206d565b5b906000526020600020906007020160000160009054906101000a900473ffffffffffffffffffffffffffffffffffffffff1673ffffffffffffffffffffffffffffffffffffffff16670de0b6b3a7640000856110e391906126a7565b6040516110ef90612709565b60006040518083038185875af1925050503d806000811461112c576040519150601f19603f3d011682016040523d82523d6000602084013e611131565b606091505b509150915081611176576040517f08c379a000000000000000000000000000000000000000000000000000000000815260040161116d9061276a565b60405180910390fd5b826000800160006101000a81548173ffffffffffffffffffffffffffffffffffffffff021916908373ffffffffffffffffffffffffffffffffffffffff160217905550670de0b6b3a7640000846111cd91906126a7565b600060010181905550600a85815481106111ea576111e961206d565b5b9060005260206000209060070201600501600090806001815401808255809150506001900390600052602060002090600202016000909190919091506000820160009054906101000a900473ffffffffffffffffffffffffffffffffffffffff168160000160006101000a81548173ffffffffffffffffffffffffffffffffffffffff021916908373ffffffffffffffffffffffffffffffffffffffff160217905550600182015481600101555050670de0b6b3a7640000846112ad91906126a7565b600a86815481106112c1576112c061206d565b5b906000526020600020906007020160040160008282546112e1919061278a565b92505081905550600a85815481106112fc576112fb61206d565b5b906000526020600020906007020160040154600a86815481106113225761132161206d565b5b9060005260206000209060070201600301540361164b57600c54600a86815481106113505761134f61206d565b5b9060005260206000209060070201600601819055506009600a868154811061137b5761137a61206d565b5b906000526020600020906007020190806001815401808255809150506001900390600052602060002090600702016000909190919091506000820160009054906101000a900473ffffffffffffffffffffffffffffffffffffffff168160000160006101000a81548173ffffffffffffffffffffffffffffffffffffffff021916908373ffffffffffffffffffffffffffffffffffffffff1602179055506001820181600101908161142d9190612479565b50600282018160020190816114429190612479565b506003820154816003015560048201548160040155600582018160050190805461146d9291906116a5565b50600682015481600601555050600c600081548092919061148d90612590565b9190505550600a6001600a805490506114a691906125d8565b815481106114b7576114b661206d565b5b9060005260206000209060070201600a86815481106114d9576114d861206d565b5b90600052602060002090600702016000820160009054906101000a900473ffffffffffffffffffffffffffffffffffffffff168160000160006101000a81548173ffffffffffffffffffffffffffffffffffffffff021916908373ffffffffffffffffffffffffffffffffffffffff160217905550600182018160010190816115629190612479565b50600282018160020190816115779190612479565b50600382015481600301556004820154816004015560058201816005019080546115a29291906116a5565b5060068201548160060155905050600a8054806115c2576115c16127be565b5b6001900381819060005260206000209060070201600080820160006101000a81549073ffffffffffffffffffffffffffffffffffffffff021916905560018201600061160e919061176e565b60028201600061161e919061176e565b6003820160009055600482016000905560058201600061163e91906117ae565b6006820160009055505090555b5050505050565b6040518060e00160405280600073ffffffffffffffffffffffffffffffffffffffff1681526020016060815260200160608152602001600081526020016000815260200160608152602001600081525090565b82805482825590600052602060002090600202810192821561175d5760005260206000209160020282015b8281111561175c5782826000820160009054906101000a900473ffffffffffffffffffffffffffffffffffffffff168160000160006101000a81548173ffffffffffffffffffffffffffffffffffffffff021916908373ffffffffffffffffffffffffffffffffffffffff160217905550600182015481600101555050916002019190600201906116d0565b5b50905061176a91906117d2565b5090565b50805461177a906120cb565b6000825580601f1061178c57506117ab565b601f0160209004906000526020600020908101906117aa9190611818565b5b50565b50805460008255600202906000526020600020908101906117cf91906117d2565b50565b5b8082111561181457600080820160006101000a81549073ffffffffffffffffffffffffffffffffffffffff02191690556001820160009055506002016117d3565b5090565b5b80821115611831576000816000905550600101611819565b5090565b6000604051905090565b600080fd5b600080fd5b6000819050919050565b61185c81611849565b811461186757600080fd5b50565b60008135905061187981611853565b92915050565b60008115159050919050565b6118948161187f565b811461189f57600080fd5b50565b6000813590506118b18161188b565b92915050565b600080604083850312156118ce576118cd61183f565b5b60006118dc8582860161186a565b92505060206118ed858286016118a2565b9150509250929050565b600081519050919050565b600082825260208201905092915050565b6000819050602082019050919050565b600073ffffffffffffffffffffffffffffffffffffffff82169050919050565b600061194e82611923565b9050919050565b61195e81611943565b82525050565b61196d81611849565b82525050565b6040820160008201516119896000850182611955565b50602082015161199c6020850182611964565b50505050565b60006119ae8383611973565b60408301905092915050565b6000602082019050919050565b60006119d2826118f7565b6119dc8185611902565b93506119e783611913565b8060005b83811015611a185781516119ff88826119a2565b9750611a0a836119ba565b9250506001810190506119eb565b5085935050505092915050565b60006020820190508181036000830152611a3f81846119c7565b905092915050565b600060208284031215611a5d57611a5c61183f565b5b6000611a6b848285016118a2565b91505092915050565b600081519050919050565b600082825260208201905092915050565b6000819050602082019050919050565b6000611aab82611923565b9050919050565b611abb81611aa0565b82525050565b600081519050919050565b600082825260208201905092915050565b60005b83811015611afb578082015181840152602081019050611ae0565b60008484015250505050565b6000601f19601f8301169050919050565b6000611b2382611ac1565b611b2d8185611acc565b9350611b3d818560208601611add565b611b4681611b07565b840191505092915050565b600082825260208201905092915050565b6000611b6d826118f7565b611b778185611b51565b9350611b8283611913565b8060005b83811015611bb3578151611b9a88826119a2565b9750611ba5836119ba565b925050600181019050611b86565b5085935050505092915050565b600060e083016000830151611bd86000860182611ab2565b5060208301518482036020860152611bf08282611b18565b91505060408301518482036040860152611c0a8282611b18565b9150506060830151611c1f6060860182611964565b506080830151611c326080860182611964565b5060a083015184820360a0860152611c4a8282611b62565b91505060c0830151611c5f60c0860182611964565b508091505092915050565b6000611c768383611bc0565b905092915050565b6000602082019050919050565b6000611c9682611a74565b611ca08185611a7f565b935083602082028501611cb285611a90565b8060005b85811015611cee5784840389528151611ccf8582611c6a565b9450611cda83611c7e565b925060208a01995050600181019050611cb6565b50829750879550505050505092915050565b60006020820190508181036000830152611d1a8184611c8b565b905092915050565b600060e083016000830151611d3a6000860182611ab2565b5060208301518482036020860152611d528282611b18565b91505060408301518482036040860152611d6c8282611b18565b9150506060830151611d816060860182611964565b506080830151611d946080860182611964565b5060a083015184820360a0860152611dac8282611b62565b91505060c0830151611dc160c0860182611964565b508091505092915050565b60006020820190508181036000830152611de68184611d22565b905092915050565b611df781611aa0565b8114611e0257600080fd5b50565b600081359050611e1481611dee565b92915050565b600080fd5b600080fd5b7f4e487b7100000000000000000000000000000000000000000000000000000000600052604160045260246000fd5b611e5c82611b07565b810181811067ffffffffffffffff82111715611e7b57611e7a611e24565b5b80604052505050565b6000611e8e611835565b9050611e9a8282611e53565b919050565b600067ffffffffffffffff821115611eba57611eb9611e24565b5b611ec382611b07565b9050602081019050919050565b82818337600083830152505050565b6000611ef2611eed84611e9f565b611e84565b905082815260208101848484011115611f0e57611f0d611e1f565b5b611f19848285611ed0565b509392505050565b600082601f830112611f3657611f35611e1a565b5b8135611f46848260208601611edf565b91505092915050565b60008060008060808587031215611f6957611f6861183f565b5b6000611f7787828801611e05565b945050602085013567ffffffffffffffff811115611f9857611f97611844565b5b611fa487828801611f21565b935050604085013567ffffffffffffffff811115611fc557611fc4611844565b5b611fd187828801611f21565b9250506060611fe28782880161186a565b91505092959194509250565b611ff781611943565b811461200257600080fd5b50565b60008135905061201481611fee565b92915050565b6000806000606084860312156120335761203261183f565b5b60006120418682870161186a565b93505060206120528682870161186a565b925050604061206386828701612005565b9150509250925092565b7f4e487b7100000000000000000000000000000000000000000000000000000000600052603260045260246000fd5b7f4e487b7100000000000000000000000000000000000000000000000000000000600052602260045260246000fd5b600060028204905060018216806120e357607f821691505b6020821081036120f6576120f561209c565b5b50919050565b600082825260208201905092915050565b7f52657175657374656420616d6f756e742063616e206e6f74206265207a65726f600082015250565b60006121436020836120fc565b915061214e8261210d565b602082019050919050565b6000602082019050818103600083015261217281612136565b9050919050565b7f596f75206861766520746f2061646420706f7374207465787400000000000000600082015250565b60006121af6019836120fc565b91506121ba82612179565b602082019050919050565b600060208201905081810360008301526121de816121a2565b9050919050565b60008190508160005260206000209050919050565b60006020601f8301049050919050565b600082821b905092915050565b6000600883026122477fffffffffffffffffffffffffffffffffffffffffffffffffffffffffffffffff8261220a565b612251868361220a565b95508019841693508086168417925050509392505050565b6000819050919050565b600061228e61228961228484611849565b612269565b611849565b9050919050565b6000819050919050565b6122a883612273565b6122bc6122b482612295565b848454612217565b825550505050565b600090565b6122d16122c4565b6122dc81848461229f565b505050565b5b81811015612300576122f56000826122c9565b6001810190506122e2565b5050565b601f82111561234557612316816121e5565b61231f846121fa565b8101602085101561232e578190505b61234261233a856121fa565b8301826122e1565b50505b505050565b600082821c905092915050565b60006123686000198460080261234a565b1980831691505092915050565b60006123818383612357565b9150826002028217905092915050565b61239a82611ac1565b67ffffffffffffffff8111156123b3576123b2611e24565b5b6123bd82546120cb565b6123c8828285612304565b600060209050601f8311600181146123fb57600084156123e9578287015190505b6123f38582612375565b86555061245b565b601f198416612409866121e5565b60005b828110156124315784890151825560018201915060208501945060208101905061240c565b8683101561244e578489015161244a601f891682612357565b8355505b6001600288020188555050505b505050505050565b600081549050612472816120cb565b9050919050565b81810361248757505061255f565b61249082612463565b67ffffffffffffffff8111156124a9576124a8611e24565b5b6124b382546120cb565b6124be828285612304565b6000601f8311600181146124ed57600084156124db578287015490505b6124e58582612375565b865550612558565b601f1984166124fb876121e5565b9650612506866121e5565b60005b8281101561252e57848901548255600182019150600185019450602081019050612509565b8683101561254b5784890154612547601f891682612357565b8355505b6001600288020188555050505b5050505050505b565b7f4e487b7100000000000000000000000000000000000000000000000000000000600052601160045260246000fd5b600061259b82611849565b91507fffffffffffffffffffffffffffffffffffffffffffffffffffffffffffffffff82036125cd576125cc612561565b5b600182019050919050565b60006125e382611849565b91506125ee83611849565b925082820390508181111561260657612605612561565b5b92915050565b7f43616e206e6f742073656e642065787472610000000000000000000000000000600082015250565b60006126426012836120fc565b915061264d8261260c565b602082019050919050565b6000602082019050818103600083015261267181612635565b9050919050565b7f4e487b7100000000000000000000000000000000000000000000000000000000600052601260045260246000fd5b60006126b282611849565b91506126bd83611849565b9250826126cd576126cc612678565b5b828204905092915050565b600081905092915050565b50565b60006126f36000836126d8565b91506126fe826126e3565b600082019050919050565b6000612714826126e6565b9150819050919050565b7f4661696c656420746f2073656e64204574686572000000000000000000000000600082015250565b60006127546014836120fc565b915061275f8261271e565b602082019050919050565b6000602082019050818103600083015261278381612747565b9050919050565b600061279582611849565b91506127a083611849565b92508282019050808211156127b8576127b7612561565b5b92915050565b7f4e487b7100000000000000000000000000000000000000000000000000000000600052603160045260246000fdfea264697066735822122098bfa979e7c530ccd7dc46eb574b8297bf65bd1517a1785d5013b066120ec47064736f6c63430008100033","opcodes":"PUSH1 0x80 PUSH1 0x40 MSTORE PUSH1 0x0 PUSH1 0xB SSTORE PUSH1 0x0 PUSH1 0xC SSTORE CALLVALUE DUP1 ISZERO PUSH2 0x1A JUMPI PUSH1 0x0 DUP1 REVERT JUMPDEST POP PUSH2 0x2823 DUP1 PUSH2 0x2A PUSH1 0x0 CODECOPY PUSH1 0x0 RETURN INVALID PUSH1 0x80 PUSH1 0x40 MSTORE PUSH1 0x4 CALLDATASIZE LT PUSH2 0x4A JUMPI PUSH1 0x0 CALLDATALOAD PUSH1 0xE0 SHR DUP1 PUSH4 0x1788DB6B EQ PUSH2 0x4F JUMPI DUP1 PUSH4 0x65D054FD EQ PUSH2 0x8C JUMPI DUP1 PUSH4 0x67C59B56 EQ PUSH2 0xC9 JUMPI DUP1 PUSH4 0x7C64CFF1 EQ PUSH2 0x106 JUMPI DUP1 PUSH4 0xB0862BD2 EQ PUSH2 0x12F JUMPI JUMPDEST PUSH1 0x0 DUP1 REVERT JUMPDEST CALLVALUE DUP1 ISZERO PUSH2 0x5B JUMPI PUSH1 0x0 DUP1 REVERT JUMPDEST POP PUSH2 0x76 PUSH1 0x4 DUP1 CALLDATASIZE SUB DUP2 ADD SWAP1 PUSH2 0x71 SWAP2 SWAP1 PUSH2 0x18B7 JUMP JUMPDEST PUSH2 0x14B JUMP JUMPDEST PUSH1 0x40 MLOAD PUSH2 0x83 SWAP2 SWAP1 PUSH2 0x1A25 JUMP JUMPDEST PUSH1 0x40 MLOAD DUP1 SWAP2 SUB SWAP1 RETURN JUMPDEST CALLVALUE DUP1 ISZERO PUSH2 0x98 JUMPI PUSH1 0x0 DUP1 REVERT JUMPDEST POP PUSH2 0xB3 PUSH1 0x4 DUP1 CALLDATASIZE SUB DUP2 ADD SWAP1 PUSH2 0xAE SWAP2 SWAP1 PUSH2 0x1A47 JUMP JUMPDEST PUSH2 0x319 JUMP JUMPDEST PUSH1 0x40 MLOAD PUSH2 0xC0 SWAP2 SWAP1 PUSH2 0x1D00 JUMP JUMPDEST PUSH1 0x40 MLOAD DUP1 SWAP2 SUB SWAP1 RETURN JUMPDEST CALLVALUE DUP1 ISZERO PUSH2 0xD5 JUMPI PUSH1 0x0 DUP1 REVERT JUMPDEST POP PUSH2 0xF0 PUSH1 0x4 DUP1 CALLDATASIZE SUB DUP2 ADD SWAP1 PUSH2 0xEB SWAP2 SWAP1 PUSH2 0x18B7 JUMP JUMPDEST PUSH2 0x88E JUMP JUMPDEST PUSH1 0x40 MLOAD PUSH2 0xFD SWAP2 SWAP1 PUSH2 0x1DCC JUMP JUMPDEST PUSH1 0x40 MLOAD DUP1 SWAP2 SUB SWAP1 RETURN JUMPDEST CALLVALUE DUP1 ISZERO PUSH2 0x112 JUMPI PUSH1 0x0 DUP1 REVERT JUMPDEST POP PUSH2 0x12D PUSH1 0x4 DUP1 CALLDATASIZE SUB DUP2 ADD SWAP1 PUSH2 0x128 SWAP2 SWAP1 PUSH2 0x1F4F JUMP JUMPDEST PUSH2 0xDB4 JUMP JUMPDEST STOP JUMPDEST PUSH2 0x149 PUSH1 0x4 DUP1 CALLDATASIZE SUB DUP2 ADD SWAP1 PUSH2 0x144 SWAP2 SWAP1 PUSH2 0x201A JUMP JUMPDEST PUSH2 0xFD8 JUMP JUMPDEST STOP JUMPDEST PUSH1 0x60 DUP2 ISZERO PUSH2 0x235 JUMPI PUSH1 0xA DUP4 DUP2 SLOAD DUP2 LT PUSH2 0x167 JUMPI PUSH2 0x166 PUSH2 0x206D JUMP JUMPDEST JUMPDEST SWAP1 PUSH1 0x0 MSTORE PUSH1 0x20 PUSH1 0x0 KECCAK256 SWAP1 PUSH1 0x7 MUL ADD PUSH1 0x5 ADD DUP1 SLOAD DUP1 PUSH1 0x20 MUL PUSH1 0x20 ADD PUSH1 0x40 MLOAD SWAP1 DUP2 ADD PUSH1 0x40 MSTORE DUP1 SWAP3 SWAP2 SWAP1 DUP2 DUP2 MSTORE PUSH1 0x20 ADD PUSH1 0x0 SWAP1 JUMPDEST DUP3 DUP3 LT ISZERO PUSH2 0x22A JUMPI DUP4 DUP3 SWAP1 PUSH1 0x0 MSTORE PUSH1 0x20 PUSH1 0x0 KECCAK256 SWAP1 PUSH1 0x2 MUL ADD PUSH1 0x40 MLOAD DUP1 PUSH1 0x40 ADD PUSH1 0x40 MSTORE SWAP1 DUP2 PUSH1 0x0 DUP3 ADD PUSH1 0x0 SWAP1 SLOAD SWAP1 PUSH2 0x100 EXP SWAP1 DIV PUSH20 0xFFFFFFFFFFFFFFFFFFFFFFFFFFFFFFFFFFFFFFFF AND PUSH20 0xFFFFFFFFFFFFFFFFFFFFFFFFFFFFFFFFFFFFFFFF AND PUSH20 0xFFFFFFFFFFFFFFFFFFFFFFFFFFFFFFFFFFFFFFFF AND DUP2 MSTORE PUSH1 0x20 ADD PUSH1 0x1 DUP3 ADD SLOAD DUP2 MSTORE POP POP DUP2 MSTORE PUSH1 0x20 ADD SWAP1 PUSH1 0x1 ADD SWAP1 PUSH2 0x198 JUMP JUMPDEST POP POP POP POP SWAP1 POP PUSH2 0x313 JUMP JUMPDEST PUSH1 0x9 DUP4 DUP2 SLOAD DUP2 LT PUSH2 0x249 JUMPI PUSH2 0x248 PUSH2 0x206D JUMP JUMPDEST JUMPDEST SWAP1 PUSH1 0x0 MSTORE PUSH1 0x20 PUSH1 0x0 KECCAK256 SWAP1 PUSH1 0x7 MUL ADD PUSH1 0x5 ADD DUP1 SLOAD DUP1 PUSH1 0x20 MUL PUSH1 0x20 ADD PUSH1 0x40 MLOAD SWAP1 DUP2 ADD PUSH1 0x40 MSTORE DUP1 SWAP3 SWAP2 SWAP1 DUP2 DUP2 MSTORE PUSH1 0x20 ADD PUSH1 0x0 SWAP1 JUMPDEST DUP3 DUP3 LT ISZERO PUSH2 0x30C JUMPI DUP4 DUP3 SWAP1 PUSH1 0x0 MSTORE PUSH1 0x20 PUSH1 0x0 KECCAK256 SWAP1 PUSH1 0x2 MUL ADD PUSH1 0x40 MLOAD DUP1 PUSH1 0x40 ADD PUSH1 0x40 MSTORE SWAP1 DUP2 PUSH1 0x0 DUP3 ADD PUSH1 0x0 SWAP1 SLOAD SWAP1 PUSH2 0x100 EXP SWAP1 DIV PUSH20 0xFFFFFFFFFFFFFFFFFFFFFFFFFFFFFFFFFFFFFFFF AND PUSH20 0xFFFFFFFFFFFFFFFFFFFFFFFFFFFFFFFFFFFFFFFF AND PUSH20 0xFFFFFFFFFFFFFFFFFFFFFFFFFFFFFFFFFFFFFFFF AND DUP2 MSTORE PUSH1 0x20 ADD PUSH1 0x1 DUP3 ADD SLOAD DUP2 MSTORE POP POP DUP2 MSTORE PUSH1 0x20 ADD SWAP1 PUSH1 0x1 ADD SWAP1 PUSH2 0x27A JUMP JUMPDEST POP POP POP POP SWAP1 POP JUMPDEST SWAP3 SWAP2 POP POP JUMP JUMPDEST PUSH1 0x60 DUP2 ISZERO PUSH2 0x5D7 JUMPI PUSH1 0xA DUP1 SLOAD DUP1 PUSH1 0x20 MUL PUSH1 0x20 ADD PUSH1 0x40 MLOAD SWAP1 DUP2 ADD PUSH1 0x40 MSTORE DUP1 SWAP3 SWAP2 SWAP1 DUP2 DUP2 MSTORE PUSH1 0x20 ADD PUSH1 0x0 SWAP1 JUMPDEST DUP3 DUP3 LT ISZERO PUSH2 0x5CC JUMPI DUP4 DUP3 SWAP1 PUSH1 0x0 MSTORE PUSH1 0x20 PUSH1 0x0 KECCAK256 SWAP1 PUSH1 0x7 MUL ADD PUSH1 0x40 MLOAD DUP1 PUSH1 0xE0 ADD PUSH1 0x40 MSTORE SWAP1 DUP2 PUSH1 0x0 DUP3 ADD PUSH1 0x0 SWAP1 SLOAD SWAP1 PUSH2 0x100 EXP SWAP1 DIV PUSH20 0xFFFFFFFFFFFFFFFFFFFFFFFFFFFFFFFFFFFFFFFF AND PUSH20 0xFFFFFFFFFFFFFFFFFFFFFFFFFFFFFFFFFFFFFFFF AND PUSH20 0xFFFFFFFFFFFFFFFFFFFFFFFFFFFFFFFFFFFFFFFF AND DUP2 MSTORE PUSH1 0x20 ADD PUSH1 0x1 DUP3 ADD DUP1 SLOAD PUSH2 0x3CC SWAP1 PUSH2 0x20CB JUMP JUMPDEST DUP1 PUSH1 0x1F ADD PUSH1 0x20 DUP1 SWAP2 DIV MUL PUSH1 0x20 ADD PUSH1 0x40 MLOAD SWAP1 DUP2 ADD PUSH1 0x40 MSTORE DUP1 SWAP3 SWAP2 SWAP1 DUP2 DUP2 MSTORE PUSH1 0x20 ADD DUP3 DUP1 SLOAD PUSH2 0x3F8 SWAP1 PUSH2 0x20CB JUMP JUMPDEST DUP1 ISZERO PUSH2 0x445 JUMPI DUP1 PUSH1 0x1F LT PUSH2 0x41A JUMPI PUSH2 0x100 DUP1 DUP4 SLOAD DIV MUL DUP4 MSTORE SWAP2 PUSH1 0x20 ADD SWAP2 PUSH2 0x445 JUMP JUMPDEST DUP3 ADD SWAP2 SWAP1 PUSH1 0x0 MSTORE PUSH1 0x20 PUSH1 0x0 KECCAK256 SWAP1 JUMPDEST DUP2 SLOAD DUP2 MSTORE SWAP1 PUSH1 0x1 ADD SWAP1 PUSH1 0x20 ADD DUP1 DUP4 GT PUSH2 0x428 JUMPI DUP3 SWAP1 SUB PUSH1 0x1F AND DUP3 ADD SWAP2 JUMPDEST POP POP POP POP POP DUP2 MSTORE PUSH1 0x20 ADD PUSH1 0x2 DUP3 ADD DUP1 SLOAD PUSH2 0x45E SWAP1 PUSH2 0x20CB JUMP JUMPDEST DUP1 PUSH1 0x1F ADD PUSH1 0x20 DUP1 SWAP2 DIV MUL PUSH1 0x20 ADD PUSH1 0x40 MLOAD SWAP1 DUP2 ADD PUSH1 0x40 MSTORE DUP1 SWAP3 SWAP2 SWAP1 DUP2 DUP2 MSTORE PUSH1 0x20 ADD DUP3 DUP1 SLOAD PUSH2 0x48A SWAP1 PUSH2 0x20CB JUMP JUMPDEST DUP1 ISZERO PUSH2 0x4D7 JUMPI DUP1 PUSH1 0x1F LT PUSH2 0x4AC JUMPI PUSH2 0x100 DUP1 DUP4 SLOAD DIV MUL DUP4 MSTORE SWAP2 PUSH1 0x20 ADD SWAP2 PUSH2 0x4D7 JUMP JUMPDEST DUP3 ADD SWAP2 SWAP1 PUSH1 0x0 MSTORE PUSH1 0x20 PUSH1 0x0 KECCAK256 SWAP1 JUMPDEST DUP2 SLOAD DUP2 MSTORE SWAP1 PUSH1 0x1 ADD SWAP1 PUSH1 0x20 ADD DUP1 DUP4 GT PUSH2 0x4BA JUMPI DUP3 SWAP1 SUB PUSH1 0x1F AND DUP3 ADD SWAP2 JUMPDEST POP POP POP POP POP DUP2 MSTORE PUSH1 0x20 ADD PUSH1 0x3 DUP3 ADD SLOAD DUP2 MSTORE PUSH1 0x20 ADD PUSH1 0x4 DUP3 ADD SLOAD DUP2 MSTORE PUSH1 0x20 ADD PUSH1 0x5 DUP3 ADD DUP1 SLOAD DUP1 PUSH1 0x20 MUL PUSH1 0x20 ADD PUSH1 0x40 MLOAD SWAP1 DUP2 ADD PUSH1 0x40 MSTORE DUP1 SWAP3 SWAP2 SWAP1 DUP2 DUP2 MSTORE PUSH1 0x20 ADD PUSH1 0x0 SWAP1 JUMPDEST DUP3 DUP3 LT ISZERO PUSH2 0x5AB JUMPI DUP4 DUP3 SWAP1 PUSH1 0x0 MSTORE PUSH1 0x20 PUSH1 0x0 KECCAK256 SWAP1 PUSH1 0x2 MUL ADD PUSH1 0x40 MLOAD DUP1 PUSH1 0x40 ADD PUSH1 0x40 MSTORE SWAP1 DUP2 PUSH1 0x0 DUP3 ADD PUSH1 0x0 SWAP1 SLOAD SWAP1 PUSH2 0x100 EXP SWAP1 DIV PUSH20 0xFFFFFFFFFFFFFFFFFFFFFFFFFFFFFFFFFFFFFFFF AND PUSH20 0xFFFFFFFFFFFFFFFFFFFFFFFFFFFFFFFFFFFFFFFF AND PUSH20 0xFFFFFFFFFFFFFFFFFFFFFFFFFFFFFFFFFFFFFFFF AND DUP2 MSTORE PUSH1 0x20 ADD PUSH1 0x1 DUP3 ADD SLOAD DUP2 MSTORE POP POP DUP2 MSTORE PUSH1 0x20 ADD SWAP1 PUSH1 0x1 ADD SWAP1 PUSH2 0x519 JUMP JUMPDEST POP POP POP POP DUP2 MSTORE PUSH1 0x20 ADD PUSH1 0x6 DUP3 ADD SLOAD DUP2 MSTORE POP POP DUP2 MSTORE PUSH1 0x20 ADD SWAP1 PUSH1 0x1 ADD SWAP1 PUSH2 0x343 JUMP JUMPDEST POP POP POP POP SWAP1 POP PUSH2 0x889 JUMP JUMPDEST PUSH1 0x9 DUP1 SLOAD DUP1 PUSH1 0x20 MUL PUSH1 0x20 ADD PUSH1 0x40 MLOAD SWAP1 DUP2 ADD PUSH1 0x40 MSTORE DUP1 SWAP3 SWAP2 SWAP1 DUP2 DUP2 MSTORE PUSH1 0x20 ADD PUSH1 0x0 SWAP1 JUMPDEST DUP3 DUP3 LT ISZERO PUSH2 0x882 JUMPI DUP4 DUP3 SWAP1 PUSH1 0x0 MSTORE PUSH1 0x20 PUSH1 0x0 KECCAK256 SWAP1 PUSH1 0x7 MUL ADD PUSH1 0x40 MLOAD DUP1 PUSH1 0xE0 ADD PUSH1 0x40 MSTORE SWAP1 DUP2 PUSH1 0x0 DUP3 ADD PUSH1 0x0 SWAP1 SLOAD SWAP1 PUSH2 0x100 EXP SWAP1 DIV PUSH20 0xFFFFFFFFFFFFFFFFFFFFFFFFFFFFFFFFFFFFFFFF AND PUSH20 0xFFFFFFFFFFFFFFFFFFFFFFFFFFFFFFFFFFFFFFFF AND PUSH20 0xFFFFFFFFFFFFFFFFFFFFFFFFFFFFFFFFFFFFFFFF AND DUP2 MSTORE PUSH1 0x20 ADD PUSH1 0x1 DUP3 ADD DUP1 SLOAD PUSH2 0x682 SWAP1 PUSH2 0x20CB JUMP JUMPDEST DUP1 PUSH1 0x1F ADD PUSH1 0x20 DUP1 SWAP2 DIV MUL PUSH1 0x20 ADD PUSH1 0x40 MLOAD SWAP1 DUP2 ADD PUSH1 0x40 MSTORE DUP1 SWAP3 SWAP2 SWAP1 DUP2 DUP2 MSTORE PUSH1 0x20 ADD DUP3 DUP1 SLOAD PUSH2 0x6AE SWAP1 PUSH2 0x20CB JUMP JUMPDEST DUP1 ISZERO PUSH2 0x6FB JUMPI DUP1 PUSH1 0x1F LT PUSH2 0x6D0 JUMPI PUSH2 0x100 DUP1 DUP4 SLOAD DIV MUL DUP4 MSTORE SWAP2 PUSH1 0x20 ADD SWAP2 PUSH2 0x6FB JUMP JUMPDEST DUP3 ADD SWAP2 SWAP1 PUSH1 0x0 MSTORE PUSH1 0x20 PUSH1 0x0 KECCAK256 SWAP1 JUMPDEST DUP2 SLOAD DUP2 MSTORE SWAP1 PUSH1 0x1 ADD SWAP1 PUSH1 0x20 ADD DUP1 DUP4 GT PUSH2 0x6DE JUMPI DUP3 SWAP1 SUB PUSH1 0x1F AND DUP3 ADD SWAP2 JUMPDEST POP POP POP POP POP DUP2 MSTORE PUSH1 0x20 ADD PUSH1 0x2 DUP3 ADD DUP1 SLOAD PUSH2 0x714 SWAP1 PUSH2 0x20CB JUMP JUMPDEST DUP1 PUSH1 0x1F ADD PUSH1 0x20 DUP1 SWAP2 DIV MUL PUSH1 0x20 ADD PUSH1 0x40 MLOAD SWAP1 DUP2 ADD PUSH1 0x40 MSTORE DUP1 SWAP3 SWAP2 SWAP1 DUP2 DUP2 MSTORE PUSH1 0x20 ADD DUP3 DUP1 SLOAD PUSH2 0x740 SWAP1 PUSH2 0x20CB JUMP JUMPDEST DUP1 ISZERO PUSH2 0x78D JUMPI DUP1 PUSH1 0x1F LT PUSH2 0x762 JUMPI PUSH2 0x100 DUP1 DUP4 SLOAD DIV MUL DUP4 MSTORE SWAP2 PUSH1 0x20 ADD SWAP2 PUSH2 0x78D JUMP JUMPDEST DUP3 ADD SWAP2 SWAP1 PUSH1 0x0 MSTORE PUSH1 0x20 PUSH1 0x0 KECCAK256 SWAP1 JUMPDEST DUP2 SLOAD DUP2 MSTORE SWAP1 PUSH1 0x1 ADD SWAP1 PUSH1 0x20 ADD DUP1 DUP4 GT PUSH2 0x770 JUMPI DUP3 SWAP1 SUB PUSH1 0x1F AND DUP3 ADD SWAP2 JUMPDEST POP POP POP POP POP DUP2 MSTORE PUSH1 0x20 ADD PUSH1 0x3 DUP3 ADD SLOAD DUP2 MSTORE PUSH1 0x20 ADD PUSH1 0x4 DUP3 ADD SLOAD DUP2 MSTORE PUSH1 0x20 ADD PUSH1 0x5 DUP3 ADD DUP1 SLOAD DUP1 PUSH1 0x20 MUL PUSH1 0x20 ADD PUSH1 0x40 MLOAD SWAP1 DUP2 ADD PUSH1 0x40 MSTORE DUP1 SWAP3 SWAP2 SWAP1 DUP2 DUP2 MSTORE PUSH1 0x20 ADD PUSH1 0x0 SWAP1 JUMPDEST DUP3 DUP3 LT ISZERO PUSH2 0x861 JUMPI DUP4 DUP3 SWAP1 PUSH1 0x0 MSTORE PUSH1 0x20 PUSH1 0x0 KECCAK256 SWAP1 PUSH1 0x2 MUL ADD PUSH1 0x40 MLOAD DUP1 PUSH1 0x40 ADD PUSH1 0x40 MSTORE SWAP1 DUP2 PUSH1 0x0 DUP3 ADD PUSH1 0x0 SWAP1 SLOAD SWAP1 PUSH2 0x100 EXP SWAP1 DIV PUSH20 0xFFFFFFFFFFFFFFFFFFFFFFFFFFFFFFFFFFFFFFFF AND PUSH20 0xFFFFFFFFFFFFFFFFFFFFFFFFFFFFFFFFFFFFFFFF AND PUSH20 0xFFFFFFFFFFFFFFFFFFFFFFFFFFFFFFFFFFFFFFFF AND DUP2 MSTORE PUSH1 0x20 ADD PUSH1 0x1 DUP3 ADD SLOAD DUP2 MSTORE POP POP DUP2 MSTORE PUSH1 0x20 ADD SWAP1 PUSH1 0x1 ADD SWAP1 PUSH2 0x7CF JUMP JUMPDEST POP POP POP POP DUP2 MSTORE PUSH1 0x20 ADD PUSH1 0x6 DUP3 ADD SLOAD DUP2 MSTORE POP POP DUP2 MSTORE PUSH1 0x20 ADD SWAP1 PUSH1 0x1 ADD SWAP1 PUSH2 0x5F9 JUMP JUMPDEST POP POP POP POP SWAP1 POP JUMPDEST SWAP2 SWAP1 POP JUMP JUMPDEST PUSH2 0x896 PUSH2 0x1652 JUMP JUMPDEST DUP2 ISZERO PUSH2 0xB27 JUMPI PUSH1 0xA DUP4 DUP2 SLOAD DUP2 LT PUSH2 0x8B0 JUMPI PUSH2 0x8AF PUSH2 0x206D JUMP JUMPDEST JUMPDEST SWAP1 PUSH1 0x0 MSTORE PUSH1 0x20 PUSH1 0x0 KECCAK256 SWAP1 PUSH1 0x7 MUL ADD PUSH1 0x40 MLOAD DUP1 PUSH1 0xE0 ADD PUSH1 0x40 MSTORE SWAP1 DUP2 PUSH1 0x0 DUP3 ADD PUSH1 0x0 SWAP1 SLOAD SWAP1 PUSH2 0x100 EXP SWAP1 DIV PUSH20 0xFFFFFFFFFFFFFFFFFFFFFFFFFFFFFFFFFFFFFFFF AND PUSH20 0xFFFFFFFFFFFFFFFFFFFFFFFFFFFFFFFFFFFFFFFF AND PUSH20 0xFFFFFFFFFFFFFFFFFFFFFFFFFFFFFFFFFFFFFFFF AND DUP2 MSTORE PUSH1 0x20 ADD PUSH1 0x1 DUP3 ADD DUP1 SLOAD PUSH2 0x92F SWAP1 PUSH2 0x20CB JUMP JUMPDEST DUP1 PUSH1 0x1F ADD PUSH1 0x20 DUP1 SWAP2 DIV MUL PUSH1 0x20 ADD PUSH1 0x40 MLOAD SWAP1 DUP2 ADD PUSH1 0x40 MSTORE DUP1 SWAP3 SWAP2 SWAP1 DUP2 DUP2 MSTORE PUSH1 0x20 ADD DUP3 DUP1 SLOAD PUSH2 0x95B SWAP1 PUSH2 0x20CB JUMP JUMPDEST DUP1 ISZERO PUSH2 0x9A8 JUMPI DUP1 PUSH1 0x1F LT PUSH2 0x97D JUMPI PUSH2 0x100 DUP1 DUP4 SLOAD DIV MUL DUP4 MSTORE SWAP2 PUSH1 0x20 ADD SWAP2 PUSH2 0x9A8 JUMP JUMPDEST DUP3 ADD SWAP2 SWAP1 PUSH1 0x0 MSTORE PUSH1 0x20 PUSH1 0x0 KECCAK256 SWAP1 JUMPDEST DUP2 SLOAD DUP2 MSTORE SWAP1 PUSH1 0x1 ADD SWAP1 PUSH1 0x20 ADD DUP1 DUP4 GT PUSH2 0x98B JUMPI DUP3 SWAP1 SUB PUSH1 0x1F AND DUP3 ADD SWAP2 JUMPDEST POP POP POP POP POP DUP2 MSTORE PUSH1 0x20 ADD PUSH1 0x2 DUP3 ADD DUP1 SLOAD PUSH2 0x9C1 SWAP1 PUSH2 0x20CB JUMP JUMPDEST DUP1 PUSH1 0x1F ADD PUSH1 0x20 DUP1 SWAP2 DIV MUL PUSH1 0x20 ADD PUSH1 0x40 MLOAD SWAP1 DUP2 ADD PUSH1 0x40 MSTORE DUP1 SWAP3 SWAP2 SWAP1 DUP2 DUP2 MSTORE PUSH1 0x20 ADD DUP3 DUP1 SLOAD PUSH2 0x9ED SWAP1 PUSH2 0x20CB JUMP JUMPDEST DUP1 ISZERO PUSH2 0xA3A JUMPI DUP1 PUSH1 0x1F LT PUSH2 0xA0F JUMPI PUSH2 0x100 DUP1 DUP4 SLOAD DIV MUL DUP4 MSTORE SWAP2 PUSH1 0x20 ADD SWAP2 PUSH2 0xA3A JUMP JUMPDEST DUP3 ADD SWAP2 SWAP1 PUSH1 0x0 MSTORE PUSH1 0x20 PUSH1 0x0 KECCAK256 SWAP1 JUMPDEST DUP2 SLOAD DUP2 MSTORE SWAP1 PUSH1 0x1 ADD SWAP1 PUSH1 0x20 ADD DUP1 DUP4 GT PUSH2 0xA1D JUMPI DUP3 SWAP1 SUB PUSH1 0x1F AND DUP3 ADD SWAP2 JUMPDEST POP POP POP POP POP DUP2 MSTORE PUSH1 0x20 ADD PUSH1 0x3 DUP3 ADD SLOAD DUP2 MSTORE PUSH1 0x20 ADD PUSH1 0x4 DUP3 ADD SLOAD DUP2 MSTORE PUSH1 0x20 ADD PUSH1 0x5 DUP3 ADD DUP1 SLOAD DUP1 PUSH1 0x20 MUL PUSH1 0x20 ADD PUSH1 0x40 MLOAD SWAP1 DUP2 ADD PUSH1 0x40 MSTORE DUP1 SWAP3 SWAP2 SWAP1 DUP2 DUP2 MSTORE PUSH1 0x20 ADD PUSH1 0x0 SWAP1 JUMPDEST DUP3 DUP3 LT ISZERO PUSH2 0xB0E JUMPI DUP4 DUP3 SWAP1 PUSH1 0x0 MSTORE PUSH1 0x20 PUSH1 0x0 KECCAK256 SWAP1 PUSH1 0x2 MUL ADD PUSH1 0x40 MLOAD DUP1 PUSH1 0x40 ADD PUSH1 0x40 MSTORE SWAP1 DUP2 PUSH1 0x0 DUP3 ADD PUSH1 0x0 SWAP1 SLOAD SWAP1 PUSH2 0x100 EXP SWAP1 DIV PUSH20 0xFFFFFFFFFFFFFFFFFFFFFFFFFFFFFFFFFFFFFFFF AND PUSH20 0xFFFFFFFFFFFFFFFFFFFFFFFFFFFFFFFFFFFFFFFF AND PUSH20 0xFFFFFFFFFFFFFFFFFFFFFFFFFFFFFFFFFFFFFFFF AND DUP2 MSTORE PUSH1 0x20 ADD PUSH1 0x1 DUP3 ADD SLOAD DUP2 MSTORE POP POP DUP2 MSTORE PUSH1 0x20 ADD SWAP1 PUSH1 0x1 ADD SWAP1 PUSH2 0xA7C JUMP JUMPDEST POP POP POP POP DUP2 MSTORE PUSH1 0x20 ADD PUSH1 0x6 DUP3 ADD SLOAD DUP2 MSTORE POP POP SWAP1 POP PUSH2 0xDAE JUMP JUMPDEST PUSH1 0x9 DUP4 DUP2 SLOAD DUP2 LT PUSH2 0xB3B JUMPI PUSH2 0xB3A PUSH2 0x206D JUMP JUMPDEST JUMPDEST SWAP1 PUSH1 0x0 MSTORE PUSH1 0x20 PUSH1 0x0 KECCAK256 SWAP1 PUSH1 0x7 MUL ADD PUSH1 0x40 MLOAD DUP1 PUSH1 0xE0 ADD PUSH1 0x40 MSTORE SWAP1 DUP2 PUSH1 0x0 DUP3 ADD PUSH1 0x0 SWAP1 SLOAD SWAP1 PUSH2 0x100 EXP SWAP1 DIV PUSH20 0xFFFFFFFFFFFFFFFFFFFFFFFFFFFFFFFFFFFFFFFF AND PUSH20 0xFFFFFFFFFFFFFFFFFFFFFFFFFFFFFFFFFFFFFFFF AND PUSH20 0xFFFFFFFFFFFFFFFFFFFFFFFFFFFFFFFFFFFFFFFF AND DUP2 MSTORE PUSH1 0x20 ADD PUSH1 0x1 DUP3 ADD DUP1 SLOAD PUSH2 0xBBA SWAP1 PUSH2 0x20CB JUMP JUMPDEST DUP1 PUSH1 0x1F ADD PUSH1 0x20 DUP1 SWAP2 DIV MUL PUSH1 0x20 ADD PUSH1 0x40 MLOAD SWAP1 DUP2 ADD PUSH1 0x40 MSTORE DUP1 SWAP3 SWAP2 SWAP1 DUP2 DUP2 MSTORE PUSH1 0x20 ADD DUP3 DUP1 SLOAD PUSH2 0xBE6 SWAP1 PUSH2 0x20CB JUMP JUMPDEST DUP1 ISZERO PUSH2 0xC33 JUMPI DUP1 PUSH1 0x1F LT PUSH2 0xC08 JUMPI PUSH2 0x100 DUP1 DUP4 SLOAD DIV MUL DUP4 MSTORE SWAP2 PUSH1 0x20 ADD SWAP2 PUSH2 0xC33 JUMP JUMPDEST DUP3 ADD SWAP2 SWAP1 PUSH1 0x0 MSTORE PUSH1 0x20 PUSH1 0x0 KECCAK256 SWAP1 JUMPDEST DUP2 SLOAD DUP2 MSTORE SWAP1 PUSH1 0x1 ADD SWAP1 PUSH1 0x20 ADD DUP1 DUP4 GT PUSH2 0xC16 JUMPI DUP3 SWAP1 SUB PUSH1 0x1F AND DUP3 ADD SWAP2 JUMPDEST POP POP POP POP POP DUP2 MSTORE PUSH1 0x20 ADD PUSH1 0x2 DUP3 ADD DUP1 SLOAD PUSH2 0xC4C SWAP1 PUSH2 0x20CB JUMP JUMPDEST DUP1 PUSH1 0x1F ADD PUSH1 0x20 DUP1 SWAP2 DIV MUL PUSH1 0x20 ADD PUSH1 0x40 MLOAD SWAP1 DUP2 ADD PUSH1 0x40 MSTORE DUP1 SWAP3 SWAP2 SWAP1 DUP2 DUP2 MSTORE PUSH1 0x20 ADD DUP3 DUP1 SLOAD PUSH2 0xC78 SWAP1 PUSH2 0x20CB JUMP JUMPDEST DUP1 ISZERO PUSH2 0xCC5 JUMPI DUP1 PUSH1 0x1F LT PUSH2 0xC9A JUMPI PUSH2 0x100 DUP1 DUP4 SLOAD DIV MUL DUP4 MSTORE SWAP2 PUSH1 0x20 ADD SWAP2 PUSH2 0xCC5 JUMP JUMPDEST DUP3 ADD SWAP2 SWAP1 PUSH1 0x0 MSTORE PUSH1 0x20 PUSH1 0x0 KECCAK256 SWAP1 JUMPDEST DUP2 SLOAD DUP2 MSTORE SWAP1 PUSH1 0x1 ADD SWAP1 PUSH1 0x20 ADD DUP1 DUP4 GT PUSH2 0xCA8 JUMPI DUP3 SWAP1 SUB PUSH1 0x1F AND DUP3 ADD SWAP2 JUMPDEST POP POP POP POP POP DUP2 MSTORE PUSH1 0x20 ADD PUSH1 0x3 DUP3 ADD SLOAD DUP2 MSTORE PUSH1 0x20 ADD PUSH1 0x4 DUP3 ADD SLOAD DUP2 MSTORE PUSH1 0x20 ADD PUSH1 0x5 DUP3 ADD DUP1 SLOAD DUP1 PUSH1 0x20 MUL PUSH1 0x20 ADD PUSH1 0x40 MLOAD SWAP1 DUP2 ADD PUSH1 0x40 MSTORE DUP1 SWAP3 SWAP2 SWAP1 DUP2 DUP2 MSTORE PUSH1 0x20 ADD PUSH1 0x0 SWAP1 JUMPDEST DUP3 DUP3 LT ISZERO PUSH2 0xD99 JUMPI DUP4 DUP3 SWAP1 PUSH1 0x0 MSTORE PUSH1 0x20 PUSH1 0x0 KECCAK256 SWAP1 PUSH1 0x2 MUL ADD PUSH1 0x40 MLOAD DUP1 PUSH1 0x40 ADD PUSH1 0x40 MSTORE SWAP1 DUP2 PUSH1 0x0 DUP3 ADD PUSH1 0x0 SWAP1 SLOAD SWAP1 PUSH2 0x100 EXP SWAP1 DIV PUSH20 0xFFFFFFFFFFFFFFFFFFFFFFFFFFFFFFFFFFFFFFFF AND PUSH20 0xFFFFFFFFFFFFFFFFFFFFFFFFFFFFFFFFFFFFFFFF AND PUSH20 0xFFFFFFFFFFFFFFFFFFFFFFFFFFFFFFFFFFFFFFFF AND DUP2 MSTORE PUSH1 0x20 ADD PUSH1 0x1 DUP3 ADD SLOAD DUP2 MSTORE POP POP DUP2 MSTORE PUSH1 0x20 ADD SWAP1 PUSH1 0x1 ADD SWAP1 PUSH2 0xD07 JUMP JUMPDEST POP POP POP POP DUP2 MSTORE PUSH1 0x20 ADD PUSH1 0x6 DUP3 ADD SLOAD DUP2 MSTORE POP POP SWAP1 POP JUMPDEST SWAP3 SWAP2 POP POP JUMP JUMPDEST PUSH1 0x0 DUP2 SUB PUSH2 0xDF7 JUMPI PUSH1 0x40 MLOAD PUSH32 0x8C379A000000000000000000000000000000000000000000000000000000000 DUP2 MSTORE PUSH1 0x4 ADD PUSH2 0xDEE SWAP1 PUSH2 0x2159 JUMP JUMPDEST PUSH1 0x40 MLOAD DUP1 SWAP2 SUB SWAP1 REVERT JUMPDEST PUSH1 0x0 DUP4 MLOAD SUB PUSH2 0xE3B JUMPI PUSH1 0x40 MLOAD PUSH32 0x8C379A000000000000000000000000000000000000000000000000000000000 DUP2 MSTORE PUSH1 0x4 ADD PUSH2 0xE32 SWAP1 PUSH2 0x21C5 JUMP JUMPDEST PUSH1 0x40 MLOAD DUP1 SWAP2 SUB SWAP1 REVERT JUMPDEST DUP4 PUSH1 0x2 PUSH1 0x0 ADD PUSH1 0x0 PUSH2 0x100 EXP DUP2 SLOAD DUP2 PUSH20 0xFFFFFFFFFFFFFFFFFFFFFFFFFFFFFFFFFFFFFFFF MUL NOT AND SWAP1 DUP4 PUSH20 0xFFFFFFFFFFFFFFFFFFFFFFFFFFFFFFFFFFFFFFFF AND MUL OR SWAP1 SSTORE POP DUP3 PUSH1 0x2 PUSH1 0x1 ADD SWAP1 DUP2 PUSH2 0xE91 SWAP2 SWAP1 PUSH2 0x2391 JUMP JUMPDEST POP DUP2 PUSH1 0x2 DUP1 ADD SWAP1 DUP2 PUSH2 0xEA3 SWAP2 SWAP1 PUSH2 0x2391 JUMP JUMPDEST POP DUP1 PUSH1 0x2 PUSH1 0x3 ADD DUP2 SWAP1 SSTORE POP PUSH1 0x0 PUSH1 0x2 PUSH1 0x4 ADD DUP2 SWAP1 SSTORE POP PUSH1 0xB SLOAD PUSH1 0x2 PUSH1 0x6 ADD DUP2 SWAP1 SSTORE POP PUSH1 0xA PUSH1 0x2 SWAP1 DUP1 PUSH1 0x1 DUP2 SLOAD ADD DUP1 DUP3 SSTORE DUP1 SWAP2 POP POP PUSH1 0x1 SWAP1 SUB SWAP1 PUSH1 0x0 MSTORE PUSH1 0x20 PUSH1 0x0 KECCAK256 SWAP1 PUSH1 0x7 MUL ADD PUSH1 0x0 SWAP1 SWAP2 SWAP1 SWAP2 SWAP1 SWAP2 POP PUSH1 0x0 DUP3 ADD PUSH1 0x0 SWAP1 SLOAD SWAP1 PUSH2 0x100 EXP SWAP1 DIV PUSH20 0xFFFFFFFFFFFFFFFFFFFFFFFFFFFFFFFFFFFFFFFF AND DUP2 PUSH1 0x0 ADD PUSH1 0x0 PUSH2 0x100 EXP DUP2 SLOAD DUP2 PUSH20 0xFFFFFFFFFFFFFFFFFFFFFFFFFFFFFFFFFFFFFFFF MUL NOT AND SWAP1 DUP4 PUSH20 0xFFFFFFFFFFFFFFFFFFFFFFFFFFFFFFFFFFFFFFFF AND MUL OR SWAP1 SSTORE POP PUSH1 0x1 DUP3 ADD DUP2 PUSH1 0x1 ADD SWAP1 DUP2 PUSH2 0xF6D SWAP2 SWAP1 PUSH2 0x2479 JUMP JUMPDEST POP PUSH1 0x2 DUP3 ADD DUP2 PUSH1 0x2 ADD SWAP1 DUP2 PUSH2 0xF82 SWAP2 SWAP1 PUSH2 0x2479 JUMP JUMPDEST POP PUSH1 0x3 DUP3 ADD SLOAD DUP2 PUSH1 0x3 ADD SSTORE PUSH1 0x4 DUP3 ADD SLOAD DUP2 PUSH1 0x4 ADD SSTORE PUSH1 0x5 DUP3 ADD DUP2 PUSH1 0x5 ADD SWAP1 DUP1 SLOAD PUSH2 0xFAD SWAP3 SWAP2 SWAP1 PUSH2 0x16A5 JUMP JUMPDEST POP PUSH1 0x6 DUP3 ADD SLOAD DUP2 PUSH1 0x6 ADD SSTORE POP POP PUSH1 0xB PUSH1 0x0 DUP2 SLOAD DUP1 SWAP3 SWAP2 SWAP1 PUSH2 0xFCD SWAP1 PUSH2 0x2590 JUMP JUMPDEST SWAP2 SWAP1 POP SSTORE POP POP POP POP POP JUMP JUMPDEST PUSH1 0xA DUP4 DUP2 SLOAD DUP2 LT PUSH2 0xFEC JUMPI PUSH2 0xFEB PUSH2 0x206D JUMP JUMPDEST JUMPDEST SWAP1 PUSH1 0x0 MSTORE PUSH1 0x20 PUSH1 0x0 KECCAK256 SWAP1 PUSH1 0x7 MUL ADD PUSH1 0x4 ADD SLOAD PUSH1 0xA DUP5 DUP2 SLOAD DUP2 LT PUSH2 0x1012 JUMPI PUSH2 0x1011 PUSH2 0x206D JUMP JUMPDEST JUMPDEST SWAP1 PUSH1 0x0 MSTORE PUSH1 0x20 PUSH1 0x0 KECCAK256 SWAP1 PUSH1 0x7 MUL ADD PUSH1 0x3 ADD SLOAD PUSH2 0x102E SWAP2 SWAP1 PUSH2 0x25D8 JUMP JUMPDEST DUP3 GT ISZERO PUSH2 0x1070 JUMPI PUSH1 0x40 MLOAD PUSH32 0x8C379A000000000000000000000000000000000000000000000000000000000 DUP2 MSTORE PUSH1 0x4 ADD PUSH2 0x1067 SWAP1 PUSH2 0x2658 JUMP JUMPDEST PUSH1 0x40 MLOAD DUP1 SWAP2 SUB SWAP1 REVERT JUMPDEST PUSH1 0x0 DUP1 PUSH1 0xA DUP6 DUP2 SLOAD DUP2 LT PUSH2 0x1087 JUMPI PUSH2 0x1086 PUSH2 0x206D JUMP JUMPDEST JUMPDEST SWAP1 PUSH1 0x0 MSTORE PUSH1 0x20 PUSH1 0x0 KECCAK256 SWAP1 PUSH1 0x7 MUL ADD PUSH1 0x0 ADD PUSH1 0x0 SWAP1 SLOAD SWAP1 PUSH2 0x100 EXP SWAP1 DIV PUSH20 0xFFFFFFFFFFFFFFFFFFFFFFFFFFFFFFFFFFFFFFFF AND PUSH20 0xFFFFFFFFFFFFFFFFFFFFFFFFFFFFFFFFFFFFFFFF AND PUSH8 0xDE0B6B3A7640000 DUP6 PUSH2 0x10E3 SWAP2 SWAP1 PUSH2 0x26A7 JUMP JUMPDEST PUSH1 0x40 MLOAD PUSH2 0x10EF SWAP1 PUSH2 0x2709 JUMP JUMPDEST PUSH1 0x0 PUSH1 0x40 MLOAD DUP1 DUP4 SUB DUP2 DUP6 DUP8 GAS CALL SWAP3 POP POP POP RETURNDATASIZE DUP1 PUSH1 0x0 DUP2 EQ PUSH2 0x112C JUMPI PUSH1 0x40 MLOAD SWAP2 POP PUSH1 0x1F NOT PUSH1 0x3F RETURNDATASIZE ADD AND DUP3 ADD PUSH1 0x40 MSTORE RETURNDATASIZE DUP3 MSTORE RETURNDATASIZE PUSH1 0x0 PUSH1 0x20 DUP5 ADD RETURNDATACOPY PUSH2 0x1131 JUMP JUMPDEST PUSH1 0x60 SWAP2 POP JUMPDEST POP SWAP2 POP SWAP2 POP DUP2 PUSH2 0x1176 JUMPI PUSH1 0x40 MLOAD PUSH32 0x8C379A000000000000000000000000000000000000000000000000000000000 DUP2 MSTORE PUSH1 0x4 ADD PUSH2 0x116D SWAP1 PUSH2 0x276A JUMP JUMPDEST PUSH1 0x40 MLOAD DUP1 SWAP2 SUB SWAP1 REVERT JUMPDEST DUP3 PUSH1 0x0 DUP1 ADD PUSH1 0x0 PUSH2 0x100 EXP DUP2 SLOAD DUP2 PUSH20 0xFFFFFFFFFFFFFFFFFFFFFFFFFFFFFFFFFFFFFFFF MUL NOT AND SWAP1 DUP4 PUSH20 0xFFFFFFFFFFFFFFFFFFFFFFFFFFFFFFFFFFFFFFFF AND MUL OR SWAP1 SSTORE POP PUSH8 0xDE0B6B3A7640000 DUP5 PUSH2 0x11CD SWAP2 SWAP1 PUSH2 0x26A7 JUMP JUMPDEST PUSH1 0x0 PUSH1 0x1 ADD DUP2 SWAP1 SSTORE POP PUSH1 0xA DUP6 DUP2 SLOAD DUP2 LT PUSH2 0x11EA JUMPI PUSH2 0x11E9 PUSH2 0x206D JUMP JUMPDEST JUMPDEST SWAP1 PUSH1 0x0 MSTORE PUSH1 0x20 PUSH1 0x0 KECCAK256 SWAP1 PUSH1 0x7 MUL ADD PUSH1 0x5 ADD PUSH1 0x0 SWAP1 DUP1 PUSH1 0x1 DUP2 SLOAD ADD DUP1 DUP3 SSTORE DUP1 SWAP2 POP POP PUSH1 0x1 SWAP1 SUB SWAP1 PUSH1 0x0 MSTORE PUSH1 0x20 PUSH1 0x0 KECCAK256 SWAP1 PUSH1 0x2 MUL ADD PUSH1 0x0 SWAP1 SWAP2 SWAP1 SWAP2 SWAP1 SWAP2 POP PUSH1 0x0 DUP3 ADD PUSH1 0x0 SWAP1 SLOAD SWAP1 PUSH2 0x100 EXP SWAP1 DIV PUSH20 0xFFFFFFFFFFFFFFFFFFFFFFFFFFFFFFFFFFFFFFFF AND DUP2 PUSH1 0x0 ADD PUSH1 0x0 PUSH2 0x100 EXP DUP2 SLOAD DUP2 PUSH20 0xFFFFFFFFFFFFFFFFFFFFFFFFFFFFFFFFFFFFFFFF MUL NOT AND SWAP1 DUP4 PUSH20 0xFFFFFFFFFFFFFFFFFFFFFFFFFFFFFFFFFFFFFFFF AND MUL OR SWAP1 SSTORE POP PUSH1 0x1 DUP3 ADD SLOAD DUP2 PUSH1 0x1 ADD SSTORE POP POP PUSH8 0xDE0B6B3A7640000 DUP5 PUSH2 0x12AD SWAP2 SWAP1 PUSH2 0x26A7 JUMP JUMPDEST PUSH1 0xA DUP7 DUP2 SLOAD DUP2 LT PUSH2 0x12C1 JUMPI PUSH2 0x12C0 PUSH2 0x206D JUMP JUMPDEST JUMPDEST SWAP1 PUSH1 0x0 MSTORE PUSH1 0x20 PUSH1 0x0 KECCAK256 SWAP1 PUSH1 0x7 MUL ADD PUSH1 0x4 ADD PUSH1 0x0 DUP3 DUP3 SLOAD PUSH2 0x12E1 SWAP2 SWAP1 PUSH2 0x278A JUMP JUMPDEST SWAP3 POP POP DUP2 SWAP1 SSTORE POP PUSH1 0xA DUP6 DUP2 SLOAD DUP2 LT PUSH2 0x12FC JUMPI PUSH2 0x12FB PUSH2 0x206D JUMP JUMPDEST JUMPDEST SWAP1 PUSH1 0x0 MSTORE PUSH1 0x20 PUSH1 0x0 KECCAK256 SWAP1 PUSH1 0x7 MUL ADD PUSH1 0x4 ADD SLOAD PUSH1 0xA DUP7 DUP2 SLOAD DUP2 LT PUSH2 0x1322 JUMPI PUSH2 0x1321 PUSH2 0x206D JUMP JUMPDEST JUMPDEST SWAP1 PUSH1 0x0 MSTORE PUSH1 0x20 PUSH1 0x0 KECCAK256 SWAP1 PUSH1 0x7 MUL ADD PUSH1 0x3 ADD SLOAD SUB PUSH2 0x164B JUMPI PUSH1 0xC SLOAD PUSH1 0xA DUP7 DUP2 SLOAD DUP2 LT PUSH2 0x1350 JUMPI PUSH2 0x134F PUSH2 0x206D JUMP JUMPDEST JUMPDEST SWAP1 PUSH1 0x0 MSTORE PUSH1 0x20 PUSH1 0x0 KECCAK256 SWAP1 PUSH1 0x7 MUL ADD PUSH1 0x6 ADD DUP2 SWAP1 SSTORE POP PUSH1 0x9 PUSH1 0xA DUP7 DUP2 SLOAD DUP2 LT PUSH2 0x137B JUMPI PUSH2 0x137A PUSH2 0x206D JUMP JUMPDEST JUMPDEST SWAP1 PUSH1 0x0 MSTORE PUSH1 0x20 PUSH1 0x0 KECCAK256 SWAP1 PUSH1 0x7 MUL ADD SWAP1 DUP1 PUSH1 0x1 DUP2 SLOAD ADD DUP1 DUP3 SSTORE DUP1 SWAP2 POP POP PUSH1 0x1 SWAP1 SUB SWAP1 PUSH1 0x0 MSTORE PUSH1 0x20 PUSH1 0x0 KECCAK256 SWAP1 PUSH1 0x7 MUL ADD PUSH1 0x0 SWAP1 SWAP2 SWAP1 SWAP2 SWAP1 SWAP2 POP PUSH1 0x0 DUP3 ADD PUSH1 0x0 SWAP1 SLOAD SWAP1 PUSH2 0x100 EXP SWAP1 DIV PUSH20 0xFFFFFFFFFFFFFFFFFFFFFFFFFFFFFFFFFFFFFFFF AND DUP2 PUSH1 0x0 ADD PUSH1 0x0 PUSH2 0x100 EXP DUP2 SLOAD DUP2 PUSH20 0xFFFFFFFFFFFFFFFFFFFFFFFFFFFFFFFFFFFFFFFF MUL NOT AND SWAP1 DUP4 PUSH20 0xFFFFFFFFFFFFFFFFFFFFFFFFFFFFFFFFFFFFFFFF AND MUL OR SWAP1 SSTORE POP PUSH1 0x1 DUP3 ADD DUP2 PUSH1 0x1 ADD SWAP1 DUP2 PUSH2 0x142D SWAP2 SWAP1 PUSH2 0x2479 JUMP JUMPDEST POP PUSH1 0x2 DUP3 ADD DUP2 PUSH1 0x2 ADD SWAP1 DUP2 PUSH2 0x1442 SWAP2 SWAP1 PUSH2 0x2479 JUMP JUMPDEST POP PUSH1 0x3 DUP3 ADD SLOAD DUP2 PUSH1 0x3 ADD SSTORE PUSH1 0x4 DUP3 ADD SLOAD DUP2 PUSH1 0x4 ADD SSTORE PUSH1 0x5 DUP3 ADD DUP2 PUSH1 0x5 ADD SWAP1 DUP1 SLOAD PUSH2 0x146D SWAP3 SWAP2 SWAP1 PUSH2 0x16A5 JUMP JUMPDEST POP PUSH1 0x6 DUP3 ADD SLOAD DUP2 PUSH1 0x6 ADD SSTORE POP POP PUSH1 0xC PUSH1 0x0 DUP2 SLOAD DUP1 SWAP3 SWAP2 SWAP1 PUSH2 0x148D SWAP1 PUSH2 0x2590 JUMP JUMPDEST SWAP2 SWAP1 POP SSTORE POP PUSH1 0xA PUSH1 0x1 PUSH1 0xA DUP1 SLOAD SWAP1 POP PUSH2 0x14A6 SWAP2 SWAP1 PUSH2 0x25D8 JUMP JUMPDEST DUP2 SLOAD DUP2 LT PUSH2 0x14B7 JUMPI PUSH2 0x14B6 PUSH2 0x206D JUMP JUMPDEST JUMPDEST SWAP1 PUSH1 0x0 MSTORE PUSH1 0x20 PUSH1 0x0 KECCAK256 SWAP1 PUSH1 0x7 MUL ADD PUSH1 0xA DUP7 DUP2 SLOAD DUP2 LT PUSH2 0x14D9 JUMPI PUSH2 0x14D8 PUSH2 0x206D JUMP JUMPDEST JUMPDEST SWAP1 PUSH1 0x0 MSTORE PUSH1 0x20 PUSH1 0x0 KECCAK256 SWAP1 PUSH1 0x7 MUL ADD PUSH1 0x0 DUP3 ADD PUSH1 0x0 SWAP1 SLOAD SWAP1 PUSH2 0x100 EXP SWAP1 DIV PUSH20 0xFFFFFFFFFFFFFFFFFFFFFFFFFFFFFFFFFFFFFFFF AND DUP2 PUSH1 0x0 ADD PUSH1 0x0 PUSH2 0x100 EXP DUP2 SLOAD DUP2 PUSH20 0xFFFFFFFFFFFFFFFFFFFFFFFFFFFFFFFFFFFFFFFF MUL NOT AND SWAP1 DUP4 PUSH20 0xFFFFFFFFFFFFFFFFFFFFFFFFFFFFFFFFFFFFFFFF AND MUL OR SWAP1 SSTORE POP PUSH1 0x1 DUP3 ADD DUP2 PUSH1 0x1 ADD SWAP1 DUP2 PUSH2 0x1562 SWAP2 SWAP1 PUSH2 0x2479 JUMP JUMPDEST POP PUSH1 0x2 DUP3 ADD DUP2 PUSH1 0x2 ADD SWAP1 DUP2 PUSH2 0x1577 SWAP2 SWAP1 PUSH2 0x2479 JUMP JUMPDEST POP PUSH1 0x3 DUP3 ADD SLOAD DUP2 PUSH1 0x3 ADD SSTORE PUSH1 0x4 DUP3 ADD SLOAD DUP2 PUSH1 0x4 ADD SSTORE PUSH1 0x5 DUP3 ADD DUP2 PUSH1 0x5 ADD SWAP1 DUP1 SLOAD PUSH2 0x15A2 SWAP3 SWAP2 SWAP1 PUSH2 0x16A5 JUMP JUMPDEST POP PUSH1 0x6 DUP3 ADD SLOAD DUP2 PUSH1 0x6 ADD SSTORE SWAP1 POP POP PUSH1 0xA DUP1 SLOAD DUP1 PUSH2 0x15C2 JUMPI PUSH2 0x15C1 PUSH2 0x27BE JUMP JUMPDEST JUMPDEST PUSH1 0x1 SWAP1 SUB DUP2 DUP2 SWAP1 PUSH1 0x0 MSTORE PUSH1 0x20 PUSH1 0x0 KECCAK256 SWAP1 PUSH1 0x7 MUL ADD PUSH1 0x0 DUP1 DUP3 ADD PUSH1 0x0 PUSH2 0x100 EXP DUP2 SLOAD SWAP1 PUSH20 0xFFFFFFFFFFFFFFFFFFFFFFFFFFFFFFFFFFFFFFFF MUL NOT AND SWAP1 SSTORE PUSH1 0x1 DUP3 ADD PUSH1 0x0 PUSH2 0x160E SWAP2 SWAP1 PUSH2 0x176E JUMP JUMPDEST PUSH1 0x2 DUP3 ADD PUSH1 0x0 PUSH2 0x161E SWAP2 SWAP1 PUSH2 0x176E JUMP JUMPDEST PUSH1 0x3 DUP3 ADD PUSH1 0x0 SWAP1 SSTORE PUSH1 0x4 DUP3 ADD PUSH1 0x0 SWAP1 SSTORE PUSH1 0x5 DUP3 ADD PUSH1 0x0 PUSH2 0x163E SWAP2 SWAP1 PUSH2 0x17AE JUMP JUMPDEST PUSH1 0x6 DUP3 ADD PUSH1 0x0 SWAP1 SSTORE POP POP SWAP1 SSTORE JUMPDEST POP POP POP POP POP JUMP JUMPDEST PUSH1 0x40 MLOAD DUP1 PUSH1 0xE0 ADD PUSH1 0x40 MSTORE DUP1 PUSH1 0x0 PUSH20 0xFFFFFFFFFFFFFFFFFFFFFFFFFFFFFFFFFFFFFFFF AND DUP2 MSTORE PUSH1 0x20 ADD PUSH1 0x60 DUP2 MSTORE PUSH1 0x20 ADD PUSH1 0x60 DUP2 MSTORE PUSH1 0x20 ADD PUSH1 0x0 DUP2 MSTORE PUSH1 0x20 ADD PUSH1 0x0 DUP2 MSTORE PUSH1 0x20 ADD PUSH1 0x60 DUP2 MSTORE PUSH1 0x20 ADD PUSH1 0x0 DUP2 MSTORE POP SWAP1 JUMP JUMPDEST DUP3 DUP1 SLOAD DUP3 DUP3 SSTORE SWAP1 PUSH1 0x0 MSTORE PUSH1 0x20 PUSH1 0x0 KECCAK256 SWAP1 PUSH1 0x2 MUL DUP2 ADD SWAP3 DUP3 ISZERO PUSH2 0x175D JUMPI PUSH1 0x0 MSTORE PUSH1 0x20 PUSH1 0x0 KECCAK256 SWAP2 PUSH1 0x2 MUL DUP3 ADD JUMPDEST DUP3 DUP2 GT ISZERO PUSH2 0x175C JUMPI DUP3 DUP3 PUSH1 0x0 DUP3 ADD PUSH1 0x0 SWAP1 SLOAD SWAP1 PUSH2 0x100 EXP SWAP1 DIV PUSH20 0xFFFFFFFFFFFFFFFFFFFFFFFFFFFFFFFFFFFFFFFF AND DUP2 PUSH1 0x0 ADD PUSH1 0x0 PUSH2 0x100 EXP DUP2 SLOAD DUP2 PUSH20 0xFFFFFFFFFFFFFFFFFFFFFFFFFFFFFFFFFFFFFFFF MUL NOT AND SWAP1 DUP4 PUSH20 0xFFFFFFFFFFFFFFFFFFFFFFFFFFFFFFFFFFFFFFFF AND MUL OR SWAP1 SSTORE POP PUSH1 0x1 DUP3 ADD SLOAD DUP2 PUSH1 0x1 ADD SSTORE POP POP SWAP2 PUSH1 0x2 ADD SWAP2 SWAP1 PUSH1 0x2 ADD SWAP1 PUSH2 0x16D0 JUMP JUMPDEST JUMPDEST POP SWAP1 POP PUSH2 0x176A SWAP2 SWAP1 PUSH2 0x17D2 JUMP JUMPDEST POP SWAP1 JUMP JUMPDEST POP DUP1 SLOAD PUSH2 0x177A SWAP1 PUSH2 0x20CB JUMP JUMPDEST PUSH1 0x0 DUP3 SSTORE DUP1 PUSH1 0x1F LT PUSH2 0x178C JUMPI POP PUSH2 0x17AB JUMP JUMPDEST PUSH1 0x1F ADD PUSH1 0x20 SWAP1 DIV SWAP1 PUSH1 0x0 MSTORE PUSH1 0x20 PUSH1 0x0 KECCAK256 SWAP1 DUP2 ADD SWAP1 PUSH2 0x17AA SWAP2 SWAP1 PUSH2 0x1818 JUMP JUMPDEST JUMPDEST POP JUMP JUMPDEST POP DUP1 SLOAD PUSH1 0x0 DUP3 SSTORE PUSH1 0x2 MUL SWAP1 PUSH1 0x0 MSTORE PUSH1 0x20 PUSH1 0x0 KECCAK256 SWAP1 DUP2 ADD SWAP1 PUSH2 0x17CF SWAP2 SWAP1 PUSH2 0x17D2 JUMP JUMPDEST POP JUMP JUMPDEST JUMPDEST DUP1 DUP3 GT ISZERO PUSH2 0x1814 JUMPI PUSH1 0x0 DUP1 DUP3 ADD PUSH1 0x0 PUSH2 0x100 EXP DUP2 SLOAD SWAP1 PUSH20 0xFFFFFFFFFFFFFFFFFFFFFFFFFFFFFFFFFFFFFFFF MUL NOT AND SWAP1 SSTORE PUSH1 0x1 DUP3 ADD PUSH1 0x0 SWAP1 SSTORE POP PUSH1 0x2 ADD PUSH2 0x17D3 JUMP JUMPDEST POP SWAP1 JUMP JUMPDEST JUMPDEST DUP1 DUP3 GT ISZERO PUSH2 0x1831 JUMPI PUSH1 0x0 DUP2 PUSH1 0x0 SWAP1 SSTORE POP PUSH1 0x1 ADD PUSH2 0x1819 JUMP JUMPDEST POP SWAP1 JUMP JUMPDEST PUSH1 0x0 PUSH1 0x40 MLOAD SWAP1 POP SWAP1 JUMP JUMPDEST PUSH1 0x0 DUP1 REVERT JUMPDEST PUSH1 0x0 DUP1 REVERT JUMPDEST PUSH1 0x0 DUP2 SWAP1 POP SWAP2 SWAP1 POP JUMP JUMPDEST PUSH2 0x185C DUP2 PUSH2 0x1849 JUMP JUMPDEST DUP2 EQ PUSH2 0x1867 JUMPI PUSH1 0x0 DUP1 REVERT JUMPDEST POP JUMP JUMPDEST PUSH1 0x0 DUP2 CALLDATALOAD SWAP1 POP PUSH2 0x1879 DUP2 PUSH2 0x1853 JUMP JUMPDEST SWAP3 SWAP2 POP POP JUMP JUMPDEST PUSH1 0x0 DUP2 ISZERO ISZERO SWAP1 POP SWAP2 SWAP1 POP JUMP JUMPDEST PUSH2 0x1894 DUP2 PUSH2 0x187F JUMP JUMPDEST DUP2 EQ PUSH2 0x189F JUMPI PUSH1 0x0 DUP1 REVERT JUMPDEST POP JUMP JUMPDEST PUSH1 0x0 DUP2 CALLDATALOAD SWAP1 POP PUSH2 0x18B1 DUP2 PUSH2 0x188B JUMP JUMPDEST SWAP3 SWAP2 POP POP JUMP JUMPDEST PUSH1 0x0 DUP1 PUSH1 0x40 DUP4 DUP6 SUB SLT ISZERO PUSH2 0x18CE JUMPI PUSH2 0x18CD PUSH2 0x183F JUMP JUMPDEST JUMPDEST PUSH1 0x0 PUSH2 0x18DC DUP6 DUP3 DUP7 ADD PUSH2 0x186A JUMP JUMPDEST SWAP3 POP POP PUSH1 0x20 PUSH2 0x18ED DUP6 DUP3 DUP7 ADD PUSH2 0x18A2 JUMP JUMPDEST SWAP2 POP POP SWAP3 POP SWAP3 SWAP1 POP JUMP JUMPDEST PUSH1 0x0 DUP2 MLOAD SWAP1 POP SWAP2 SWAP1 POP JUMP JUMPDEST PUSH1 0x0 DUP3 DUP3 MSTORE PUSH1 0x20 DUP3 ADD SWAP1 POP SWAP3 SWAP2 POP POP JUMP JUMPDEST PUSH1 0x0 DUP2 SWAP1 POP PUSH1 0x20 DUP3 ADD SWAP1 POP SWAP2 SWAP1 POP JUMP JUMPDEST PUSH1 0x0 PUSH20 0xFFFFFFFFFFFFFFFFFFFFFFFFFFFFFFFFFFFFFFFF DUP3 AND SWAP1 POP SWAP2 SWAP1 POP JUMP JUMPDEST PUSH1 0x0 PUSH2 0x194E DUP3 PUSH2 0x1923 JUMP JUMPDEST SWAP1 POP SWAP2 SWAP1 POP JUMP JUMPDEST PUSH2 0x195E DUP2 PUSH2 0x1943 JUMP JUMPDEST DUP3 MSTORE POP POP JUMP JUMPDEST PUSH2 0x196D DUP2 PUSH2 0x1849 JUMP JUMPDEST DUP3 MSTORE POP POP JUMP JUMPDEST PUSH1 0x40 DUP3 ADD PUSH1 0x0 DUP3 ADD MLOAD PUSH2 0x1989 PUSH1 0x0 DUP6 ADD DUP3 PUSH2 0x1955 JUMP JUMPDEST POP PUSH1 0x20 DUP3 ADD MLOAD PUSH2 0x199C PUSH1 0x20 DUP6 ADD DUP3 PUSH2 0x1964 JUMP JUMPDEST POP POP POP POP JUMP JUMPDEST PUSH1 0x0 PUSH2 0x19AE DUP4 DUP4 PUSH2 0x1973 JUMP JUMPDEST PUSH1 0x40 DUP4 ADD SWAP1 POP SWAP3 SWAP2 POP POP JUMP JUMPDEST PUSH1 0x0 PUSH1 0x20 DUP3 ADD SWAP1 POP SWAP2 SWAP1 POP JUMP JUMPDEST PUSH1 0x0 PUSH2 0x19D2 DUP3 PUSH2 0x18F7 JUMP JUMPDEST PUSH2 0x19DC DUP2 DUP6 PUSH2 0x1902 JUMP JUMPDEST SWAP4 POP PUSH2 0x19E7 DUP4 PUSH2 0x1913 JUMP JUMPDEST DUP1 PUSH1 0x0 JUMPDEST DUP4 DUP2 LT ISZERO PUSH2 0x1A18 JUMPI DUP2 MLOAD PUSH2 0x19FF DUP9 DUP3 PUSH2 0x19A2 JUMP JUMPDEST SWAP8 POP PUSH2 0x1A0A DUP4 PUSH2 0x19BA JUMP JUMPDEST SWAP3 POP POP PUSH1 0x1 DUP2 ADD SWAP1 POP PUSH2 0x19EB JUMP JUMPDEST POP DUP6 SWAP4 POP POP POP POP SWAP3 SWAP2 POP POP JUMP JUMPDEST PUSH1 0x0 PUSH1 0x20 DUP3 ADD SWAP1 POP DUP2 DUP2 SUB PUSH1 0x0 DUP4 ADD MSTORE PUSH2 0x1A3F DUP2 DUP5 PUSH2 0x19C7 JUMP JUMPDEST SWAP1 POP SWAP3 SWAP2 POP POP JUMP JUMPDEST PUSH1 0x0 PUSH1 0x20 DUP3 DUP5 SUB SLT ISZERO PUSH2 0x1A5D JUMPI PUSH2 0x1A5C PUSH2 0x183F JUMP JUMPDEST JUMPDEST PUSH1 0x0 PUSH2 0x1A6B DUP5 DUP3 DUP6 ADD PUSH2 0x18A2 JUMP JUMPDEST SWAP2 POP POP SWAP3 SWAP2 POP POP JUMP JUMPDEST PUSH1 0x0 DUP2 MLOAD SWAP1 POP SWAP2 SWAP1 POP JUMP JUMPDEST PUSH1 0x0 DUP3 DUP3 MSTORE PUSH1 0x20 DUP3 ADD SWAP1 POP SWAP3 SWAP2 POP POP JUMP JUMPDEST PUSH1 0x0 DUP2 SWAP1 POP PUSH1 0x20 DUP3 ADD SWAP1 POP SWAP2 SWAP1 POP JUMP JUMPDEST PUSH1 0x0 PUSH2 0x1AAB DUP3 PUSH2 0x1923 JUMP JUMPDEST SWAP1 POP SWAP2 SWAP1 POP JUMP JUMPDEST PUSH2 0x1ABB DUP2 PUSH2 0x1AA0 JUMP JUMPDEST DUP3 MSTORE POP POP JUMP JUMPDEST PUSH1 0x0 DUP2 MLOAD SWAP1 POP SWAP2 SWAP1 POP JUMP JUMPDEST PUSH1 0x0 DUP3 DUP3 MSTORE PUSH1 0x20 DUP3 ADD SWAP1 POP SWAP3 SWAP2 POP POP JUMP JUMPDEST PUSH1 0x0 JUMPDEST DUP4 DUP2 LT ISZERO PUSH2 0x1AFB JUMPI DUP1 DUP3 ADD MLOAD DUP2 DUP5 ADD MSTORE PUSH1 0x20 DUP2 ADD SWAP1 POP PUSH2 0x1AE0 JUMP JUMPDEST PUSH1 0x0 DUP5 DUP5 ADD MSTORE POP POP POP POP JUMP JUMPDEST PUSH1 0x0 PUSH1 0x1F NOT PUSH1 0x1F DUP4 ADD AND SWAP1 POP SWAP2 SWAP1 POP JUMP JUMPDEST PUSH1 0x0 PUSH2 0x1B23 DUP3 PUSH2 0x1AC1 JUMP JUMPDEST PUSH2 0x1B2D DUP2 DUP6 PUSH2 0x1ACC JUMP JUMPDEST SWAP4 POP PUSH2 0x1B3D DUP2 DUP6 PUSH1 0x20 DUP7 ADD PUSH2 0x1ADD JUMP JUMPDEST PUSH2 0x1B46 DUP2 PUSH2 0x1B07 JUMP JUMPDEST DUP5 ADD SWAP2 POP POP SWAP3 SWAP2 POP POP JUMP JUMPDEST PUSH1 0x0 DUP3 DUP3 MSTORE PUSH1 0x20 DUP3 ADD SWAP1 POP SWAP3 SWAP2 POP POP JUMP JUMPDEST PUSH1 0x0 PUSH2 0x1B6D DUP3 PUSH2 0x18F7 JUMP JUMPDEST PUSH2 0x1B77 DUP2 DUP6 PUSH2 0x1B51 JUMP JUMPDEST SWAP4 POP PUSH2 0x1B82 DUP4 PUSH2 0x1913 JUMP JUMPDEST DUP1 PUSH1 0x0 JUMPDEST DUP4 DUP2 LT ISZERO PUSH2 0x1BB3 JUMPI DUP2 MLOAD PUSH2 0x1B9A DUP9 DUP3 PUSH2 0x19A2 JUMP JUMPDEST SWAP8 POP PUSH2 0x1BA5 DUP4 PUSH2 0x19BA JUMP JUMPDEST SWAP3 POP POP PUSH1 0x1 DUP2 ADD SWAP1 POP PUSH2 0x1B86 JUMP JUMPDEST POP DUP6 SWAP4 POP POP POP POP SWAP3 SWAP2 POP POP JUMP JUMPDEST PUSH1 0x0 PUSH1 0xE0 DUP4 ADD PUSH1 0x0 DUP4 ADD MLOAD PUSH2 0x1BD8 PUSH1 0x0 DUP7 ADD DUP3 PUSH2 0x1AB2 JUMP JUMPDEST POP PUSH1 0x20 DUP4 ADD MLOAD DUP5 DUP3 SUB PUSH1 0x20 DUP7 ADD MSTORE PUSH2 0x1BF0 DUP3 DUP3 PUSH2 0x1B18 JUMP JUMPDEST SWAP2 POP POP PUSH1 0x40 DUP4 ADD MLOAD DUP5 DUP3 SUB PUSH1 0x40 DUP7 ADD MSTORE PUSH2 0x1C0A DUP3 DUP3 PUSH2 0x1B18 JUMP JUMPDEST SWAP2 POP POP PUSH1 0x60 DUP4 ADD MLOAD PUSH2 0x1C1F PUSH1 0x60 DUP7 ADD DUP3 PUSH2 0x1964 JUMP JUMPDEST POP PUSH1 0x80 DUP4 ADD MLOAD PUSH2 0x1C32 PUSH1 0x80 DUP7 ADD DUP3 PUSH2 0x1964 JUMP JUMPDEST POP PUSH1 0xA0 DUP4 ADD MLOAD DUP5 DUP3 SUB PUSH1 0xA0 DUP7 ADD MSTORE PUSH2 0x1C4A DUP3 DUP3 PUSH2 0x1B62 JUMP JUMPDEST SWAP2 POP POP PUSH1 0xC0 DUP4 ADD MLOAD PUSH2 0x1C5F PUSH1 0xC0 DUP7 ADD DUP3 PUSH2 0x1964 JUMP JUMPDEST POP DUP1 SWAP2 POP POP SWAP3 SWAP2 POP POP JUMP JUMPDEST PUSH1 0x0 PUSH2 0x1C76 DUP4 DUP4 PUSH2 0x1BC0 JUMP JUMPDEST SWAP1 POP SWAP3 SWAP2 POP POP JUMP JUMPDEST PUSH1 0x0 PUSH1 0x20 DUP3 ADD SWAP1 POP SWAP2 SWAP1 POP JUMP JUMPDEST PUSH1 0x0 PUSH2 0x1C96 DUP3 PUSH2 0x1A74 JUMP JUMPDEST PUSH2 0x1CA0 DUP2 DUP6 PUSH2 0x1A7F JUMP JUMPDEST SWAP4 POP DUP4 PUSH1 0x20 DUP3 MUL DUP6 ADD PUSH2 0x1CB2 DUP6 PUSH2 0x1A90 JUMP JUMPDEST DUP1 PUSH1 0x0 JUMPDEST DUP6 DUP2 LT ISZERO PUSH2 0x1CEE JUMPI DUP5 DUP5 SUB DUP10 MSTORE DUP2 MLOAD PUSH2 0x1CCF DUP6 DUP3 PUSH2 0x1C6A JUMP JUMPDEST SWAP5 POP PUSH2 0x1CDA DUP4 PUSH2 0x1C7E JUMP JUMPDEST SWAP3 POP PUSH1 0x20 DUP11 ADD SWAP10 POP POP PUSH1 0x1 DUP2 ADD SWAP1 POP PUSH2 0x1CB6 JUMP JUMPDEST POP DUP3 SWAP8 POP DUP8 SWAP6 POP POP POP POP POP POP SWAP3 SWAP2 POP POP JUMP JUMPDEST PUSH1 0x0 PUSH1 0x20 DUP3 ADD SWAP1 POP DUP2 DUP2 SUB PUSH1 0x0 DUP4 ADD MSTORE PUSH2 0x1D1A DUP2 DUP5 PUSH2 0x1C8B JUMP JUMPDEST SWAP1 POP SWAP3 SWAP2 POP POP JUMP JUMPDEST PUSH1 0x0 PUSH1 0xE0 DUP4 ADD PUSH1 0x0 DUP4 ADD MLOAD PUSH2 0x1D3A PUSH1 0x0 DUP7 ADD DUP3 PUSH2 0x1AB2 JUMP JUMPDEST POP PUSH1 0x20 DUP4 ADD MLOAD DUP5 DUP3 SUB PUSH1 0x20 DUP7 ADD MSTORE PUSH2 0x1D52 DUP3 DUP3 PUSH2 0x1B18 JUMP JUMPDEST SWAP2 POP POP PUSH1 0x40 DUP4 ADD MLOAD DUP5 DUP3 SUB PUSH1 0x40 DUP7 ADD MSTORE PUSH2 0x1D6C DUP3 DUP3 PUSH2 0x1B18 JUMP JUMPDEST SWAP2 POP POP PUSH1 0x60 DUP4 ADD MLOAD PUSH2 0x1D81 PUSH1 0x60 DUP7 ADD DUP3 PUSH2 0x1964 JUMP JUMPDEST POP PUSH1 0x80 DUP4 ADD MLOAD PUSH2 0x1D94 PUSH1 0x80 DUP7 ADD DUP3 PUSH2 0x1964 JUMP JUMPDEST POP PUSH1 0xA0 DUP4 ADD MLOAD DUP5 DUP3 SUB PUSH1 0xA0 DUP7 ADD MSTORE PUSH2 0x1DAC DUP3 DUP3 PUSH2 0x1B62 JUMP JUMPDEST SWAP2 POP POP PUSH1 0xC0 DUP4 ADD MLOAD PUSH2 0x1DC1 PUSH1 0xC0 DUP7 ADD DUP3 PUSH2 0x1964 JUMP JUMPDEST POP DUP1 SWAP2 POP POP SWAP3 SWAP2 POP POP JUMP JUMPDEST PUSH1 0x0 PUSH1 0x20 DUP3 ADD SWAP1 POP DUP2 DUP2 SUB PUSH1 0x0 DUP4 ADD MSTORE PUSH2 0x1DE6 DUP2 DUP5 PUSH2 0x1D22 JUMP JUMPDEST SWAP1 POP SWAP3 SWAP2 POP POP JUMP JUMPDEST PUSH2 0x1DF7 DUP2 PUSH2 0x1AA0 JUMP JUMPDEST DUP2 EQ PUSH2 0x1E02 JUMPI PUSH1 0x0 DUP1 REVERT JUMPDEST POP JUMP JUMPDEST PUSH1 0x0 DUP2 CALLDATALOAD SWAP1 POP PUSH2 0x1E14 DUP2 PUSH2 0x1DEE JUMP JUMPDEST SWAP3 SWAP2 POP POP JUMP JUMPDEST PUSH1 0x0 DUP1 REVERT JUMPDEST PUSH1 0x0 DUP1 REVERT JUMPDEST PUSH32 0x4E487B7100000000000000000000000000000000000000000000000000000000 PUSH1 0x0 MSTORE PUSH1 0x41 PUSH1 0x4 MSTORE PUSH1 0x24 PUSH1 0x0 REVERT JUMPDEST PUSH2 0x1E5C DUP3 PUSH2 0x1B07 JUMP JUMPDEST DUP2 ADD DUP2 DUP2 LT PUSH8 0xFFFFFFFFFFFFFFFF DUP3 GT OR ISZERO PUSH2 0x1E7B JUMPI PUSH2 0x1E7A PUSH2 0x1E24 JUMP JUMPDEST JUMPDEST DUP1 PUSH1 0x40 MSTORE POP POP POP JUMP JUMPDEST PUSH1 0x0 PUSH2 0x1E8E PUSH2 0x1835 JUMP JUMPDEST SWAP1 POP PUSH2 0x1E9A DUP3 DUP3 PUSH2 0x1E53 JUMP JUMPDEST SWAP2 SWAP1 POP JUMP JUMPDEST PUSH1 0x0 PUSH8 0xFFFFFFFFFFFFFFFF DUP3 GT ISZERO PUSH2 0x1EBA JUMPI PUSH2 0x1EB9 PUSH2 0x1E24 JUMP JUMPDEST JUMPDEST PUSH2 0x1EC3 DUP3 PUSH2 0x1B07 JUMP JUMPDEST SWAP1 POP PUSH1 0x20 DUP2 ADD SWAP1 POP SWAP2 SWAP1 POP JUMP JUMPDEST DUP3 DUP2 DUP4 CALLDATACOPY PUSH1 0x0 DUP4 DUP4 ADD MSTORE POP POP POP JUMP JUMPDEST PUSH1 0x0 PUSH2 0x1EF2 PUSH2 0x1EED DUP5 PUSH2 0x1E9F JUMP JUMPDEST PUSH2 0x1E84 JUMP JUMPDEST SWAP1 POP DUP3 DUP2 MSTORE PUSH1 0x20 DUP2 ADD DUP5 DUP5 DUP5 ADD GT ISZERO PUSH2 0x1F0E JUMPI PUSH2 0x1F0D PUSH2 0x1E1F JUMP JUMPDEST JUMPDEST PUSH2 0x1F19 DUP5 DUP3 DUP6 PUSH2 0x1ED0 JUMP JUMPDEST POP SWAP4 SWAP3 POP POP POP JUMP JUMPDEST PUSH1 0x0 DUP3 PUSH1 0x1F DUP4 ADD SLT PUSH2 0x1F36 JUMPI PUSH2 0x1F35 PUSH2 0x1E1A JUMP JUMPDEST JUMPDEST DUP2 CALLDATALOAD PUSH2 0x1F46 DUP5 DUP3 PUSH1 0x20 DUP7 ADD PUSH2 0x1EDF JUMP JUMPDEST SWAP2 POP POP SWAP3 SWAP2 POP POP JUMP JUMPDEST PUSH1 0x0 DUP1 PUSH1 0x0 DUP1 PUSH1 0x80 DUP6 DUP8 SUB SLT ISZERO PUSH2 0x1F69 JUMPI PUSH2 0x1F68 PUSH2 0x183F JUMP JUMPDEST JUMPDEST PUSH1 0x0 PUSH2 0x1F77 DUP8 DUP3 DUP9 ADD PUSH2 0x1E05 JUMP JUMPDEST SWAP5 POP POP PUSH1 0x20 DUP6 ADD CALLDATALOAD PUSH8 0xFFFFFFFFFFFFFFFF DUP2 GT ISZERO PUSH2 0x1F98 JUMPI PUSH2 0x1F97 PUSH2 0x1844 JUMP JUMPDEST JUMPDEST PUSH2 0x1FA4 DUP8 DUP3 DUP9 ADD PUSH2 0x1F21 JUMP JUMPDEST SWAP4 POP POP PUSH1 0x40 DUP6 ADD CALLDATALOAD PUSH8 0xFFFFFFFFFFFFFFFF DUP2 GT ISZERO PUSH2 0x1FC5 JUMPI PUSH2 0x1FC4 PUSH2 0x1844 JUMP JUMPDEST JUMPDEST PUSH2 0x1FD1 DUP8 DUP3 DUP9 ADD PUSH2 0x1F21 JUMP JUMPDEST SWAP3 POP POP PUSH1 0x60 PUSH2 0x1FE2 DUP8 DUP3 DUP9 ADD PUSH2 0x186A JUMP JUMPDEST SWAP2 POP POP SWAP3 SWAP6 SWAP2 SWAP5 POP SWAP3 POP JUMP JUMPDEST PUSH2 0x1FF7 DUP2 PUSH2 0x1943 JUMP JUMPDEST DUP2 EQ PUSH2 0x2002 JUMPI PUSH1 0x0 DUP1 REVERT JUMPDEST POP JUMP JUMPDEST PUSH1 0x0 DUP2 CALLDATALOAD SWAP1 POP PUSH2 0x2014 DUP2 PUSH2 0x1FEE JUMP JUMPDEST SWAP3 SWAP2 POP POP JUMP JUMPDEST PUSH1 0x0 DUP1 PUSH1 0x0 PUSH1 0x60 DUP5 DUP7 SUB SLT ISZERO PUSH2 0x2033 JUMPI PUSH2 0x2032 PUSH2 0x183F JUMP JUMPDEST JUMPDEST PUSH1 0x0 PUSH2 0x2041 DUP7 DUP3 DUP8 ADD PUSH2 0x186A JUMP JUMPDEST SWAP4 POP POP PUSH1 0x20 PUSH2 0x2052 DUP7 DUP3 DUP8 ADD PUSH2 0x186A JUMP JUMPDEST SWAP3 POP POP PUSH1 0x40 PUSH2 0x2063 DUP7 DUP3 DUP8 ADD PUSH2 0x2005 JUMP JUMPDEST SWAP2 POP POP SWAP3 POP SWAP3 POP SWAP3 JUMP JUMPDEST PUSH32 0x4E487B7100000000000000000000000000000000000000000000000000000000 PUSH1 0x0 MSTORE PUSH1 0x32 PUSH1 0x4 MSTORE PUSH1 0x24 PUSH1 0x0 REVERT JUMPDEST PUSH32 0x4E487B7100000000000000000000000000000000000000000000000000000000 PUSH1 0x0 MSTORE PUSH1 0x22 PUSH1 0x4 MSTORE PUSH1 0x24 PUSH1 0x0 REVERT JUMPDEST PUSH1 0x0 PUSH1 0x2 DUP3 DIV SWAP1 POP PUSH1 0x1 DUP3 AND DUP1 PUSH2 0x20E3 JUMPI PUSH1 0x7F DUP3 AND SWAP2 POP JUMPDEST PUSH1 0x20 DUP3 LT DUP2 SUB PUSH2 0x20F6 JUMPI PUSH2 0x20F5 PUSH2 0x209C JUMP JUMPDEST JUMPDEST POP SWAP2 SWAP1 POP JUMP JUMPDEST PUSH1 0x0 DUP3 DUP3 MSTORE PUSH1 0x20 DUP3 ADD SWAP1 POP SWAP3 SWAP2 POP POP JUMP JUMPDEST PUSH32 0x52657175657374656420616D6F756E742063616E206E6F74206265207A65726F PUSH1 0x0 DUP3 ADD MSTORE POP JUMP JUMPDEST PUSH1 0x0 PUSH2 0x2143 PUSH1 0x20 DUP4 PUSH2 0x20FC JUMP JUMPDEST SWAP2 POP PUSH2 0x214E DUP3 PUSH2 0x210D JUMP JUMPDEST PUSH1 0x20 DUP3 ADD SWAP1 POP SWAP2 SWAP1 POP JUMP JUMPDEST PUSH1 0x0 PUSH1 0x20 DUP3 ADD SWAP1 POP DUP2 DUP2 SUB PUSH1 0x0 DUP4 ADD MSTORE PUSH2 0x2172 DUP2 PUSH2 0x2136 JUMP JUMPDEST SWAP1 POP SWAP2 SWAP1 POP JUMP JUMPDEST PUSH32 0x596F75206861766520746F2061646420706F7374207465787400000000000000 PUSH1 0x0 DUP3 ADD MSTORE POP JUMP JUMPDEST PUSH1 0x0 PUSH2 0x21AF PUSH1 0x19 DUP4 PUSH2 0x20FC JUMP JUMPDEST SWAP2 POP PUSH2 0x21BA DUP3 PUSH2 0x2179 JUMP JUMPDEST PUSH1 0x20 DUP3 ADD SWAP1 POP SWAP2 SWAP1 POP JUMP JUMPDEST PUSH1 0x0 PUSH1 0x20 DUP3 ADD SWAP1 POP DUP2 DUP2 SUB PUSH1 0x0 DUP4 ADD MSTORE PUSH2 0x21DE DUP2 PUSH2 0x21A2 JUMP JUMPDEST SWAP1 POP SWAP2 SWAP1 POP JUMP JUMPDEST PUSH1 0x0 DUP2 SWAP1 POP DUP2 PUSH1 0x0 MSTORE PUSH1 0x20 PUSH1 0x0 KECCAK256 SWAP1 POP SWAP2 SWAP1 POP JUMP JUMPDEST PUSH1 0x0 PUSH1 0x20 PUSH1 0x1F DUP4 ADD DIV SWAP1 POP SWAP2 SWAP1 POP JUMP JUMPDEST PUSH1 0x0 DUP3 DUP3 SHL SWAP1 POP SWAP3 SWAP2 POP POP JUMP JUMPDEST PUSH1 0x0 PUSH1 0x8 DUP4 MUL PUSH2 0x2247 PUSH32 0xFFFFFFFFFFFFFFFFFFFFFFFFFFFFFFFFFFFFFFFFFFFFFFFFFFFFFFFFFFFFFFFF DUP3 PUSH2 0x220A JUMP JUMPDEST PUSH2 0x2251 DUP7 DUP4 PUSH2 0x220A JUMP JUMPDEST SWAP6 POP DUP1 NOT DUP5 AND SWAP4 POP DUP1 DUP7 AND DUP5 OR SWAP3 POP POP POP SWAP4 SWAP3 POP POP POP JUMP JUMPDEST PUSH1 0x0 DUP2 SWAP1 POP SWAP2 SWAP1 POP JUMP JUMPDEST PUSH1 0x0 PUSH2 0x228E PUSH2 0x2289 PUSH2 0x2284 DUP5 PUSH2 0x1849 JUMP JUMPDEST PUSH2 0x2269 JUMP JUMPDEST PUSH2 0x1849 JUMP JUMPDEST SWAP1 POP SWAP2 SWAP1 POP JUMP JUMPDEST PUSH1 0x0 DUP2 SWAP1 POP SWAP2 SWAP1 POP JUMP JUMPDEST PUSH2 0x22A8 DUP4 PUSH2 0x2273 JUMP JUMPDEST PUSH2 0x22BC PUSH2 0x22B4 DUP3 PUSH2 0x2295 JUMP JUMPDEST DUP5 DUP5 SLOAD PUSH2 0x2217 JUMP JUMPDEST DUP3 SSTORE POP POP POP POP JUMP JUMPDEST PUSH1 0x0 SWAP1 JUMP JUMPDEST PUSH2 0x22D1 PUSH2 0x22C4 JUMP JUMPDEST PUSH2 0x22DC DUP2 DUP5 DUP5 PUSH2 0x229F JUMP JUMPDEST POP POP POP JUMP JUMPDEST JUMPDEST DUP2 DUP2 LT ISZERO PUSH2 0x2300 JUMPI PUSH2 0x22F5 PUSH1 0x0 DUP3 PUSH2 0x22C9 JUMP JUMPDEST PUSH1 0x1 DUP2 ADD SWAP1 POP PUSH2 0x22E2 JUMP JUMPDEST POP POP JUMP JUMPDEST PUSH1 0x1F DUP3 GT ISZERO PUSH2 0x2345 JUMPI PUSH2 0x2316 DUP2 PUSH2 0x21E5 JUMP JUMPDEST PUSH2 0x231F DUP5 PUSH2 0x21FA JUMP JUMPDEST DUP2 ADD PUSH1 0x20 DUP6 LT ISZERO PUSH2 0x232E JUMPI DUP2 SWAP1 POP JUMPDEST PUSH2 0x2342 PUSH2 0x233A DUP6 PUSH2 0x21FA JUMP JUMPDEST DUP4 ADD DUP3 PUSH2 0x22E1 JUMP JUMPDEST POP POP JUMPDEST POP POP POP JUMP JUMPDEST PUSH1 0x0 DUP3 DUP3 SHR SWAP1 POP SWAP3 SWAP2 POP POP JUMP JUMPDEST PUSH1 0x0 PUSH2 0x2368 PUSH1 0x0 NOT DUP5 PUSH1 0x8 MUL PUSH2 0x234A JUMP JUMPDEST NOT DUP1 DUP4 AND SWAP2 POP POP SWAP3 SWAP2 POP POP JUMP JUMPDEST PUSH1 0x0 PUSH2 0x2381 DUP4 DUP4 PUSH2 0x2357 JUMP JUMPDEST SWAP2 POP DUP3 PUSH1 0x2 MUL DUP3 OR SWAP1 POP SWAP3 SWAP2 POP POP JUMP JUMPDEST PUSH2 0x239A DUP3 PUSH2 0x1AC1 JUMP JUMPDEST PUSH8 0xFFFFFFFFFFFFFFFF DUP2 GT ISZERO PUSH2 0x23B3 JUMPI PUSH2 0x23B2 PUSH2 0x1E24 JUMP JUMPDEST JUMPDEST PUSH2 0x23BD DUP3 SLOAD PUSH2 0x20CB JUMP JUMPDEST PUSH2 0x23C8 DUP3 DUP3 DUP6 PUSH2 0x2304 JUMP JUMPDEST PUSH1 0x0 PUSH1 0x20 SWAP1 POP PUSH1 0x1F DUP4 GT PUSH1 0x1 DUP2 EQ PUSH2 0x23FB JUMPI PUSH1 0x0 DUP5 ISZERO PUSH2 0x23E9 JUMPI DUP3 DUP8 ADD MLOAD SWAP1 POP JUMPDEST PUSH2 0x23F3 DUP6 DUP3 PUSH2 0x2375 JUMP JUMPDEST DUP7 SSTORE POP PUSH2 0x245B JUMP JUMPDEST PUSH1 0x1F NOT DUP5 AND PUSH2 0x2409 DUP7 PUSH2 0x21E5 JUMP JUMPDEST PUSH1 0x0 JUMPDEST DUP3 DUP2 LT ISZERO PUSH2 0x2431 JUMPI DUP5 DUP10 ADD MLOAD DUP3 SSTORE PUSH1 0x1 DUP3 ADD SWAP2 POP PUSH1 0x20 DUP6 ADD SWAP5 POP PUSH1 0x20 DUP2 ADD SWAP1 POP PUSH2 0x240C JUMP JUMPDEST DUP7 DUP4 LT ISZERO PUSH2 0x244E JUMPI DUP5 DUP10 ADD MLOAD PUSH2 0x244A PUSH1 0x1F DUP10 AND DUP3 PUSH2 0x2357 JUMP JUMPDEST DUP4 SSTORE POP JUMPDEST PUSH1 0x1 PUSH1 0x2 DUP9 MUL ADD DUP9 SSTORE POP POP POP JUMPDEST POP POP POP POP POP POP JUMP JUMPDEST PUSH1 0x0 DUP2 SLOAD SWAP1 POP PUSH2 0x2472 DUP2 PUSH2 0x20CB JUMP JUMPDEST SWAP1 POP SWAP2 SWAP1 POP JUMP JUMPDEST DUP2 DUP2 SUB PUSH2 0x2487 JUMPI POP POP PUSH2 0x255F JUMP JUMPDEST PUSH2 0x2490 DUP3 PUSH2 0x2463 JUMP JUMPDEST PUSH8 0xFFFFFFFFFFFFFFFF DUP2 GT ISZERO PUSH2 0x24A9 JUMPI PUSH2 0x24A8 PUSH2 0x1E24 JUMP JUMPDEST JUMPDEST PUSH2 0x24B3 DUP3 SLOAD PUSH2 0x20CB JUMP JUMPDEST PUSH2 0x24BE DUP3 DUP3 DUP6 PUSH2 0x2304 JUMP JUMPDEST PUSH1 0x0 PUSH1 0x1F DUP4 GT PUSH1 0x1 DUP2 EQ PUSH2 0x24ED JUMPI PUSH1 0x0 DUP5 ISZERO PUSH2 0x24DB JUMPI DUP3 DUP8 ADD SLOAD SWAP1 POP JUMPDEST PUSH2 0x24E5 DUP6 DUP3 PUSH2 0x2375 JUMP JUMPDEST DUP7 SSTORE POP PUSH2 0x2558 JUMP JUMPDEST PUSH1 0x1F NOT DUP5 AND PUSH2 0x24FB DUP8 PUSH2 0x21E5 JUMP JUMPDEST SWAP7 POP PUSH2 0x2506 DUP7 PUSH2 0x21E5 JUMP JUMPDEST PUSH1 0x0 JUMPDEST DUP3 DUP2 LT ISZERO PUSH2 0x252E JUMPI DUP5 DUP10 ADD SLOAD DUP3 SSTORE PUSH1 0x1 DUP3 ADD SWAP2 POP PUSH1 0x1 DUP6 ADD SWAP5 POP PUSH1 0x20 DUP2 ADD SWAP1 POP PUSH2 0x2509 JUMP JUMPDEST DUP7 DUP4 LT ISZERO PUSH2 0x254B JUMPI DUP5 DUP10 ADD SLOAD PUSH2 0x2547 PUSH1 0x1F DUP10 AND DUP3 PUSH2 0x2357 JUMP JUMPDEST DUP4 SSTORE POP JUMPDEST PUSH1 0x1 PUSH1 0x2 DUP9 MUL ADD DUP9 SSTORE POP POP POP JUMPDEST POP POP POP POP POP POP JUMPDEST JUMP JUMPDEST PUSH32 0x4E487B7100000000000000000000000000000000000000000000000000000000 PUSH1 0x0 MSTORE PUSH1 0x11 PUSH1 0x4 MSTORE PUSH1 0x24 PUSH1 0x0 REVERT JUMPDEST PUSH1 0x0 PUSH2 0x259B DUP3 PUSH2 0x1849 JUMP JUMPDEST SWAP2 POP PUSH32 0xFFFFFFFFFFFFFFFFFFFFFFFFFFFFFFFFFFFFFFFFFFFFFFFFFFFFFFFFFFFFFFFF DUP3 SUB PUSH2 0x25CD JUMPI PUSH2 0x25CC PUSH2 0x2561 JUMP JUMPDEST JUMPDEST PUSH1 0x1 DUP3 ADD SWAP1 POP SWAP2 SWAP1 POP JUMP JUMPDEST PUSH1 0x0 PUSH2 0x25E3 DUP3 PUSH2 0x1849 JUMP JUMPDEST SWAP2 POP PUSH2 0x25EE DUP4 PUSH2 0x1849 JUMP JUMPDEST SWAP3 POP DUP3 DUP3 SUB SWAP1 POP DUP2 DUP2 GT ISZERO PUSH2 0x2606 JUMPI PUSH2 0x2605 PUSH2 0x2561 JUMP JUMPDEST JUMPDEST SWAP3 SWAP2 POP POP JUMP JUMPDEST PUSH32 0x43616E206E6F742073656E642065787472610000000000000000000000000000 PUSH1 0x0 DUP3 ADD MSTORE POP JUMP JUMPDEST PUSH1 0x0 PUSH2 0x2642 PUSH1 0x12 DUP4 PUSH2 0x20FC JUMP JUMPDEST SWAP2 POP PUSH2 0x264D DUP3 PUSH2 0x260C JUMP JUMPDEST PUSH1 0x20 DUP3 ADD SWAP1 POP SWAP2 SWAP1 POP JUMP JUMPDEST PUSH1 0x0 PUSH1 0x20 DUP3 ADD SWAP1 POP DUP2 DUP2 SUB PUSH1 0x0 DUP4 ADD MSTORE PUSH2 0x2671 DUP2 PUSH2 0x2635 JUMP JUMPDEST SWAP1 POP SWAP2 SWAP1 POP JUMP JUMPDEST PUSH32 0x4E487B7100000000000000000000000000000000000000000000000000000000 PUSH1 0x0 MSTORE PUSH1 0x12 PUSH1 0x4 MSTORE PUSH1 0x24 PUSH1 0x0 REVERT JUMPDEST PUSH1 0x0 PUSH2 0x26B2 DUP3 PUSH2 0x1849 JUMP JUMPDEST SWAP2 POP PUSH2 0x26BD DUP4 PUSH2 0x1849 JUMP JUMPDEST SWAP3 POP DUP3 PUSH2 0x26CD JUMPI PUSH2 0x26CC PUSH2 0x2678 JUMP JUMPDEST JUMPDEST DUP3 DUP3 DIV SWAP1 POP SWAP3 SWAP2 POP POP JUMP JUMPDEST PUSH1 0x0 DUP2 SWAP1 POP SWAP3 SWAP2 POP POP JUMP JUMPDEST POP JUMP JUMPDEST PUSH1 0x0 PUSH2 0x26F3 PUSH1 0x0 DUP4 PUSH2 0x26D8 JUMP JUMPDEST SWAP2 POP PUSH2 0x26FE DUP3 PUSH2 0x26E3 JUMP JUMPDEST PUSH1 0x0 DUP3 ADD SWAP1 POP SWAP2 SWAP1 POP JUMP JUMPDEST PUSH1 0x0 PUSH2 0x2714 DUP3 PUSH2 0x26E6 JUMP JUMPDEST SWAP2 POP DUP2 SWAP1 POP SWAP2 SWAP1 POP JUMP JUMPDEST PUSH32 0x4661696C656420746F2073656E64204574686572000000000000000000000000 PUSH1 0x0 DUP3 ADD MSTORE POP JUMP JUMPDEST PUSH1 0x0 PUSH2 0x2754 PUSH1 0x14 DUP4 PUSH2 0x20FC JUMP JUMPDEST SWAP2 POP PUSH2 0x275F DUP3 PUSH2 0x271E JUMP JUMPDEST PUSH1 0x20 DUP3 ADD SWAP1 POP SWAP2 SWAP1 POP JUMP JUMPDEST PUSH1 0x0 PUSH1 0x20 DUP3 ADD SWAP1 POP DUP2 DUP2 SUB PUSH1 0x0 DUP4 ADD MSTORE PUSH2 0x2783 DUP2 PUSH2 0x2747 JUMP JUMPDEST SWAP1 POP SWAP2 SWAP1 POP JUMP JUMPDEST PUSH1 0x0 PUSH2 0x2795 DUP3 PUSH2 0x1849 JUMP JUMPDEST SWAP2 POP PUSH2 0x27A0 DUP4 PUSH2 0x1849 JUMP JUMPDEST SWAP3 POP DUP3 DUP3 ADD SWAP1 POP DUP1 DUP3 GT ISZERO PUSH2 0x27B8 JUMPI PUSH2 0x27B7 PUSH2 0x2561 JUMP JUMPDEST JUMPDEST SWAP3 SWAP2 POP POP JUMP JUMPDEST PUSH32 0x4E487B7100000000000000000000000000000000000000000000000000000000 PUSH1 0x0 MSTORE PUSH1 0x31 PUSH1 0x4 MSTORE PUSH1 0x24 PUSH1 0x0 REVERT INVALID LOG2 PUSH5 0x6970667358 0x22 SLT KECCAK256 SWAP9 0xBF 0xA9 PUSH26 0xE7C530CCD7DC46EB574B8297BF65BD1517A1785D5013B066120E 0xC4 PUSH17 0x64736F6C63430008100033000000000000 "},"gasEstimates":{"creation":{"codeDepositCost":"2055000","executionCost":"12197","totalCost":"2067197"},"external":{"createPost(address,string,string,uint256)":"infinite","donate(uint256,uint256,address)":"infinite","getDonations(bool)":"infinite","getDonatorsOfPost(uint256,bool)":"infinite","getSingleDonation(uint256,bool)":"infinite"}},"methodIdentifiers":{"createPost(address,string,string,uint256)":"7c64cff1","donate(uint256,uint256,address)":"b0862bd2","getDonations(bool)":"65d054fd","getDonatorsOfPost(uint256,bool)":"1788db6b","getSingleDonation(uint256,bool)":"67c59b56"}},"storageLayout":{"storage":[{"astId":9,"contract":"DonationContract.sol:DonationContract","label":"instanceOfDonator","offset":0,"slot":"0","type":"t_struct(DonatorStruct)6_storage"},{"astId":29,"contract":"DonationContract.sol:DonationContract","label":"instanceOfPostStruct","offset":0,"slot":"2","type":"t_struct(DonationStruct)26_storage"},{"astId":33,"contract":"DonationContract.sol:DonationContract","label":"finishedDonations","offset":0,"slot":"9","type":"t_array(t_struct(DonationStruct)26_storage)dyn_storage"},{"astId":37,"contract":"DonationContract.sol:DonationContract","label":"ongoingDonations","offset":0,"slot":"10","type":"t_array(t_struct(DonationStruct)26_storage)dyn_storage"},{"astId":40,"contract":"DonationContract.sol:DonationContract","label":"ongoingIndex","offset":0,"slot":"11","type":"t_uint256"},{"astId":43,"contract":"DonationContract.sol:DonationContract","label":"finishedIndex","offset":0,"slot":"12","type":"t_uint256"}],"types":{"t_address":{"encoding":"inplace","label":"address","numberOfBytes":"20"},"t_address_payable":{"encoding":"inplace","label":"address payable","numberOfBytes":"20"},"t_array(t_struct(DonationStruct)26_storage)dyn_storage":{"base":"t_struct(DonationStruct)26_storage","encoding":"dynamic_array","label":"struct DonationContract.DonationStruct[]","numberOfBytes":"32"},"t_array(t_struct(DonatorStruct)6_storage)dyn_storage":{"base":"t_struct(DonatorStruct)6_storage","encoding":"dynamic_array","label":"struct DonationContract.DonatorStruct[]","numberOfBytes":"32"},"t_string_storage":{"encoding":"bytes","label":"string","numberOfBytes":"32"},"t_struct(DonationStruct)26_storage":{"encoding":"inplace","label":"struct DonationContract.DonationStruct","members":[{"astId":11,"contract":"DonationContract.sol:DonationContract","label":"postCreator","offset":0,"slot":"0","type":"t_address_payable"},{"astId":13,"contract":"DonationContract.sol:DonationContract","label":"postText","offset":0,"slot":"1","type":"t_string_storage"},{"astId":15,"contract":"DonationContract.sol:DonationContract","label":"postDate","offset":0,"slot":"2","type":"t_string_storage"},{"astId":17,"contract":"DonationContract.sol:DonationContract","label":"requestedAmount","offset":0,"slot":"3","type":"t_uint256"},{"astId":19,"contract":"DonationContract.sol:DonationContract","label":"receivedAmount","offset":0,"slot":"4","type":"t_uint256"},{"astId":23,"contract":"DonationContract.sol:DonationContract","label":"donators","offset":0,"slot":"5","type":"t_array(t_struct(DonatorStruct)6_storage)dyn_storage"},{"astId":25,"contract":"DonationContract.sol:DonationContract","label":"postIndex","offset":0,"slot":"6","type":"t_uint256"}],"numberOfBytes":"224"},"t_struct(DonatorStruct)6_storage":{"encoding":"inplace","label":"struct DonationContract.DonatorStruct","members":[{"astId":3,"contract":"DonationContract.sol:DonationContract","label":"donatorAddress","offset":0,"slot":"0","type":"t_address"},{"astId":5,"contract":"DonationContract.sol:DonationContract","label":"donatedAmount","offset":0,"slot":"1","type":"t_uint256"}],"numberOfBytes":"64"},"t_uint256":{"encoding":"inplace","label":"uint256","numberOfBytes":"32"}}},"userdoc":{"kind":"user","methods":{},"version":1}}