{"abi":[{"inputs":[{"internalType":"address","name":"_userAddress","type":"address"}],"name":"findUser","outputs":[{"components":[{"internalType":"address","name":"userAddress","type":"address"},{"internalType":"string","name":"userName","type":"string"},{"internalType":"string","name":"userEmail","type":"string"},{"internalType":"uint256","name":"userIndex","type":"uint256"}],"internalType":"struct UserContract.UserProfileStruct","name":"","type":"tuple"}],"stateMutability":"view","type":"function"},{"inputs":[],"name":"getUsers","outputs":[{"components":[{"internalType":"address","name":"userAddress","type":"address"},{"internalType":"string","name":"userName","type":"string"},{"internalType":"string","name":"userEmail","type":"string"},{"internalType":"uint256","name":"userIndex","type":"uint256"}],"internalType":"struct UserContract.UserProfileStruct[]","name":"","type":"tuple[]"}],"stateMutability":"view","type":"function"},{"inputs":[{"internalType":"address","name":"_userAddress","type":"address"}],"name":"login","outputs":[{"internalType":"bool","name":"ans","type":"bool"}],"stateMutability":"nonpayable","type":"function"},{"inputs":[{"internalType":"address","name":"_userAddress","type":"address"},{"internalType":"string","name":"_userName","type":"string"},{"internalType":"string","name":"_userEmail","type":"string"}],"name":"register","outputs":[],"stateMutability":"nonpayable","type":"function"}],"devdoc":{"kind":"dev","methods":{},"version":1},"evm":{"assembly":"    /* \"UserContract.sol\":203:2627  contract UserContract {... */\n  mstore(0x40, 0x80)\n    /* \"UserContract.sol\":823:824  0 */\n  0x00\n    /* \"UserContract.sol\":803:824  uint256 userIndex = 0 */\n  0x0a\n  sstore\n    /* \"UserContract.sol\":203:2627  contract UserContract {... */\n  callvalue\n  dup1\n  iszero\n  tag_1\n  jumpi\n  0x00\n  dup1\n  revert\ntag_1:\n  pop\n  dataSize(sub_0)\n  dup1\n  dataOffset(sub_0)\n  0x00\n  codecopy\n  0x00\n  return\nstop\n\nsub_0: assembly {\n        /* \"UserContract.sol\":203:2627  contract UserContract {... */\n      mstore(0x40, 0x80)\n      callvalue\n      dup1\n      iszero\n      tag_1\n      jumpi\n      0x00\n      dup1\n      revert\n    tag_1:\n      pop\n      jumpi(tag_2, lt(calldatasize, 0x04))\n      shr(0xe0, calldataload(0x00))\n      dup1\n      0xce8e3e\n      eq\n      tag_3\n      jumpi\n      dup1\n      0x35a6861a\n      eq\n      tag_4\n      jumpi\n      dup1\n      0x8d59cc02\n      eq\n      tag_5\n      jumpi\n      dup1\n      0xdf9d9024\n      eq\n      tag_6\n      jumpi\n    tag_2:\n      0x00\n      dup1\n      revert\n        /* \"UserContract.sol\":2524:2624  function getUsers() public view returns (UserProfileStruct[] memory) {... */\n    tag_3:\n      tag_7\n      tag_8\n      jump\t// in\n    tag_7:\n      mload(0x40)\n      tag_9\n      swap2\n      swap1\n      tag_10\n      jump\t// in\n    tag_9:\n      mload(0x40)\n      dup1\n      swap2\n      sub\n      swap1\n      return\n        /* \"UserContract.sol\":2058:2283  function login(address _userAddress) public returns (bool ans) {... */\n    tag_4:\n      tag_11\n      0x04\n      dup1\n      calldatasize\n      sub\n      dup2\n      add\n      swap1\n      tag_12\n      swap2\n      swap1\n      tag_13\n      jump\t// in\n    tag_12:\n      tag_14\n      jump\t// in\n    tag_11:\n      mload(0x40)\n      tag_15\n      swap2\n      swap1\n      tag_16\n      jump\t// in\n    tag_15:\n      mload(0x40)\n      dup1\n      swap2\n      sub\n      swap1\n      return\n        /* \"UserContract.sol\":1022:1997  function register(... */\n    tag_5:\n      tag_17\n      0x04\n      dup1\n      calldatasize\n      sub\n      dup2\n      add\n      swap1\n      tag_18\n      swap2\n      swap1\n      tag_19\n      jump\t// in\n    tag_18:\n      tag_20\n      jump\t// in\n    tag_17:\n      stop\n        /* \"UserContract.sol\":2311:2488  function findUser(address _userAddress)... */\n    tag_6:\n      tag_21\n      0x04\n      dup1\n      calldatasize\n      sub\n      dup2\n      add\n      swap1\n      tag_22\n      swap2\n      swap1\n      tag_13\n      jump\t// in\n    tag_22:\n      tag_23\n      jump\t// in\n    tag_21:\n      mload(0x40)\n      tag_24\n      swap2\n      swap1\n      tag_25\n      jump\t// in\n    tag_24:\n      mload(0x40)\n      dup1\n      swap2\n      sub\n      swap1\n      return\n        /* \"UserContract.sol\":2524:2624  function getUsers() public view returns (UserProfileStruct[] memory) {... */\n    tag_8:\n        /* \"UserContract.sol\":2565:2591  UserProfileStruct[] memory */\n      0x60\n        /* \"UserContract.sol\":2611:2616  users */\n      0x08\n        /* \"UserContract.sol\":2604:2616  return users */\n      dup1\n      sload\n      dup1\n      0x20\n      mul\n      0x20\n      add\n      mload(0x40)\n      swap1\n      dup2\n      add\n      0x40\n      mstore\n      dup1\n      swap3\n      swap2\n      swap1\n      dup2\n      dup2\n      mstore\n      0x20\n      add\n      0x00\n      swap1\n    tag_27:\n      dup3\n      dup3\n      lt\n      iszero\n      tag_28\n      jumpi\n      dup4\n      dup3\n      swap1\n      0x00\n      mstore\n      keccak256(0x00, 0x20)\n      swap1\n      0x04\n      mul\n      add\n      mload(0x40)\n      dup1\n      0x80\n      add\n      0x40\n      mstore\n      swap1\n      dup2\n      0x00\n      dup3\n      add\n      0x00\n      swap1\n      sload\n      swap1\n      0x0100\n      exp\n      swap1\n      div\n      0xffffffffffffffffffffffffffffffffffffffff\n      and\n      0xffffffffffffffffffffffffffffffffffffffff\n      and\n      0xffffffffffffffffffffffffffffffffffffffff\n      and\n      dup2\n      mstore\n      0x20\n      add\n      0x01\n      dup3\n      add\n      dup1\n      sload\n      tag_30\n      swap1\n      tag_31\n      jump\t// in\n    tag_30:\n      dup1\n      0x1f\n      add\n      0x20\n      dup1\n      swap2\n      div\n      mul\n      0x20\n      add\n      mload(0x40)\n      swap1\n      dup2\n      add\n      0x40\n      mstore\n      dup1\n      swap3\n      swap2\n      swap1\n      dup2\n      dup2\n      mstore\n      0x20\n      add\n      dup3\n      dup1\n      sload\n      tag_32\n      swap1\n      tag_31\n      jump\t// in\n    tag_32:\n      dup1\n      iszero\n      tag_33\n      jumpi\n      dup1\n      0x1f\n      lt\n      tag_34\n      jumpi\n      0x0100\n      dup1\n      dup4\n      sload\n      div\n      mul\n      dup4\n      mstore\n      swap2\n      0x20\n      add\n      swap2\n      jump(tag_33)\n    tag_34:\n      dup3\n      add\n      swap2\n      swap1\n      0x00\n      mstore\n      keccak256(0x00, 0x20)\n      swap1\n    tag_35:\n      dup2\n      sload\n      dup2\n      mstore\n      swap1\n      0x01\n      add\n      swap1\n      0x20\n      add\n      dup1\n      dup4\n      gt\n      tag_35\n      jumpi\n      dup3\n      swap1\n      sub\n      0x1f\n      and\n      dup3\n      add\n      swap2\n    tag_33:\n      pop\n      pop\n      pop\n      pop\n      pop\n      dup2\n      mstore\n      0x20\n      add\n      0x02\n      dup3\n      add\n      dup1\n      sload\n      tag_36\n      swap1\n      tag_31\n      jump\t// in\n    tag_36:\n      dup1\n      0x1f\n      add\n      0x20\n      dup1\n      swap2\n      div\n      mul\n      0x20\n      add\n      mload(0x40)\n      swap1\n      dup2\n      add\n      0x40\n      mstore\n      dup1\n      swap3\n      swap2\n      swap1\n      dup2\n      dup2\n      mstore\n      0x20\n      add\n      dup3\n      dup1\n      sload\n      tag_37\n      swap1\n      tag_31\n      jump\t// in\n    tag_37:\n      dup1\n      iszero\n      tag_38\n      jumpi\n      dup1\n      0x1f\n      lt\n      tag_39\n      jumpi\n      0x0100\n      dup1\n      dup4\n      sload\n      div\n      mul\n      dup4\n      mstore\n      swap2\n      0x20\n      add\n      swap2\n      jump(tag_38)\n    tag_39:\n      dup3\n      add\n      swap2\n      swap1\n      0x00\n      mstore\n      keccak256(0x00, 0x20)\n      swap1\n    tag_40:\n      dup2\n      sload\n      dup2\n      mstore\n      swap1\n      0x01\n      add\n      swap1\n      0x20\n      add\n      dup1\n      dup4\n      gt\n      tag_40\n      jumpi\n      dup3\n      swap1\n      sub\n      0x1f\n      and\n      dup3\n      add\n      swap2\n    tag_38:\n      pop\n      pop\n      pop\n      pop\n      pop\n      dup2\n      mstore\n      0x20\n      add\n      0x03\n      dup3\n      add\n      sload\n      dup2\n      mstore\n      pop\n      pop\n      dup2\n      mstore\n      0x20\n      add\n      swap1\n      0x01\n      add\n      swap1\n      jump(tag_27)\n    tag_28:\n      pop\n      pop\n      pop\n      pop\n      swap1\n      pop\n        /* \"UserContract.sol\":2524:2624  function getUsers() public view returns (UserProfileStruct[] memory) {... */\n      swap1\n      jump\t// out\n        /* \"UserContract.sol\":2058:2283  function login(address _userAddress) public returns (bool ans) {... */\n    tag_14:\n        /* \"UserContract.sol\":2111:2119  bool ans */\n      0x00\n        /* \"UserContract.sol\":2167:2171  true */\n      0x01\n        /* \"UserContract.sol\":2140:2171  userExist[_userAddress] == true */\n      iszero\n      iszero\n        /* \"UserContract.sol\":2140:2149  userExist */\n      0x0c\n        /* \"UserContract.sol\":2140:2163  userExist[_userAddress] */\n      0x00\n        /* \"UserContract.sol\":2150:2162  _userAddress */\n      dup5\n        /* \"UserContract.sol\":2140:2163  userExist[_userAddress] */\n      0xffffffffffffffffffffffffffffffffffffffff\n      and\n      0xffffffffffffffffffffffffffffffffffffffff\n      and\n      dup2\n      mstore\n      0x20\n      add\n      swap1\n      dup2\n      mstore\n      0x20\n      add\n      0x00\n      keccak256\n      0x00\n      swap1\n      sload\n      swap1\n      0x0100\n      exp\n      swap1\n      div\n      0xff\n      and\n        /* \"UserContract.sol\":2140:2171  userExist[_userAddress] == true */\n      iszero\n      iszero\n      eq\n        /* \"UserContract.sol\":2132:2195  require(userExist[_userAddress] == true, \"User does not exist\") */\n      tag_42\n      jumpi\n      mload(0x40)\n      0x08c379a000000000000000000000000000000000000000000000000000000000\n      dup2\n      mstore\n      0x04\n      add\n      tag_43\n      swap1\n      tag_44\n      jump\t// in\n    tag_43:\n      mload(0x40)\n      dup1\n      swap2\n      sub\n      swap1\n      revert\n    tag_42:\n        /* \"UserContract.sol\":2221:2239  getUserFromAddress */\n      0x09\n        /* \"UserContract.sol\":2221:2253  getUserFromAddress[_userAddress] */\n      0x00\n        /* \"UserContract.sol\":2240:2252  _userAddress */\n      dup4\n        /* \"UserContract.sol\":2221:2253  getUserFromAddress[_userAddress] */\n      0xffffffffffffffffffffffffffffffffffffffff\n      and\n      0xffffffffffffffffffffffffffffffffffffffff\n      and\n      dup2\n      mstore\n      0x20\n      add\n      swap1\n      dup2\n      mstore\n      0x20\n      add\n      0x00\n      keccak256\n        /* \"UserContract.sol\":2206:2218  loggedInUser */\n      0x04\n        /* \"UserContract.sol\":2206:2253  loggedInUser = getUserFromAddress[_userAddress] */\n      0x00\n      dup3\n      add\n      0x00\n      swap1\n      sload\n      swap1\n      0x0100\n      exp\n      swap1\n      div\n      0xffffffffffffffffffffffffffffffffffffffff\n      and\n      dup2\n      0x00\n      add\n      exp(0x0100, 0x00)\n      dup2\n      sload\n      dup2\n      0xffffffffffffffffffffffffffffffffffffffff\n      mul\n      not\n      and\n      swap1\n      dup4\n      0xffffffffffffffffffffffffffffffffffffffff\n      and\n      mul\n      or\n      swap1\n      sstore\n      pop\n      0x01\n      dup3\n      add\n      dup2\n      0x01\n      add\n      swap1\n      dup2\n      tag_45\n      swap2\n      swap1\n      tag_46\n      jump\t// in\n    tag_45:\n      pop\n      0x02\n      dup3\n      add\n      dup2\n      0x02\n      add\n      swap1\n      dup2\n      tag_47\n      swap2\n      swap1\n      tag_46\n      jump\t// in\n    tag_47:\n      pop\n      0x03\n      dup3\n      add\n      sload\n      dup2\n      0x03\n      add\n      sstore\n      swap1\n      pop\n      pop\n        /* \"UserContract.sol\":2271:2275  true */\n      0x01\n        /* \"UserContract.sol\":2264:2275  return true */\n      swap1\n      pop\n        /* \"UserContract.sol\":2058:2283  function login(address _userAddress) public returns (bool ans) {... */\n      swap2\n      swap1\n      pop\n      jump\t// out\n        /* \"UserContract.sol\":1022:1997  function register(... */\n    tag_20:\n        /* \"UserContract.sol\":1264:1276  _userAddress */\n      dup3\n        /* \"UserContract.sol\":1222:1249  instanceOfUserProfileStruct */\n      0x00\n        /* \"UserContract.sol\":1222:1261  instanceOfUserProfileStruct.userAddress */\n      dup1\n      add\n      0x00\n        /* \"UserContract.sol\":1222:1276  instanceOfUserProfileStruct.userAddress = _userAddress */\n      0x0100\n      exp\n      dup2\n      sload\n      dup2\n      0xffffffffffffffffffffffffffffffffffffffff\n      mul\n      not\n      and\n      swap1\n      dup4\n      0xffffffffffffffffffffffffffffffffffffffff\n      and\n      mul\n      or\n      swap1\n      sstore\n      pop\n        /* \"UserContract.sol\":1326:1335  _userName */\n      dup2\n        /* \"UserContract.sol\":1287:1314  instanceOfUserProfileStruct */\n      0x00\n        /* \"UserContract.sol\":1287:1323  instanceOfUserProfileStruct.userName */\n      0x01\n      add\n        /* \"UserContract.sol\":1287:1335  instanceOfUserProfileStruct.userName = _userName */\n      swap1\n      dup2\n      tag_49\n      swap2\n      swap1\n      tag_50\n      jump\t// in\n    tag_49:\n      pop\n        /* \"UserContract.sol\":1386:1396  _userEmail */\n      dup1\n        /* \"UserContract.sol\":1346:1373  instanceOfUserProfileStruct */\n      0x00\n        /* \"UserContract.sol\":1346:1383  instanceOfUserProfileStruct.userEmail */\n      0x02\n      add\n        /* \"UserContract.sol\":1346:1396  instanceOfUserProfileStruct.userEmail = _userEmail */\n      swap1\n      dup2\n      tag_51\n      swap2\n      swap1\n      tag_50\n      jump\t// in\n    tag_51:\n      pop\n        /* \"UserContract.sol\":1512:1521  userIndex */\n      sload(0x0a)\n        /* \"UserContract.sol\":1472:1499  instanceOfUserProfileStruct */\n      0x00\n        /* \"UserContract.sol\":1472:1509  instanceOfUserProfileStruct.userIndex */\n      0x03\n      add\n        /* \"UserContract.sol\":1472:1521  instanceOfUserProfileStruct.userIndex = userIndex */\n      dup2\n      swap1\n      sstore\n      pop\n        /* \"UserContract.sol\":1572:1577  users */\n      0x08\n        /* \"UserContract.sol\":1583:1610  instanceOfUserProfileStruct */\n      0x00\n        /* \"UserContract.sol\":1572:1611  users.push(instanceOfUserProfileStruct) */\n      swap1\n      dup1\n      0x01\n      dup2\n      sload\n      add\n      dup1\n      dup3\n      sstore\n      dup1\n      swap2\n      pop\n      pop\n      0x01\n      swap1\n      sub\n      swap1\n      0x00\n      mstore\n      keccak256(0x00, 0x20)\n      swap1\n      0x04\n      mul\n      add\n      0x00\n      swap1\n      swap2\n      swap1\n      swap2\n      swap1\n      swap2\n      pop\n      0x00\n      dup3\n      add\n      0x00\n      swap1\n      sload\n      swap1\n      0x0100\n      exp\n      swap1\n      div\n      0xffffffffffffffffffffffffffffffffffffffff\n      and\n      dup2\n      0x00\n      add\n      exp(0x0100, 0x00)\n      dup2\n      sload\n      dup2\n      0xffffffffffffffffffffffffffffffffffffffff\n      mul\n      not\n      and\n      swap1\n      dup4\n      0xffffffffffffffffffffffffffffffffffffffff\n      and\n      mul\n      or\n      swap1\n      sstore\n      pop\n      0x01\n      dup3\n      add\n      dup2\n      0x01\n      add\n      swap1\n      dup2\n      tag_53\n      swap2\n      swap1\n      tag_46\n      jump\t// in\n    tag_53:\n      pop\n      0x02\n      dup3\n      add\n      dup2\n      0x02\n      add\n      swap1\n      dup2\n      tag_54\n      swap2\n      swap1\n      tag_46\n      jump\t// in\n    tag_54:\n      pop\n      0x03\n      dup3\n      add\n      sload\n      dup2\n      0x03\n      add\n      sstore\n      pop\n      pop\n        /* \"UserContract.sol\":1726:1753  instanceOfUserProfileStruct */\n      0x00\n        /* \"UserContract.sol\":1691:1709  getUserFromAddress */\n      0x09\n        /* \"UserContract.sol\":1691:1723  getUserFromAddress[_userAddress] */\n      0x00\n        /* \"UserContract.sol\":1710:1722  _userAddress */\n      dup6\n        /* \"UserContract.sol\":1691:1723  getUserFromAddress[_userAddress] */\n      0xffffffffffffffffffffffffffffffffffffffff\n      and\n      0xffffffffffffffffffffffffffffffffffffffff\n      and\n      dup2\n      mstore\n      0x20\n      add\n      swap1\n      dup2\n      mstore\n      0x20\n      add\n      0x00\n      keccak256\n        /* \"UserContract.sol\":1691:1753  getUserFromAddress[_userAddress] = instanceOfUserProfileStruct */\n      0x00\n      dup3\n      add\n      0x00\n      swap1\n      sload\n      swap1\n      0x0100\n      exp\n      swap1\n      div\n      0xffffffffffffffffffffffffffffffffffffffff\n      and\n      dup2\n      0x00\n      add\n      exp(0x0100, 0x00)\n      dup2\n      sload\n      dup2\n      0xffffffffffffffffffffffffffffffffffffffff\n      mul\n      not\n      and\n      swap1\n      dup4\n      0xffffffffffffffffffffffffffffffffffffffff\n      and\n      mul\n      or\n      swap1\n      sstore\n      pop\n      0x01\n      dup3\n      add\n      dup2\n      0x01\n      add\n      swap1\n      dup2\n      tag_55\n      swap2\n      swap1\n      tag_46\n      jump\t// in\n    tag_55:\n      pop\n      0x02\n      dup3\n      add\n      dup2\n      0x02\n      add\n      swap1\n      dup2\n      tag_56\n      swap2\n      swap1\n      tag_46\n      jump\t// in\n    tag_56:\n      pop\n      0x03\n      dup3\n      add\n      sload\n      dup2\n      0x03\n      add\n      sstore\n      swap1\n      pop\n      pop\n        /* \"UserContract.sol\":1826:1853  instanceOfUserProfileStruct */\n      0x00\n        /* \"UserContract.sol\":1796:1812  getUserFromIndex */\n      0x0b\n        /* \"UserContract.sol\":1796:1823  getUserFromIndex[userIndex] */\n      0x00\n        /* \"UserContract.sol\":1813:1822  userIndex */\n      sload(0x0a)\n        /* \"UserContract.sol\":1796:1823  getUserFromIndex[userIndex] */\n      dup2\n      mstore\n      0x20\n      add\n      swap1\n      dup2\n      mstore\n      0x20\n      add\n      0x00\n      keccak256\n        /* \"UserContract.sol\":1796:1853  getUserFromIndex[userIndex] = instanceOfUserProfileStruct */\n      0x00\n      dup3\n      add\n      0x00\n      swap1\n      sload\n      swap1\n      0x0100\n      exp\n      swap1\n      div\n      0xffffffffffffffffffffffffffffffffffffffff\n      and\n      dup2\n      0x00\n      add\n      exp(0x0100, 0x00)\n      dup2\n      sload\n      dup2\n      0xffffffffffffffffffffffffffffffffffffffff\n      mul\n      not\n      and\n      swap1\n      dup4\n      0xffffffffffffffffffffffffffffffffffffffff\n      and\n      mul\n      or\n      swap1\n      sstore\n      pop\n      0x01\n      dup3\n      add\n      dup2\n      0x01\n      add\n      swap1\n      dup2\n      tag_57\n      swap2\n      swap1\n      tag_46\n      jump\t// in\n    tag_57:\n      pop\n      0x02\n      dup3\n      add\n      dup2\n      0x02\n      add\n      swap1\n      dup2\n      tag_58\n      swap2\n      swap1\n      tag_46\n      jump\t// in\n    tag_58:\n      pop\n      0x03\n      dup3\n      add\n      sload\n      dup2\n      0x03\n      add\n      sstore\n      swap1\n      pop\n      pop\n        /* \"UserContract.sol\":1930:1934  true */\n      0x01\n        /* \"UserContract.sol\":1904:1913  userExist */\n      0x0c\n        /* \"UserContract.sol\":1904:1927  userExist[_userAddress] */\n      0x00\n        /* \"UserContract.sol\":1914:1926  _userAddress */\n      dup6\n        /* \"UserContract.sol\":1904:1927  userExist[_userAddress] */\n      0xffffffffffffffffffffffffffffffffffffffff\n      and\n      0xffffffffffffffffffffffffffffffffffffffff\n      and\n      dup2\n      mstore\n      0x20\n      add\n      swap1\n      dup2\n      mstore\n      0x20\n      add\n      0x00\n      keccak256\n      0x00\n        /* \"UserContract.sol\":1904:1934  userExist[_userAddress] = true */\n      0x0100\n      exp\n      dup2\n      sload\n      dup2\n      0xff\n      mul\n      not\n      and\n      swap1\n      dup4\n      iszero\n      iszero\n      mul\n      or\n      swap1\n      sstore\n      pop\n        /* \"UserContract.sol\":1978:1987  userIndex */\n      0x0a\n      0x00\n        /* \"UserContract.sol\":1978:1989  userIndex++ */\n      dup2\n      sload\n      dup1\n      swap3\n      swap2\n      swap1\n      tag_59\n      swap1\n      tag_60\n      jump\t// in\n    tag_59:\n      swap2\n      swap1\n      pop\n      sstore\n      pop\n        /* \"UserContract.sol\":1022:1997  function register(... */\n      pop\n      pop\n      pop\n      jump\t// out\n        /* \"UserContract.sol\":2311:2488  function findUser(address _userAddress)... */\n    tag_23:\n        /* \"UserContract.sol\":2399:2423  UserProfileStruct memory */\n      tag_61\n      tag_62\n      jump\t// in\n    tag_61:\n        /* \"UserContract.sol\":2448:2466  getUserFromAddress */\n      0x09\n        /* \"UserContract.sol\":2448:2480  getUserFromAddress[_userAddress] */\n      0x00\n        /* \"UserContract.sol\":2467:2479  _userAddress */\n      dup4\n        /* \"UserContract.sol\":2448:2480  getUserFromAddress[_userAddress] */\n      0xffffffffffffffffffffffffffffffffffffffff\n      and\n      0xffffffffffffffffffffffffffffffffffffffff\n      and\n      dup2\n      mstore\n      0x20\n      add\n      swap1\n      dup2\n      mstore\n      0x20\n      add\n      0x00\n      keccak256\n        /* \"UserContract.sol\":2441:2480  return getUserFromAddress[_userAddress] */\n      mload(0x40)\n      dup1\n      0x80\n      add\n      0x40\n      mstore\n      swap1\n      dup2\n      0x00\n      dup3\n      add\n      0x00\n      swap1\n      sload\n      swap1\n      0x0100\n      exp\n      swap1\n      div\n      0xffffffffffffffffffffffffffffffffffffffff\n      and\n      0xffffffffffffffffffffffffffffffffffffffff\n      and\n      0xffffffffffffffffffffffffffffffffffffffff\n      and\n      dup2\n      mstore\n      0x20\n      add\n      0x01\n      dup3\n      add\n      dup1\n      sload\n      tag_64\n      swap1\n      tag_31\n      jump\t// in\n    tag_64:\n      dup1\n      0x1f\n      add\n      0x20\n      dup1\n      swap2\n      div\n      mul\n      0x20\n      add\n      mload(0x40)\n      swap1\n      dup2\n      add\n      0x40\n      mstore\n      dup1\n      swap3\n      swap2\n      swap1\n      dup2\n      dup2\n      mstore\n      0x20\n      add\n      dup3\n      dup1\n      sload\n      tag_65\n      swap1\n      tag_31\n      jump\t// in\n    tag_65:\n      dup1\n      iszero\n      tag_66\n      jumpi\n      dup1\n      0x1f\n      lt\n      tag_67\n      jumpi\n      0x0100\n      dup1\n      dup4\n      sload\n      div\n      mul\n      dup4\n      mstore\n      swap2\n      0x20\n      add\n      swap2\n      jump(tag_66)\n    tag_67:\n      dup3\n      add\n      swap2\n      swap1\n      0x00\n      mstore\n      keccak256(0x00, 0x20)\n      swap1\n    tag_68:\n      dup2\n      sload\n      dup2\n      mstore\n      swap1\n      0x01\n      add\n      swap1\n      0x20\n      add\n      dup1\n      dup4\n      gt\n      tag_68\n      jumpi\n      dup3\n      swap1\n      sub\n      0x1f\n      and\n      dup3\n      add\n      swap2\n    tag_66:\n      pop\n      pop\n      pop\n      pop\n      pop\n      dup2\n      mstore\n      0x20\n      add\n      0x02\n      dup3\n      add\n      dup1\n      sload\n      tag_69\n      swap1\n      tag_31\n      jump\t// in\n    tag_69:\n      dup1\n      0x1f\n      add\n      0x20\n      dup1\n      swap2\n      div\n      mul\n      0x20\n      add\n      mload(0x40)\n      swap1\n      dup2\n      add\n      0x40\n      mstore\n      dup1\n      swap3\n      swap2\n      swap1\n      dup2\n      dup2\n      mstore\n      0x20\n      add\n      dup3\n      dup1\n      sload\n      tag_70\n      swap1\n      tag_31\n      jump\t// in\n    tag_70:\n      dup1\n      iszero\n      tag_71\n      jumpi\n      dup1\n      0x1f\n      lt\n      tag_72\n      jumpi\n      0x0100\n      dup1\n      dup4\n      sload\n      div\n      mul\n      dup4\n      mstore\n      swap2\n      0x20\n      add\n      swap2\n      jump(tag_71)\n    tag_72:\n      dup3\n      add\n      swap2\n      swap1\n      0x00\n      mstore\n      keccak256(0x00, 0x20)\n      swap1\n    tag_73:\n      dup2\n      sload\n      dup2\n      mstore\n      swap1\n      0x01\n      add\n      swap1\n      0x20\n      add\n      dup1\n      dup4\n      gt\n      tag_73\n      jumpi\n      dup3\n      swap1\n      sub\n      0x1f\n      and\n      dup3\n      add\n      swap2\n    tag_71:\n      pop\n      pop\n      pop\n      pop\n      pop\n      dup2\n      mstore\n      0x20\n      add\n      0x03\n      dup3\n      add\n      sload\n      dup2\n      mstore\n      pop\n      pop\n      swap1\n      pop\n        /* \"UserContract.sol\":2311:2488  function findUser(address _userAddress)... */\n      swap2\n      swap1\n      pop\n      jump\t// out\n    tag_62:\n      mload(0x40)\n      dup1\n      0x80\n      add\n      0x40\n      mstore\n      dup1\n      and(0xffffffffffffffffffffffffffffffffffffffff, 0x00)\n      dup2\n      mstore\n      0x20\n      add\n      0x60\n      dup2\n      mstore\n      0x20\n      add\n      0x60\n      dup2\n      mstore\n      0x20\n      add\n      0x00\n      dup2\n      mstore\n      pop\n      swap1\n      jump\t// out\n        /* \"#utility.yul\":7:154   */\n    tag_74:\n        /* \"#utility.yul\":107:113   */\n      0x00\n        /* \"#utility.yul\":141:146   */\n      dup2\n        /* \"#utility.yul\":135:147   */\n      mload\n        /* \"#utility.yul\":125:147   */\n      swap1\n      pop\n        /* \"#utility.yul\":7:154   */\n      swap2\n      swap1\n      pop\n      jump\t// out\n        /* \"#utility.yul\":160:377   */\n    tag_75:\n        /* \"#utility.yul\":292:303   */\n      0x00\n        /* \"#utility.yul\":326:332   */\n      dup3\n        /* \"#utility.yul\":321:324   */\n      dup3\n        /* \"#utility.yul\":314:333   */\n      mstore\n        /* \"#utility.yul\":366:370   */\n      0x20\n        /* \"#utility.yul\":361:364   */\n      dup3\n        /* \"#utility.yul\":357:371   */\n      add\n        /* \"#utility.yul\":342:371   */\n      swap1\n      pop\n        /* \"#utility.yul\":160:377   */\n      swap3\n      swap2\n      pop\n      pop\n      jump\t// out\n        /* \"#utility.yul\":383:548   */\n    tag_76:\n        /* \"#utility.yul\":483:487   */\n      0x00\n        /* \"#utility.yul\":506:509   */\n      dup2\n        /* \"#utility.yul\":498:509   */\n      swap1\n      pop\n        /* \"#utility.yul\":536:540   */\n      0x20\n        /* \"#utility.yul\":531:534   */\n      dup3\n        /* \"#utility.yul\":527:541   */\n      add\n        /* \"#utility.yul\":519:541   */\n      swap1\n      pop\n        /* \"#utility.yul\":383:548   */\n      swap2\n      swap1\n      pop\n      jump\t// out\n        /* \"#utility.yul\":554:680   */\n    tag_77:\n        /* \"#utility.yul\":591:598   */\n      0x00\n        /* \"#utility.yul\":631:673   */\n      0xffffffffffffffffffffffffffffffffffffffff\n        /* \"#utility.yul\":624:629   */\n      dup3\n        /* \"#utility.yul\":620:674   */\n      and\n        /* \"#utility.yul\":609:674   */\n      swap1\n      pop\n        /* \"#utility.yul\":554:680   */\n      swap2\n      swap1\n      pop\n      jump\t// out\n        /* \"#utility.yul\":686:782   */\n    tag_78:\n        /* \"#utility.yul\":723:730   */\n      0x00\n        /* \"#utility.yul\":752:776   */\n      tag_135\n        /* \"#utility.yul\":770:775   */\n      dup3\n        /* \"#utility.yul\":752:776   */\n      tag_77\n      jump\t// in\n    tag_135:\n        /* \"#utility.yul\":741:776   */\n      swap1\n      pop\n        /* \"#utility.yul\":686:782   */\n      swap2\n      swap1\n      pop\n      jump\t// out\n        /* \"#utility.yul\":788:896   */\n    tag_79:\n        /* \"#utility.yul\":865:889   */\n      tag_137\n        /* \"#utility.yul\":883:888   */\n      dup2\n        /* \"#utility.yul\":865:889   */\n      tag_78\n      jump\t// in\n    tag_137:\n        /* \"#utility.yul\":860:863   */\n      dup3\n        /* \"#utility.yul\":853:890   */\n      mstore\n        /* \"#utility.yul\":788:896   */\n      pop\n      pop\n      jump\t// out\n        /* \"#utility.yul\":902:1001   */\n    tag_80:\n        /* \"#utility.yul\":954:960   */\n      0x00\n        /* \"#utility.yul\":988:993   */\n      dup2\n        /* \"#utility.yul\":982:994   */\n      mload\n        /* \"#utility.yul\":972:994   */\n      swap1\n      pop\n        /* \"#utility.yul\":902:1001   */\n      swap2\n      swap1\n      pop\n      jump\t// out\n        /* \"#utility.yul\":1007:1166   */\n    tag_81:\n        /* \"#utility.yul\":1081:1092   */\n      0x00\n        /* \"#utility.yul\":1115:1121   */\n      dup3\n        /* \"#utility.yul\":1110:1113   */\n      dup3\n        /* \"#utility.yul\":1103:1122   */\n      mstore\n        /* \"#utility.yul\":1155:1159   */\n      0x20\n        /* \"#utility.yul\":1150:1153   */\n      dup3\n        /* \"#utility.yul\":1146:1160   */\n      add\n        /* \"#utility.yul\":1131:1160   */\n      swap1\n      pop\n        /* \"#utility.yul\":1007:1166   */\n      swap3\n      swap2\n      pop\n      pop\n      jump\t// out\n        /* \"#utility.yul\":1172:1418   */\n    tag_82:\n        /* \"#utility.yul\":1253:1254   */\n      0x00\n        /* \"#utility.yul\":1263:1376   */\n    tag_141:\n        /* \"#utility.yul\":1277:1283   */\n      dup4\n        /* \"#utility.yul\":1274:1275   */\n      dup2\n        /* \"#utility.yul\":1271:1284   */\n      lt\n        /* \"#utility.yul\":1263:1376   */\n      iszero\n      tag_143\n      jumpi\n        /* \"#utility.yul\":1362:1363   */\n      dup1\n        /* \"#utility.yul\":1357:1360   */\n      dup3\n        /* \"#utility.yul\":1353:1364   */\n      add\n        /* \"#utility.yul\":1347:1365   */\n      mload\n        /* \"#utility.yul\":1343:1344   */\n      dup2\n        /* \"#utility.yul\":1338:1341   */\n      dup5\n        /* \"#utility.yul\":1334:1345   */\n      add\n        /* \"#utility.yul\":1327:1366   */\n      mstore\n        /* \"#utility.yul\":1299:1301   */\n      0x20\n        /* \"#utility.yul\":1296:1297   */\n      dup2\n        /* \"#utility.yul\":1292:1302   */\n      add\n        /* \"#utility.yul\":1287:1302   */\n      swap1\n      pop\n        /* \"#utility.yul\":1263:1376   */\n      jump(tag_141)\n    tag_143:\n        /* \"#utility.yul\":1410:1411   */\n      0x00\n        /* \"#utility.yul\":1401:1407   */\n      dup5\n        /* \"#utility.yul\":1396:1399   */\n      dup5\n        /* \"#utility.yul\":1392:1408   */\n      add\n        /* \"#utility.yul\":1385:1412   */\n      mstore\n        /* \"#utility.yul\":1234:1418   */\n      pop\n        /* \"#utility.yul\":1172:1418   */\n      pop\n      pop\n      pop\n      jump\t// out\n        /* \"#utility.yul\":1424:1526   */\n    tag_83:\n        /* \"#utility.yul\":1465:1471   */\n      0x00\n        /* \"#utility.yul\":1516:1518   */\n      0x1f\n        /* \"#utility.yul\":1512:1519   */\n      not\n        /* \"#utility.yul\":1507:1509   */\n      0x1f\n        /* \"#utility.yul\":1500:1505   */\n      dup4\n        /* \"#utility.yul\":1496:1510   */\n      add\n        /* \"#utility.yul\":1492:1520   */\n      and\n        /* \"#utility.yul\":1482:1520   */\n      swap1\n      pop\n        /* \"#utility.yul\":1424:1526   */\n      swap2\n      swap1\n      pop\n      jump\t// out\n        /* \"#utility.yul\":1532:1889   */\n    tag_84:\n        /* \"#utility.yul\":1610:1613   */\n      0x00\n        /* \"#utility.yul\":1638:1677   */\n      tag_146\n        /* \"#utility.yul\":1671:1676   */\n      dup3\n        /* \"#utility.yul\":1638:1677   */\n      tag_80\n      jump\t// in\n    tag_146:\n        /* \"#utility.yul\":1693:1754   */\n      tag_147\n        /* \"#utility.yul\":1747:1753   */\n      dup2\n        /* \"#utility.yul\":1742:1745   */\n      dup6\n        /* \"#utility.yul\":1693:1754   */\n      tag_81\n      jump\t// in\n    tag_147:\n        /* \"#utility.yul\":1686:1754   */\n      swap4\n      pop\n        /* \"#utility.yul\":1763:1828   */\n      tag_148\n        /* \"#utility.yul\":1821:1827   */\n      dup2\n        /* \"#utility.yul\":1816:1819   */\n      dup6\n        /* \"#utility.yul\":1809:1813   */\n      0x20\n        /* \"#utility.yul\":1802:1807   */\n      dup7\n        /* \"#utility.yul\":1798:1814   */\n      add\n        /* \"#utility.yul\":1763:1828   */\n      tag_82\n      jump\t// in\n    tag_148:\n        /* \"#utility.yul\":1853:1882   */\n      tag_149\n        /* \"#utility.yul\":1875:1881   */\n      dup2\n        /* \"#utility.yul\":1853:1882   */\n      tag_83\n      jump\t// in\n    tag_149:\n        /* \"#utility.yul\":1848:1851   */\n      dup5\n        /* \"#utility.yul\":1844:1883   */\n      add\n        /* \"#utility.yul\":1837:1883   */\n      swap2\n      pop\n        /* \"#utility.yul\":1614:1889   */\n      pop\n        /* \"#utility.yul\":1532:1889   */\n      swap3\n      swap2\n      pop\n      pop\n      jump\t// out\n        /* \"#utility.yul\":1895:1972   */\n    tag_85:\n        /* \"#utility.yul\":1932:1939   */\n      0x00\n        /* \"#utility.yul\":1961:1966   */\n      dup2\n        /* \"#utility.yul\":1950:1966   */\n      swap1\n      pop\n        /* \"#utility.yul\":1895:1972   */\n      swap2\n      swap1\n      pop\n      jump\t// out\n        /* \"#utility.yul\":1978:2086   */\n    tag_86:\n        /* \"#utility.yul\":2055:2079   */\n      tag_152\n        /* \"#utility.yul\":2073:2078   */\n      dup2\n        /* \"#utility.yul\":2055:2079   */\n      tag_85\n      jump\t// in\n    tag_152:\n        /* \"#utility.yul\":2050:2053   */\n      dup3\n        /* \"#utility.yul\":2043:2080   */\n      mstore\n        /* \"#utility.yul\":1978:2086   */\n      pop\n      pop\n      jump\t// out\n        /* \"#utility.yul\":2178:3230   */\n    tag_87:\n        /* \"#utility.yul\":2303:2306   */\n      0x00\n        /* \"#utility.yul\":2339:2343   */\n      0x80\n        /* \"#utility.yul\":2334:2337   */\n      dup4\n        /* \"#utility.yul\":2330:2344   */\n      add\n        /* \"#utility.yul\":2433:2437   */\n      0x00\n        /* \"#utility.yul\":2426:2431   */\n      dup4\n        /* \"#utility.yul\":2422:2438   */\n      add\n        /* \"#utility.yul\":2416:2439   */\n      mload\n        /* \"#utility.yul\":2452:2515   */\n      tag_154\n        /* \"#utility.yul\":2509:2513   */\n      0x00\n        /* \"#utility.yul\":2504:2507   */\n      dup7\n        /* \"#utility.yul\":2500:2514   */\n      add\n        /* \"#utility.yul\":2486:2498   */\n      dup3\n        /* \"#utility.yul\":2452:2515   */\n      tag_79\n      jump\t// in\n    tag_154:\n        /* \"#utility.yul\":2354:2525   */\n      pop\n        /* \"#utility.yul\":2611:2615   */\n      0x20\n        /* \"#utility.yul\":2604:2609   */\n      dup4\n        /* \"#utility.yul\":2600:2616   */\n      add\n        /* \"#utility.yul\":2594:2617   */\n      mload\n        /* \"#utility.yul\":2664:2667   */\n      dup5\n        /* \"#utility.yul\":2658:2662   */\n      dup3\n        /* \"#utility.yul\":2654:2668   */\n      sub\n        /* \"#utility.yul\":2647:2651   */\n      0x20\n        /* \"#utility.yul\":2642:2645   */\n      dup7\n        /* \"#utility.yul\":2638:2652   */\n      add\n        /* \"#utility.yul\":2631:2669   */\n      mstore\n        /* \"#utility.yul\":2690:2763   */\n      tag_155\n        /* \"#utility.yul\":2758:2762   */\n      dup3\n        /* \"#utility.yul\":2744:2756   */\n      dup3\n        /* \"#utility.yul\":2690:2763   */\n      tag_84\n      jump\t// in\n    tag_155:\n        /* \"#utility.yul\":2682:2763   */\n      swap2\n      pop\n        /* \"#utility.yul\":2535:2774   */\n      pop\n        /* \"#utility.yul\":2861:2865   */\n      0x40\n        /* \"#utility.yul\":2854:2859   */\n      dup4\n        /* \"#utility.yul\":2850:2866   */\n      add\n        /* \"#utility.yul\":2844:2867   */\n      mload\n        /* \"#utility.yul\":2914:2917   */\n      dup5\n        /* \"#utility.yul\":2908:2912   */\n      dup3\n        /* \"#utility.yul\":2904:2918   */\n      sub\n        /* \"#utility.yul\":2897:2901   */\n      0x40\n        /* \"#utility.yul\":2892:2895   */\n      dup7\n        /* \"#utility.yul\":2888:2902   */\n      add\n        /* \"#utility.yul\":2881:2919   */\n      mstore\n        /* \"#utility.yul\":2940:3013   */\n      tag_156\n        /* \"#utility.yul\":3008:3012   */\n      dup3\n        /* \"#utility.yul\":2994:3006   */\n      dup3\n        /* \"#utility.yul\":2940:3013   */\n      tag_84\n      jump\t// in\n    tag_156:\n        /* \"#utility.yul\":2932:3013   */\n      swap2\n      pop\n        /* \"#utility.yul\":2784:3024   */\n      pop\n        /* \"#utility.yul\":3111:3115   */\n      0x60\n        /* \"#utility.yul\":3104:3109   */\n      dup4\n        /* \"#utility.yul\":3100:3116   */\n      add\n        /* \"#utility.yul\":3094:3117   */\n      mload\n        /* \"#utility.yul\":3130:3193   */\n      tag_157\n        /* \"#utility.yul\":3187:3191   */\n      0x60\n        /* \"#utility.yul\":3182:3185   */\n      dup7\n        /* \"#utility.yul\":3178:3192   */\n      add\n        /* \"#utility.yul\":3164:3176   */\n      dup3\n        /* \"#utility.yul\":3130:3193   */\n      tag_86\n      jump\t// in\n    tag_157:\n        /* \"#utility.yul\":3034:3203   */\n      pop\n        /* \"#utility.yul\":3220:3224   */\n      dup1\n        /* \"#utility.yul\":3213:3224   */\n      swap2\n      pop\n        /* \"#utility.yul\":2308:3230   */\n      pop\n        /* \"#utility.yul\":2178:3230   */\n      swap3\n      swap2\n      pop\n      pop\n      jump\t// out\n        /* \"#utility.yul\":3236:3524   */\n    tag_88:\n        /* \"#utility.yul\":3371:3381   */\n      0x00\n        /* \"#utility.yul\":3406:3518   */\n      tag_159\n        /* \"#utility.yul\":3514:3517   */\n      dup4\n        /* \"#utility.yul\":3506:3512   */\n      dup4\n        /* \"#utility.yul\":3406:3518   */\n      tag_87\n      jump\t// in\n    tag_159:\n        /* \"#utility.yul\":3392:3518   */\n      swap1\n      pop\n        /* \"#utility.yul\":3236:3524   */\n      swap3\n      swap2\n      pop\n      pop\n      jump\t// out\n        /* \"#utility.yul\":3530:3676   */\n    tag_89:\n        /* \"#utility.yul\":3633:3637   */\n      0x00\n        /* \"#utility.yul\":3665:3669   */\n      0x20\n        /* \"#utility.yul\":3660:3663   */\n      dup3\n        /* \"#utility.yul\":3656:3670   */\n      add\n        /* \"#utility.yul\":3648:3670   */\n      swap1\n      pop\n        /* \"#utility.yul\":3530:3676   */\n      swap2\n      swap1\n      pop\n      jump\t// out\n        /* \"#utility.yul\":3772:4947   */\n    tag_90:\n        /* \"#utility.yul\":3957:3960   */\n      0x00\n        /* \"#utility.yul\":3986:4073   */\n      tag_162\n        /* \"#utility.yul\":4067:4072   */\n      dup3\n        /* \"#utility.yul\":3986:4073   */\n      tag_74\n      jump\t// in\n    tag_162:\n        /* \"#utility.yul\":4089:4208   */\n      tag_163\n        /* \"#utility.yul\":4201:4207   */\n      dup2\n        /* \"#utility.yul\":4196:4199   */\n      dup6\n        /* \"#utility.yul\":4089:4208   */\n      tag_75\n      jump\t// in\n    tag_163:\n        /* \"#utility.yul\":4082:4208   */\n      swap4\n      pop\n        /* \"#utility.yul\":4234:4237   */\n      dup4\n        /* \"#utility.yul\":4279:4283   */\n      0x20\n        /* \"#utility.yul\":4271:4277   */\n      dup3\n        /* \"#utility.yul\":4267:4284   */\n      mul\n        /* \"#utility.yul\":4262:4265   */\n      dup6\n        /* \"#utility.yul\":4258:4285   */\n      add\n        /* \"#utility.yul\":4309:4398   */\n      tag_164\n        /* \"#utility.yul\":4392:4397   */\n      dup6\n        /* \"#utility.yul\":4309:4398   */\n      tag_76\n      jump\t// in\n    tag_164:\n        /* \"#utility.yul\":4421:4428   */\n      dup1\n        /* \"#utility.yul\":4452:4453   */\n      0x00\n        /* \"#utility.yul\":4437:4902   */\n    tag_165:\n        /* \"#utility.yul\":4462:4468   */\n      dup6\n        /* \"#utility.yul\":4459:4460   */\n      dup2\n        /* \"#utility.yul\":4456:4469   */\n      lt\n        /* \"#utility.yul\":4437:4902   */\n      iszero\n      tag_167\n      jumpi\n        /* \"#utility.yul\":4533:4542   */\n      dup5\n        /* \"#utility.yul\":4527:4531   */\n      dup5\n        /* \"#utility.yul\":4523:4543   */\n      sub\n        /* \"#utility.yul\":4518:4521   */\n      dup10\n        /* \"#utility.yul\":4511:4544   */\n      mstore\n        /* \"#utility.yul\":4584:4590   */\n      dup2\n        /* \"#utility.yul\":4578:4591   */\n      mload\n        /* \"#utility.yul\":4612:4742   */\n      tag_168\n        /* \"#utility.yul\":4737:4741   */\n      dup6\n        /* \"#utility.yul\":4722:4735   */\n      dup3\n        /* \"#utility.yul\":4612:4742   */\n      tag_88\n      jump\t// in\n    tag_168:\n        /* \"#utility.yul\":4604:4742   */\n      swap5\n      pop\n        /* \"#utility.yul\":4765:4858   */\n      tag_169\n        /* \"#utility.yul\":4851:4857   */\n      dup4\n        /* \"#utility.yul\":4765:4858   */\n      tag_89\n      jump\t// in\n    tag_169:\n        /* \"#utility.yul\":4755:4858   */\n      swap3\n      pop\n        /* \"#utility.yul\":4887:4891   */\n      0x20\n        /* \"#utility.yul\":4882:4885   */\n      dup11\n        /* \"#utility.yul\":4878:4892   */\n      add\n        /* \"#utility.yul\":4871:4892   */\n      swap10\n      pop\n        /* \"#utility.yul\":4497:4902   */\n      pop\n        /* \"#utility.yul\":4484:4485   */\n      0x01\n        /* \"#utility.yul\":4481:4482   */\n      dup2\n        /* \"#utility.yul\":4477:4486   */\n      add\n        /* \"#utility.yul\":4472:4486   */\n      swap1\n      pop\n        /* \"#utility.yul\":4437:4902   */\n      jump(tag_165)\n    tag_167:\n        /* \"#utility.yul\":4441:4455   */\n      pop\n        /* \"#utility.yul\":4918:4922   */\n      dup3\n        /* \"#utility.yul\":4911:4922   */\n      swap8\n      pop\n        /* \"#utility.yul\":4938:4941   */\n      dup8\n        /* \"#utility.yul\":4931:4941   */\n      swap6\n      pop\n        /* \"#utility.yul\":3962:4947   */\n      pop\n      pop\n      pop\n      pop\n      pop\n        /* \"#utility.yul\":3772:4947   */\n      swap3\n      swap2\n      pop\n      pop\n      jump\t// out\n        /* \"#utility.yul\":4953:5458   */\n    tag_10:\n        /* \"#utility.yul\":5162:5166   */\n      0x00\n        /* \"#utility.yul\":5200:5202   */\n      0x20\n        /* \"#utility.yul\":5189:5198   */\n      dup3\n        /* \"#utility.yul\":5185:5203   */\n      add\n        /* \"#utility.yul\":5177:5203   */\n      swap1\n      pop\n        /* \"#utility.yul\":5249:5258   */\n      dup2\n        /* \"#utility.yul\":5243:5247   */\n      dup2\n        /* \"#utility.yul\":5239:5259   */\n      sub\n        /* \"#utility.yul\":5235:5236   */\n      0x00\n        /* \"#utility.yul\":5224:5233   */\n      dup4\n        /* \"#utility.yul\":5220:5237   */\n      add\n        /* \"#utility.yul\":5213:5260   */\n      mstore\n        /* \"#utility.yul\":5277:5451   */\n      tag_171\n        /* \"#utility.yul\":5446:5450   */\n      dup2\n        /* \"#utility.yul\":5437:5443   */\n      dup5\n        /* \"#utility.yul\":5277:5451   */\n      tag_90\n      jump\t// in\n    tag_171:\n        /* \"#utility.yul\":5269:5451   */\n      swap1\n      pop\n        /* \"#utility.yul\":4953:5458   */\n      swap3\n      swap2\n      pop\n      pop\n      jump\t// out\n        /* \"#utility.yul\":5464:5539   */\n    tag_91:\n        /* \"#utility.yul\":5497:5503   */\n      0x00\n        /* \"#utility.yul\":5530:5532   */\n      0x40\n        /* \"#utility.yul\":5524:5533   */\n      mload\n        /* \"#utility.yul\":5514:5533   */\n      swap1\n      pop\n        /* \"#utility.yul\":5464:5539   */\n      swap1\n      jump\t// out\n        /* \"#utility.yul\":5545:5662   */\n    tag_92:\n        /* \"#utility.yul\":5654:5655   */\n      0x00\n        /* \"#utility.yul\":5651:5652   */\n      dup1\n        /* \"#utility.yul\":5644:5656   */\n      revert\n        /* \"#utility.yul\":5668:5785   */\n    tag_93:\n        /* \"#utility.yul\":5777:5778   */\n      0x00\n        /* \"#utility.yul\":5774:5775   */\n      dup1\n        /* \"#utility.yul\":5767:5779   */\n      revert\n        /* \"#utility.yul\":5791:5913   */\n    tag_94:\n        /* \"#utility.yul\":5864:5888   */\n      tag_176\n        /* \"#utility.yul\":5882:5887   */\n      dup2\n        /* \"#utility.yul\":5864:5888   */\n      tag_78\n      jump\t// in\n    tag_176:\n        /* \"#utility.yul\":5857:5862   */\n      dup2\n        /* \"#utility.yul\":5854:5889   */\n      eq\n        /* \"#utility.yul\":5844:5907   */\n      tag_177\n      jumpi\n        /* \"#utility.yul\":5903:5904   */\n      0x00\n        /* \"#utility.yul\":5900:5901   */\n      dup1\n        /* \"#utility.yul\":5893:5905   */\n      revert\n        /* \"#utility.yul\":5844:5907   */\n    tag_177:\n        /* \"#utility.yul\":5791:5913   */\n      pop\n      jump\t// out\n        /* \"#utility.yul\":5919:6058   */\n    tag_95:\n        /* \"#utility.yul\":5965:5970   */\n      0x00\n        /* \"#utility.yul\":6003:6009   */\n      dup2\n        /* \"#utility.yul\":5990:6010   */\n      calldataload\n        /* \"#utility.yul\":5981:6010   */\n      swap1\n      pop\n        /* \"#utility.yul\":6019:6052   */\n      tag_179\n        /* \"#utility.yul\":6046:6051   */\n      dup2\n        /* \"#utility.yul\":6019:6052   */\n      tag_94\n      jump\t// in\n    tag_179:\n        /* \"#utility.yul\":5919:6058   */\n      swap3\n      swap2\n      pop\n      pop\n      jump\t// out\n        /* \"#utility.yul\":6064:6393   */\n    tag_13:\n        /* \"#utility.yul\":6123:6129   */\n      0x00\n        /* \"#utility.yul\":6172:6174   */\n      0x20\n        /* \"#utility.yul\":6160:6169   */\n      dup3\n        /* \"#utility.yul\":6151:6158   */\n      dup5\n        /* \"#utility.yul\":6147:6170   */\n      sub\n        /* \"#utility.yul\":6143:6175   */\n      slt\n        /* \"#utility.yul\":6140:6259   */\n      iszero\n      tag_181\n      jumpi\n        /* \"#utility.yul\":6178:6257   */\n      tag_182\n      tag_92\n      jump\t// in\n    tag_182:\n        /* \"#utility.yul\":6140:6259   */\n    tag_181:\n        /* \"#utility.yul\":6298:6299   */\n      0x00\n        /* \"#utility.yul\":6323:6376   */\n      tag_183\n        /* \"#utility.yul\":6368:6375   */\n      dup5\n        /* \"#utility.yul\":6359:6365   */\n      dup3\n        /* \"#utility.yul\":6348:6357   */\n      dup6\n        /* \"#utility.yul\":6344:6366   */\n      add\n        /* \"#utility.yul\":6323:6376   */\n      tag_95\n      jump\t// in\n    tag_183:\n        /* \"#utility.yul\":6313:6376   */\n      swap2\n      pop\n        /* \"#utility.yul\":6269:6386   */\n      pop\n        /* \"#utility.yul\":6064:6393   */\n      swap3\n      swap2\n      pop\n      pop\n      jump\t// out\n        /* \"#utility.yul\":6399:6489   */\n    tag_96:\n        /* \"#utility.yul\":6433:6440   */\n      0x00\n        /* \"#utility.yul\":6476:6481   */\n      dup2\n        /* \"#utility.yul\":6469:6482   */\n      iszero\n        /* \"#utility.yul\":6462:6483   */\n      iszero\n        /* \"#utility.yul\":6451:6483   */\n      swap1\n      pop\n        /* \"#utility.yul\":6399:6489   */\n      swap2\n      swap1\n      pop\n      jump\t// out\n        /* \"#utility.yul\":6495:6604   */\n    tag_97:\n        /* \"#utility.yul\":6576:6597   */\n      tag_186\n        /* \"#utility.yul\":6591:6596   */\n      dup2\n        /* \"#utility.yul\":6576:6597   */\n      tag_96\n      jump\t// in\n    tag_186:\n        /* \"#utility.yul\":6571:6574   */\n      dup3\n        /* \"#utility.yul\":6564:6598   */\n      mstore\n        /* \"#utility.yul\":6495:6604   */\n      pop\n      pop\n      jump\t// out\n        /* \"#utility.yul\":6610:6820   */\n    tag_16:\n        /* \"#utility.yul\":6697:6701   */\n      0x00\n        /* \"#utility.yul\":6735:6737   */\n      0x20\n        /* \"#utility.yul\":6724:6733   */\n      dup3\n        /* \"#utility.yul\":6720:6738   */\n      add\n        /* \"#utility.yul\":6712:6738   */\n      swap1\n      pop\n        /* \"#utility.yul\":6748:6813   */\n      tag_188\n        /* \"#utility.yul\":6810:6811   */\n      0x00\n        /* \"#utility.yul\":6799:6808   */\n      dup4\n        /* \"#utility.yul\":6795:6812   */\n      add\n        /* \"#utility.yul\":6786:6792   */\n      dup5\n        /* \"#utility.yul\":6748:6813   */\n      tag_97\n      jump\t// in\n    tag_188:\n        /* \"#utility.yul\":6610:6820   */\n      swap3\n      swap2\n      pop\n      pop\n      jump\t// out\n        /* \"#utility.yul\":6826:6943   */\n    tag_98:\n        /* \"#utility.yul\":6935:6936   */\n      0x00\n        /* \"#utility.yul\":6932:6933   */\n      dup1\n        /* \"#utility.yul\":6925:6937   */\n      revert\n        /* \"#utility.yul\":6949:7066   */\n    tag_99:\n        /* \"#utility.yul\":7058:7059   */\n      0x00\n        /* \"#utility.yul\":7055:7056   */\n      dup1\n        /* \"#utility.yul\":7048:7060   */\n      revert\n        /* \"#utility.yul\":7072:7252   */\n    tag_100:\n        /* \"#utility.yul\":7120:7197   */\n      0x4e487b7100000000000000000000000000000000000000000000000000000000\n        /* \"#utility.yul\":7117:7118   */\n      0x00\n        /* \"#utility.yul\":7110:7198   */\n      mstore\n        /* \"#utility.yul\":7217:7221   */\n      0x41\n        /* \"#utility.yul\":7214:7215   */\n      0x04\n        /* \"#utility.yul\":7207:7222   */\n      mstore\n        /* \"#utility.yul\":7241:7245   */\n      0x24\n        /* \"#utility.yul\":7238:7239   */\n      0x00\n        /* \"#utility.yul\":7231:7246   */\n      revert\n        /* \"#utility.yul\":7258:7539   */\n    tag_101:\n        /* \"#utility.yul\":7341:7368   */\n      tag_193\n        /* \"#utility.yul\":7363:7367   */\n      dup3\n        /* \"#utility.yul\":7341:7368   */\n      tag_83\n      jump\t// in\n    tag_193:\n        /* \"#utility.yul\":7333:7339   */\n      dup2\n        /* \"#utility.yul\":7329:7369   */\n      add\n        /* \"#utility.yul\":7471:7477   */\n      dup2\n        /* \"#utility.yul\":7459:7469   */\n      dup2\n        /* \"#utility.yul\":7456:7478   */\n      lt\n        /* \"#utility.yul\":7435:7453   */\n      0xffffffffffffffff\n        /* \"#utility.yul\":7423:7433   */\n      dup3\n        /* \"#utility.yul\":7420:7454   */\n      gt\n        /* \"#utility.yul\":7417:7479   */\n      or\n        /* \"#utility.yul\":7414:7502   */\n      iszero\n      tag_194\n      jumpi\n        /* \"#utility.yul\":7482:7500   */\n      tag_195\n      tag_100\n      jump\t// in\n    tag_195:\n        /* \"#utility.yul\":7414:7502   */\n    tag_194:\n        /* \"#utility.yul\":7522:7532   */\n      dup1\n        /* \"#utility.yul\":7518:7520   */\n      0x40\n        /* \"#utility.yul\":7511:7533   */\n      mstore\n        /* \"#utility.yul\":7301:7539   */\n      pop\n        /* \"#utility.yul\":7258:7539   */\n      pop\n      pop\n      jump\t// out\n        /* \"#utility.yul\":7545:7674   */\n    tag_102:\n        /* \"#utility.yul\":7579:7585   */\n      0x00\n        /* \"#utility.yul\":7606:7626   */\n      tag_197\n      tag_91\n      jump\t// in\n    tag_197:\n        /* \"#utility.yul\":7596:7626   */\n      swap1\n      pop\n        /* \"#utility.yul\":7635:7668   */\n      tag_198\n        /* \"#utility.yul\":7663:7667   */\n      dup3\n        /* \"#utility.yul\":7655:7661   */\n      dup3\n        /* \"#utility.yul\":7635:7668   */\n      tag_101\n      jump\t// in\n    tag_198:\n        /* \"#utility.yul\":7545:7674   */\n      swap2\n      swap1\n      pop\n      jump\t// out\n        /* \"#utility.yul\":7680:7988   */\n    tag_103:\n        /* \"#utility.yul\":7742:7746   */\n      0x00\n        /* \"#utility.yul\":7832:7850   */\n      0xffffffffffffffff\n        /* \"#utility.yul\":7824:7830   */\n      dup3\n        /* \"#utility.yul\":7821:7851   */\n      gt\n        /* \"#utility.yul\":7818:7874   */\n      iszero\n      tag_200\n      jumpi\n        /* \"#utility.yul\":7854:7872   */\n      tag_201\n      tag_100\n      jump\t// in\n    tag_201:\n        /* \"#utility.yul\":7818:7874   */\n    tag_200:\n        /* \"#utility.yul\":7892:7921   */\n      tag_202\n        /* \"#utility.yul\":7914:7920   */\n      dup3\n        /* \"#utility.yul\":7892:7921   */\n      tag_83\n      jump\t// in\n    tag_202:\n        /* \"#utility.yul\":7884:7921   */\n      swap1\n      pop\n        /* \"#utility.yul\":7976:7980   */\n      0x20\n        /* \"#utility.yul\":7970:7974   */\n      dup2\n        /* \"#utility.yul\":7966:7981   */\n      add\n        /* \"#utility.yul\":7958:7981   */\n      swap1\n      pop\n        /* \"#utility.yul\":7680:7988   */\n      swap2\n      swap1\n      pop\n      jump\t// out\n        /* \"#utility.yul\":7994:8140   */\n    tag_104:\n        /* \"#utility.yul\":8091:8097   */\n      dup3\n        /* \"#utility.yul\":8086:8089   */\n      dup2\n        /* \"#utility.yul\":8081:8084   */\n      dup4\n        /* \"#utility.yul\":8068:8098   */\n      calldatacopy\n        /* \"#utility.yul\":8132:8133   */\n      0x00\n        /* \"#utility.yul\":8123:8129   */\n      dup4\n        /* \"#utility.yul\":8118:8121   */\n      dup4\n        /* \"#utility.yul\":8114:8130   */\n      add\n        /* \"#utility.yul\":8107:8134   */\n      mstore\n        /* \"#utility.yul\":7994:8140   */\n      pop\n      pop\n      pop\n      jump\t// out\n        /* \"#utility.yul\":8146:8571   */\n    tag_105:\n        /* \"#utility.yul\":8224:8229   */\n      0x00\n        /* \"#utility.yul\":8249:8315   */\n      tag_205\n        /* \"#utility.yul\":8265:8314   */\n      tag_206\n        /* \"#utility.yul\":8307:8313   */\n      dup5\n        /* \"#utility.yul\":8265:8314   */\n      tag_103\n      jump\t// in\n    tag_206:\n        /* \"#utility.yul\":8249:8315   */\n      tag_102\n      jump\t// in\n    tag_205:\n        /* \"#utility.yul\":8240:8315   */\n      swap1\n      pop\n        /* \"#utility.yul\":8338:8344   */\n      dup3\n        /* \"#utility.yul\":8331:8336   */\n      dup2\n        /* \"#utility.yul\":8324:8345   */\n      mstore\n        /* \"#utility.yul\":8376:8380   */\n      0x20\n        /* \"#utility.yul\":8369:8374   */\n      dup2\n        /* \"#utility.yul\":8365:8381   */\n      add\n        /* \"#utility.yul\":8414:8417   */\n      dup5\n        /* \"#utility.yul\":8405:8411   */\n      dup5\n        /* \"#utility.yul\":8400:8403   */\n      dup5\n        /* \"#utility.yul\":8396:8412   */\n      add\n        /* \"#utility.yul\":8393:8418   */\n      gt\n        /* \"#utility.yul\":8390:8502   */\n      iszero\n      tag_207\n      jumpi\n        /* \"#utility.yul\":8421:8500   */\n      tag_208\n      tag_99\n      jump\t// in\n    tag_208:\n        /* \"#utility.yul\":8390:8502   */\n    tag_207:\n        /* \"#utility.yul\":8511:8565   */\n      tag_209\n        /* \"#utility.yul\":8558:8564   */\n      dup5\n        /* \"#utility.yul\":8553:8556   */\n      dup3\n        /* \"#utility.yul\":8548:8551   */\n      dup6\n        /* \"#utility.yul\":8511:8565   */\n      tag_104\n      jump\t// in\n    tag_209:\n        /* \"#utility.yul\":8230:8571   */\n      pop\n        /* \"#utility.yul\":8146:8571   */\n      swap4\n      swap3\n      pop\n      pop\n      pop\n      jump\t// out\n        /* \"#utility.yul\":8591:8931   */\n    tag_106:\n        /* \"#utility.yul\":8647:8652   */\n      0x00\n        /* \"#utility.yul\":8696:8699   */\n      dup3\n        /* \"#utility.yul\":8689:8693   */\n      0x1f\n        /* \"#utility.yul\":8681:8687   */\n      dup4\n        /* \"#utility.yul\":8677:8694   */\n      add\n        /* \"#utility.yul\":8673:8700   */\n      slt\n        /* \"#utility.yul\":8663:8785   */\n      tag_211\n      jumpi\n        /* \"#utility.yul\":8704:8783   */\n      tag_212\n      tag_98\n      jump\t// in\n    tag_212:\n        /* \"#utility.yul\":8663:8785   */\n    tag_211:\n        /* \"#utility.yul\":8821:8827   */\n      dup2\n        /* \"#utility.yul\":8808:8828   */\n      calldataload\n        /* \"#utility.yul\":8846:8925   */\n      tag_213\n        /* \"#utility.yul\":8921:8924   */\n      dup5\n        /* \"#utility.yul\":8913:8919   */\n      dup3\n        /* \"#utility.yul\":8906:8910   */\n      0x20\n        /* \"#utility.yul\":8898:8904   */\n      dup7\n        /* \"#utility.yul\":8894:8911   */\n      add\n        /* \"#utility.yul\":8846:8925   */\n      tag_105\n      jump\t// in\n    tag_213:\n        /* \"#utility.yul\":8837:8925   */\n      swap2\n      pop\n        /* \"#utility.yul\":8653:8931   */\n      pop\n        /* \"#utility.yul\":8591:8931   */\n      swap3\n      swap2\n      pop\n      pop\n      jump\t// out\n        /* \"#utility.yul\":8937:9916   */\n    tag_19:\n        /* \"#utility.yul\":9034:9040   */\n      0x00\n        /* \"#utility.yul\":9042:9048   */\n      dup1\n        /* \"#utility.yul\":9050:9056   */\n      0x00\n        /* \"#utility.yul\":9099:9101   */\n      0x60\n        /* \"#utility.yul\":9087:9096   */\n      dup5\n        /* \"#utility.yul\":9078:9085   */\n      dup7\n        /* \"#utility.yul\":9074:9097   */\n      sub\n        /* \"#utility.yul\":9070:9102   */\n      slt\n        /* \"#utility.yul\":9067:9186   */\n      iszero\n      tag_215\n      jumpi\n        /* \"#utility.yul\":9105:9184   */\n      tag_216\n      tag_92\n      jump\t// in\n    tag_216:\n        /* \"#utility.yul\":9067:9186   */\n    tag_215:\n        /* \"#utility.yul\":9225:9226   */\n      0x00\n        /* \"#utility.yul\":9250:9303   */\n      tag_217\n        /* \"#utility.yul\":9295:9302   */\n      dup7\n        /* \"#utility.yul\":9286:9292   */\n      dup3\n        /* \"#utility.yul\":9275:9284   */\n      dup8\n        /* \"#utility.yul\":9271:9293   */\n      add\n        /* \"#utility.yul\":9250:9303   */\n      tag_95\n      jump\t// in\n    tag_217:\n        /* \"#utility.yul\":9240:9303   */\n      swap4\n      pop\n        /* \"#utility.yul\":9196:9313   */\n      pop\n        /* \"#utility.yul\":9380:9382   */\n      0x20\n        /* \"#utility.yul\":9369:9378   */\n      dup5\n        /* \"#utility.yul\":9365:9383   */\n      add\n        /* \"#utility.yul\":9352:9384   */\n      calldataload\n        /* \"#utility.yul\":9411:9429   */\n      0xffffffffffffffff\n        /* \"#utility.yul\":9403:9409   */\n      dup2\n        /* \"#utility.yul\":9400:9430   */\n      gt\n        /* \"#utility.yul\":9397:9514   */\n      iszero\n      tag_218\n      jumpi\n        /* \"#utility.yul\":9433:9512   */\n      tag_219\n      tag_93\n      jump\t// in\n    tag_219:\n        /* \"#utility.yul\":9397:9514   */\n    tag_218:\n        /* \"#utility.yul\":9538:9601   */\n      tag_220\n        /* \"#utility.yul\":9593:9600   */\n      dup7\n        /* \"#utility.yul\":9584:9590   */\n      dup3\n        /* \"#utility.yul\":9573:9582   */\n      dup8\n        /* \"#utility.yul\":9569:9591   */\n      add\n        /* \"#utility.yul\":9538:9601   */\n      tag_106\n      jump\t// in\n    tag_220:\n        /* \"#utility.yul\":9528:9601   */\n      swap3\n      pop\n        /* \"#utility.yul\":9323:9611   */\n      pop\n        /* \"#utility.yul\":9678:9680   */\n      0x40\n        /* \"#utility.yul\":9667:9676   */\n      dup5\n        /* \"#utility.yul\":9663:9681   */\n      add\n        /* \"#utility.yul\":9650:9682   */\n      calldataload\n        /* \"#utility.yul\":9709:9727   */\n      0xffffffffffffffff\n        /* \"#utility.yul\":9701:9707   */\n      dup2\n        /* \"#utility.yul\":9698:9728   */\n      gt\n        /* \"#utility.yul\":9695:9812   */\n      iszero\n      tag_221\n      jumpi\n        /* \"#utility.yul\":9731:9810   */\n      tag_222\n      tag_93\n      jump\t// in\n    tag_222:\n        /* \"#utility.yul\":9695:9812   */\n    tag_221:\n        /* \"#utility.yul\":9836:9899   */\n      tag_223\n        /* \"#utility.yul\":9891:9898   */\n      dup7\n        /* \"#utility.yul\":9882:9888   */\n      dup3\n        /* \"#utility.yul\":9871:9880   */\n      dup8\n        /* \"#utility.yul\":9867:9889   */\n      add\n        /* \"#utility.yul\":9836:9899   */\n      tag_106\n      jump\t// in\n    tag_223:\n        /* \"#utility.yul\":9826:9899   */\n      swap2\n      pop\n        /* \"#utility.yul\":9621:9909   */\n      pop\n        /* \"#utility.yul\":8937:9916   */\n      swap3\n      pop\n      swap3\n      pop\n      swap3\n      jump\t// out\n        /* \"#utility.yul\":10008:11070   */\n    tag_107:\n        /* \"#utility.yul\":10143:10146   */\n      0x00\n        /* \"#utility.yul\":10179:10183   */\n      0x80\n        /* \"#utility.yul\":10174:10177   */\n      dup4\n        /* \"#utility.yul\":10170:10184   */\n      add\n        /* \"#utility.yul\":10273:10277   */\n      0x00\n        /* \"#utility.yul\":10266:10271   */\n      dup4\n        /* \"#utility.yul\":10262:10278   */\n      add\n        /* \"#utility.yul\":10256:10279   */\n      mload\n        /* \"#utility.yul\":10292:10355   */\n      tag_225\n        /* \"#utility.yul\":10349:10353   */\n      0x00\n        /* \"#utility.yul\":10344:10347   */\n      dup7\n        /* \"#utility.yul\":10340:10354   */\n      add\n        /* \"#utility.yul\":10326:10338   */\n      dup3\n        /* \"#utility.yul\":10292:10355   */\n      tag_79\n      jump\t// in\n    tag_225:\n        /* \"#utility.yul\":10194:10365   */\n      pop\n        /* \"#utility.yul\":10451:10455   */\n      0x20\n        /* \"#utility.yul\":10444:10449   */\n      dup4\n        /* \"#utility.yul\":10440:10456   */\n      add\n        /* \"#utility.yul\":10434:10457   */\n      mload\n        /* \"#utility.yul\":10504:10507   */\n      dup5\n        /* \"#utility.yul\":10498:10502   */\n      dup3\n        /* \"#utility.yul\":10494:10508   */\n      sub\n        /* \"#utility.yul\":10487:10491   */\n      0x20\n        /* \"#utility.yul\":10482:10485   */\n      dup7\n        /* \"#utility.yul\":10478:10492   */\n      add\n        /* \"#utility.yul\":10471:10509   */\n      mstore\n        /* \"#utility.yul\":10530:10603   */\n      tag_226\n        /* \"#utility.yul\":10598:10602   */\n      dup3\n        /* \"#utility.yul\":10584:10596   */\n      dup3\n        /* \"#utility.yul\":10530:10603   */\n      tag_84\n      jump\t// in\n    tag_226:\n        /* \"#utility.yul\":10522:10603   */\n      swap2\n      pop\n        /* \"#utility.yul\":10375:10614   */\n      pop\n        /* \"#utility.yul\":10701:10705   */\n      0x40\n        /* \"#utility.yul\":10694:10699   */\n      dup4\n        /* \"#utility.yul\":10690:10706   */\n      add\n        /* \"#utility.yul\":10684:10707   */\n      mload\n        /* \"#utility.yul\":10754:10757   */\n      dup5\n        /* \"#utility.yul\":10748:10752   */\n      dup3\n        /* \"#utility.yul\":10744:10758   */\n      sub\n        /* \"#utility.yul\":10737:10741   */\n      0x40\n        /* \"#utility.yul\":10732:10735   */\n      dup7\n        /* \"#utility.yul\":10728:10742   */\n      add\n        /* \"#utility.yul\":10721:10759   */\n      mstore\n        /* \"#utility.yul\":10780:10853   */\n      tag_227\n        /* \"#utility.yul\":10848:10852   */\n      dup3\n        /* \"#utility.yul\":10834:10846   */\n      dup3\n        /* \"#utility.yul\":10780:10853   */\n      tag_84\n      jump\t// in\n    tag_227:\n        /* \"#utility.yul\":10772:10853   */\n      swap2\n      pop\n        /* \"#utility.yul\":10624:10864   */\n      pop\n        /* \"#utility.yul\":10951:10955   */\n      0x60\n        /* \"#utility.yul\":10944:10949   */\n      dup4\n        /* \"#utility.yul\":10940:10956   */\n      add\n        /* \"#utility.yul\":10934:10957   */\n      mload\n        /* \"#utility.yul\":10970:11033   */\n      tag_228\n        /* \"#utility.yul\":11027:11031   */\n      0x60\n        /* \"#utility.yul\":11022:11025   */\n      dup7\n        /* \"#utility.yul\":11018:11032   */\n      add\n        /* \"#utility.yul\":11004:11016   */\n      dup3\n        /* \"#utility.yul\":10970:11033   */\n      tag_86\n      jump\t// in\n    tag_228:\n        /* \"#utility.yul\":10874:11043   */\n      pop\n        /* \"#utility.yul\":11060:11064   */\n      dup1\n        /* \"#utility.yul\":11053:11064   */\n      swap2\n      pop\n        /* \"#utility.yul\":10148:11070   */\n      pop\n        /* \"#utility.yul\":10008:11070   */\n      swap3\n      swap2\n      pop\n      pop\n      jump\t// out\n        /* \"#utility.yul\":11076:11481   */\n    tag_25:\n        /* \"#utility.yul\":11235:11239   */\n      0x00\n        /* \"#utility.yul\":11273:11275   */\n      0x20\n        /* \"#utility.yul\":11262:11271   */\n      dup3\n        /* \"#utility.yul\":11258:11276   */\n      add\n        /* \"#utility.yul\":11250:11276   */\n      swap1\n      pop\n        /* \"#utility.yul\":11322:11331   */\n      dup2\n        /* \"#utility.yul\":11316:11320   */\n      dup2\n        /* \"#utility.yul\":11312:11332   */\n      sub\n        /* \"#utility.yul\":11308:11309   */\n      0x00\n        /* \"#utility.yul\":11297:11306   */\n      dup4\n        /* \"#utility.yul\":11293:11310   */\n      add\n        /* \"#utility.yul\":11286:11333   */\n      mstore\n        /* \"#utility.yul\":11350:11474   */\n      tag_230\n        /* \"#utility.yul\":11469:11473   */\n      dup2\n        /* \"#utility.yul\":11460:11466   */\n      dup5\n        /* \"#utility.yul\":11350:11474   */\n      tag_107\n      jump\t// in\n    tag_230:\n        /* \"#utility.yul\":11342:11474   */\n      swap1\n      pop\n        /* \"#utility.yul\":11076:11481   */\n      swap3\n      swap2\n      pop\n      pop\n      jump\t// out\n        /* \"#utility.yul\":11487:11667   */\n    tag_108:\n        /* \"#utility.yul\":11535:11612   */\n      0x4e487b7100000000000000000000000000000000000000000000000000000000\n        /* \"#utility.yul\":11532:11533   */\n      0x00\n        /* \"#utility.yul\":11525:11613   */\n      mstore\n        /* \"#utility.yul\":11632:11636   */\n      0x22\n        /* \"#utility.yul\":11629:11630   */\n      0x04\n        /* \"#utility.yul\":11622:11637   */\n      mstore\n        /* \"#utility.yul\":11656:11660   */\n      0x24\n        /* \"#utility.yul\":11653:11654   */\n      0x00\n        /* \"#utility.yul\":11646:11661   */\n      revert\n        /* \"#utility.yul\":11673:11993   */\n    tag_31:\n        /* \"#utility.yul\":11717:11723   */\n      0x00\n        /* \"#utility.yul\":11754:11755   */\n      0x02\n        /* \"#utility.yul\":11748:11752   */\n      dup3\n        /* \"#utility.yul\":11744:11756   */\n      div\n        /* \"#utility.yul\":11734:11756   */\n      swap1\n      pop\n        /* \"#utility.yul\":11801:11802   */\n      0x01\n        /* \"#utility.yul\":11795:11799   */\n      dup3\n        /* \"#utility.yul\":11791:11803   */\n      and\n        /* \"#utility.yul\":11822:11840   */\n      dup1\n        /* \"#utility.yul\":11812:11893   */\n      tag_233\n      jumpi\n        /* \"#utility.yul\":11878:11882   */\n      0x7f\n        /* \"#utility.yul\":11870:11876   */\n      dup3\n        /* \"#utility.yul\":11866:11883   */\n      and\n        /* \"#utility.yul\":11856:11883   */\n      swap2\n      pop\n        /* \"#utility.yul\":11812:11893   */\n    tag_233:\n        /* \"#utility.yul\":11940:11942   */\n      0x20\n        /* \"#utility.yul\":11932:11938   */\n      dup3\n        /* \"#utility.yul\":11929:11943   */\n      lt\n        /* \"#utility.yul\":11909:11927   */\n      dup2\n        /* \"#utility.yul\":11906:11944   */\n      sub\n        /* \"#utility.yul\":11903:11987   */\n      tag_234\n      jumpi\n        /* \"#utility.yul\":11959:11977   */\n      tag_235\n      tag_108\n      jump\t// in\n    tag_235:\n        /* \"#utility.yul\":11903:11987   */\n    tag_234:\n        /* \"#utility.yul\":11724:11993   */\n      pop\n        /* \"#utility.yul\":11673:11993   */\n      swap2\n      swap1\n      pop\n      jump\t// out\n        /* \"#utility.yul\":11999:12168   */\n    tag_109:\n        /* \"#utility.yul\":12083:12094   */\n      0x00\n        /* \"#utility.yul\":12117:12123   */\n      dup3\n        /* \"#utility.yul\":12112:12115   */\n      dup3\n        /* \"#utility.yul\":12105:12124   */\n      mstore\n        /* \"#utility.yul\":12157:12161   */\n      0x20\n        /* \"#utility.yul\":12152:12155   */\n      dup3\n        /* \"#utility.yul\":12148:12162   */\n      add\n        /* \"#utility.yul\":12133:12162   */\n      swap1\n      pop\n        /* \"#utility.yul\":11999:12168   */\n      swap3\n      swap2\n      pop\n      pop\n      jump\t// out\n        /* \"#utility.yul\":12174:12343   */\n    tag_110:\n        /* \"#utility.yul\":12314:12335   */\n      0x5573657220646f6573206e6f7420657869737400000000000000000000000000\n        /* \"#utility.yul\":12310:12311   */\n      0x00\n        /* \"#utility.yul\":12302:12308   */\n      dup3\n        /* \"#utility.yul\":12298:12312   */\n      add\n        /* \"#utility.yul\":12291:12336   */\n      mstore\n        /* \"#utility.yul\":12174:12343   */\n      pop\n      jump\t// out\n        /* \"#utility.yul\":12349:12715   */\n    tag_111:\n        /* \"#utility.yul\":12491:12494   */\n      0x00\n        /* \"#utility.yul\":12512:12579   */\n      tag_239\n        /* \"#utility.yul\":12576:12578   */\n      0x13\n        /* \"#utility.yul\":12571:12574   */\n      dup4\n        /* \"#utility.yul\":12512:12579   */\n      tag_109\n      jump\t// in\n    tag_239:\n        /* \"#utility.yul\":12505:12579   */\n      swap2\n      pop\n        /* \"#utility.yul\":12588:12681   */\n      tag_240\n        /* \"#utility.yul\":12677:12680   */\n      dup3\n        /* \"#utility.yul\":12588:12681   */\n      tag_110\n      jump\t// in\n    tag_240:\n        /* \"#utility.yul\":12706:12708   */\n      0x20\n        /* \"#utility.yul\":12701:12704   */\n      dup3\n        /* \"#utility.yul\":12697:12709   */\n      add\n        /* \"#utility.yul\":12690:12709   */\n      swap1\n      pop\n        /* \"#utility.yul\":12349:12715   */\n      swap2\n      swap1\n      pop\n      jump\t// out\n        /* \"#utility.yul\":12721:13140   */\n    tag_44:\n        /* \"#utility.yul\":12887:12891   */\n      0x00\n        /* \"#utility.yul\":12925:12927   */\n      0x20\n        /* \"#utility.yul\":12914:12923   */\n      dup3\n        /* \"#utility.yul\":12910:12928   */\n      add\n        /* \"#utility.yul\":12902:12928   */\n      swap1\n      pop\n        /* \"#utility.yul\":12974:12983   */\n      dup2\n        /* \"#utility.yul\":12968:12972   */\n      dup2\n        /* \"#utility.yul\":12964:12984   */\n      sub\n        /* \"#utility.yul\":12960:12961   */\n      0x00\n        /* \"#utility.yul\":12949:12958   */\n      dup4\n        /* \"#utility.yul\":12945:12962   */\n      add\n        /* \"#utility.yul\":12938:12985   */\n      mstore\n        /* \"#utility.yul\":13002:13133   */\n      tag_242\n        /* \"#utility.yul\":13128:13132   */\n      dup2\n        /* \"#utility.yul\":13002:13133   */\n      tag_111\n      jump\t// in\n    tag_242:\n        /* \"#utility.yul\":12994:13133   */\n      swap1\n      pop\n        /* \"#utility.yul\":12721:13140   */\n      swap2\n      swap1\n      pop\n      jump\t// out\n        /* \"#utility.yul\":13146:13295   */\n    tag_112:\n        /* \"#utility.yul\":13195:13201   */\n      0x00\n        /* \"#utility.yul\":13229:13234   */\n      dup2\n        /* \"#utility.yul\":13223:13235   */\n      sload\n        /* \"#utility.yul\":13213:13235   */\n      swap1\n      pop\n        /* \"#utility.yul\":13255:13288   */\n      tag_244\n        /* \"#utility.yul\":13281:13287   */\n      dup2\n        /* \"#utility.yul\":13255:13288   */\n      tag_31\n      jump\t// in\n    tag_244:\n        /* \"#utility.yul\":13245:13288   */\n      swap1\n      pop\n        /* \"#utility.yul\":13146:13295   */\n      swap2\n      swap1\n      pop\n      jump\t// out\n        /* \"#utility.yul\":13301:13442   */\n    tag_113:\n        /* \"#utility.yul\":13350:13354   */\n      0x00\n        /* \"#utility.yul\":13373:13376   */\n      dup2\n        /* \"#utility.yul\":13365:13376   */\n      swap1\n      pop\n        /* \"#utility.yul\":13396:13399   */\n      dup2\n        /* \"#utility.yul\":13393:13394   */\n      0x00\n        /* \"#utility.yul\":13386:13400   */\n      mstore\n        /* \"#utility.yul\":13430:13434   */\n      0x20\n        /* \"#utility.yul\":13427:13428   */\n      0x00\n        /* \"#utility.yul\":13417:13435   */\n      keccak256\n        /* \"#utility.yul\":13409:13435   */\n      swap1\n      pop\n        /* \"#utility.yul\":13301:13442   */\n      swap2\n      swap1\n      pop\n      jump\t// out\n        /* \"#utility.yul\":13448:13541   */\n    tag_114:\n        /* \"#utility.yul\":13485:13491   */\n      0x00\n        /* \"#utility.yul\":13532:13534   */\n      0x20\n        /* \"#utility.yul\":13527:13529   */\n      0x1f\n        /* \"#utility.yul\":13520:13525   */\n      dup4\n        /* \"#utility.yul\":13516:13530   */\n      add\n        /* \"#utility.yul\":13512:13535   */\n      div\n        /* \"#utility.yul\":13502:13535   */\n      swap1\n      pop\n        /* \"#utility.yul\":13448:13541   */\n      swap2\n      swap1\n      pop\n      jump\t// out\n        /* \"#utility.yul\":13547:13654   */\n    tag_115:\n        /* \"#utility.yul\":13591:13599   */\n      0x00\n        /* \"#utility.yul\":13641:13646   */\n      dup3\n        /* \"#utility.yul\":13635:13639   */\n      dup3\n        /* \"#utility.yul\":13631:13647   */\n      shl\n        /* \"#utility.yul\":13610:13647   */\n      swap1\n      pop\n        /* \"#utility.yul\":13547:13654   */\n      swap3\n      swap2\n      pop\n      pop\n      jump\t// out\n        /* \"#utility.yul\":13660:14053   */\n    tag_116:\n        /* \"#utility.yul\":13729:13735   */\n      0x00\n        /* \"#utility.yul\":13779:13780   */\n      0x08\n        /* \"#utility.yul\":13767:13777   */\n      dup4\n        /* \"#utility.yul\":13763:13781   */\n      mul\n        /* \"#utility.yul\":13802:13899   */\n      tag_249\n        /* \"#utility.yul\":13832:13898   */\n      0xffffffffffffffffffffffffffffffffffffffffffffffffffffffffffffffff\n        /* \"#utility.yul\":13821:13830   */\n      dup3\n        /* \"#utility.yul\":13802:13899   */\n      tag_115\n      jump\t// in\n    tag_249:\n        /* \"#utility.yul\":13920:13959   */\n      tag_250\n        /* \"#utility.yul\":13950:13958   */\n      dup7\n        /* \"#utility.yul\":13939:13948   */\n      dup4\n        /* \"#utility.yul\":13920:13959   */\n      tag_115\n      jump\t// in\n    tag_250:\n        /* \"#utility.yul\":13908:13959   */\n      swap6\n      pop\n        /* \"#utility.yul\":13992:13996   */\n      dup1\n        /* \"#utility.yul\":13988:13997   */\n      not\n        /* \"#utility.yul\":13981:13986   */\n      dup5\n        /* \"#utility.yul\":13977:13998   */\n      and\n        /* \"#utility.yul\":13968:13998   */\n      swap4\n      pop\n        /* \"#utility.yul\":14041:14045   */\n      dup1\n        /* \"#utility.yul\":14031:14039   */\n      dup7\n        /* \"#utility.yul\":14027:14046   */\n      and\n        /* \"#utility.yul\":14020:14025   */\n      dup5\n        /* \"#utility.yul\":14017:14047   */\n      or\n        /* \"#utility.yul\":14007:14047   */\n      swap3\n      pop\n        /* \"#utility.yul\":13736:14053   */\n      pop\n      pop\n        /* \"#utility.yul\":13660:14053   */\n      swap4\n      swap3\n      pop\n      pop\n      pop\n      jump\t// out\n        /* \"#utility.yul\":14059:14119   */\n    tag_117:\n        /* \"#utility.yul\":14087:14090   */\n      0x00\n        /* \"#utility.yul\":14108:14113   */\n      dup2\n        /* \"#utility.yul\":14101:14113   */\n      swap1\n      pop\n        /* \"#utility.yul\":14059:14119   */\n      swap2\n      swap1\n      pop\n      jump\t// out\n        /* \"#utility.yul\":14125:14267   */\n    tag_118:\n        /* \"#utility.yul\":14175:14184   */\n      0x00\n        /* \"#utility.yul\":14208:14261   */\n      tag_253\n        /* \"#utility.yul\":14226:14260   */\n      tag_254\n        /* \"#utility.yul\":14235:14259   */\n      tag_255\n        /* \"#utility.yul\":14253:14258   */\n      dup5\n        /* \"#utility.yul\":14235:14259   */\n      tag_85\n      jump\t// in\n    tag_255:\n        /* \"#utility.yul\":14226:14260   */\n      tag_117\n      jump\t// in\n    tag_254:\n        /* \"#utility.yul\":14208:14261   */\n      tag_85\n      jump\t// in\n    tag_253:\n        /* \"#utility.yul\":14195:14261   */\n      swap1\n      pop\n        /* \"#utility.yul\":14125:14267   */\n      swap2\n      swap1\n      pop\n      jump\t// out\n        /* \"#utility.yul\":14273:14348   */\n    tag_119:\n        /* \"#utility.yul\":14316:14319   */\n      0x00\n        /* \"#utility.yul\":14337:14342   */\n      dup2\n        /* \"#utility.yul\":14330:14342   */\n      swap1\n      pop\n        /* \"#utility.yul\":14273:14348   */\n      swap2\n      swap1\n      pop\n      jump\t// out\n        /* \"#utility.yul\":14354:14623   */\n    tag_120:\n        /* \"#utility.yul\":14464:14503   */\n      tag_258\n        /* \"#utility.yul\":14495:14502   */\n      dup4\n        /* \"#utility.yul\":14464:14503   */\n      tag_118\n      jump\t// in\n    tag_258:\n        /* \"#utility.yul\":14525:14616   */\n      tag_259\n        /* \"#utility.yul\":14574:14615   */\n      tag_260\n        /* \"#utility.yul\":14598:14614   */\n      dup3\n        /* \"#utility.yul\":14574:14615   */\n      tag_119\n      jump\t// in\n    tag_260:\n        /* \"#utility.yul\":14566:14572   */\n      dup5\n        /* \"#utility.yul\":14559:14563   */\n      dup5\n        /* \"#utility.yul\":14553:14564   */\n      sload\n        /* \"#utility.yul\":14525:14616   */\n      tag_116\n      jump\t// in\n    tag_259:\n        /* \"#utility.yul\":14519:14523   */\n      dup3\n        /* \"#utility.yul\":14512:14617   */\n      sstore\n        /* \"#utility.yul\":14430:14623   */\n      pop\n        /* \"#utility.yul\":14354:14623   */\n      pop\n      pop\n      pop\n      jump\t// out\n        /* \"#utility.yul\":14629:14702   */\n    tag_121:\n        /* \"#utility.yul\":14674:14677   */\n      0x00\n        /* \"#utility.yul\":14629:14702   */\n      swap1\n      jump\t// out\n        /* \"#utility.yul\":14708:14897   */\n    tag_122:\n        /* \"#utility.yul\":14785:14817   */\n      tag_263\n      tag_121\n      jump\t// in\n    tag_263:\n        /* \"#utility.yul\":14826:14891   */\n      tag_264\n        /* \"#utility.yul\":14884:14890   */\n      dup2\n        /* \"#utility.yul\":14876:14882   */\n      dup5\n        /* \"#utility.yul\":14870:14874   */\n      dup5\n        /* \"#utility.yul\":14826:14891   */\n      tag_120\n      jump\t// in\n    tag_264:\n        /* \"#utility.yul\":14761:14897   */\n      pop\n        /* \"#utility.yul\":14708:14897   */\n      pop\n      pop\n      jump\t// out\n        /* \"#utility.yul\":14903:15089   */\n    tag_123:\n        /* \"#utility.yul\":14963:15083   */\n    tag_266:\n        /* \"#utility.yul\":14980:14983   */\n      dup2\n        /* \"#utility.yul\":14973:14978   */\n      dup2\n        /* \"#utility.yul\":14970:14984   */\n      lt\n        /* \"#utility.yul\":14963:15083   */\n      iszero\n      tag_268\n      jumpi\n        /* \"#utility.yul\":15034:15073   */\n      tag_269\n        /* \"#utility.yul\":15071:15072   */\n      0x00\n        /* \"#utility.yul\":15064:15069   */\n      dup3\n        /* \"#utility.yul\":15034:15073   */\n      tag_122\n      jump\t// in\n    tag_269:\n        /* \"#utility.yul\":15007:15008   */\n      0x01\n        /* \"#utility.yul\":15000:15005   */\n      dup2\n        /* \"#utility.yul\":14996:15009   */\n      add\n        /* \"#utility.yul\":14987:15009   */\n      swap1\n      pop\n        /* \"#utility.yul\":14963:15083   */\n      jump(tag_266)\n    tag_268:\n        /* \"#utility.yul\":14903:15089   */\n      pop\n      pop\n      jump\t// out\n        /* \"#utility.yul\":15095:15638   */\n    tag_124:\n        /* \"#utility.yul\":15196:15198   */\n      0x1f\n        /* \"#utility.yul\":15191:15194   */\n      dup3\n        /* \"#utility.yul\":15188:15199   */\n      gt\n        /* \"#utility.yul\":15185:15631   */\n      iszero\n      tag_271\n      jumpi\n        /* \"#utility.yul\":15230:15268   */\n      tag_272\n        /* \"#utility.yul\":15262:15267   */\n      dup2\n        /* \"#utility.yul\":15230:15268   */\n      tag_113\n      jump\t// in\n    tag_272:\n        /* \"#utility.yul\":15314:15343   */\n      tag_273\n        /* \"#utility.yul\":15332:15342   */\n      dup5\n        /* \"#utility.yul\":15314:15343   */\n      tag_114\n      jump\t// in\n    tag_273:\n        /* \"#utility.yul\":15304:15312   */\n      dup2\n        /* \"#utility.yul\":15300:15344   */\n      add\n        /* \"#utility.yul\":15497:15499   */\n      0x20\n        /* \"#utility.yul\":15485:15495   */\n      dup6\n        /* \"#utility.yul\":15482:15500   */\n      lt\n        /* \"#utility.yul\":15479:15528   */\n      iszero\n      tag_274\n      jumpi\n        /* \"#utility.yul\":15518:15526   */\n      dup2\n        /* \"#utility.yul\":15503:15526   */\n      swap1\n      pop\n        /* \"#utility.yul\":15479:15528   */\n    tag_274:\n        /* \"#utility.yul\":15541:15621   */\n      tag_275\n        /* \"#utility.yul\":15597:15619   */\n      tag_276\n        /* \"#utility.yul\":15615:15618   */\n      dup6\n        /* \"#utility.yul\":15597:15619   */\n      tag_114\n      jump\t// in\n    tag_276:\n        /* \"#utility.yul\":15587:15595   */\n      dup4\n        /* \"#utility.yul\":15583:15620   */\n      add\n        /* \"#utility.yul\":15570:15581   */\n      dup3\n        /* \"#utility.yul\":15541:15621   */\n      tag_123\n      jump\t// in\n    tag_275:\n        /* \"#utility.yul\":15200:15631   */\n      pop\n      pop\n        /* \"#utility.yul\":15185:15631   */\n    tag_271:\n        /* \"#utility.yul\":15095:15638   */\n      pop\n      pop\n      pop\n      jump\t// out\n        /* \"#utility.yul\":15644:15761   */\n    tag_125:\n        /* \"#utility.yul\":15698:15706   */\n      0x00\n        /* \"#utility.yul\":15748:15753   */\n      dup3\n        /* \"#utility.yul\":15742:15746   */\n      dup3\n        /* \"#utility.yul\":15738:15754   */\n      shr\n        /* \"#utility.yul\":15717:15754   */\n      swap1\n      pop\n        /* \"#utility.yul\":15644:15761   */\n      swap3\n      swap2\n      pop\n      pop\n      jump\t// out\n        /* \"#utility.yul\":15767:15936   */\n    tag_126:\n        /* \"#utility.yul\":15811:15817   */\n      0x00\n        /* \"#utility.yul\":15844:15895   */\n      tag_279\n        /* \"#utility.yul\":15892:15893   */\n      0x00\n        /* \"#utility.yul\":15888:15894   */\n      not\n        /* \"#utility.yul\":15880:15885   */\n      dup5\n        /* \"#utility.yul\":15877:15878   */\n      0x08\n        /* \"#utility.yul\":15873:15886   */\n      mul\n        /* \"#utility.yul\":15844:15895   */\n      tag_125\n      jump\t// in\n    tag_279:\n        /* \"#utility.yul\":15840:15896   */\n      not\n        /* \"#utility.yul\":15925:15929   */\n      dup1\n        /* \"#utility.yul\":15919:15923   */\n      dup4\n        /* \"#utility.yul\":15915:15930   */\n      and\n        /* \"#utility.yul\":15905:15930   */\n      swap2\n      pop\n        /* \"#utility.yul\":15818:15936   */\n      pop\n        /* \"#utility.yul\":15767:15936   */\n      swap3\n      swap2\n      pop\n      pop\n      jump\t// out\n        /* \"#utility.yul\":15941:16236   */\n    tag_127:\n        /* \"#utility.yul\":16017:16021   */\n      0x00\n        /* \"#utility.yul\":16163:16192   */\n      tag_281\n        /* \"#utility.yul\":16188:16191   */\n      dup4\n        /* \"#utility.yul\":16182:16186   */\n      dup4\n        /* \"#utility.yul\":16163:16192   */\n      tag_126\n      jump\t// in\n    tag_281:\n        /* \"#utility.yul\":16155:16192   */\n      swap2\n      pop\n        /* \"#utility.yul\":16225:16228   */\n      dup3\n        /* \"#utility.yul\":16222:16223   */\n      0x02\n        /* \"#utility.yul\":16218:16229   */\n      mul\n        /* \"#utility.yul\":16212:16216   */\n      dup3\n        /* \"#utility.yul\":16209:16230   */\n      or\n        /* \"#utility.yul\":16201:16230   */\n      swap1\n      pop\n        /* \"#utility.yul\":15941:16236   */\n      swap3\n      swap2\n      pop\n      pop\n      jump\t// out\n        /* \"#utility.yul\":16241:17692   */\n    tag_46:\n        /* \"#utility.yul\":16352:16355   */\n      dup2\n        /* \"#utility.yul\":16346:16350   */\n      dup2\n        /* \"#utility.yul\":16343:16356   */\n      sub\n        /* \"#utility.yul\":16340:16366   */\n      tag_283\n      jumpi\n        /* \"#utility.yul\":16359:16364   */\n      pop\n      pop\n      jump(tag_282)\n        /* \"#utility.yul\":16340:16366   */\n    tag_283:\n        /* \"#utility.yul\":16390:16424   */\n      tag_284\n        /* \"#utility.yul\":16420:16423   */\n      dup3\n        /* \"#utility.yul\":16390:16424   */\n      tag_112\n      jump\t// in\n    tag_284:\n        /* \"#utility.yul\":16489:16507   */\n      0xffffffffffffffff\n        /* \"#utility.yul\":16481:16487   */\n      dup2\n        /* \"#utility.yul\":16478:16508   */\n      gt\n        /* \"#utility.yul\":16475:16531   */\n      iszero\n      tag_285\n      jumpi\n        /* \"#utility.yul\":16511:16529   */\n      tag_286\n      tag_100\n      jump\t// in\n    tag_286:\n        /* \"#utility.yul\":16475:16531   */\n    tag_285:\n        /* \"#utility.yul\":16555:16593   */\n      tag_287\n        /* \"#utility.yul\":16587:16591   */\n      dup3\n        /* \"#utility.yul\":16581:16592   */\n      sload\n        /* \"#utility.yul\":16555:16593   */\n      tag_31\n      jump\t// in\n    tag_287:\n        /* \"#utility.yul\":16640:16707   */\n      tag_288\n        /* \"#utility.yul\":16700:16706   */\n      dup3\n        /* \"#utility.yul\":16692:16698   */\n      dup3\n        /* \"#utility.yul\":16686:16690   */\n      dup6\n        /* \"#utility.yul\":16640:16707   */\n      tag_124\n      jump\t// in\n    tag_288:\n        /* \"#utility.yul\":16734:16735   */\n      0x00\n        /* \"#utility.yul\":16763:16765   */\n      0x1f\n        /* \"#utility.yul\":16755:16761   */\n      dup4\n        /* \"#utility.yul\":16752:16766   */\n      gt\n        /* \"#utility.yul\":16780:16781   */\n      0x01\n        /* \"#utility.yul\":16775:17447   */\n      dup2\n      eq\n      tag_290\n      jumpi\n        /* \"#utility.yul\":17491:17492   */\n      0x00\n        /* \"#utility.yul\":17508:17514   */\n      dup5\n        /* \"#utility.yul\":17505:17582   */\n      iszero\n      tag_291\n      jumpi\n        /* \"#utility.yul\":17557:17566   */\n      dup3\n        /* \"#utility.yul\":17552:17555   */\n      dup8\n        /* \"#utility.yul\":17548:17567   */\n      add\n        /* \"#utility.yul\":17542:17568   */\n      sload\n        /* \"#utility.yul\":17533:17568   */\n      swap1\n      pop\n        /* \"#utility.yul\":17505:17582   */\n    tag_291:\n        /* \"#utility.yul\":17608:17675   */\n      tag_292\n        /* \"#utility.yul\":17668:17674   */\n      dup6\n        /* \"#utility.yul\":17661:17666   */\n      dup3\n        /* \"#utility.yul\":17608:17675   */\n      tag_127\n      jump\t// in\n    tag_292:\n        /* \"#utility.yul\":17602:17606   */\n      dup7\n        /* \"#utility.yul\":17595:17676   */\n      sstore\n        /* \"#utility.yul\":17464:17686   */\n      pop\n        /* \"#utility.yul\":16745:17686   */\n      jump(tag_289)\n        /* \"#utility.yul\":16775:17447   */\n    tag_290:\n        /* \"#utility.yul\":16827:16831   */\n      0x1f\n        /* \"#utility.yul\":16823:16832   */\n      not\n        /* \"#utility.yul\":16815:16821   */\n      dup5\n        /* \"#utility.yul\":16811:16833   */\n      and\n        /* \"#utility.yul\":16853:16889   */\n      tag_293\n        /* \"#utility.yul\":16885:16888   */\n      dup8\n        /* \"#utility.yul\":16853:16889   */\n      tag_113\n      jump\t// in\n    tag_293:\n        /* \"#utility.yul\":16846:16889   */\n      swap7\n      pop\n        /* \"#utility.yul\":16916:16953   */\n      tag_294\n        /* \"#utility.yul\":16948:16952   */\n      dup7\n        /* \"#utility.yul\":16916:16953   */\n      tag_113\n      jump\t// in\n    tag_294:\n        /* \"#utility.yul\":16975:16976   */\n      0x00\n        /* \"#utility.yul\":16989:17196   */\n    tag_295:\n        /* \"#utility.yul\":17003:17010   */\n      dup3\n        /* \"#utility.yul\":17000:17001   */\n      dup2\n        /* \"#utility.yul\":16997:17011   */\n      lt\n        /* \"#utility.yul\":16989:17196   */\n      iszero\n      tag_297\n      jumpi\n        /* \"#utility.yul\":17082:17091   */\n      dup5\n        /* \"#utility.yul\":17077:17080   */\n      dup10\n        /* \"#utility.yul\":17073:17092   */\n      add\n        /* \"#utility.yul\":17067:17093   */\n      sload\n        /* \"#utility.yul\":17059:17065   */\n      dup3\n        /* \"#utility.yul\":17052:17094   */\n      sstore\n        /* \"#utility.yul\":17133:17134   */\n      0x01\n        /* \"#utility.yul\":17125:17131   */\n      dup3\n        /* \"#utility.yul\":17121:17135   */\n      add\n        /* \"#utility.yul\":17111:17135   */\n      swap2\n      pop\n        /* \"#utility.yul\":17180:17181   */\n      0x01\n        /* \"#utility.yul\":17169:17178   */\n      dup6\n        /* \"#utility.yul\":17165:17182   */\n      add\n        /* \"#utility.yul\":17152:17182   */\n      swap5\n      pop\n        /* \"#utility.yul\":17026:17030   */\n      0x20\n        /* \"#utility.yul\":17023:17024   */\n      dup2\n        /* \"#utility.yul\":17019:17031   */\n      add\n        /* \"#utility.yul\":17014:17031   */\n      swap1\n      pop\n        /* \"#utility.yul\":16989:17196   */\n      jump(tag_295)\n    tag_297:\n        /* \"#utility.yul\":17224:17230   */\n      dup7\n        /* \"#utility.yul\":17215:17222   */\n      dup4\n        /* \"#utility.yul\":17212:17231   */\n      lt\n        /* \"#utility.yul\":17209:17388   */\n      iszero\n      tag_298\n      jumpi\n        /* \"#utility.yul\":17282:17291   */\n      dup5\n        /* \"#utility.yul\":17277:17280   */\n      dup10\n        /* \"#utility.yul\":17273:17292   */\n      add\n        /* \"#utility.yul\":17267:17293   */\n      sload\n        /* \"#utility.yul\":17325:17373   */\n      tag_299\n        /* \"#utility.yul\":17367:17371   */\n      0x1f\n        /* \"#utility.yul\":17359:17365   */\n      dup10\n        /* \"#utility.yul\":17355:17372   */\n      and\n        /* \"#utility.yul\":17344:17353   */\n      dup3\n        /* \"#utility.yul\":17325:17373   */\n      tag_126\n      jump\t// in\n    tag_299:\n        /* \"#utility.yul\":17317:17323   */\n      dup4\n        /* \"#utility.yul\":17310:17374   */\n      sstore\n        /* \"#utility.yul\":17232:17388   */\n      pop\n        /* \"#utility.yul\":17209:17388   */\n    tag_298:\n        /* \"#utility.yul\":17434:17435   */\n      0x01\n        /* \"#utility.yul\":17430:17431   */\n      0x02\n        /* \"#utility.yul\":17422:17428   */\n      dup9\n        /* \"#utility.yul\":17418:17432   */\n      mul\n        /* \"#utility.yul\":17414:17436   */\n      add\n        /* \"#utility.yul\":17408:17412   */\n      dup9\n        /* \"#utility.yul\":17401:17437   */\n      sstore\n        /* \"#utility.yul\":16782:17447   */\n      pop\n      pop\n      pop\n        /* \"#utility.yul\":16745:17686   */\n    tag_289:\n      pop\n        /* \"#utility.yul\":16330:17692   */\n      pop\n      pop\n      pop\n        /* \"#utility.yul\":16241:17692   */\n      pop\n      pop\n    tag_282:\n      jump\t// out\n        /* \"#utility.yul\":17698:19093   */\n    tag_50:\n        /* \"#utility.yul\":17815:17852   */\n      tag_301\n        /* \"#utility.yul\":17848:17851   */\n      dup3\n        /* \"#utility.yul\":17815:17852   */\n      tag_80\n      jump\t// in\n    tag_301:\n        /* \"#utility.yul\":17917:17935   */\n      0xffffffffffffffff\n        /* \"#utility.yul\":17909:17915   */\n      dup2\n        /* \"#utility.yul\":17906:17936   */\n      gt\n        /* \"#utility.yul\":17903:17959   */\n      iszero\n      tag_302\n      jumpi\n        /* \"#utility.yul\":17939:17957   */\n      tag_303\n      tag_100\n      jump\t// in\n    tag_303:\n        /* \"#utility.yul\":17903:17959   */\n    tag_302:\n        /* \"#utility.yul\":17983:18021   */\n      tag_304\n        /* \"#utility.yul\":18015:18019   */\n      dup3\n        /* \"#utility.yul\":18009:18020   */\n      sload\n        /* \"#utility.yul\":17983:18021   */\n      tag_31\n      jump\t// in\n    tag_304:\n        /* \"#utility.yul\":18068:18135   */\n      tag_305\n        /* \"#utility.yul\":18128:18134   */\n      dup3\n        /* \"#utility.yul\":18120:18126   */\n      dup3\n        /* \"#utility.yul\":18114:18118   */\n      dup6\n        /* \"#utility.yul\":18068:18135   */\n      tag_124\n      jump\t// in\n    tag_305:\n        /* \"#utility.yul\":18162:18163   */\n      0x00\n        /* \"#utility.yul\":18186:18190   */\n      0x20\n        /* \"#utility.yul\":18173:18190   */\n      swap1\n      pop\n        /* \"#utility.yul\":18218:18220   */\n      0x1f\n        /* \"#utility.yul\":18210:18216   */\n      dup4\n        /* \"#utility.yul\":18207:18221   */\n      gt\n        /* \"#utility.yul\":18235:18236   */\n      0x01\n        /* \"#utility.yul\":18230:18848   */\n      dup2\n      eq\n      tag_307\n      jumpi\n        /* \"#utility.yul\":18892:18893   */\n      0x00\n        /* \"#utility.yul\":18909:18915   */\n      dup5\n        /* \"#utility.yul\":18906:18983   */\n      iszero\n      tag_308\n      jumpi\n        /* \"#utility.yul\":18958:18967   */\n      dup3\n        /* \"#utility.yul\":18953:18956   */\n      dup8\n        /* \"#utility.yul\":18949:18968   */\n      add\n        /* \"#utility.yul\":18943:18969   */\n      mload\n        /* \"#utility.yul\":18934:18969   */\n      swap1\n      pop\n        /* \"#utility.yul\":18906:18983   */\n    tag_308:\n        /* \"#utility.yul\":19009:19076   */\n      tag_309\n        /* \"#utility.yul\":19069:19075   */\n      dup6\n        /* \"#utility.yul\":19062:19067   */\n      dup3\n        /* \"#utility.yul\":19009:19076   */\n      tag_127\n      jump\t// in\n    tag_309:\n        /* \"#utility.yul\":19003:19007   */\n      dup7\n        /* \"#utility.yul\":18996:19077   */\n      sstore\n        /* \"#utility.yul\":18865:19087   */\n      pop\n        /* \"#utility.yul\":18200:19087   */\n      jump(tag_306)\n        /* \"#utility.yul\":18230:18848   */\n    tag_307:\n        /* \"#utility.yul\":18282:18286   */\n      0x1f\n        /* \"#utility.yul\":18278:18287   */\n      not\n        /* \"#utility.yul\":18270:18276   */\n      dup5\n        /* \"#utility.yul\":18266:18288   */\n      and\n        /* \"#utility.yul\":18316:18353   */\n      tag_310\n        /* \"#utility.yul\":18348:18352   */\n      dup7\n        /* \"#utility.yul\":18316:18353   */\n      tag_113\n      jump\t// in\n    tag_310:\n        /* \"#utility.yul\":18375:18376   */\n      0x00\n        /* \"#utility.yul\":18389:18597   */\n    tag_311:\n        /* \"#utility.yul\":18403:18410   */\n      dup3\n        /* \"#utility.yul\":18400:18401   */\n      dup2\n        /* \"#utility.yul\":18397:18411   */\n      lt\n        /* \"#utility.yul\":18389:18597   */\n      iszero\n      tag_313\n      jumpi\n        /* \"#utility.yul\":18482:18491   */\n      dup5\n        /* \"#utility.yul\":18477:18480   */\n      dup10\n        /* \"#utility.yul\":18473:18492   */\n      add\n        /* \"#utility.yul\":18467:18493   */\n      mload\n        /* \"#utility.yul\":18459:18465   */\n      dup3\n        /* \"#utility.yul\":18452:18494   */\n      sstore\n        /* \"#utility.yul\":18533:18534   */\n      0x01\n        /* \"#utility.yul\":18525:18531   */\n      dup3\n        /* \"#utility.yul\":18521:18535   */\n      add\n        /* \"#utility.yul\":18511:18535   */\n      swap2\n      pop\n        /* \"#utility.yul\":18580:18582   */\n      0x20\n        /* \"#utility.yul\":18569:18578   */\n      dup6\n        /* \"#utility.yul\":18565:18583   */\n      add\n        /* \"#utility.yul\":18552:18583   */\n      swap5\n      pop\n        /* \"#utility.yul\":18426:18430   */\n      0x20\n        /* \"#utility.yul\":18423:18424   */\n      dup2\n        /* \"#utility.yul\":18419:18431   */\n      add\n        /* \"#utility.yul\":18414:18431   */\n      swap1\n      pop\n        /* \"#utility.yul\":18389:18597   */\n      jump(tag_311)\n    tag_313:\n        /* \"#utility.yul\":18625:18631   */\n      dup7\n        /* \"#utility.yul\":18616:18623   */\n      dup4\n        /* \"#utility.yul\":18613:18632   */\n      lt\n        /* \"#utility.yul\":18610:18789   */\n      iszero\n      tag_314\n      jumpi\n        /* \"#utility.yul\":18683:18692   */\n      dup5\n        /* \"#utility.yul\":18678:18681   */\n      dup10\n        /* \"#utility.yul\":18674:18693   */\n      add\n        /* \"#utility.yul\":18668:18694   */\n      mload\n        /* \"#utility.yul\":18726:18774   */\n      tag_315\n        /* \"#utility.yul\":18768:18772   */\n      0x1f\n        /* \"#utility.yul\":18760:18766   */\n      dup10\n        /* \"#utility.yul\":18756:18773   */\n      and\n        /* \"#utility.yul\":18745:18754   */\n      dup3\n        /* \"#utility.yul\":18726:18774   */\n      tag_126\n      jump\t// in\n    tag_315:\n        /* \"#utility.yul\":18718:18724   */\n      dup4\n        /* \"#utility.yul\":18711:18775   */\n      sstore\n        /* \"#utility.yul\":18633:18789   */\n      pop\n        /* \"#utility.yul\":18610:18789   */\n    tag_314:\n        /* \"#utility.yul\":18835:18836   */\n      0x01\n        /* \"#utility.yul\":18831:18832   */\n      0x02\n        /* \"#utility.yul\":18823:18829   */\n      dup9\n        /* \"#utility.yul\":18819:18833   */\n      mul\n        /* \"#utility.yul\":18815:18837   */\n      add\n        /* \"#utility.yul\":18809:18813   */\n      dup9\n        /* \"#utility.yul\":18802:18838   */\n      sstore\n        /* \"#utility.yul\":18237:18848   */\n      pop\n      pop\n      pop\n        /* \"#utility.yul\":18200:19087   */\n    tag_306:\n      pop\n        /* \"#utility.yul\":17790:19093   */\n      pop\n      pop\n      pop\n        /* \"#utility.yul\":17698:19093   */\n      pop\n      pop\n      jump\t// out\n        /* \"#utility.yul\":19099:19279   */\n    tag_128:\n        /* \"#utility.yul\":19147:19224   */\n      0x4e487b7100000000000000000000000000000000000000000000000000000000\n        /* \"#utility.yul\":19144:19145   */\n      0x00\n        /* \"#utility.yul\":19137:19225   */\n      mstore\n        /* \"#utility.yul\":19244:19248   */\n      0x11\n        /* \"#utility.yul\":19241:19242   */\n      0x04\n        /* \"#utility.yul\":19234:19249   */\n      mstore\n        /* \"#utility.yul\":19268:19272   */\n      0x24\n        /* \"#utility.yul\":19265:19266   */\n      0x00\n        /* \"#utility.yul\":19258:19273   */\n      revert\n        /* \"#utility.yul\":19285:19518   */\n    tag_60:\n        /* \"#utility.yul\":19324:19327   */\n      0x00\n        /* \"#utility.yul\":19347:19371   */\n      tag_318\n        /* \"#utility.yul\":19365:19370   */\n      dup3\n        /* \"#utility.yul\":19347:19371   */\n      tag_85\n      jump\t// in\n    tag_318:\n        /* \"#utility.yul\":19338:19371   */\n      swap2\n      pop\n        /* \"#utility.yul\":19393:19459   */\n      0xffffffffffffffffffffffffffffffffffffffffffffffffffffffffffffffff\n        /* \"#utility.yul\":19386:19391   */\n      dup3\n        /* \"#utility.yul\":19383:19460   */\n      sub\n        /* \"#utility.yul\":19380:19483   */\n      tag_319\n      jumpi\n        /* \"#utility.yul\":19463:19481   */\n      tag_320\n      tag_128\n      jump\t// in\n    tag_320:\n        /* \"#utility.yul\":19380:19483   */\n    tag_319:\n        /* \"#utility.yul\":19510:19511   */\n      0x01\n        /* \"#utility.yul\":19503:19508   */\n      dup3\n        /* \"#utility.yul\":19499:19512   */\n      add\n        /* \"#utility.yul\":19492:19512   */\n      swap1\n      pop\n        /* \"#utility.yul\":19285:19518   */\n      swap2\n      swap1\n      pop\n      jump\t// out\n\n    auxdata: 0xa264697066735822122031fd2aa7644e7dc31b1fd2355cb799707cbf10393ed059c0207f530400d9be3164736f6c63430008100033\n}\n","bytecode":{"linkReferences":{},"object":"60806040526000600a5534801561001557600080fd5b506113da806100256000396000f3fe608060405234801561001057600080fd5b506004361061004b5760003560e01c8062ce8e3e1461005057806335a6861a1461006e5780638d59cc021461009e578063df9d9024146100ba575b600080fd5b6100586100ea565b6040516100659190610bc3565b60405180910390f35b61008860048036038101906100839190610c25565b6102cd565b6040516100959190610c6d565b60405180910390f35b6100b860048036038101906100b39190610dbd565b61044a565b005b6100d460048036038101906100cf9190610c25565b610792565b6040516100e19190610eb2565b60405180910390f35b60606008805480602002602001604051908101604052809291908181526020016000905b828210156102c457838290600052602060002090600402016040518060800160405290816000820160009054906101000a900473ffffffffffffffffffffffffffffffffffffffff1673ffffffffffffffffffffffffffffffffffffffff1673ffffffffffffffffffffffffffffffffffffffff16815260200160018201805461019790610f03565b80601f01602080910402602001604051908101604052809291908181526020018280546101c390610f03565b80156102105780601f106101e557610100808354040283529160200191610210565b820191906000526020600020905b8154815290600101906020018083116101f357829003601f168201915b5050505050815260200160028201805461022990610f03565b80601f016020809104026020016040519081016040528092919081815260200182805461025590610f03565b80156102a25780601f10610277576101008083540402835291602001916102a2565b820191906000526020600020905b81548152906001019060200180831161028557829003601f168201915b505050505081526020016003820154815250508152602001906001019061010e565b50505050905090565b600060011515600c60008473ffffffffffffffffffffffffffffffffffffffff1673ffffffffffffffffffffffffffffffffffffffff16815260200190815260200160002060009054906101000a900460ff16151514610362576040517f08c379a000000000000000000000000000000000000000000000000000000000815260040161035990610f91565b60405180910390fd5b600960008373ffffffffffffffffffffffffffffffffffffffff1673ffffffffffffffffffffffffffffffffffffffff16815260200190815260200160002060046000820160009054906101000a900473ffffffffffffffffffffffffffffffffffffffff168160000160006101000a81548173ffffffffffffffffffffffffffffffffffffffff021916908373ffffffffffffffffffffffffffffffffffffffff1602179055506001820181600101908161041e9190611173565b50600282018160020190816104339190611173565b506003820154816003015590505060019050919050565b826000800160006101000a81548173ffffffffffffffffffffffffffffffffffffffff021916908373ffffffffffffffffffffffffffffffffffffffff160217905550816000600101908161049f919061125b565b5080600060020190816104b2919061125b565b50600a546000600301819055506008600090806001815401808255809150506001900390600052602060002090600402016000909190919091506000820160009054906101000a900473ffffffffffffffffffffffffffffffffffffffff168160000160006101000a81548173ffffffffffffffffffffffffffffffffffffffff021916908373ffffffffffffffffffffffffffffffffffffffff160217905550600182018160010190816105679190611173565b506002820181600201908161057c9190611173565b506003820154816003015550506000600960008573ffffffffffffffffffffffffffffffffffffffff1673ffffffffffffffffffffffffffffffffffffffff1681526020019081526020016000206000820160009054906101000a900473ffffffffffffffffffffffffffffffffffffffff168160000160006101000a81548173ffffffffffffffffffffffffffffffffffffffff021916908373ffffffffffffffffffffffffffffffffffffffff160217905550600182018160010190816106459190611173565b506002820181600201908161065a9190611173565b50600382015481600301559050506000600b6000600a5481526020019081526020016000206000820160009054906101000a900473ffffffffffffffffffffffffffffffffffffffff168160000160006101000a81548173ffffffffffffffffffffffffffffffffffffffff021916908373ffffffffffffffffffffffffffffffffffffffff160217905550600182018160010190816106fa9190611173565b506002820181600201908161070f9190611173565b50600382015481600301559050506001600c60008573ffffffffffffffffffffffffffffffffffffffff1673ffffffffffffffffffffffffffffffffffffffff16815260200190815260200160002060006101000a81548160ff021916908315150217905550600a60008154809291906107889061135c565b9190505550505050565b61079a61096f565b600960008373ffffffffffffffffffffffffffffffffffffffff1673ffffffffffffffffffffffffffffffffffffffff1681526020019081526020016000206040518060800160405290816000820160009054906101000a900473ffffffffffffffffffffffffffffffffffffffff1673ffffffffffffffffffffffffffffffffffffffff1673ffffffffffffffffffffffffffffffffffffffff16815260200160018201805461084a90610f03565b80601f016020809104026020016040519081016040528092919081815260200182805461087690610f03565b80156108c35780601f10610898576101008083540402835291602001916108c3565b820191906000526020600020905b8154815290600101906020018083116108a657829003601f168201915b505050505081526020016002820180546108dc90610f03565b80601f016020809104026020016040519081016040528092919081815260200182805461090890610f03565b80156109555780601f1061092a57610100808354040283529160200191610955565b820191906000526020600020905b81548152906001019060200180831161093857829003601f168201915b505050505081526020016003820154815250509050919050565b6040518060800160405280600073ffffffffffffffffffffffffffffffffffffffff1681526020016060815260200160608152602001600081525090565b600081519050919050565b600082825260208201905092915050565b6000819050602082019050919050565b600073ffffffffffffffffffffffffffffffffffffffff82169050919050565b6000610a04826109d9565b9050919050565b610a14816109f9565b82525050565b600081519050919050565b600082825260208201905092915050565b60005b83811015610a54578082015181840152602081019050610a39565b60008484015250505050565b6000601f19601f8301169050919050565b6000610a7c82610a1a565b610a868185610a25565b9350610a96818560208601610a36565b610a9f81610a60565b840191505092915050565b6000819050919050565b610abd81610aaa565b82525050565b6000608083016000830151610adb6000860182610a0b565b5060208301518482036020860152610af38282610a71565b91505060408301518482036040860152610b0d8282610a71565b9150506060830151610b226060860182610ab4565b508091505092915050565b6000610b398383610ac3565b905092915050565b6000602082019050919050565b6000610b59826109ad565b610b6381856109b8565b935083602082028501610b75856109c9565b8060005b85811015610bb15784840389528151610b928582610b2d565b9450610b9d83610b41565b925060208a01995050600181019050610b79565b50829750879550505050505092915050565b60006020820190508181036000830152610bdd8184610b4e565b905092915050565b6000604051905090565b600080fd5b600080fd5b610c02816109f9565b8114610c0d57600080fd5b50565b600081359050610c1f81610bf9565b92915050565b600060208284031215610c3b57610c3a610bef565b5b6000610c4984828501610c10565b91505092915050565b60008115159050919050565b610c6781610c52565b82525050565b6000602082019050610c826000830184610c5e565b92915050565b600080fd5b600080fd5b7f4e487b7100000000000000000000000000000000000000000000000000000000600052604160045260246000fd5b610cca82610a60565b810181811067ffffffffffffffff82111715610ce957610ce8610c92565b5b80604052505050565b6000610cfc610be5565b9050610d088282610cc1565b919050565b600067ffffffffffffffff821115610d2857610d27610c92565b5b610d3182610a60565b9050602081019050919050565b82818337600083830152505050565b6000610d60610d5b84610d0d565b610cf2565b905082815260208101848484011115610d7c57610d7b610c8d565b5b610d87848285610d3e565b509392505050565b600082601f830112610da457610da3610c88565b5b8135610db4848260208601610d4d565b91505092915050565b600080600060608486031215610dd657610dd5610bef565b5b6000610de486828701610c10565b935050602084013567ffffffffffffffff811115610e0557610e04610bf4565b5b610e1186828701610d8f565b925050604084013567ffffffffffffffff811115610e3257610e31610bf4565b5b610e3e86828701610d8f565b9150509250925092565b6000608083016000830151610e606000860182610a0b565b5060208301518482036020860152610e788282610a71565b91505060408301518482036040860152610e928282610a71565b9150506060830151610ea76060860182610ab4565b508091505092915050565b60006020820190508181036000830152610ecc8184610e48565b905092915050565b7f4e487b7100000000000000000000000000000000000000000000000000000000600052602260045260246000fd5b60006002820490506001821680610f1b57607f821691505b602082108103610f2e57610f2d610ed4565b5b50919050565b600082825260208201905092915050565b7f5573657220646f6573206e6f7420657869737400000000000000000000000000600082015250565b6000610f7b601383610f34565b9150610f8682610f45565b602082019050919050565b60006020820190508181036000830152610faa81610f6e565b9050919050565b600081549050610fc081610f03565b9050919050565b60008190508160005260206000209050919050565b60006020601f8301049050919050565b600082821b905092915050565b6000600883026110297fffffffffffffffffffffffffffffffffffffffffffffffffffffffffffffffff82610fec565b6110338683610fec565b95508019841693508086168417925050509392505050565b6000819050919050565b600061107061106b61106684610aaa565b61104b565b610aaa565b9050919050565b6000819050919050565b61108a83611055565b61109e61109682611077565b848454610ff9565b825550505050565b600090565b6110b36110a6565b6110be818484611081565b505050565b5b818110156110e2576110d76000826110ab565b6001810190506110c4565b5050565b601f821115611127576110f881610fc7565b61110184610fdc565b81016020851015611110578190505b61112461111c85610fdc565b8301826110c3565b50505b505050565b600082821c905092915050565b600061114a6000198460080261112c565b1980831691505092915050565b60006111638383611139565b9150826002028217905092915050565b818103611181575050611259565b61118a82610fb1565b67ffffffffffffffff8111156111a3576111a2610c92565b5b6111ad8254610f03565b6111b88282856110e6565b6000601f8311600181146111e757600084156111d5578287015490505b6111df8582611157565b865550611252565b601f1984166111f587610fc7565b965061120086610fc7565b60005b8281101561122857848901548255600182019150600185019450602081019050611203565b868310156112455784890154611241601f891682611139565b8355505b6001600288020188555050505b5050505050505b565b61126482610a1a565b67ffffffffffffffff81111561127d5761127c610c92565b5b6112878254610f03565b6112928282856110e6565b600060209050601f8311600181146112c557600084156112b3578287015190505b6112bd8582611157565b865550611325565b601f1984166112d386610fc7565b60005b828110156112fb578489015182556001820191506020850194506020810190506112d6565b868310156113185784890151611314601f891682611139565b8355505b6001600288020188555050505b505050505050565b7f4e487b7100000000000000000000000000000000000000000000000000000000600052601160045260246000fd5b600061136782610aaa565b91507fffffffffffffffffffffffffffffffffffffffffffffffffffffffffffffffff82036113995761139861132d565b5b60018201905091905056fea264697066735822122031fd2aa7644e7dc31b1fd2355cb799707cbf10393ed059c0207f530400d9be3164736f6c63430008100033","opcodes":"PUSH1 0x80 PUSH1 0x40 MSTORE PUSH1 0x0 PUSH1 0xA SSTORE CALLVALUE DUP1 ISZERO PUSH2 0x15 JUMPI PUSH1 0x0 DUP1 REVERT JUMPDEST POP PUSH2 0x13DA DUP1 PUSH2 0x25 PUSH1 0x0 CODECOPY PUSH1 0x0 RETURN INVALID PUSH1 0x80 PUSH1 0x40 MSTORE CALLVALUE DUP1 ISZERO PUSH2 0x10 JUMPI PUSH1 0x0 DUP1 REVERT JUMPDEST POP PUSH1 0x4 CALLDATASIZE LT PUSH2 0x4B JUMPI PUSH1 0x0 CALLDATALOAD PUSH1 0xE0 SHR DUP1 PUSH3 0xCE8E3E EQ PUSH2 0x50 JUMPI DUP1 PUSH4 0x35A6861A EQ PUSH2 0x6E JUMPI DUP1 PUSH4 0x8D59CC02 EQ PUSH2 0x9E JUMPI DUP1 PUSH4 0xDF9D9024 EQ PUSH2 0xBA JUMPI JUMPDEST PUSH1 0x0 DUP1 REVERT JUMPDEST PUSH2 0x58 PUSH2 0xEA JUMP JUMPDEST PUSH1 0x40 MLOAD PUSH2 0x65 SWAP2 SWAP1 PUSH2 0xBC3 JUMP JUMPDEST PUSH1 0x40 MLOAD DUP1 SWAP2 SUB SWAP1 RETURN JUMPDEST PUSH2 0x88 PUSH1 0x4 DUP1 CALLDATASIZE SUB DUP2 ADD SWAP1 PUSH2 0x83 SWAP2 SWAP1 PUSH2 0xC25 JUMP JUMPDEST PUSH2 0x2CD JUMP JUMPDEST PUSH1 0x40 MLOAD PUSH2 0x95 SWAP2 SWAP1 PUSH2 0xC6D JUMP JUMPDEST PUSH1 0x40 MLOAD DUP1 SWAP2 SUB SWAP1 RETURN JUMPDEST PUSH2 0xB8 PUSH1 0x4 DUP1 CALLDATASIZE SUB DUP2 ADD SWAP1 PUSH2 0xB3 SWAP2 SWAP1 PUSH2 0xDBD JUMP JUMPDEST PUSH2 0x44A JUMP JUMPDEST STOP JUMPDEST PUSH2 0xD4 PUSH1 0x4 DUP1 CALLDATASIZE SUB DUP2 ADD SWAP1 PUSH2 0xCF SWAP2 SWAP1 PUSH2 0xC25 JUMP JUMPDEST PUSH2 0x792 JUMP JUMPDEST PUSH1 0x40 MLOAD PUSH2 0xE1 SWAP2 SWAP1 PUSH2 0xEB2 JUMP JUMPDEST PUSH1 0x40 MLOAD DUP1 SWAP2 SUB SWAP1 RETURN JUMPDEST PUSH1 0x60 PUSH1 0x8 DUP1 SLOAD DUP1 PUSH1 0x20 MUL PUSH1 0x20 ADD PUSH1 0x40 MLOAD SWAP1 DUP2 ADD PUSH1 0x40 MSTORE DUP1 SWAP3 SWAP2 SWAP1 DUP2 DUP2 MSTORE PUSH1 0x20 ADD PUSH1 0x0 SWAP1 JUMPDEST DUP3 DUP3 LT ISZERO PUSH2 0x2C4 JUMPI DUP4 DUP3 SWAP1 PUSH1 0x0 MSTORE PUSH1 0x20 PUSH1 0x0 KECCAK256 SWAP1 PUSH1 0x4 MUL ADD PUSH1 0x40 MLOAD DUP1 PUSH1 0x80 ADD PUSH1 0x40 MSTORE SWAP1 DUP2 PUSH1 0x0 DUP3 ADD PUSH1 0x0 SWAP1 SLOAD SWAP1 PUSH2 0x100 EXP SWAP1 DIV PUSH20 0xFFFFFFFFFFFFFFFFFFFFFFFFFFFFFFFFFFFFFFFF AND PUSH20 0xFFFFFFFFFFFFFFFFFFFFFFFFFFFFFFFFFFFFFFFF AND PUSH20 0xFFFFFFFFFFFFFFFFFFFFFFFFFFFFFFFFFFFFFFFF AND DUP2 MSTORE PUSH1 0x20 ADD PUSH1 0x1 DUP3 ADD DUP1 SLOAD PUSH2 0x197 SWAP1 PUSH2 0xF03 JUMP JUMPDEST DUP1 PUSH1 0x1F ADD PUSH1 0x20 DUP1 SWAP2 DIV MUL PUSH1 0x20 ADD PUSH1 0x40 MLOAD SWAP1 DUP2 ADD PUSH1 0x40 MSTORE DUP1 SWAP3 SWAP2 SWAP1 DUP2 DUP2 MSTORE PUSH1 0x20 ADD DUP3 DUP1 SLOAD PUSH2 0x1C3 SWAP1 PUSH2 0xF03 JUMP JUMPDEST DUP1 ISZERO PUSH2 0x210 JUMPI DUP1 PUSH1 0x1F LT PUSH2 0x1E5 JUMPI PUSH2 0x100 DUP1 DUP4 SLOAD DIV MUL DUP4 MSTORE SWAP2 PUSH1 0x20 ADD SWAP2 PUSH2 0x210 JUMP JUMPDEST DUP3 ADD SWAP2 SWAP1 PUSH1 0x0 MSTORE PUSH1 0x20 PUSH1 0x0 KECCAK256 SWAP1 JUMPDEST DUP2 SLOAD DUP2 MSTORE SWAP1 PUSH1 0x1 ADD SWAP1 PUSH1 0x20 ADD DUP1 DUP4 GT PUSH2 0x1F3 JUMPI DUP3 SWAP1 SUB PUSH1 0x1F AND DUP3 ADD SWAP2 JUMPDEST POP POP POP POP POP DUP2 MSTORE PUSH1 0x20 ADD PUSH1 0x2 DUP3 ADD DUP1 SLOAD PUSH2 0x229 SWAP1 PUSH2 0xF03 JUMP JUMPDEST DUP1 PUSH1 0x1F ADD PUSH1 0x20 DUP1 SWAP2 DIV MUL PUSH1 0x20 ADD PUSH1 0x40 MLOAD SWAP1 DUP2 ADD PUSH1 0x40 MSTORE DUP1 SWAP3 SWAP2 SWAP1 DUP2 DUP2 MSTORE PUSH1 0x20 ADD DUP3 DUP1 SLOAD PUSH2 0x255 SWAP1 PUSH2 0xF03 JUMP JUMPDEST DUP1 ISZERO PUSH2 0x2A2 JUMPI DUP1 PUSH1 0x1F LT PUSH2 0x277 JUMPI PUSH2 0x100 DUP1 DUP4 SLOAD DIV MUL DUP4 MSTORE SWAP2 PUSH1 0x20 ADD SWAP2 PUSH2 0x2A2 JUMP JUMPDEST DUP3 ADD SWAP2 SWAP1 PUSH1 0x0 MSTORE PUSH1 0x20 PUSH1 0x0 KECCAK256 SWAP1 JUMPDEST DUP2 SLOAD DUP2 MSTORE SWAP1 PUSH1 0x1 ADD SWAP1 PUSH1 0x20 ADD DUP1 DUP4 GT PUSH2 0x285 JUMPI DUP3 SWAP1 SUB PUSH1 0x1F AND DUP3 ADD SWAP2 JUMPDEST POP POP POP POP POP DUP2 MSTORE PUSH1 0x20 ADD PUSH1 0x3 DUP3 ADD SLOAD DUP2 MSTORE POP POP DUP2 MSTORE PUSH1 0x20 ADD SWAP1 PUSH1 0x1 ADD SWAP1 PUSH2 0x10E JUMP JUMPDEST POP POP POP POP SWAP1 POP SWAP1 JUMP JUMPDEST PUSH1 0x0 PUSH1 0x1 ISZERO ISZERO PUSH1 0xC PUSH1 0x0 DUP5 PUSH20 0xFFFFFFFFFFFFFFFFFFFFFFFFFFFFFFFFFFFFFFFF AND PUSH20 0xFFFFFFFFFFFFFFFFFFFFFFFFFFFFFFFFFFFFFFFF AND DUP2 MSTORE PUSH1 0x20 ADD SWAP1 DUP2 MSTORE PUSH1 0x20 ADD PUSH1 0x0 KECCAK256 PUSH1 0x0 SWAP1 SLOAD SWAP1 PUSH2 0x100 EXP SWAP1 DIV PUSH1 0xFF AND ISZERO ISZERO EQ PUSH2 0x362 JUMPI PUSH1 0x40 MLOAD PUSH32 0x8C379A000000000000000000000000000000000000000000000000000000000 DUP2 MSTORE PUSH1 0x4 ADD PUSH2 0x359 SWAP1 PUSH2 0xF91 JUMP JUMPDEST PUSH1 0x40 MLOAD DUP1 SWAP2 SUB SWAP1 REVERT JUMPDEST PUSH1 0x9 PUSH1 0x0 DUP4 PUSH20 0xFFFFFFFFFFFFFFFFFFFFFFFFFFFFFFFFFFFFFFFF AND PUSH20 0xFFFFFFFFFFFFFFFFFFFFFFFFFFFFFFFFFFFFFFFF AND DUP2 MSTORE PUSH1 0x20 ADD SWAP1 DUP2 MSTORE PUSH1 0x20 ADD PUSH1 0x0 KECCAK256 PUSH1 0x4 PUSH1 0x0 DUP3 ADD PUSH1 0x0 SWAP1 SLOAD SWAP1 PUSH2 0x100 EXP SWAP1 DIV PUSH20 0xFFFFFFFFFFFFFFFFFFFFFFFFFFFFFFFFFFFFFFFF AND DUP2 PUSH1 0x0 ADD PUSH1 0x0 PUSH2 0x100 EXP DUP2 SLOAD DUP2 PUSH20 0xFFFFFFFFFFFFFFFFFFFFFFFFFFFFFFFFFFFFFFFF MUL NOT AND SWAP1 DUP4 PUSH20 0xFFFFFFFFFFFFFFFFFFFFFFFFFFFFFFFFFFFFFFFF AND MUL OR SWAP1 SSTORE POP PUSH1 0x1 DUP3 ADD DUP2 PUSH1 0x1 ADD SWAP1 DUP2 PUSH2 0x41E SWAP2 SWAP1 PUSH2 0x1173 JUMP JUMPDEST POP PUSH1 0x2 DUP3 ADD DUP2 PUSH1 0x2 ADD SWAP1 DUP2 PUSH2 0x433 SWAP2 SWAP1 PUSH2 0x1173 JUMP JUMPDEST POP PUSH1 0x3 DUP3 ADD SLOAD DUP2 PUSH1 0x3 ADD SSTORE SWAP1 POP POP PUSH1 0x1 SWAP1 POP SWAP2 SWAP1 POP JUMP JUMPDEST DUP3 PUSH1 0x0 DUP1 ADD PUSH1 0x0 PUSH2 0x100 EXP DUP2 SLOAD DUP2 PUSH20 0xFFFFFFFFFFFFFFFFFFFFFFFFFFFFFFFFFFFFFFFF MUL NOT AND SWAP1 DUP4 PUSH20 0xFFFFFFFFFFFFFFFFFFFFFFFFFFFFFFFFFFFFFFFF AND MUL OR SWAP1 SSTORE POP DUP2 PUSH1 0x0 PUSH1 0x1 ADD SWAP1 DUP2 PUSH2 0x49F SWAP2 SWAP1 PUSH2 0x125B JUMP JUMPDEST POP DUP1 PUSH1 0x0 PUSH1 0x2 ADD SWAP1 DUP2 PUSH2 0x4B2 SWAP2 SWAP1 PUSH2 0x125B JUMP JUMPDEST POP PUSH1 0xA SLOAD PUSH1 0x0 PUSH1 0x3 ADD DUP2 SWAP1 SSTORE POP PUSH1 0x8 PUSH1 0x0 SWAP1 DUP1 PUSH1 0x1 DUP2 SLOAD ADD DUP1 DUP3 SSTORE DUP1 SWAP2 POP POP PUSH1 0x1 SWAP1 SUB SWAP1 PUSH1 0x0 MSTORE PUSH1 0x20 PUSH1 0x0 KECCAK256 SWAP1 PUSH1 0x4 MUL ADD PUSH1 0x0 SWAP1 SWAP2 SWAP1 SWAP2 SWAP1 SWAP2 POP PUSH1 0x0 DUP3 ADD PUSH1 0x0 SWAP1 SLOAD SWAP1 PUSH2 0x100 EXP SWAP1 DIV PUSH20 0xFFFFFFFFFFFFFFFFFFFFFFFFFFFFFFFFFFFFFFFF AND DUP2 PUSH1 0x0 ADD PUSH1 0x0 PUSH2 0x100 EXP DUP2 SLOAD DUP2 PUSH20 0xFFFFFFFFFFFFFFFFFFFFFFFFFFFFFFFFFFFFFFFF MUL NOT AND SWAP1 DUP4 PUSH20 0xFFFFFFFFFFFFFFFFFFFFFFFFFFFFFFFFFFFFFFFF AND MUL OR SWAP1 SSTORE POP PUSH1 0x1 DUP3 ADD DUP2 PUSH1 0x1 ADD SWAP1 DUP2 PUSH2 0x567 SWAP2 SWAP1 PUSH2 0x1173 JUMP JUMPDEST POP PUSH1 0x2 DUP3 ADD DUP2 PUSH1 0x2 ADD SWAP1 DUP2 PUSH2 0x57C SWAP2 SWAP1 PUSH2 0x1173 JUMP JUMPDEST POP PUSH1 0x3 DUP3 ADD SLOAD DUP2 PUSH1 0x3 ADD SSTORE POP POP PUSH1 0x0 PUSH1 0x9 PUSH1 0x0 DUP6 PUSH20 0xFFFFFFFFFFFFFFFFFFFFFFFFFFFFFFFFFFFFFFFF AND PUSH20 0xFFFFFFFFFFFFFFFFFFFFFFFFFFFFFFFFFFFFFFFF AND DUP2 MSTORE PUSH1 0x20 ADD SWAP1 DUP2 MSTORE PUSH1 0x20 ADD PUSH1 0x0 KECCAK256 PUSH1 0x0 DUP3 ADD PUSH1 0x0 SWAP1 SLOAD SWAP1 PUSH2 0x100 EXP SWAP1 DIV PUSH20 0xFFFFFFFFFFFFFFFFFFFFFFFFFFFFFFFFFFFFFFFF AND DUP2 PUSH1 0x0 ADD PUSH1 0x0 PUSH2 0x100 EXP DUP2 SLOAD DUP2 PUSH20 0xFFFFFFFFFFFFFFFFFFFFFFFFFFFFFFFFFFFFFFFF MUL NOT AND SWAP1 DUP4 PUSH20 0xFFFFFFFFFFFFFFFFFFFFFFFFFFFFFFFFFFFFFFFF AND MUL OR SWAP1 SSTORE POP PUSH1 0x1 DUP3 ADD DUP2 PUSH1 0x1 ADD SWAP1 DUP2 PUSH2 0x645 SWAP2 SWAP1 PUSH2 0x1173 JUMP JUMPDEST POP PUSH1 0x2 DUP3 ADD DUP2 PUSH1 0x2 ADD SWAP1 DUP2 PUSH2 0x65A SWAP2 SWAP1 PUSH2 0x1173 JUMP JUMPDEST POP PUSH1 0x3 DUP3 ADD SLOAD DUP2 PUSH1 0x3 ADD SSTORE SWAP1 POP POP PUSH1 0x0 PUSH1 0xB PUSH1 0x0 PUSH1 0xA SLOAD DUP2 MSTORE PUSH1 0x20 ADD SWAP1 DUP2 MSTORE PUSH1 0x20 ADD PUSH1 0x0 KECCAK256 PUSH1 0x0 DUP3 ADD PUSH1 0x0 SWAP1 SLOAD SWAP1 PUSH2 0x100 EXP SWAP1 DIV PUSH20 0xFFFFFFFFFFFFFFFFFFFFFFFFFFFFFFFFFFFFFFFF AND DUP2 PUSH1 0x0 ADD PUSH1 0x0 PUSH2 0x100 EXP DUP2 SLOAD DUP2 PUSH20 0xFFFFFFFFFFFFFFFFFFFFFFFFFFFFFFFFFFFFFFFF MUL NOT AND SWAP1 DUP4 PUSH20 0xFFFFFFFFFFFFFFFFFFFFFFFFFFFFFFFFFFFFFFFF AND MUL OR SWAP1 SSTORE POP PUSH1 0x1 DUP3 ADD DUP2 PUSH1 0x1 ADD SWAP1 DUP2 PUSH2 0x6FA SWAP2 SWAP1 PUSH2 0x1173 JUMP JUMPDEST POP PUSH1 0x2 DUP3 ADD DUP2 PUSH1 0x2 ADD SWAP1 DUP2 PUSH2 0x70F SWAP2 SWAP1 PUSH2 0x1173 JUMP JUMPDEST POP PUSH1 0x3 DUP3 ADD SLOAD DUP2 PUSH1 0x3 ADD SSTORE SWAP1 POP POP PUSH1 0x1 PUSH1 0xC PUSH1 0x0 DUP6 PUSH20 0xFFFFFFFFFFFFFFFFFFFFFFFFFFFFFFFFFFFFFFFF AND PUSH20 0xFFFFFFFFFFFFFFFFFFFFFFFFFFFFFFFFFFFFFFFF AND DUP2 MSTORE PUSH1 0x20 ADD SWAP1 DUP2 MSTORE PUSH1 0x20 ADD PUSH1 0x0 KECCAK256 PUSH1 0x0 PUSH2 0x100 EXP DUP2 SLOAD DUP2 PUSH1 0xFF MUL NOT AND SWAP1 DUP4 ISZERO ISZERO MUL OR SWAP1 SSTORE POP PUSH1 0xA PUSH1 0x0 DUP2 SLOAD DUP1 SWAP3 SWAP2 SWAP1 PUSH2 0x788 SWAP1 PUSH2 0x135C JUMP JUMPDEST SWAP2 SWAP1 POP SSTORE POP POP POP POP JUMP JUMPDEST PUSH2 0x79A PUSH2 0x96F JUMP JUMPDEST PUSH1 0x9 PUSH1 0x0 DUP4 PUSH20 0xFFFFFFFFFFFFFFFFFFFFFFFFFFFFFFFFFFFFFFFF AND PUSH20 0xFFFFFFFFFFFFFFFFFFFFFFFFFFFFFFFFFFFFFFFF AND DUP2 MSTORE PUSH1 0x20 ADD SWAP1 DUP2 MSTORE PUSH1 0x20 ADD PUSH1 0x0 KECCAK256 PUSH1 0x40 MLOAD DUP1 PUSH1 0x80 ADD PUSH1 0x40 MSTORE SWAP1 DUP2 PUSH1 0x0 DUP3 ADD PUSH1 0x0 SWAP1 SLOAD SWAP1 PUSH2 0x100 EXP SWAP1 DIV PUSH20 0xFFFFFFFFFFFFFFFFFFFFFFFFFFFFFFFFFFFFFFFF AND PUSH20 0xFFFFFFFFFFFFFFFFFFFFFFFFFFFFFFFFFFFFFFFF AND PUSH20 0xFFFFFFFFFFFFFFFFFFFFFFFFFFFFFFFFFFFFFFFF AND DUP2 MSTORE PUSH1 0x20 ADD PUSH1 0x1 DUP3 ADD DUP1 SLOAD PUSH2 0x84A SWAP1 PUSH2 0xF03 JUMP JUMPDEST DUP1 PUSH1 0x1F ADD PUSH1 0x20 DUP1 SWAP2 DIV MUL PUSH1 0x20 ADD PUSH1 0x40 MLOAD SWAP1 DUP2 ADD PUSH1 0x40 MSTORE DUP1 SWAP3 SWAP2 SWAP1 DUP2 DUP2 MSTORE PUSH1 0x20 ADD DUP3 DUP1 SLOAD PUSH2 0x876 SWAP1 PUSH2 0xF03 JUMP JUMPDEST DUP1 ISZERO PUSH2 0x8C3 JUMPI DUP1 PUSH1 0x1F LT PUSH2 0x898 JUMPI PUSH2 0x100 DUP1 DUP4 SLOAD DIV MUL DUP4 MSTORE SWAP2 PUSH1 0x20 ADD SWAP2 PUSH2 0x8C3 JUMP JUMPDEST DUP3 ADD SWAP2 SWAP1 PUSH1 0x0 MSTORE PUSH1 0x20 PUSH1 0x0 KECCAK256 SWAP1 JUMPDEST DUP2 SLOAD DUP2 MSTORE SWAP1 PUSH1 0x1 ADD SWAP1 PUSH1 0x20 ADD DUP1 DUP4 GT PUSH2 0x8A6 JUMPI DUP3 SWAP1 SUB PUSH1 0x1F AND DUP3 ADD SWAP2 JUMPDEST POP POP POP POP POP DUP2 MSTORE PUSH1 0x20 ADD PUSH1 0x2 DUP3 ADD DUP1 SLOAD PUSH2 0x8DC SWAP1 PUSH2 0xF03 JUMP JUMPDEST DUP1 PUSH1 0x1F ADD PUSH1 0x20 DUP1 SWAP2 DIV MUL PUSH1 0x20 ADD PUSH1 0x40 MLOAD SWAP1 DUP2 ADD PUSH1 0x40 MSTORE DUP1 SWAP3 SWAP2 SWAP1 DUP2 DUP2 MSTORE PUSH1 0x20 ADD DUP3 DUP1 SLOAD PUSH2 0x908 SWAP1 PUSH2 0xF03 JUMP JUMPDEST DUP1 ISZERO PUSH2 0x955 JUMPI DUP1 PUSH1 0x1F LT PUSH2 0x92A JUMPI PUSH2 0x100 DUP1 DUP4 SLOAD DIV MUL DUP4 MSTORE SWAP2 PUSH1 0x20 ADD SWAP2 PUSH2 0x955 JUMP JUMPDEST DUP3 ADD SWAP2 SWAP1 PUSH1 0x0 MSTORE PUSH1 0x20 PUSH1 0x0 KECCAK256 SWAP1 JUMPDEST DUP2 SLOAD DUP2 MSTORE SWAP1 PUSH1 0x1 ADD SWAP1 PUSH1 0x20 ADD DUP1 DUP4 GT PUSH2 0x938 JUMPI DUP3 SWAP1 SUB PUSH1 0x1F AND DUP3 ADD SWAP2 JUMPDEST POP POP POP POP POP DUP2 MSTORE PUSH1 0x20 ADD PUSH1 0x3 DUP3 ADD SLOAD DUP2 MSTORE POP POP SWAP1 POP SWAP2 SWAP1 POP JUMP JUMPDEST PUSH1 0x40 MLOAD DUP1 PUSH1 0x80 ADD PUSH1 0x40 MSTORE DUP1 PUSH1 0x0 PUSH20 0xFFFFFFFFFFFFFFFFFFFFFFFFFFFFFFFFFFFFFFFF AND DUP2 MSTORE PUSH1 0x20 ADD PUSH1 0x60 DUP2 MSTORE PUSH1 0x20 ADD PUSH1 0x60 DUP2 MSTORE PUSH1 0x20 ADD PUSH1 0x0 DUP2 MSTORE POP SWAP1 JUMP JUMPDEST PUSH1 0x0 DUP2 MLOAD SWAP1 POP SWAP2 SWAP1 POP JUMP JUMPDEST PUSH1 0x0 DUP3 DUP3 MSTORE PUSH1 0x20 DUP3 ADD SWAP1 POP SWAP3 SWAP2 POP POP JUMP JUMPDEST PUSH1 0x0 DUP2 SWAP1 POP PUSH1 0x20 DUP3 ADD SWAP1 POP SWAP2 SWAP1 POP JUMP JUMPDEST PUSH1 0x0 PUSH20 0xFFFFFFFFFFFFFFFFFFFFFFFFFFFFFFFFFFFFFFFF DUP3 AND SWAP1 POP SWAP2 SWAP1 POP JUMP JUMPDEST PUSH1 0x0 PUSH2 0xA04 DUP3 PUSH2 0x9D9 JUMP JUMPDEST SWAP1 POP SWAP2 SWAP1 POP JUMP JUMPDEST PUSH2 0xA14 DUP2 PUSH2 0x9F9 JUMP JUMPDEST DUP3 MSTORE POP POP JUMP JUMPDEST PUSH1 0x0 DUP2 MLOAD SWAP1 POP SWAP2 SWAP1 POP JUMP JUMPDEST PUSH1 0x0 DUP3 DUP3 MSTORE PUSH1 0x20 DUP3 ADD SWAP1 POP SWAP3 SWAP2 POP POP JUMP JUMPDEST PUSH1 0x0 JUMPDEST DUP4 DUP2 LT ISZERO PUSH2 0xA54 JUMPI DUP1 DUP3 ADD MLOAD DUP2 DUP5 ADD MSTORE PUSH1 0x20 DUP2 ADD SWAP1 POP PUSH2 0xA39 JUMP JUMPDEST PUSH1 0x0 DUP5 DUP5 ADD MSTORE POP POP POP POP JUMP JUMPDEST PUSH1 0x0 PUSH1 0x1F NOT PUSH1 0x1F DUP4 ADD AND SWAP1 POP SWAP2 SWAP1 POP JUMP JUMPDEST PUSH1 0x0 PUSH2 0xA7C DUP3 PUSH2 0xA1A JUMP JUMPDEST PUSH2 0xA86 DUP2 DUP6 PUSH2 0xA25 JUMP JUMPDEST SWAP4 POP PUSH2 0xA96 DUP2 DUP6 PUSH1 0x20 DUP7 ADD PUSH2 0xA36 JUMP JUMPDEST PUSH2 0xA9F DUP2 PUSH2 0xA60 JUMP JUMPDEST DUP5 ADD SWAP2 POP POP SWAP3 SWAP2 POP POP JUMP JUMPDEST PUSH1 0x0 DUP2 SWAP1 POP SWAP2 SWAP1 POP JUMP JUMPDEST PUSH2 0xABD DUP2 PUSH2 0xAAA JUMP JUMPDEST DUP3 MSTORE POP POP JUMP JUMPDEST PUSH1 0x0 PUSH1 0x80 DUP4 ADD PUSH1 0x0 DUP4 ADD MLOAD PUSH2 0xADB PUSH1 0x0 DUP7 ADD DUP3 PUSH2 0xA0B JUMP JUMPDEST POP PUSH1 0x20 DUP4 ADD MLOAD DUP5 DUP3 SUB PUSH1 0x20 DUP7 ADD MSTORE PUSH2 0xAF3 DUP3 DUP3 PUSH2 0xA71 JUMP JUMPDEST SWAP2 POP POP PUSH1 0x40 DUP4 ADD MLOAD DUP5 DUP3 SUB PUSH1 0x40 DUP7 ADD MSTORE PUSH2 0xB0D DUP3 DUP3 PUSH2 0xA71 JUMP JUMPDEST SWAP2 POP POP PUSH1 0x60 DUP4 ADD MLOAD PUSH2 0xB22 PUSH1 0x60 DUP7 ADD DUP3 PUSH2 0xAB4 JUMP JUMPDEST POP DUP1 SWAP2 POP POP SWAP3 SWAP2 POP POP JUMP JUMPDEST PUSH1 0x0 PUSH2 0xB39 DUP4 DUP4 PUSH2 0xAC3 JUMP JUMPDEST SWAP1 POP SWAP3 SWAP2 POP POP JUMP JUMPDEST PUSH1 0x0 PUSH1 0x20 DUP3 ADD SWAP1 POP SWAP2 SWAP1 POP JUMP JUMPDEST PUSH1 0x0 PUSH2 0xB59 DUP3 PUSH2 0x9AD JUMP JUMPDEST PUSH2 0xB63 DUP2 DUP6 PUSH2 0x9B8 JUMP JUMPDEST SWAP4 POP DUP4 PUSH1 0x20 DUP3 MUL DUP6 ADD PUSH2 0xB75 DUP6 PUSH2 0x9C9 JUMP JUMPDEST DUP1 PUSH1 0x0 JUMPDEST DUP6 DUP2 LT ISZERO PUSH2 0xBB1 JUMPI DUP5 DUP5 SUB DUP10 MSTORE DUP2 MLOAD PUSH2 0xB92 DUP6 DUP3 PUSH2 0xB2D JUMP JUMPDEST SWAP5 POP PUSH2 0xB9D DUP4 PUSH2 0xB41 JUMP JUMPDEST SWAP3 POP PUSH1 0x20 DUP11 ADD SWAP10 POP POP PUSH1 0x1 DUP2 ADD SWAP1 POP PUSH2 0xB79 JUMP JUMPDEST POP DUP3 SWAP8 POP DUP8 SWAP6 POP POP POP POP POP POP SWAP3 SWAP2 POP POP JUMP JUMPDEST PUSH1 0x0 PUSH1 0x20 DUP3 ADD SWAP1 POP DUP2 DUP2 SUB PUSH1 0x0 DUP4 ADD MSTORE PUSH2 0xBDD DUP2 DUP5 PUSH2 0xB4E JUMP JUMPDEST SWAP1 POP SWAP3 SWAP2 POP POP JUMP JUMPDEST PUSH1 0x0 PUSH1 0x40 MLOAD SWAP1 POP SWAP1 JUMP JUMPDEST PUSH1 0x0 DUP1 REVERT JUMPDEST PUSH1 0x0 DUP1 REVERT JUMPDEST PUSH2 0xC02 DUP2 PUSH2 0x9F9 JUMP JUMPDEST DUP2 EQ PUSH2 0xC0D JUMPI PUSH1 0x0 DUP1 REVERT JUMPDEST POP JUMP JUMPDEST PUSH1 0x0 DUP2 CALLDATALOAD SWAP1 POP PUSH2 0xC1F DUP2 PUSH2 0xBF9 JUMP JUMPDEST SWAP3 SWAP2 POP POP JUMP JUMPDEST PUSH1 0x0 PUSH1 0x20 DUP3 DUP5 SUB SLT ISZERO PUSH2 0xC3B JUMPI PUSH2 0xC3A PUSH2 0xBEF JUMP JUMPDEST JUMPDEST PUSH1 0x0 PUSH2 0xC49 DUP5 DUP3 DUP6 ADD PUSH2 0xC10 JUMP JUMPDEST SWAP2 POP POP SWAP3 SWAP2 POP POP JUMP JUMPDEST PUSH1 0x0 DUP2 ISZERO ISZERO SWAP1 POP SWAP2 SWAP1 POP JUMP JUMPDEST PUSH2 0xC67 DUP2 PUSH2 0xC52 JUMP JUMPDEST DUP3 MSTORE POP POP JUMP JUMPDEST PUSH1 0x0 PUSH1 0x20 DUP3 ADD SWAP1 POP PUSH2 0xC82 PUSH1 0x0 DUP4 ADD DUP5 PUSH2 0xC5E JUMP JUMPDEST SWAP3 SWAP2 POP POP JUMP JUMPDEST PUSH1 0x0 DUP1 REVERT JUMPDEST PUSH1 0x0 DUP1 REVERT JUMPDEST PUSH32 0x4E487B7100000000000000000000000000000000000000000000000000000000 PUSH1 0x0 MSTORE PUSH1 0x41 PUSH1 0x4 MSTORE PUSH1 0x24 PUSH1 0x0 REVERT JUMPDEST PUSH2 0xCCA DUP3 PUSH2 0xA60 JUMP JUMPDEST DUP2 ADD DUP2 DUP2 LT PUSH8 0xFFFFFFFFFFFFFFFF DUP3 GT OR ISZERO PUSH2 0xCE9 JUMPI PUSH2 0xCE8 PUSH2 0xC92 JUMP JUMPDEST JUMPDEST DUP1 PUSH1 0x40 MSTORE POP POP POP JUMP JUMPDEST PUSH1 0x0 PUSH2 0xCFC PUSH2 0xBE5 JUMP JUMPDEST SWAP1 POP PUSH2 0xD08 DUP3 DUP3 PUSH2 0xCC1 JUMP JUMPDEST SWAP2 SWAP1 POP JUMP JUMPDEST PUSH1 0x0 PUSH8 0xFFFFFFFFFFFFFFFF DUP3 GT ISZERO PUSH2 0xD28 JUMPI PUSH2 0xD27 PUSH2 0xC92 JUMP JUMPDEST JUMPDEST PUSH2 0xD31 DUP3 PUSH2 0xA60 JUMP JUMPDEST SWAP1 POP PUSH1 0x20 DUP2 ADD SWAP1 POP SWAP2 SWAP1 POP JUMP JUMPDEST DUP3 DUP2 DUP4 CALLDATACOPY PUSH1 0x0 DUP4 DUP4 ADD MSTORE POP POP POP JUMP JUMPDEST PUSH1 0x0 PUSH2 0xD60 PUSH2 0xD5B DUP5 PUSH2 0xD0D JUMP JUMPDEST PUSH2 0xCF2 JUMP JUMPDEST SWAP1 POP DUP3 DUP2 MSTORE PUSH1 0x20 DUP2 ADD DUP5 DUP5 DUP5 ADD GT ISZERO PUSH2 0xD7C JUMPI PUSH2 0xD7B PUSH2 0xC8D JUMP JUMPDEST JUMPDEST PUSH2 0xD87 DUP5 DUP3 DUP6 PUSH2 0xD3E JUMP JUMPDEST POP SWAP4 SWAP3 POP POP POP JUMP JUMPDEST PUSH1 0x0 DUP3 PUSH1 0x1F DUP4 ADD SLT PUSH2 0xDA4 JUMPI PUSH2 0xDA3 PUSH2 0xC88 JUMP JUMPDEST JUMPDEST DUP2 CALLDATALOAD PUSH2 0xDB4 DUP5 DUP3 PUSH1 0x20 DUP7 ADD PUSH2 0xD4D JUMP JUMPDEST SWAP2 POP POP SWAP3 SWAP2 POP POP JUMP JUMPDEST PUSH1 0x0 DUP1 PUSH1 0x0 PUSH1 0x60 DUP5 DUP7 SUB SLT ISZERO PUSH2 0xDD6 JUMPI PUSH2 0xDD5 PUSH2 0xBEF JUMP JUMPDEST JUMPDEST PUSH1 0x0 PUSH2 0xDE4 DUP7 DUP3 DUP8 ADD PUSH2 0xC10 JUMP JUMPDEST SWAP4 POP POP PUSH1 0x20 DUP5 ADD CALLDATALOAD PUSH8 0xFFFFFFFFFFFFFFFF DUP2 GT ISZERO PUSH2 0xE05 JUMPI PUSH2 0xE04 PUSH2 0xBF4 JUMP JUMPDEST JUMPDEST PUSH2 0xE11 DUP7 DUP3 DUP8 ADD PUSH2 0xD8F JUMP JUMPDEST SWAP3 POP POP PUSH1 0x40 DUP5 ADD CALLDATALOAD PUSH8 0xFFFFFFFFFFFFFFFF DUP2 GT ISZERO PUSH2 0xE32 JUMPI PUSH2 0xE31 PUSH2 0xBF4 JUMP JUMPDEST JUMPDEST PUSH2 0xE3E DUP7 DUP3 DUP8 ADD PUSH2 0xD8F JUMP JUMPDEST SWAP2 POP POP SWAP3 POP SWAP3 POP SWAP3 JUMP JUMPDEST PUSH1 0x0 PUSH1 0x80 DUP4 ADD PUSH1 0x0 DUP4 ADD MLOAD PUSH2 0xE60 PUSH1 0x0 DUP7 ADD DUP3 PUSH2 0xA0B JUMP JUMPDEST POP PUSH1 0x20 DUP4 ADD MLOAD DUP5 DUP3 SUB PUSH1 0x20 DUP7 ADD MSTORE PUSH2 0xE78 DUP3 DUP3 PUSH2 0xA71 JUMP JUMPDEST SWAP2 POP POP PUSH1 0x40 DUP4 ADD MLOAD DUP5 DUP3 SUB PUSH1 0x40 DUP7 ADD MSTORE PUSH2 0xE92 DUP3 DUP3 PUSH2 0xA71 JUMP JUMPDEST SWAP2 POP POP PUSH1 0x60 DUP4 ADD MLOAD PUSH2 0xEA7 PUSH1 0x60 DUP7 ADD DUP3 PUSH2 0xAB4 JUMP JUMPDEST POP DUP1 SWAP2 POP POP SWAP3 SWAP2 POP POP JUMP JUMPDEST PUSH1 0x0 PUSH1 0x20 DUP3 ADD SWAP1 POP DUP2 DUP2 SUB PUSH1 0x0 DUP4 ADD MSTORE PUSH2 0xECC DUP2 DUP5 PUSH2 0xE48 JUMP JUMPDEST SWAP1 POP SWAP3 SWAP2 POP POP JUMP JUMPDEST PUSH32 0x4E487B7100000000000000000000000000000000000000000000000000000000 PUSH1 0x0 MSTORE PUSH1 0x22 PUSH1 0x4 MSTORE PUSH1 0x24 PUSH1 0x0 REVERT JUMPDEST PUSH1 0x0 PUSH1 0x2 DUP3 DIV SWAP1 POP PUSH1 0x1 DUP3 AND DUP1 PUSH2 0xF1B JUMPI PUSH1 0x7F DUP3 AND SWAP2 POP JUMPDEST PUSH1 0x20 DUP3 LT DUP2 SUB PUSH2 0xF2E JUMPI PUSH2 0xF2D PUSH2 0xED4 JUMP JUMPDEST JUMPDEST POP SWAP2 SWAP1 POP JUMP JUMPDEST PUSH1 0x0 DUP3 DUP3 MSTORE PUSH1 0x20 DUP3 ADD SWAP1 POP SWAP3 SWAP2 POP POP JUMP JUMPDEST PUSH32 0x5573657220646F6573206E6F7420657869737400000000000000000000000000 PUSH1 0x0 DUP3 ADD MSTORE POP JUMP JUMPDEST PUSH1 0x0 PUSH2 0xF7B PUSH1 0x13 DUP4 PUSH2 0xF34 JUMP JUMPDEST SWAP2 POP PUSH2 0xF86 DUP3 PUSH2 0xF45 JUMP JUMPDEST PUSH1 0x20 DUP3 ADD SWAP1 POP SWAP2 SWAP1 POP JUMP JUMPDEST PUSH1 0x0 PUSH1 0x20 DUP3 ADD SWAP1 POP DUP2 DUP2 SUB PUSH1 0x0 DUP4 ADD MSTORE PUSH2 0xFAA DUP2 PUSH2 0xF6E JUMP JUMPDEST SWAP1 POP SWAP2 SWAP1 POP JUMP JUMPDEST PUSH1 0x0 DUP2 SLOAD SWAP1 POP PUSH2 0xFC0 DUP2 PUSH2 0xF03 JUMP JUMPDEST SWAP1 POP SWAP2 SWAP1 POP JUMP JUMPDEST PUSH1 0x0 DUP2 SWAP1 POP DUP2 PUSH1 0x0 MSTORE PUSH1 0x20 PUSH1 0x0 KECCAK256 SWAP1 POP SWAP2 SWAP1 POP JUMP JUMPDEST PUSH1 0x0 PUSH1 0x20 PUSH1 0x1F DUP4 ADD DIV SWAP1 POP SWAP2 SWAP1 POP JUMP JUMPDEST PUSH1 0x0 DUP3 DUP3 SHL SWAP1 POP SWAP3 SWAP2 POP POP JUMP JUMPDEST PUSH1 0x0 PUSH1 0x8 DUP4 MUL PUSH2 0x1029 PUSH32 0xFFFFFFFFFFFFFFFFFFFFFFFFFFFFFFFFFFFFFFFFFFFFFFFFFFFFFFFFFFFFFFFF DUP3 PUSH2 0xFEC JUMP JUMPDEST PUSH2 0x1033 DUP7 DUP4 PUSH2 0xFEC JUMP JUMPDEST SWAP6 POP DUP1 NOT DUP5 AND SWAP4 POP DUP1 DUP7 AND DUP5 OR SWAP3 POP POP POP SWAP4 SWAP3 POP POP POP JUMP JUMPDEST PUSH1 0x0 DUP2 SWAP1 POP SWAP2 SWAP1 POP JUMP JUMPDEST PUSH1 0x0 PUSH2 0x1070 PUSH2 0x106B PUSH2 0x1066 DUP5 PUSH2 0xAAA JUMP JUMPDEST PUSH2 0x104B JUMP JUMPDEST PUSH2 0xAAA JUMP JUMPDEST SWAP1 POP SWAP2 SWAP1 POP JUMP JUMPDEST PUSH1 0x0 DUP2 SWAP1 POP SWAP2 SWAP1 POP JUMP JUMPDEST PUSH2 0x108A DUP4 PUSH2 0x1055 JUMP JUMPDEST PUSH2 0x109E PUSH2 0x1096 DUP3 PUSH2 0x1077 JUMP JUMPDEST DUP5 DUP5 SLOAD PUSH2 0xFF9 JUMP JUMPDEST DUP3 SSTORE POP POP POP POP JUMP JUMPDEST PUSH1 0x0 SWAP1 JUMP JUMPDEST PUSH2 0x10B3 PUSH2 0x10A6 JUMP JUMPDEST PUSH2 0x10BE DUP2 DUP5 DUP5 PUSH2 0x1081 JUMP JUMPDEST POP POP POP JUMP JUMPDEST JUMPDEST DUP2 DUP2 LT ISZERO PUSH2 0x10E2 JUMPI PUSH2 0x10D7 PUSH1 0x0 DUP3 PUSH2 0x10AB JUMP JUMPDEST PUSH1 0x1 DUP2 ADD SWAP1 POP PUSH2 0x10C4 JUMP JUMPDEST POP POP JUMP JUMPDEST PUSH1 0x1F DUP3 GT ISZERO PUSH2 0x1127 JUMPI PUSH2 0x10F8 DUP2 PUSH2 0xFC7 JUMP JUMPDEST PUSH2 0x1101 DUP5 PUSH2 0xFDC JUMP JUMPDEST DUP2 ADD PUSH1 0x20 DUP6 LT ISZERO PUSH2 0x1110 JUMPI DUP2 SWAP1 POP JUMPDEST PUSH2 0x1124 PUSH2 0x111C DUP6 PUSH2 0xFDC JUMP JUMPDEST DUP4 ADD DUP3 PUSH2 0x10C3 JUMP JUMPDEST POP POP JUMPDEST POP POP POP JUMP JUMPDEST PUSH1 0x0 DUP3 DUP3 SHR SWAP1 POP SWAP3 SWAP2 POP POP JUMP JUMPDEST PUSH1 0x0 PUSH2 0x114A PUSH1 0x0 NOT DUP5 PUSH1 0x8 MUL PUSH2 0x112C JUMP JUMPDEST NOT DUP1 DUP4 AND SWAP2 POP POP SWAP3 SWAP2 POP POP JUMP JUMPDEST PUSH1 0x0 PUSH2 0x1163 DUP4 DUP4 PUSH2 0x1139 JUMP JUMPDEST SWAP2 POP DUP3 PUSH1 0x2 MUL DUP3 OR SWAP1 POP SWAP3 SWAP2 POP POP JUMP JUMPDEST DUP2 DUP2 SUB PUSH2 0x1181 JUMPI POP POP PUSH2 0x1259 JUMP JUMPDEST PUSH2 0x118A DUP3 PUSH2 0xFB1 JUMP JUMPDEST PUSH8 0xFFFFFFFFFFFFFFFF DUP2 GT ISZERO PUSH2 0x11A3 JUMPI PUSH2 0x11A2 PUSH2 0xC92 JUMP JUMPDEST JUMPDEST PUSH2 0x11AD DUP3 SLOAD PUSH2 0xF03 JUMP JUMPDEST PUSH2 0x11B8 DUP3 DUP3 DUP6 PUSH2 0x10E6 JUMP JUMPDEST PUSH1 0x0 PUSH1 0x1F DUP4 GT PUSH1 0x1 DUP2 EQ PUSH2 0x11E7 JUMPI PUSH1 0x0 DUP5 ISZERO PUSH2 0x11D5 JUMPI DUP3 DUP8 ADD SLOAD SWAP1 POP JUMPDEST PUSH2 0x11DF DUP6 DUP3 PUSH2 0x1157 JUMP JUMPDEST DUP7 SSTORE POP PUSH2 0x1252 JUMP JUMPDEST PUSH1 0x1F NOT DUP5 AND PUSH2 0x11F5 DUP8 PUSH2 0xFC7 JUMP JUMPDEST SWAP7 POP PUSH2 0x1200 DUP7 PUSH2 0xFC7 JUMP JUMPDEST PUSH1 0x0 JUMPDEST DUP3 DUP2 LT ISZERO PUSH2 0x1228 JUMPI DUP5 DUP10 ADD SLOAD DUP3 SSTORE PUSH1 0x1 DUP3 ADD SWAP2 POP PUSH1 0x1 DUP6 ADD SWAP5 POP PUSH1 0x20 DUP2 ADD SWAP1 POP PUSH2 0x1203 JUMP JUMPDEST DUP7 DUP4 LT ISZERO PUSH2 0x1245 JUMPI DUP5 DUP10 ADD SLOAD PUSH2 0x1241 PUSH1 0x1F DUP10 AND DUP3 PUSH2 0x1139 JUMP JUMPDEST DUP4 SSTORE POP JUMPDEST PUSH1 0x1 PUSH1 0x2 DUP9 MUL ADD DUP9 SSTORE POP POP POP JUMPDEST POP POP POP POP POP POP JUMPDEST JUMP JUMPDEST PUSH2 0x1264 DUP3 PUSH2 0xA1A JUMP JUMPDEST PUSH8 0xFFFFFFFFFFFFFFFF DUP2 GT ISZERO PUSH2 0x127D JUMPI PUSH2 0x127C PUSH2 0xC92 JUMP JUMPDEST JUMPDEST PUSH2 0x1287 DUP3 SLOAD PUSH2 0xF03 JUMP JUMPDEST PUSH2 0x1292 DUP3 DUP3 DUP6 PUSH2 0x10E6 JUMP JUMPDEST PUSH1 0x0 PUSH1 0x20 SWAP1 POP PUSH1 0x1F DUP4 GT PUSH1 0x1 DUP2 EQ PUSH2 0x12C5 JUMPI PUSH1 0x0 DUP5 ISZERO PUSH2 0x12B3 JUMPI DUP3 DUP8 ADD MLOAD SWAP1 POP JUMPDEST PUSH2 0x12BD DUP6 DUP3 PUSH2 0x1157 JUMP JUMPDEST DUP7 SSTORE POP PUSH2 0x1325 JUMP JUMPDEST PUSH1 0x1F NOT DUP5 AND PUSH2 0x12D3 DUP7 PUSH2 0xFC7 JUMP JUMPDEST PUSH1 0x0 JUMPDEST DUP3 DUP2 LT ISZERO PUSH2 0x12FB JUMPI DUP5 DUP10 ADD MLOAD DUP3 SSTORE PUSH1 0x1 DUP3 ADD SWAP2 POP PUSH1 0x20 DUP6 ADD SWAP5 POP PUSH1 0x20 DUP2 ADD SWAP1 POP PUSH2 0x12D6 JUMP JUMPDEST DUP7 DUP4 LT ISZERO PUSH2 0x1318 JUMPI DUP5 DUP10 ADD MLOAD PUSH2 0x1314 PUSH1 0x1F DUP10 AND DUP3 PUSH2 0x1139 JUMP JUMPDEST DUP4 SSTORE POP JUMPDEST PUSH1 0x1 PUSH1 0x2 DUP9 MUL ADD DUP9 SSTORE POP POP POP JUMPDEST POP POP POP POP POP POP JUMP JUMPDEST PUSH32 0x4E487B7100000000000000000000000000000000000000000000000000000000 PUSH1 0x0 MSTORE PUSH1 0x11 PUSH1 0x4 MSTORE PUSH1 0x24 PUSH1 0x0 REVERT JUMPDEST PUSH1 0x0 PUSH2 0x1367 DUP3 PUSH2 0xAAA JUMP JUMPDEST SWAP2 POP PUSH32 0xFFFFFFFFFFFFFFFFFFFFFFFFFFFFFFFFFFFFFFFFFFFFFFFFFFFFFFFFFFFFFFFF DUP3 SUB PUSH2 0x1399 JUMPI PUSH2 0x1398 PUSH2 0x132D JUMP JUMPDEST JUMPDEST PUSH1 0x1 DUP3 ADD SWAP1 POP SWAP2 SWAP1 POP JUMP INVALID LOG2 PUSH5 0x6970667358 0x22 SLT KECCAK256 BALANCE REVERT 0x2A 0xA7 PUSH5 0x4E7DC31B1F 0xD2 CALLDATALOAD 0x5C 0xB7 SWAP10 PUSH17 0x7CBF10393ED059C0207F530400D9BE3164 PUSH20 0x6F6C634300081000330000000000000000000000 "},"gasEstimates":{"creation":{"codeDepositCost":"1016400","executionCost":"6060","totalCost":"1022460"},"external":{"findUser(address)":"infinite","getUsers()":"infinite","login(address)":"infinite","register(address,string,string)":"infinite"}},"methodIdentifiers":{"findUser(address)":"df9d9024","getUsers()":"00ce8e3e","login(address)":"35a6861a","register(address,string,string)":"8d59cc02"}},"storageLayout":{"storage":[{"astId":13,"contract":"UserContract.sol:UserContract","label":"instanceOfUserProfileStruct","offset":0,"slot":"0","type":"t_struct(UserProfileStruct)10_storage"},{"astId":16,"contract":"UserContract.sol:UserContract","label":"loggedInUser","offset":0,"slot":"4","type":"t_struct(UserProfileStruct)10_storage"},{"astId":20,"contract":"UserContract.sol:UserContract","label":"users","offset":0,"slot":"8","type":"t_array(t_struct(UserProfileStruct)10_storage)dyn_storage"},{"astId":25,"contract":"UserContract.sol:UserContract","label":"getUserFromAddress","offset":0,"slot":"9","type":"t_mapping(t_address,t_struct(UserProfileStruct)10_storage)"},{"astId":28,"contract":"UserContract.sol:UserContract","label":"userIndex","offset":0,"slot":"10","type":"t_uint256"},{"astId":33,"contract":"UserContract.sol:UserContract","label":"getUserFromIndex","offset":0,"slot":"11","type":"t_mapping(t_uint256,t_struct(UserProfileStruct)10_storage)"},{"astId":37,"contract":"UserContract.sol:UserContract","label":"userExist","offset":0,"slot":"12","type":"t_mapping(t_address,t_bool)"}],"types":{"t_address":{"encoding":"inplace","label":"address","numberOfBytes":"20"},"t_array(t_struct(UserProfileStruct)10_storage)dyn_storage":{"base":"t_struct(UserProfileStruct)10_storage","encoding":"dynamic_array","label":"struct UserContract.UserProfileStruct[]","numberOfBytes":"32"},"t_bool":{"encoding":"inplace","label":"bool","numberOfBytes":"1"},"t_mapping(t_address,t_bool)":{"encoding":"mapping","key":"t_address","label":"mapping(address => bool)","numberOfBytes":"32","value":"t_bool"},"t_mapping(t_address,t_struct(UserProfileStruct)10_storage)":{"encoding":"mapping","key":"t_address","label":"mapping(address => struct UserContract.UserProfileStruct)","numberOfBytes":"32","value":"t_struct(UserProfileStruct)10_storage"},"t_mapping(t_uint256,t_struct(UserProfileStruct)10_storage)":{"encoding":"mapping","key":"t_uint256","label":"mapping(uint256 => struct UserContract.UserProfileStruct)","numberOfBytes":"32","value":"t_struct(UserProfileStruct)10_storage"},"t_string_storage":{"encoding":"bytes","label":"string","numberOfBytes":"32"},"t_struct(UserProfileStruct)10_storage":{"encoding":"inplace","label":"struct UserContract.UserProfileStruct","members":[{"astId":3,"contract":"UserContract.sol:UserContract","label":"userAddress","offset":0,"slot":"0","type":"t_address"},{"astId":5,"contract":"UserContract.sol:UserContract","label":"userName","offset":0,"slot":"1","type":"t_string_storage"},{"astId":7,"contract":"UserContract.sol:UserContract","label":"userEmail","offset":0,"slot":"2","type":"t_string_storage"},{"astId":9,"contract":"UserContract.sol:UserContract","label":"userIndex","offset":0,"slot":"3","type":"t_uint256"}],"numberOfBytes":"128"},"t_uint256":{"encoding":"inplace","label":"uint256","numberOfBytes":"32"}}},"userdoc":{"kind":"user","methods":{},"version":1}}