{
  "abi": [
    {
      "inputs": [
        {
          "internalType": "address payable",
          "name": "_postCreator",
          "type": "address"
        },
        {
          "internalType": "string",
          "name": "_postText",
          "type": "string"
        },
        {
          "internalType": "string",
          "name": "_postDate",
          "type": "string"
        },
        {
          "internalType": "uint256",
          "name": "_requestedAmount",
          "type": "uint256"
        }
      ],
      "name": "createPost",
      "outputs": [],
      "stateMutability": "nonpayable",
      "type": "function"
    },
    {
      "inputs": [
        {
          "internalType": "uint256",
          "name": "index",
          "type": "uint256"
        }
      ],
      "name": "donate",
      "outputs": [],
      "stateMutability": "payable",
      "type": "function"
    },
    {
      "inputs": [
        {
          "internalType": "bool",
          "name": "ongoing",
          "type": "bool"
        }
      ],
      "name": "getDonations",
      "outputs": [
        {
          "components": [
            {
              "internalType": "address payable",
              "name": "postCreator",
              "type": "address"
            },
            {
              "internalType": "string",
              "name": "postText",
              "type": "string"
            },
            {
              "internalType": "string",
              "name": "postDate",
              "type": "string"
            },
            {
              "internalType": "uint256",
              "name": "requestedAmount",
              "type": "uint256"
            },
            {
              "internalType": "uint256",
              "name": "receivedAmount",
              "type": "uint256"
            },
            {
              "components": [
                {
                  "internalType": "address",
                  "name": "donatorAddress",
                  "type": "address"
                },
                {
                  "internalType": "uint256",
                  "name": "donatedAmount",
                  "type": "uint256"
                }
              ],
              "internalType": "struct DonationContract.DonatorStruct[]",
              "name": "donators",
              "type": "tuple[]"
            },
            {
              "internalType": "uint256",
              "name": "postIndex",
              "type": "uint256"
            }
          ],
          "internalType": "struct DonationContract.DonationStruct[]",
          "name": "",
          "type": "tuple[]"
        }
      ],
      "stateMutability": "view",
      "type": "function"
    },
    {
      "inputs": [
        {
          "internalType": "uint256",
          "name": "index",
          "type": "uint256"
        },
        {
          "internalType": "bool",
          "name": "ongoing",
          "type": "bool"
        }
      ],
      "name": "getDonatorsOfPost",
      "outputs": [
        {
          "components": [
            {
              "internalType": "address",
              "name": "donatorAddress",
              "type": "address"
            },
            {
              "internalType": "uint256",
              "name": "donatedAmount",
              "type": "uint256"
            }
          ],
          "internalType": "struct DonationContract.DonatorStruct[]",
          "name": "",
          "type": "tuple[]"
        }
      ],
      "stateMutability": "view",
      "type": "function"
    },
    {
      "inputs": [
        {
          "internalType": "uint256",
          "name": "index",
          "type": "uint256"
        },
        {
          "internalType": "bool",
          "name": "ongoing",
          "type": "bool"
        }
      ],
      "name": "getSingleDonation",
      "outputs": [
        {
          "components": [
            {
              "internalType": "address payable",
              "name": "postCreator",
              "type": "address"
            },
            {
              "internalType": "string",
              "name": "postText",
              "type": "string"
            },
            {
              "internalType": "string",
              "name": "postDate",
              "type": "string"
            },
            {
              "internalType": "uint256",
              "name": "requestedAmount",
              "type": "uint256"
            },
            {
              "internalType": "uint256",
              "name": "receivedAmount",
              "type": "uint256"
            },
            {
              "components": [
                {
                  "internalType": "address",
                  "name": "donatorAddress",
                  "type": "address"
                },
                {
                  "internalType": "uint256",
                  "name": "donatedAmount",
                  "type": "uint256"
                }
              ],
              "internalType": "struct DonationContract.DonatorStruct[]",
              "name": "donators",
              "type": "tuple[]"
            },
            {
              "internalType": "uint256",
              "name": "postIndex",
              "type": "uint256"
            }
          ],
          "internalType": "struct DonationContract.DonationStruct",
          "name": "",
          "type": "tuple"
        }
      ],
      "stateMutability": "view",
      "type": "function"
    }
  ],
  "devdoc": {
    "kind": "dev",
    "methods": {},
    "version": 1
  },
  "evm": {
    "assembly": "    /* \"DonationContract.sol\":60:4722  contract DonationContract {... */\n  mstore(0x40, 0x80)\n    /* \"DonationContract.sol\":857:858  0 */\n  0x00\n    /* \"DonationContract.sol\":834:858  uint256 ongoingIndex = 0 */\n  0x0b\n  sstore\n    /* \"DonationContract.sol\":931:932  0 */\n  0x00\n    /* \"DonationContract.sol\":907:932  uint256 finishedIndex = 0 */\n  0x0c\n  sstore\n    /* \"DonationContract.sol\":60:4722  contract DonationContract {... */\n  callvalue\n  dup1\n  iszero\n  tag_1\n  jumpi\n  0x00\n  dup1\n  revert\ntag_1:\n  pop\n  dataSize(sub_0)\n  dup1\n  dataOffset(sub_0)\n  0x00\n  codecopy\n  0x00\n  return\nstop\n\nsub_0: assembly {\n        /* \"DonationContract.sol\":60:4722  contract DonationContract {... */\n      mstore(0x40, 0x80)\n      jumpi(tag_1, lt(calldatasize, 0x04))\n      shr(0xe0, calldataload(0x00))\n      dup1\n      0x1788db6b\n      eq\n      tag_2\n      jumpi\n      dup1\n      0x65d054fd\n      eq\n      tag_3\n      jumpi\n      dup1\n      0x67c59b56\n      eq\n      tag_4\n      jumpi\n      dup1\n      0x7c64cff1\n      eq\n      tag_5\n      jumpi\n      dup1\n      0xf14faf6f\n      eq\n      tag_6\n      jumpi\n    tag_1:\n      0x00\n      dup1\n      revert\n        /* \"DonationContract.sol\":2644:2925  function getDonatorsOfPost(uint256 index, bool ongoing)... */\n    tag_2:\n      callvalue\n      dup1\n      iszero\n      tag_7\n      jumpi\n      0x00\n      dup1\n      revert\n    tag_7:\n      pop\n      tag_8\n      0x04\n      dup1\n      calldatasize\n      sub\n      dup2\n      add\n      swap1\n      tag_9\n      swap2\n      swap1\n      tag_10\n      jump\t// in\n    tag_9:\n      tag_11\n      jump\t// in\n    tag_8:\n      mload(0x40)\n      tag_12\n      swap2\n      swap1\n      tag_13\n      jump\t// in\n    tag_12:\n      mload(0x40)\n      dup1\n      swap2\n      sub\n      swap1\n      return\n        /* \"DonationContract.sol\":2070:2300  function getDonations(bool ongoing)... */\n    tag_3:\n      callvalue\n      dup1\n      iszero\n      tag_14\n      jumpi\n      0x00\n      dup1\n      revert\n    tag_14:\n      pop\n      tag_15\n      0x04\n      dup1\n      calldatasize\n      sub\n      dup2\n      add\n      swap1\n      tag_16\n      swap2\n      swap1\n      tag_17\n      jump\t// in\n    tag_16:\n      tag_18\n      jump\t// in\n    tag_15:\n      mload(0x40)\n      tag_19\n      swap2\n      swap1\n      tag_20\n      jump\t// in\n    tag_19:\n      mload(0x40)\n      dup1\n      swap2\n      sub\n      swap1\n      return\n        /* \"DonationContract.sol\":2350:2612  function getSingleDonation(uint256 index, bool ongoing)... */\n    tag_4:\n      callvalue\n      dup1\n      iszero\n      tag_21\n      jumpi\n      0x00\n      dup1\n      revert\n    tag_21:\n      pop\n      tag_22\n      0x04\n      dup1\n      calldatasize\n      sub\n      dup2\n      add\n      swap1\n      tag_23\n      swap2\n      swap1\n      tag_10\n      jump\t// in\n    tag_23:\n      tag_24\n      jump\t// in\n    tag_22:\n      mload(0x40)\n      tag_25\n      swap2\n      swap1\n      tag_26\n      jump\t// in\n    tag_25:\n      mload(0x40)\n      dup1\n      swap2\n      sub\n      swap1\n      return\n        /* \"DonationContract.sol\":964:2033  function createPost(... */\n    tag_5:\n      callvalue\n      dup1\n      iszero\n      tag_27\n      jumpi\n      0x00\n      dup1\n      revert\n    tag_27:\n      pop\n      tag_28\n      0x04\n      dup1\n      calldatasize\n      sub\n      dup2\n      add\n      swap1\n      tag_29\n      swap2\n      swap1\n      tag_30\n      jump\t// in\n    tag_29:\n      tag_31\n      jump\t// in\n    tag_28:\n      stop\n        /* \"DonationContract.sol\":2957:4719  function donate(uint256 index) public payable {... */\n    tag_6:\n      tag_32\n      0x04\n      dup1\n      calldatasize\n      sub\n      dup2\n      add\n      swap1\n      tag_33\n      swap2\n      swap1\n      tag_34\n      jump\t// in\n    tag_33:\n      tag_35\n      jump\t// in\n    tag_32:\n      stop\n        /* \"DonationContract.sol\":2644:2925  function getDonatorsOfPost(uint256 index, bool ongoing)... */\n    tag_11:\n        /* \"DonationContract.sol\":2748:2770  DonatorStruct[] memory */\n      0x60\n        /* \"DonationContract.sol\":2792:2799  ongoing */\n      dup2\n        /* \"DonationContract.sol\":2788:2867  if (ongoing) {... */\n      iszero\n      tag_37\n      jumpi\n        /* \"DonationContract.sol\":2823:2839  ongoingDonations */\n      0x0a\n        /* \"DonationContract.sol\":2840:2845  index */\n      dup4\n        /* \"DonationContract.sol\":2823:2846  ongoingDonations[index] */\n      dup2\n      sload\n      dup2\n      lt\n      tag_38\n      jumpi\n      tag_39\n      tag_40\n      jump\t// in\n    tag_39:\n    tag_38:\n      swap1\n      0x00\n      mstore\n      keccak256(0x00, 0x20)\n      swap1\n      0x07\n      mul\n      add\n        /* \"DonationContract.sol\":2823:2855  ongoingDonations[index].donators */\n      0x05\n      add\n        /* \"DonationContract.sol\":2816:2855  return ongoingDonations[index].donators */\n      dup1\n      sload\n      dup1\n      0x20\n      mul\n      0x20\n      add\n      mload(0x40)\n      swap1\n      dup2\n      add\n      0x40\n      mstore\n      dup1\n      swap3\n      swap2\n      swap1\n      dup2\n      dup2\n      mstore\n      0x20\n      add\n      0x00\n      swap1\n    tag_42:\n      dup3\n      dup3\n      lt\n      iszero\n      tag_43\n      jumpi\n      dup4\n      dup3\n      swap1\n      0x00\n      mstore\n      keccak256(0x00, 0x20)\n      swap1\n      0x02\n      mul\n      add\n      mload(0x40)\n      dup1\n      0x40\n      add\n      0x40\n      mstore\n      swap1\n      dup2\n      0x00\n      dup3\n      add\n      0x00\n      swap1\n      sload\n      swap1\n      0x0100\n      exp\n      swap1\n      div\n      0xffffffffffffffffffffffffffffffffffffffff\n      and\n      0xffffffffffffffffffffffffffffffffffffffff\n      and\n      0xffffffffffffffffffffffffffffffffffffffff\n      and\n      dup2\n      mstore\n      0x20\n      add\n      0x01\n      dup3\n      add\n      sload\n      dup2\n      mstore\n      pop\n      pop\n      dup2\n      mstore\n      0x20\n      add\n      swap1\n      0x01\n      add\n      swap1\n      jump(tag_42)\n    tag_43:\n      pop\n      pop\n      pop\n      pop\n      swap1\n      pop\n      jump(tag_36)\n        /* \"DonationContract.sol\":2788:2867  if (ongoing) {... */\n    tag_37:\n        /* \"DonationContract.sol\":2884:2901  finishedDonations */\n      0x09\n        /* \"DonationContract.sol\":2902:2907  index */\n      dup4\n        /* \"DonationContract.sol\":2884:2908  finishedDonations[index] */\n      dup2\n      sload\n      dup2\n      lt\n      tag_45\n      jumpi\n      tag_46\n      tag_40\n      jump\t// in\n    tag_46:\n    tag_45:\n      swap1\n      0x00\n      mstore\n      keccak256(0x00, 0x20)\n      swap1\n      0x07\n      mul\n      add\n        /* \"DonationContract.sol\":2884:2917  finishedDonations[index].donators */\n      0x05\n      add\n        /* \"DonationContract.sol\":2877:2917  return finishedDonations[index].donators */\n      dup1\n      sload\n      dup1\n      0x20\n      mul\n      0x20\n      add\n      mload(0x40)\n      swap1\n      dup2\n      add\n      0x40\n      mstore\n      dup1\n      swap3\n      swap2\n      swap1\n      dup2\n      dup2\n      mstore\n      0x20\n      add\n      0x00\n      swap1\n    tag_48:\n      dup3\n      dup3\n      lt\n      iszero\n      tag_49\n      jumpi\n      dup4\n      dup3\n      swap1\n      0x00\n      mstore\n      keccak256(0x00, 0x20)\n      swap1\n      0x02\n      mul\n      add\n      mload(0x40)\n      dup1\n      0x40\n      add\n      0x40\n      mstore\n      swap1\n      dup2\n      0x00\n      dup3\n      add\n      0x00\n      swap1\n      sload\n      swap1\n      0x0100\n      exp\n      swap1\n      div\n      0xffffffffffffffffffffffffffffffffffffffff\n      and\n      0xffffffffffffffffffffffffffffffffffffffff\n      and\n      0xffffffffffffffffffffffffffffffffffffffff\n      and\n      dup2\n      mstore\n      0x20\n      add\n      0x01\n      dup3\n      add\n      sload\n      dup2\n      mstore\n      pop\n      pop\n      dup2\n      mstore\n      0x20\n      add\n      swap1\n      0x01\n      add\n      swap1\n      jump(tag_48)\n    tag_49:\n      pop\n      pop\n      pop\n      pop\n      swap1\n      pop\n        /* \"DonationContract.sol\":2644:2925  function getDonatorsOfPost(uint256 index, bool ongoing)... */\n    tag_36:\n      swap3\n      swap2\n      pop\n      pop\n      jump\t// out\n        /* \"DonationContract.sol\":2070:2300  function getDonations(bool ongoing)... */\n    tag_18:\n        /* \"DonationContract.sol\":2154:2177  DonationStruct[] memory */\n      0x60\n        /* \"DonationContract.sol\":2199:2206  ongoing */\n      dup2\n        /* \"DonationContract.sol\":2195:2258  if (ongoing) {... */\n      iszero\n      tag_52\n      jumpi\n        /* \"DonationContract.sol\":2230:2246  ongoingDonations */\n      0x0a\n        /* \"DonationContract.sol\":2223:2246  return ongoingDonations */\n      dup1\n      sload\n      dup1\n      0x20\n      mul\n      0x20\n      add\n      mload(0x40)\n      swap1\n      dup2\n      add\n      0x40\n      mstore\n      dup1\n      swap3\n      swap2\n      swap1\n      dup2\n      dup2\n      mstore\n      0x20\n      add\n      0x00\n      swap1\n    tag_53:\n      dup3\n      dup3\n      lt\n      iszero\n      tag_54\n      jumpi\n      dup4\n      dup3\n      swap1\n      0x00\n      mstore\n      keccak256(0x00, 0x20)\n      swap1\n      0x07\n      mul\n      add\n      mload(0x40)\n      dup1\n      0xe0\n      add\n      0x40\n      mstore\n      swap1\n      dup2\n      0x00\n      dup3\n      add\n      0x00\n      swap1\n      sload\n      swap1\n      0x0100\n      exp\n      swap1\n      div\n      0xffffffffffffffffffffffffffffffffffffffff\n      and\n      0xffffffffffffffffffffffffffffffffffffffff\n      and\n      0xffffffffffffffffffffffffffffffffffffffff\n      and\n      dup2\n      mstore\n      0x20\n      add\n      0x01\n      dup3\n      add\n      dup1\n      sload\n      tag_56\n      swap1\n      tag_57\n      jump\t// in\n    tag_56:\n      dup1\n      0x1f\n      add\n      0x20\n      dup1\n      swap2\n      div\n      mul\n      0x20\n      add\n      mload(0x40)\n      swap1\n      dup2\n      add\n      0x40\n      mstore\n      dup1\n      swap3\n      swap2\n      swap1\n      dup2\n      dup2\n      mstore\n      0x20\n      add\n      dup3\n      dup1\n      sload\n      tag_58\n      swap1\n      tag_57\n      jump\t// in\n    tag_58:\n      dup1\n      iszero\n      tag_59\n      jumpi\n      dup1\n      0x1f\n      lt\n      tag_60\n      jumpi\n      0x0100\n      dup1\n      dup4\n      sload\n      div\n      mul\n      dup4\n      mstore\n      swap2\n      0x20\n      add\n      swap2\n      jump(tag_59)\n    tag_60:\n      dup3\n      add\n      swap2\n      swap1\n      0x00\n      mstore\n      keccak256(0x00, 0x20)\n      swap1\n    tag_61:\n      dup2\n      sload\n      dup2\n      mstore\n      swap1\n      0x01\n      add\n      swap1\n      0x20\n      add\n      dup1\n      dup4\n      gt\n      tag_61\n      jumpi\n      dup3\n      swap1\n      sub\n      0x1f\n      and\n      dup3\n      add\n      swap2\n    tag_59:\n      pop\n      pop\n      pop\n      pop\n      pop\n      dup2\n      mstore\n      0x20\n      add\n      0x02\n      dup3\n      add\n      dup1\n      sload\n      tag_62\n      swap1\n      tag_57\n      jump\t// in\n    tag_62:\n      dup1\n      0x1f\n      add\n      0x20\n      dup1\n      swap2\n      div\n      mul\n      0x20\n      add\n      mload(0x40)\n      swap1\n      dup2\n      add\n      0x40\n      mstore\n      dup1\n      swap3\n      swap2\n      swap1\n      dup2\n      dup2\n      mstore\n      0x20\n      add\n      dup3\n      dup1\n      sload\n      tag_63\n      swap1\n      tag_57\n      jump\t// in\n    tag_63:\n      dup1\n      iszero\n      tag_64\n      jumpi\n      dup1\n      0x1f\n      lt\n      tag_65\n      jumpi\n      0x0100\n      dup1\n      dup4\n      sload\n      div\n      mul\n      dup4\n      mstore\n      swap2\n      0x20\n      add\n      swap2\n      jump(tag_64)\n    tag_65:\n      dup3\n      add\n      swap2\n      swap1\n      0x00\n      mstore\n      keccak256(0x00, 0x20)\n      swap1\n    tag_66:\n      dup2\n      sload\n      dup2\n      mstore\n      swap1\n      0x01\n      add\n      swap1\n      0x20\n      add\n      dup1\n      dup4\n      gt\n      tag_66\n      jumpi\n      dup3\n      swap1\n      sub\n      0x1f\n      and\n      dup3\n      add\n      swap2\n    tag_64:\n      pop\n      pop\n      pop\n      pop\n      pop\n      dup2\n      mstore\n      0x20\n      add\n      0x03\n      dup3\n      add\n      sload\n      dup2\n      mstore\n      0x20\n      add\n      0x04\n      dup3\n      add\n      sload\n      dup2\n      mstore\n      0x20\n      add\n      0x05\n      dup3\n      add\n      dup1\n      sload\n      dup1\n      0x20\n      mul\n      0x20\n      add\n      mload(0x40)\n      swap1\n      dup2\n      add\n      0x40\n      mstore\n      dup1\n      swap3\n      swap2\n      swap1\n      dup2\n      dup2\n      mstore\n      0x20\n      add\n      0x00\n      swap1\n    tag_67:\n      dup3\n      dup3\n      lt\n      iszero\n      tag_68\n      jumpi\n      dup4\n      dup3\n      swap1\n      0x00\n      mstore\n      keccak256(0x00, 0x20)\n      swap1\n      0x02\n      mul\n      add\n      mload(0x40)\n      dup1\n      0x40\n      add\n      0x40\n      mstore\n      swap1\n      dup2\n      0x00\n      dup3\n      add\n      0x00\n      swap1\n      sload\n      swap1\n      0x0100\n      exp\n      swap1\n      div\n      0xffffffffffffffffffffffffffffffffffffffff\n      and\n      0xffffffffffffffffffffffffffffffffffffffff\n      and\n      0xffffffffffffffffffffffffffffffffffffffff\n      and\n      dup2\n      mstore\n      0x20\n      add\n      0x01\n      dup3\n      add\n      sload\n      dup2\n      mstore\n      pop\n      pop\n      dup2\n      mstore\n      0x20\n      add\n      swap1\n      0x01\n      add\n      swap1\n      jump(tag_67)\n    tag_68:\n      pop\n      pop\n      pop\n      pop\n      dup2\n      mstore\n      0x20\n      add\n      0x06\n      dup3\n      add\n      sload\n      dup2\n      mstore\n      pop\n      pop\n      dup2\n      mstore\n      0x20\n      add\n      swap1\n      0x01\n      add\n      swap1\n      jump(tag_53)\n    tag_54:\n      pop\n      pop\n      pop\n      pop\n      swap1\n      pop\n      jump(tag_51)\n        /* \"DonationContract.sol\":2195:2258  if (ongoing) {... */\n    tag_52:\n        /* \"DonationContract.sol\":2275:2292  finishedDonations */\n      0x09\n        /* \"DonationContract.sol\":2268:2292  return finishedDonations */\n      dup1\n      sload\n      dup1\n      0x20\n      mul\n      0x20\n      add\n      mload(0x40)\n      swap1\n      dup2\n      add\n      0x40\n      mstore\n      dup1\n      swap3\n      swap2\n      swap1\n      dup2\n      dup2\n      mstore\n      0x20\n      add\n      0x00\n      swap1\n    tag_70:\n      dup3\n      dup3\n      lt\n      iszero\n      tag_71\n      jumpi\n      dup4\n      dup3\n      swap1\n      0x00\n      mstore\n      keccak256(0x00, 0x20)\n      swap1\n      0x07\n      mul\n      add\n      mload(0x40)\n      dup1\n      0xe0\n      add\n      0x40\n      mstore\n      swap1\n      dup2\n      0x00\n      dup3\n      add\n      0x00\n      swap1\n      sload\n      swap1\n      0x0100\n      exp\n      swap1\n      div\n      0xffffffffffffffffffffffffffffffffffffffff\n      and\n      0xffffffffffffffffffffffffffffffffffffffff\n      and\n      0xffffffffffffffffffffffffffffffffffffffff\n      and\n      dup2\n      mstore\n      0x20\n      add\n      0x01\n      dup3\n      add\n      dup1\n      sload\n      tag_73\n      swap1\n      tag_57\n      jump\t// in\n    tag_73:\n      dup1\n      0x1f\n      add\n      0x20\n      dup1\n      swap2\n      div\n      mul\n      0x20\n      add\n      mload(0x40)\n      swap1\n      dup2\n      add\n      0x40\n      mstore\n      dup1\n      swap3\n      swap2\n      swap1\n      dup2\n      dup2\n      mstore\n      0x20\n      add\n      dup3\n      dup1\n      sload\n      tag_74\n      swap1\n      tag_57\n      jump\t// in\n    tag_74:\n      dup1\n      iszero\n      tag_75\n      jumpi\n      dup1\n      0x1f\n      lt\n      tag_76\n      jumpi\n      0x0100\n      dup1\n      dup4\n      sload\n      div\n      mul\n      dup4\n      mstore\n      swap2\n      0x20\n      add\n      swap2\n      jump(tag_75)\n    tag_76:\n      dup3\n      add\n      swap2\n      swap1\n      0x00\n      mstore\n      keccak256(0x00, 0x20)\n      swap1\n    tag_77:\n      dup2\n      sload\n      dup2\n      mstore\n      swap1\n      0x01\n      add\n      swap1\n      0x20\n      add\n      dup1\n      dup4\n      gt\n      tag_77\n      jumpi\n      dup3\n      swap1\n      sub\n      0x1f\n      and\n      dup3\n      add\n      swap2\n    tag_75:\n      pop\n      pop\n      pop\n      pop\n      pop\n      dup2\n      mstore\n      0x20\n      add\n      0x02\n      dup3\n      add\n      dup1\n      sload\n      tag_78\n      swap1\n      tag_57\n      jump\t// in\n    tag_78:\n      dup1\n      0x1f\n      add\n      0x20\n      dup1\n      swap2\n      div\n      mul\n      0x20\n      add\n      mload(0x40)\n      swap1\n      dup2\n      add\n      0x40\n      mstore\n      dup1\n      swap3\n      swap2\n      swap1\n      dup2\n      dup2\n      mstore\n      0x20\n      add\n      dup3\n      dup1\n      sload\n      tag_79\n      swap1\n      tag_57\n      jump\t// in\n    tag_79:\n      dup1\n      iszero\n      tag_80\n      jumpi\n      dup1\n      0x1f\n      lt\n      tag_81\n      jumpi\n      0x0100\n      dup1\n      dup4\n      sload\n      div\n      mul\n      dup4\n      mstore\n      swap2\n      0x20\n      add\n      swap2\n      jump(tag_80)\n    tag_81:\n      dup3\n      add\n      swap2\n      swap1\n      0x00\n      mstore\n      keccak256(0x00, 0x20)\n      swap1\n    tag_82:\n      dup2\n      sload\n      dup2\n      mstore\n      swap1\n      0x01\n      add\n      swap1\n      0x20\n      add\n      dup1\n      dup4\n      gt\n      tag_82\n      jumpi\n      dup3\n      swap1\n      sub\n      0x1f\n      and\n      dup3\n      add\n      swap2\n    tag_80:\n      pop\n      pop\n      pop\n      pop\n      pop\n      dup2\n      mstore\n      0x20\n      add\n      0x03\n      dup3\n      add\n      sload\n      dup2\n      mstore\n      0x20\n      add\n      0x04\n      dup3\n      add\n      sload\n      dup2\n      mstore\n      0x20\n      add\n      0x05\n      dup3\n      add\n      dup1\n      sload\n      dup1\n      0x20\n      mul\n      0x20\n      add\n      mload(0x40)\n      swap1\n      dup2\n      add\n      0x40\n      mstore\n      dup1\n      swap3\n      swap2\n      swap1\n      dup2\n      dup2\n      mstore\n      0x20\n      add\n      0x00\n      swap1\n    tag_83:\n      dup3\n      dup3\n      lt\n      iszero\n      tag_84\n      jumpi\n      dup4\n      dup3\n      swap1\n      0x00\n      mstore\n      keccak256(0x00, 0x20)\n      swap1\n      0x02\n      mul\n      add\n      mload(0x40)\n      dup1\n      0x40\n      add\n      0x40\n      mstore\n      swap1\n      dup2\n      0x00\n      dup3\n      add\n      0x00\n      swap1\n      sload\n      swap1\n      0x0100\n      exp\n      swap1\n      div\n      0xffffffffffffffffffffffffffffffffffffffff\n      and\n      0xffffffffffffffffffffffffffffffffffffffff\n      and\n      0xffffffffffffffffffffffffffffffffffffffff\n      and\n      dup2\n      mstore\n      0x20\n      add\n      0x01\n      dup3\n      add\n      sload\n      dup2\n      mstore\n      pop\n      pop\n      dup2\n      mstore\n      0x20\n      add\n      swap1\n      0x01\n      add\n      swap1\n      jump(tag_83)\n    tag_84:\n      pop\n      pop\n      pop\n      pop\n      dup2\n      mstore\n      0x20\n      add\n      0x06\n      dup3\n      add\n      sload\n      dup2\n      mstore\n      pop\n      pop\n      dup2\n      mstore\n      0x20\n      add\n      swap1\n      0x01\n      add\n      swap1\n      jump(tag_70)\n    tag_71:\n      pop\n      pop\n      pop\n      pop\n      swap1\n      pop\n        /* \"DonationContract.sol\":2070:2300  function getDonations(bool ongoing)... */\n    tag_51:\n      swap2\n      swap1\n      pop\n      jump\t// out\n        /* \"DonationContract.sol\":2350:2612  function getSingleDonation(uint256 index, bool ongoing)... */\n    tag_24:\n        /* \"DonationContract.sol\":2454:2475  DonationStruct memory */\n      tag_86\n      tag_87\n      jump\t// in\n    tag_86:\n        /* \"DonationContract.sol\":2497:2504  ongoing */\n      dup2\n        /* \"DonationContract.sol\":2493:2563  if (ongoing) {... */\n      iszero\n      tag_89\n      jumpi\n        /* \"DonationContract.sol\":2528:2544  ongoingDonations */\n      0x0a\n        /* \"DonationContract.sol\":2545:2550  index */\n      dup4\n        /* \"DonationContract.sol\":2528:2551  ongoingDonations[index] */\n      dup2\n      sload\n      dup2\n      lt\n      tag_90\n      jumpi\n      tag_91\n      tag_40\n      jump\t// in\n    tag_91:\n    tag_90:\n      swap1\n      0x00\n      mstore\n      keccak256(0x00, 0x20)\n      swap1\n      0x07\n      mul\n      add\n        /* \"DonationContract.sol\":2521:2551  return ongoingDonations[index] */\n      mload(0x40)\n      dup1\n      0xe0\n      add\n      0x40\n      mstore\n      swap1\n      dup2\n      0x00\n      dup3\n      add\n      0x00\n      swap1\n      sload\n      swap1\n      0x0100\n      exp\n      swap1\n      div\n      0xffffffffffffffffffffffffffffffffffffffff\n      and\n      0xffffffffffffffffffffffffffffffffffffffff\n      and\n      0xffffffffffffffffffffffffffffffffffffffff\n      and\n      dup2\n      mstore\n      0x20\n      add\n      0x01\n      dup3\n      add\n      dup1\n      sload\n      tag_93\n      swap1\n      tag_57\n      jump\t// in\n    tag_93:\n      dup1\n      0x1f\n      add\n      0x20\n      dup1\n      swap2\n      div\n      mul\n      0x20\n      add\n      mload(0x40)\n      swap1\n      dup2\n      add\n      0x40\n      mstore\n      dup1\n      swap3\n      swap2\n      swap1\n      dup2\n      dup2\n      mstore\n      0x20\n      add\n      dup3\n      dup1\n      sload\n      tag_94\n      swap1\n      tag_57\n      jump\t// in\n    tag_94:\n      dup1\n      iszero\n      tag_95\n      jumpi\n      dup1\n      0x1f\n      lt\n      tag_96\n      jumpi\n      0x0100\n      dup1\n      dup4\n      sload\n      div\n      mul\n      dup4\n      mstore\n      swap2\n      0x20\n      add\n      swap2\n      jump(tag_95)\n    tag_96:\n      dup3\n      add\n      swap2\n      swap1\n      0x00\n      mstore\n      keccak256(0x00, 0x20)\n      swap1\n    tag_97:\n      dup2\n      sload\n      dup2\n      mstore\n      swap1\n      0x01\n      add\n      swap1\n      0x20\n      add\n      dup1\n      dup4\n      gt\n      tag_97\n      jumpi\n      dup3\n      swap1\n      sub\n      0x1f\n      and\n      dup3\n      add\n      swap2\n    tag_95:\n      pop\n      pop\n      pop\n      pop\n      pop\n      dup2\n      mstore\n      0x20\n      add\n      0x02\n      dup3\n      add\n      dup1\n      sload\n      tag_98\n      swap1\n      tag_57\n      jump\t// in\n    tag_98:\n      dup1\n      0x1f\n      add\n      0x20\n      dup1\n      swap2\n      div\n      mul\n      0x20\n      add\n      mload(0x40)\n      swap1\n      dup2\n      add\n      0x40\n      mstore\n      dup1\n      swap3\n      swap2\n      swap1\n      dup2\n      dup2\n      mstore\n      0x20\n      add\n      dup3\n      dup1\n      sload\n      tag_99\n      swap1\n      tag_57\n      jump\t// in\n    tag_99:\n      dup1\n      iszero\n      tag_100\n      jumpi\n      dup1\n      0x1f\n      lt\n      tag_101\n      jumpi\n      0x0100\n      dup1\n      dup4\n      sload\n      div\n      mul\n      dup4\n      mstore\n      swap2\n      0x20\n      add\n      swap2\n      jump(tag_100)\n    tag_101:\n      dup3\n      add\n      swap2\n      swap1\n      0x00\n      mstore\n      keccak256(0x00, 0x20)\n      swap1\n    tag_102:\n      dup2\n      sload\n      dup2\n      mstore\n      swap1\n      0x01\n      add\n      swap1\n      0x20\n      add\n      dup1\n      dup4\n      gt\n      tag_102\n      jumpi\n      dup3\n      swap1\n      sub\n      0x1f\n      and\n      dup3\n      add\n      swap2\n    tag_100:\n      pop\n      pop\n      pop\n      pop\n      pop\n      dup2\n      mstore\n      0x20\n      add\n      0x03\n      dup3\n      add\n      sload\n      dup2\n      mstore\n      0x20\n      add\n      0x04\n      dup3\n      add\n      sload\n      dup2\n      mstore\n      0x20\n      add\n      0x05\n      dup3\n      add\n      dup1\n      sload\n      dup1\n      0x20\n      mul\n      0x20\n      add\n      mload(0x40)\n      swap1\n      dup2\n      add\n      0x40\n      mstore\n      dup1\n      swap3\n      swap2\n      swap1\n      dup2\n      dup2\n      mstore\n      0x20\n      add\n      0x00\n      swap1\n    tag_103:\n      dup3\n      dup3\n      lt\n      iszero\n      tag_104\n      jumpi\n      dup4\n      dup3\n      swap1\n      0x00\n      mstore\n      keccak256(0x00, 0x20)\n      swap1\n      0x02\n      mul\n      add\n      mload(0x40)\n      dup1\n      0x40\n      add\n      0x40\n      mstore\n      swap1\n      dup2\n      0x00\n      dup3\n      add\n      0x00\n      swap1\n      sload\n      swap1\n      0x0100\n      exp\n      swap1\n      div\n      0xffffffffffffffffffffffffffffffffffffffff\n      and\n      0xffffffffffffffffffffffffffffffffffffffff\n      and\n      0xffffffffffffffffffffffffffffffffffffffff\n      and\n      dup2\n      mstore\n      0x20\n      add\n      0x01\n      dup3\n      add\n      sload\n      dup2\n      mstore\n      pop\n      pop\n      dup2\n      mstore\n      0x20\n      add\n      swap1\n      0x01\n      add\n      swap1\n      jump(tag_103)\n    tag_104:\n      pop\n      pop\n      pop\n      pop\n      dup2\n      mstore\n      0x20\n      add\n      0x06\n      dup3\n      add\n      sload\n      dup2\n      mstore\n      pop\n      pop\n      swap1\n      pop\n      jump(tag_88)\n        /* \"DonationContract.sol\":2493:2563  if (ongoing) {... */\n    tag_89:\n        /* \"DonationContract.sol\":2580:2597  finishedDonations */\n      0x09\n        /* \"DonationContract.sol\":2598:2603  index */\n      dup4\n        /* \"DonationContract.sol\":2580:2604  finishedDonations[index] */\n      dup2\n      sload\n      dup2\n      lt\n      tag_106\n      jumpi\n      tag_107\n      tag_40\n      jump\t// in\n    tag_107:\n    tag_106:\n      swap1\n      0x00\n      mstore\n      keccak256(0x00, 0x20)\n      swap1\n      0x07\n      mul\n      add\n        /* \"DonationContract.sol\":2573:2604  return finishedDonations[index] */\n      mload(0x40)\n      dup1\n      0xe0\n      add\n      0x40\n      mstore\n      swap1\n      dup2\n      0x00\n      dup3\n      add\n      0x00\n      swap1\n      sload\n      swap1\n      0x0100\n      exp\n      swap1\n      div\n      0xffffffffffffffffffffffffffffffffffffffff\n      and\n      0xffffffffffffffffffffffffffffffffffffffff\n      and\n      0xffffffffffffffffffffffffffffffffffffffff\n      and\n      dup2\n      mstore\n      0x20\n      add\n      0x01\n      dup3\n      add\n      dup1\n      sload\n      tag_109\n      swap1\n      tag_57\n      jump\t// in\n    tag_109:\n      dup1\n      0x1f\n      add\n      0x20\n      dup1\n      swap2\n      div\n      mul\n      0x20\n      add\n      mload(0x40)\n      swap1\n      dup2\n      add\n      0x40\n      mstore\n      dup1\n      swap3\n      swap2\n      swap1\n      dup2\n      dup2\n      mstore\n      0x20\n      add\n      dup3\n      dup1\n      sload\n      tag_110\n      swap1\n      tag_57\n      jump\t// in\n    tag_110:\n      dup1\n      iszero\n      tag_111\n      jumpi\n      dup1\n      0x1f\n      lt\n      tag_112\n      jumpi\n      0x0100\n      dup1\n      dup4\n      sload\n      div\n      mul\n      dup4\n      mstore\n      swap2\n      0x20\n      add\n      swap2\n      jump(tag_111)\n    tag_112:\n      dup3\n      add\n      swap2\n      swap1\n      0x00\n      mstore\n      keccak256(0x00, 0x20)\n      swap1\n    tag_113:\n      dup2\n      sload\n      dup2\n      mstore\n      swap1\n      0x01\n      add\n      swap1\n      0x20\n      add\n      dup1\n      dup4\n      gt\n      tag_113\n      jumpi\n      dup3\n      swap1\n      sub\n      0x1f\n      and\n      dup3\n      add\n      swap2\n    tag_111:\n      pop\n      pop\n      pop\n      pop\n      pop\n      dup2\n      mstore\n      0x20\n      add\n      0x02\n      dup3\n      add\n      dup1\n      sload\n      tag_114\n      swap1\n      tag_57\n      jump\t// in\n    tag_114:\n      dup1\n      0x1f\n      add\n      0x20\n      dup1\n      swap2\n      div\n      mul\n      0x20\n      add\n      mload(0x40)\n      swap1\n      dup2\n      add\n      0x40\n      mstore\n      dup1\n      swap3\n      swap2\n      swap1\n      dup2\n      dup2\n      mstore\n      0x20\n      add\n      dup3\n      dup1\n      sload\n      tag_115\n      swap1\n      tag_57\n      jump\t// in\n    tag_115:\n      dup1\n      iszero\n      tag_116\n      jumpi\n      dup1\n      0x1f\n      lt\n      tag_117\n      jumpi\n      0x0100\n      dup1\n      dup4\n      sload\n      div\n      mul\n      dup4\n      mstore\n      swap2\n      0x20\n      add\n      swap2\n      jump(tag_116)\n    tag_117:\n      dup3\n      add\n      swap2\n      swap1\n      0x00\n      mstore\n      keccak256(0x00, 0x20)\n      swap1\n    tag_118:\n      dup2\n      sload\n      dup2\n      mstore\n      swap1\n      0x01\n      add\n      swap1\n      0x20\n      add\n      dup1\n      dup4\n      gt\n      tag_118\n      jumpi\n      dup3\n      swap1\n      sub\n      0x1f\n      and\n      dup3\n      add\n      swap2\n    tag_116:\n      pop\n      pop\n      pop\n      pop\n      pop\n      dup2\n      mstore\n      0x20\n      add\n      0x03\n      dup3\n      add\n      sload\n      dup2\n      mstore\n      0x20\n      add\n      0x04\n      dup3\n      add\n      sload\n      dup2\n      mstore\n      0x20\n      add\n      0x05\n      dup3\n      add\n      dup1\n      sload\n      dup1\n      0x20\n      mul\n      0x20\n      add\n      mload(0x40)\n      swap1\n      dup2\n      add\n      0x40\n      mstore\n      dup1\n      swap3\n      swap2\n      swap1\n      dup2\n      dup2\n      mstore\n      0x20\n      add\n      0x00\n      swap1\n    tag_119:\n      dup3\n      dup3\n      lt\n      iszero\n      tag_120\n      jumpi\n      dup4\n      dup3\n      swap1\n      0x00\n      mstore\n      keccak256(0x00, 0x20)\n      swap1\n      0x02\n      mul\n      add\n      mload(0x40)\n      dup1\n      0x40\n      add\n      0x40\n      mstore\n      swap1\n      dup2\n      0x00\n      dup3\n      add\n      0x00\n      swap1\n      sload\n      swap1\n      0x0100\n      exp\n      swap1\n      div\n      0xffffffffffffffffffffffffffffffffffffffff\n      and\n      0xffffffffffffffffffffffffffffffffffffffff\n      and\n      0xffffffffffffffffffffffffffffffffffffffff\n      and\n      dup2\n      mstore\n      0x20\n      add\n      0x01\n      dup3\n      add\n      sload\n      dup2\n      mstore\n      pop\n      pop\n      dup2\n      mstore\n      0x20\n      add\n      swap1\n      0x01\n      add\n      swap1\n      jump(tag_119)\n    tag_120:\n      pop\n      pop\n      pop\n      pop\n      dup2\n      mstore\n      0x20\n      add\n      0x06\n      dup3\n      add\n      sload\n      dup2\n      mstore\n      pop\n      pop\n      swap1\n      pop\n        /* \"DonationContract.sol\":2350:2612  function getSingleDonation(uint256 index, bool ongoing)... */\n    tag_88:\n      swap3\n      swap2\n      pop\n      pop\n      jump\t// out\n        /* \"DonationContract.sol\":964:2033  function createPost(... */\n    tag_31:\n        /* \"DonationContract.sol\":1224:1225  0 */\n      0x00\n        /* \"DonationContract.sol\":1204:1220  _requestedAmount */\n      dup2\n        /* \"DonationContract.sol\":1204:1225  _requestedAmount != 0 */\n      sub\n        /* \"DonationContract.sol\":1196:1262  require(_requestedAmount != 0, \"Requested amount can not be zero\") */\n      tag_123\n      jumpi\n      mload(0x40)\n      0x08c379a000000000000000000000000000000000000000000000000000000000\n      dup2\n      mstore\n      0x04\n      add\n      tag_124\n      swap1\n      tag_125\n      jump\t// in\n    tag_124:\n      mload(0x40)\n      dup1\n      swap2\n      sub\n      swap1\n      revert\n    tag_123:\n        /* \"DonationContract.sol\":1343:1344  0 */\n      0x00\n        /* \"DonationContract.sol\":1322:1331  _postText */\n      dup4\n        /* \"DonationContract.sol\":1316:1339  bytes(_postText).length */\n      mload\n        /* \"DonationContract.sol\":1316:1344  bytes(_postText).length != 0 */\n      sub\n        /* \"DonationContract.sol\":1308:1374  require(bytes(_postText).length != 0, \"You have to add post text\") */\n      tag_126\n      jumpi\n      mload(0x40)\n      0x08c379a000000000000000000000000000000000000000000000000000000000\n      dup2\n      mstore\n      0x04\n      add\n      tag_127\n      swap1\n      tag_128\n      jump\t// in\n    tag_127:\n      mload(0x40)\n      dup1\n      swap2\n      sub\n      swap1\n      revert\n    tag_126:\n        /* \"DonationContract.sol\":1451:1463  _postCreator */\n      dup4\n        /* \"DonationContract.sol\":1416:1436  instanceOfPostStruct */\n      0x02\n        /* \"DonationContract.sol\":1416:1448  instanceOfPostStruct.postCreator */\n      0x00\n      add\n      0x00\n        /* \"DonationContract.sol\":1416:1463  instanceOfPostStruct.postCreator = _postCreator */\n      0x0100\n      exp\n      dup2\n      sload\n      dup2\n      0xffffffffffffffffffffffffffffffffffffffff\n      mul\n      not\n      and\n      swap1\n      dup4\n      0xffffffffffffffffffffffffffffffffffffffff\n      and\n      mul\n      or\n      swap1\n      sstore\n      pop\n        /* \"DonationContract.sol\":1506:1515  _postText */\n      dup3\n        /* \"DonationContract.sol\":1474:1494  instanceOfPostStruct */\n      0x02\n        /* \"DonationContract.sol\":1474:1503  instanceOfPostStruct.postText */\n      0x01\n      add\n        /* \"DonationContract.sol\":1474:1515  instanceOfPostStruct.postText = _postText */\n      swap1\n      dup2\n      tag_129\n      swap2\n      swap1\n      tag_130\n      jump\t// in\n    tag_129:\n      pop\n        /* \"DonationContract.sol\":1558:1567  _postDate */\n      dup2\n        /* \"DonationContract.sol\":1526:1546  instanceOfPostStruct */\n      0x02\n        /* \"DonationContract.sol\":1526:1555  instanceOfPostStruct.postDate */\n      dup1\n      add\n        /* \"DonationContract.sol\":1526:1567  instanceOfPostStruct.postDate = _postDate */\n      swap1\n      dup2\n      tag_131\n      swap2\n      swap1\n      tag_130\n      jump\t// in\n    tag_131:\n      pop\n        /* \"DonationContract.sol\":1617:1633  _requestedAmount */\n      dup1\n        /* \"DonationContract.sol\":1578:1598  instanceOfPostStruct */\n      0x02\n        /* \"DonationContract.sol\":1578:1614  instanceOfPostStruct.requestedAmount */\n      0x03\n      add\n        /* \"DonationContract.sol\":1578:1633  instanceOfPostStruct.requestedAmount = _requestedAmount */\n      dup2\n      swap1\n      sstore\n      pop\n        /* \"DonationContract.sol\":1712:1713  0 */\n      0x00\n        /* \"DonationContract.sol\":1674:1694  instanceOfPostStruct */\n      0x02\n        /* \"DonationContract.sol\":1674:1709  instanceOfPostStruct.receivedAmount */\n      0x04\n      add\n        /* \"DonationContract.sol\":1674:1713  instanceOfPostStruct.receivedAmount = 0 */\n      dup2\n      swap1\n      sstore\n      pop\n        /* \"DonationContract.sol\":1851:1863  ongoingIndex */\n      sload(0x0b)\n        /* \"DonationContract.sol\":1818:1838  instanceOfPostStruct */\n      0x02\n        /* \"DonationContract.sol\":1818:1848  instanceOfPostStruct.postIndex */\n      0x06\n      add\n        /* \"DonationContract.sol\":1818:1863  instanceOfPostStruct.postIndex = ongoingIndex */\n      dup2\n      swap1\n      sstore\n      pop\n        /* \"DonationContract.sol\":1916:1932  ongoingDonations */\n      0x0a\n        /* \"DonationContract.sol\":1938:1958  instanceOfPostStruct */\n      0x02\n        /* \"DonationContract.sol\":1916:1959  ongoingDonations.push(instanceOfPostStruct) */\n      swap1\n      dup1\n      0x01\n      dup2\n      sload\n      add\n      dup1\n      dup3\n      sstore\n      dup1\n      swap2\n      pop\n      pop\n      0x01\n      swap1\n      sub\n      swap1\n      0x00\n      mstore\n      keccak256(0x00, 0x20)\n      swap1\n      0x07\n      mul\n      add\n      0x00\n      swap1\n      swap2\n      swap1\n      swap2\n      swap1\n      swap2\n      pop\n      0x00\n      dup3\n      add\n      0x00\n      swap1\n      sload\n      swap1\n      0x0100\n      exp\n      swap1\n      div\n      0xffffffffffffffffffffffffffffffffffffffff\n      and\n      dup2\n      0x00\n      add\n      exp(0x0100, 0x00)\n      dup2\n      sload\n      dup2\n      0xffffffffffffffffffffffffffffffffffffffff\n      mul\n      not\n      and\n      swap1\n      dup4\n      0xffffffffffffffffffffffffffffffffffffffff\n      and\n      mul\n      or\n      swap1\n      sstore\n      pop\n      0x01\n      dup3\n      add\n      dup2\n      0x01\n      add\n      swap1\n      dup2\n      tag_133\n      swap2\n      swap1\n      tag_134\n      jump\t// in\n    tag_133:\n      pop\n      0x02\n      dup3\n      add\n      dup2\n      0x02\n      add\n      swap1\n      dup2\n      tag_135\n      swap2\n      swap1\n      tag_134\n      jump\t// in\n    tag_135:\n      pop\n      0x03\n      dup3\n      add\n      sload\n      dup2\n      0x03\n      add\n      sstore\n      0x04\n      dup3\n      add\n      sload\n      dup2\n      0x04\n      add\n      sstore\n      0x05\n      dup3\n      add\n      dup2\n      0x05\n      add\n      swap1\n      dup1\n      sload\n      tag_136\n      swap3\n      swap2\n      swap1\n      tag_137\n      jump\t// in\n    tag_136:\n      pop\n      0x06\n      dup3\n      add\n      sload\n      dup2\n      0x06\n      add\n      sstore\n      pop\n      pop\n        /* \"DonationContract.sol\":2011:2023  ongoingIndex */\n      0x0b\n      0x00\n        /* \"DonationContract.sol\":2011:2025  ongoingIndex++ */\n      dup2\n      sload\n      dup1\n      swap3\n      swap2\n      swap1\n      tag_138\n      swap1\n      tag_139\n      jump\t// in\n    tag_138:\n      swap2\n      swap1\n      pop\n      sstore\n      pop\n        /* \"DonationContract.sol\":964:2033  function createPost(... */\n      pop\n      pop\n      pop\n      pop\n      jump\t// out\n        /* \"DonationContract.sol\":2957:4719  function donate(uint256 index) public payable {... */\n    tag_35:\n        /* \"DonationContract.sol\":3179:3195  ongoingDonations */\n      0x0a\n        /* \"DonationContract.sol\":3196:3201  index */\n      dup2\n        /* \"DonationContract.sol\":3179:3202  ongoingDonations[index] */\n      dup2\n      sload\n      dup2\n      lt\n      tag_141\n      jumpi\n      tag_142\n      tag_40\n      jump\t// in\n    tag_142:\n    tag_141:\n      swap1\n      0x00\n      mstore\n      keccak256(0x00, 0x20)\n      swap1\n      0x07\n      mul\n      add\n        /* \"DonationContract.sol\":3179:3217  ongoingDonations[index].receivedAmount */\n      0x04\n      add\n      sload\n        /* \"DonationContract.sol\":3116:3132  ongoingDonations */\n      0x0a\n        /* \"DonationContract.sol\":3133:3138  index */\n      dup3\n        /* \"DonationContract.sol\":3116:3139  ongoingDonations[index] */\n      dup2\n      sload\n      dup2\n      lt\n      tag_144\n      jumpi\n      tag_145\n      tag_40\n      jump\t// in\n    tag_145:\n    tag_144:\n      swap1\n      0x00\n      mstore\n      keccak256(0x00, 0x20)\n      swap1\n      0x07\n      mul\n      add\n        /* \"DonationContract.sol\":3116:3155  ongoingDonations[index].requestedAmount */\n      0x03\n      add\n      sload\n        /* \"DonationContract.sol\":3116:3217  ongoingDonations[index].requestedAmount -... */\n      tag_147\n      swap2\n      swap1\n      tag_148\n      jump\t// in\n    tag_147:\n        /* \"DonationContract.sol\":3086:3095  msg.value */\n      callvalue\n        /* \"DonationContract.sol\":3086:3217  msg.value <=... */\n      gt\n      iszero\n        /* \"DonationContract.sol\":3064:3263  require(... */\n      tag_149\n      jumpi\n      mload(0x40)\n      0x08c379a000000000000000000000000000000000000000000000000000000000\n      dup2\n      mstore\n      0x04\n      add\n      tag_150\n      swap1\n      tag_151\n      jump\t// in\n    tag_150:\n      mload(0x40)\n      dup1\n      swap2\n      sub\n      swap1\n      revert\n    tag_149:\n        /* \"DonationContract.sol\":3298:3307  bool sent */\n      0x00\n        /* \"DonationContract.sol\":3309:3326  bytes memory data */\n      dup1\n        /* \"DonationContract.sol\":3330:3346  ongoingDonations */\n      0x0a\n        /* \"DonationContract.sol\":3347:3352  index */\n      dup4\n        /* \"DonationContract.sol\":3330:3353  ongoingDonations[index] */\n      dup2\n      sload\n      dup2\n      lt\n      tag_152\n      jumpi\n      tag_153\n      tag_40\n      jump\t// in\n    tag_153:\n    tag_152:\n      swap1\n      0x00\n      mstore\n      keccak256(0x00, 0x20)\n      swap1\n      0x07\n      mul\n      add\n        /* \"DonationContract.sol\":3330:3379  ongoingDonations[index]... */\n      0x00\n      add\n      0x00\n      swap1\n      sload\n      swap1\n      0x0100\n      exp\n      swap1\n      div\n      0xffffffffffffffffffffffffffffffffffffffff\n      and\n        /* \"DonationContract.sol\":3330:3398  ongoingDonations[index]... */\n      0xffffffffffffffffffffffffffffffffffffffff\n      and\n        /* \"DonationContract.sol\":3418:3425  1 ether */\n      0x0de0b6b3a7640000\n        /* \"DonationContract.sol\":3406:3415  msg.value */\n      callvalue\n        /* \"DonationContract.sol\":3406:3425  msg.value / 1 ether */\n      tag_155\n      swap2\n      swap1\n      tag_156\n      jump\t// in\n    tag_155:\n        /* \"DonationContract.sol\":3330:3430  ongoingDonations[index]... */\n      mload(0x40)\n      tag_157\n      swap1\n      tag_158\n      jump\t// in\n    tag_157:\n      0x00\n      mload(0x40)\n      dup1\n      dup4\n      sub\n      dup2\n      dup6\n      dup8\n      gas\n      call\n      swap3\n      pop\n      pop\n      pop\n      returndatasize\n      dup1\n      0x00\n      dup2\n      eq\n      tag_161\n      jumpi\n      mload(0x40)\n      swap2\n      pop\n      and(add(returndatasize, 0x3f), not(0x1f))\n      dup3\n      add\n      0x40\n      mstore\n      returndatasize\n      dup3\n      mstore\n      returndatasize\n      0x00\n      0x20\n      dup5\n      add\n      returndatacopy\n      jump(tag_160)\n    tag_161:\n      0x60\n      swap2\n      pop\n    tag_160:\n      pop\n        /* \"DonationContract.sol\":3297:3430  (bool sent, bytes memory data) = ongoingDonations[index]... */\n      swap2\n      pop\n      swap2\n      pop\n        /* \"DonationContract.sol\":3449:3453  sent */\n      dup2\n        /* \"DonationContract.sol\":3441:3478  require(sent, \"Failed to send Ether\") */\n      tag_162\n      jumpi\n      mload(0x40)\n      0x08c379a000000000000000000000000000000000000000000000000000000000\n      dup2\n      mstore\n      0x04\n      add\n      tag_163\n      swap1\n      tag_164\n      jump\t// in\n    tag_163:\n      mload(0x40)\n      dup1\n      swap2\n      sub\n      swap1\n      revert\n    tag_162:\n        /* \"DonationContract.sol\":3554:3564  msg.sender */\n      caller\n        /* \"DonationContract.sol\":3519:3536  instanceOfDonator */\n      0x00\n        /* \"DonationContract.sol\":3519:3551  instanceOfDonator.donatorAddress */\n      dup1\n      add\n      0x00\n        /* \"DonationContract.sol\":3519:3564  instanceOfDonator.donatorAddress = msg.sender */\n      0x0100\n      exp\n      dup2\n      sload\n      dup2\n      0xffffffffffffffffffffffffffffffffffffffff\n      mul\n      not\n      and\n      swap1\n      dup4\n      0xffffffffffffffffffffffffffffffffffffffff\n      and\n      mul\n      or\n      swap1\n      sstore\n      pop\n        /* \"DonationContract.sol\":3621:3628  1 ether */\n      0x0de0b6b3a7640000\n        /* \"DonationContract.sol\":3609:3618  msg.value */\n      callvalue\n        /* \"DonationContract.sol\":3609:3628  msg.value / 1 ether */\n      tag_165\n      swap2\n      swap1\n      tag_156\n      jump\t// in\n    tag_165:\n        /* \"DonationContract.sol\":3575:3592  instanceOfDonator */\n      0x00\n        /* \"DonationContract.sol\":3575:3606  instanceOfDonator.donatedAmount */\n      0x01\n      add\n        /* \"DonationContract.sol\":3575:3628  instanceOfDonator.donatedAmount = msg.value / 1 ether */\n      dup2\n      swap1\n      sstore\n      pop\n        /* \"DonationContract.sol\":3668:3684  ongoingDonations */\n      0x0a\n        /* \"DonationContract.sol\":3685:3690  index */\n      dup4\n        /* \"DonationContract.sol\":3668:3691  ongoingDonations[index] */\n      dup2\n      sload\n      dup2\n      lt\n      tag_166\n      jumpi\n      tag_167\n      tag_40\n      jump\t// in\n    tag_167:\n    tag_166:\n      swap1\n      0x00\n      mstore\n      keccak256(0x00, 0x20)\n      swap1\n      0x07\n      mul\n      add\n        /* \"DonationContract.sol\":3668:3700  ongoingDonations[index].donators */\n      0x05\n      add\n        /* \"DonationContract.sol\":3706:3723  instanceOfDonator */\n      0x00\n        /* \"DonationContract.sol\":3668:3724  ongoingDonations[index].donators.push(instanceOfDonator) */\n      swap1\n      dup1\n      0x01\n      dup2\n      sload\n      add\n      dup1\n      dup3\n      sstore\n      dup1\n      swap2\n      pop\n      pop\n      0x01\n      swap1\n      sub\n      swap1\n      0x00\n      mstore\n      keccak256(0x00, 0x20)\n      swap1\n      0x02\n      mul\n      add\n      0x00\n      swap1\n      swap2\n      swap1\n      swap2\n      swap1\n      swap2\n      pop\n      0x00\n      dup3\n      add\n      0x00\n      swap1\n      sload\n      swap1\n      0x0100\n      exp\n      swap1\n      div\n      0xffffffffffffffffffffffffffffffffffffffff\n      and\n      dup2\n      0x00\n      add\n      exp(0x0100, 0x00)\n      dup2\n      sload\n      dup2\n      0xffffffffffffffffffffffffffffffffffffffff\n      mul\n      not\n      and\n      swap1\n      dup4\n      0xffffffffffffffffffffffffffffffffffffffff\n      and\n      mul\n      or\n      swap1\n      sstore\n      pop\n      0x01\n      dup3\n      add\n      sload\n      dup2\n      0x01\n      add\n      sstore\n      pop\n      pop\n        /* \"DonationContract.sol\":3826:3833  1 ether */\n      0x0de0b6b3a7640000\n        /* \"DonationContract.sol\":3814:3823  msg.value */\n      callvalue\n        /* \"DonationContract.sol\":3814:3833  msg.value / 1 ether */\n      tag_170\n      swap2\n      swap1\n      tag_156\n      jump\t// in\n    tag_170:\n        /* \"DonationContract.sol\":3772:3788  ongoingDonations */\n      0x0a\n        /* \"DonationContract.sol\":3789:3794  index */\n      dup5\n        /* \"DonationContract.sol\":3772:3795  ongoingDonations[index] */\n      dup2\n      sload\n      dup2\n      lt\n      tag_171\n      jumpi\n      tag_172\n      tag_40\n      jump\t// in\n    tag_172:\n    tag_171:\n      swap1\n      0x00\n      mstore\n      keccak256(0x00, 0x20)\n      swap1\n      0x07\n      mul\n      add\n        /* \"DonationContract.sol\":3772:3810  ongoingDonations[index].receivedAmount */\n      0x04\n      add\n      0x00\n        /* \"DonationContract.sol\":3772:3833  ongoingDonations[index].receivedAmount += msg.value / 1 ether */\n      dup3\n      dup3\n      sload\n      tag_174\n      swap2\n      swap1\n      tag_175\n      jump\t// in\n    tag_174:\n      swap3\n      pop\n      pop\n      dup2\n      swap1\n      sstore\n      pop\n        /* \"DonationContract.sol\":4005:4021  ongoingDonations */\n      0x0a\n        /* \"DonationContract.sol\":4022:4027  index */\n      dup4\n        /* \"DonationContract.sol\":4005:4028  ongoingDonations[index] */\n      dup2\n      sload\n      dup2\n      lt\n      tag_176\n      jumpi\n      tag_177\n      tag_40\n      jump\t// in\n    tag_177:\n    tag_176:\n      swap1\n      0x00\n      mstore\n      keccak256(0x00, 0x20)\n      swap1\n      0x07\n      mul\n      add\n        /* \"DonationContract.sol\":4005:4043  ongoingDonations[index].receivedAmount */\n      0x04\n      add\n      sload\n        /* \"DonationContract.sol\":3949:3965  ongoingDonations */\n      0x0a\n        /* \"DonationContract.sol\":3966:3971  index */\n      dup5\n        /* \"DonationContract.sol\":3949:3972  ongoingDonations[index] */\n      dup2\n      sload\n      dup2\n      lt\n      tag_179\n      jumpi\n      tag_180\n      tag_40\n      jump\t// in\n    tag_180:\n    tag_179:\n      swap1\n      0x00\n      mstore\n      keccak256(0x00, 0x20)\n      swap1\n      0x07\n      mul\n      add\n        /* \"DonationContract.sol\":3949:3988  ongoingDonations[index].requestedAmount */\n      0x03\n      add\n      sload\n        /* \"DonationContract.sol\":3949:4043  ongoingDonations[index].requestedAmount ==... */\n      sub\n        /* \"DonationContract.sol\":3931:4712  if (... */\n      tag_182\n      jumpi\n        /* \"DonationContract.sol\":4136:4149  finishedIndex */\n      sload(0x0c)\n        /* \"DonationContract.sol\":4100:4116  ongoingDonations */\n      0x0a\n        /* \"DonationContract.sol\":4117:4122  index */\n      dup5\n        /* \"DonationContract.sol\":4100:4123  ongoingDonations[index] */\n      dup2\n      sload\n      dup2\n      lt\n      tag_183\n      jumpi\n      tag_184\n      tag_40\n      jump\t// in\n    tag_184:\n    tag_183:\n      swap1\n      0x00\n      mstore\n      keccak256(0x00, 0x20)\n      swap1\n      0x07\n      mul\n      add\n        /* \"DonationContract.sol\":4100:4133  ongoingDonations[index].postIndex */\n      0x06\n      add\n        /* \"DonationContract.sol\":4100:4149  ongoingDonations[index].postIndex = finishedIndex */\n      dup2\n      swap1\n      sstore\n      pop\n        /* \"DonationContract.sol\":4202:4219  finishedDonations */\n      0x09\n        /* \"DonationContract.sol\":4225:4241  ongoingDonations */\n      0x0a\n        /* \"DonationContract.sol\":4242:4247  index */\n      dup5\n        /* \"DonationContract.sol\":4225:4248  ongoingDonations[index] */\n      dup2\n      sload\n      dup2\n      lt\n      tag_186\n      jumpi\n      tag_187\n      tag_40\n      jump\t// in\n    tag_187:\n    tag_186:\n      swap1\n      0x00\n      mstore\n      keccak256(0x00, 0x20)\n      swap1\n      0x07\n      mul\n      add\n        /* \"DonationContract.sol\":4202:4249  finishedDonations.push(ongoingDonations[index]) */\n      swap1\n      dup1\n      0x01\n      dup2\n      sload\n      add\n      dup1\n      dup3\n      sstore\n      dup1\n      swap2\n      pop\n      pop\n      0x01\n      swap1\n      sub\n      swap1\n      0x00\n      mstore\n      keccak256(0x00, 0x20)\n      swap1\n      0x07\n      mul\n      add\n      0x00\n      swap1\n      swap2\n      swap1\n      swap2\n      swap1\n      swap2\n      pop\n      0x00\n      dup3\n      add\n      0x00\n      swap1\n      sload\n      swap1\n      0x0100\n      exp\n      swap1\n      div\n      0xffffffffffffffffffffffffffffffffffffffff\n      and\n      dup2\n      0x00\n      add\n      exp(0x0100, 0x00)\n      dup2\n      sload\n      dup2\n      0xffffffffffffffffffffffffffffffffffffffff\n      mul\n      not\n      and\n      swap1\n      dup4\n      0xffffffffffffffffffffffffffffffffffffffff\n      and\n      mul\n      or\n      swap1\n      sstore\n      pop\n      0x01\n      dup3\n      add\n      dup2\n      0x01\n      add\n      swap1\n      dup2\n      tag_190\n      swap2\n      swap1\n      tag_134\n      jump\t// in\n    tag_190:\n      pop\n      0x02\n      dup3\n      add\n      dup2\n      0x02\n      add\n      swap1\n      dup2\n      tag_191\n      swap2\n      swap1\n      tag_134\n      jump\t// in\n    tag_191:\n      pop\n      0x03\n      dup3\n      add\n      sload\n      dup2\n      0x03\n      add\n      sstore\n      0x04\n      dup3\n      add\n      sload\n      dup2\n      0x04\n      add\n      sstore\n      0x05\n      dup3\n      add\n      dup2\n      0x05\n      add\n      swap1\n      dup1\n      sload\n      tag_192\n      swap3\n      swap2\n      swap1\n      tag_137\n      jump\t// in\n    tag_192:\n      pop\n      0x06\n      dup3\n      add\n      sload\n      dup2\n      0x06\n      add\n      sstore\n      pop\n      pop\n        /* \"DonationContract.sol\":4308:4321  finishedIndex */\n      0x0c\n      0x00\n        /* \"DonationContract.sol\":4308:4323  finishedIndex++ */\n      dup2\n      sload\n      dup1\n      swap3\n      swap2\n      swap1\n      tag_193\n      swap1\n      tag_139\n      jump\t// in\n    tag_193:\n      swap2\n      swap1\n      pop\n      sstore\n      pop\n        /* \"DonationContract.sol\":4416:4432  ongoingDonations */\n      0x0a\n        /* \"DonationContract.sol\":4477:4478  1 */\n      0x01\n        /* \"DonationContract.sol\":4451:4467  ongoingDonations */\n      0x0a\n        /* \"DonationContract.sol\":4451:4474  ongoingDonations.length */\n      dup1\n      sload\n      swap1\n      pop\n        /* \"DonationContract.sol\":4451:4478  ongoingDonations.length - 1 */\n      tag_194\n      swap2\n      swap1\n      tag_148\n      jump\t// in\n    tag_194:\n        /* \"DonationContract.sol\":4416:4493  ongoingDonations[... */\n      dup2\n      sload\n      dup2\n      lt\n      tag_195\n      jumpi\n      tag_196\n      tag_40\n      jump\t// in\n    tag_196:\n    tag_195:\n      swap1\n      0x00\n      mstore\n      keccak256(0x00, 0x20)\n      swap1\n      0x07\n      mul\n      add\n        /* \"DonationContract.sol\":4390:4406  ongoingDonations */\n      0x0a\n        /* \"DonationContract.sol\":4407:4412  index */\n      dup5\n        /* \"DonationContract.sol\":4390:4413  ongoingDonations[index] */\n      dup2\n      sload\n      dup2\n      lt\n      tag_198\n      jumpi\n      tag_199\n      tag_40\n      jump\t// in\n    tag_199:\n    tag_198:\n      swap1\n      0x00\n      mstore\n      keccak256(0x00, 0x20)\n      swap1\n      0x07\n      mul\n      add\n        /* \"DonationContract.sol\":4390:4493  ongoingDonations[index] = ongoingDonations[... */\n      0x00\n      dup3\n      add\n      0x00\n      swap1\n      sload\n      swap1\n      0x0100\n      exp\n      swap1\n      div\n      0xffffffffffffffffffffffffffffffffffffffff\n      and\n      dup2\n      0x00\n      add\n      exp(0x0100, 0x00)\n      dup2\n      sload\n      dup2\n      0xffffffffffffffffffffffffffffffffffffffff\n      mul\n      not\n      and\n      swap1\n      dup4\n      0xffffffffffffffffffffffffffffffffffffffff\n      and\n      mul\n      or\n      swap1\n      sstore\n      pop\n      0x01\n      dup3\n      add\n      dup2\n      0x01\n      add\n      swap1\n      dup2\n      tag_201\n      swap2\n      swap1\n      tag_134\n      jump\t// in\n    tag_201:\n      pop\n      0x02\n      dup3\n      add\n      dup2\n      0x02\n      add\n      swap1\n      dup2\n      tag_202\n      swap2\n      swap1\n      tag_134\n      jump\t// in\n    tag_202:\n      pop\n      0x03\n      dup3\n      add\n      sload\n      dup2\n      0x03\n      add\n      sstore\n      0x04\n      dup3\n      add\n      sload\n      dup2\n      0x04\n      add\n      sstore\n      0x05\n      dup3\n      add\n      dup2\n      0x05\n      add\n      swap1\n      dup1\n      sload\n      tag_203\n      swap3\n      swap2\n      swap1\n      tag_137\n      jump\t// in\n    tag_203:\n      pop\n      0x06\n      dup3\n      add\n      sload\n      dup2\n      0x06\n      add\n      sstore\n      swap1\n      pop\n      pop\n        /* \"DonationContract.sol\":4508:4524  ongoingDonations */\n      0x0a\n        /* \"DonationContract.sol\":4508:4530  ongoingDonations.pop() */\n      dup1\n      sload\n      dup1\n      tag_204\n      jumpi\n      tag_205\n      tag_206\n      jump\t// in\n    tag_205:\n    tag_204:\n      0x01\n      swap1\n      sub\n      dup2\n      dup2\n      swap1\n      0x00\n      mstore\n      keccak256(0x00, 0x20)\n      swap1\n      0x07\n      mul\n      add\n      0x00\n      dup1\n      dup3\n      add\n      exp(0x0100, 0x00)\n      dup2\n      sload\n      swap1\n      0xffffffffffffffffffffffffffffffffffffffff\n      mul\n      not\n      and\n      swap1\n      sstore\n      0x01\n      dup3\n      add\n      0x00\n      tag_208\n      swap2\n      swap1\n      tag_209\n      jump\t// in\n    tag_208:\n      0x02\n      dup3\n      add\n      0x00\n      tag_210\n      swap2\n      swap1\n      tag_209\n      jump\t// in\n    tag_210:\n      0x03\n      dup3\n      add\n      0x00\n      swap1\n      sstore\n      0x04\n      dup3\n      add\n      0x00\n      swap1\n      sstore\n      0x05\n      dup3\n      add\n      0x00\n      tag_211\n      swap2\n      swap1\n      tag_212\n      jump\t// in\n    tag_211:\n      0x06\n      dup3\n      add\n      0x00\n      swap1\n      sstore\n      pop\n      pop\n      swap1\n      sstore\n        /* \"DonationContract.sol\":3931:4712  if (... */\n    tag_182:\n        /* \"DonationContract.sol\":3003:4719  {... */\n      pop\n      pop\n        /* \"DonationContract.sol\":2957:4719  function donate(uint256 index) public payable {... */\n      pop\n      jump\t// out\n    tag_87:\n      mload(0x40)\n      dup1\n      0xe0\n      add\n      0x40\n      mstore\n      dup1\n      and(0xffffffffffffffffffffffffffffffffffffffff, 0x00)\n      dup2\n      mstore\n      0x20\n      add\n      0x60\n      dup2\n      mstore\n      0x20\n      add\n      0x60\n      dup2\n      mstore\n      0x20\n      add\n      0x00\n      dup2\n      mstore\n      0x20\n      add\n      0x00\n      dup2\n      mstore\n      0x20\n      add\n      0x60\n      dup2\n      mstore\n      0x20\n      add\n      0x00\n      dup2\n      mstore\n      pop\n      swap1\n      jump\t// out\n    tag_137:\n      dup3\n      dup1\n      sload\n      dup3\n      dup3\n      sstore\n      swap1\n      0x00\n      mstore\n      keccak256(0x00, 0x20)\n      swap1\n      0x02\n      mul\n      dup2\n      add\n      swap3\n      dup3\n      iszero\n      tag_213\n      jumpi\n      0x00\n      mstore\n      keccak256(0x00, 0x20)\n      swap2\n      0x02\n      mul\n      dup3\n      add\n    tag_214:\n      dup3\n      dup2\n      gt\n      iszero\n      tag_215\n      jumpi\n      dup3\n      dup3\n      0x00\n      dup3\n      add\n      0x00\n      swap1\n      sload\n      swap1\n      0x0100\n      exp\n      swap1\n      div\n      0xffffffffffffffffffffffffffffffffffffffff\n      and\n      dup2\n      0x00\n      add\n      exp(0x0100, 0x00)\n      dup2\n      sload\n      dup2\n      0xffffffffffffffffffffffffffffffffffffffff\n      mul\n      not\n      and\n      swap1\n      dup4\n      0xffffffffffffffffffffffffffffffffffffffff\n      and\n      mul\n      or\n      swap1\n      sstore\n      pop\n      0x01\n      dup3\n      add\n      sload\n      dup2\n      0x01\n      add\n      sstore\n      pop\n      pop\n      swap2\n      0x02\n      add\n      swap2\n      swap1\n      0x02\n      add\n      swap1\n      jump(tag_214)\n    tag_215:\n    tag_213:\n      pop\n      swap1\n      pop\n      tag_216\n      swap2\n      swap1\n      tag_217\n      jump\t// in\n    tag_216:\n      pop\n      swap1\n      jump\t// out\n    tag_209:\n      pop\n      dup1\n      sload\n      tag_218\n      swap1\n      tag_57\n      jump\t// in\n    tag_218:\n      0x00\n      dup3\n      sstore\n      dup1\n      0x1f\n      lt\n      tag_220\n      jumpi\n      pop\n      jump(tag_219)\n    tag_220:\n      0x1f\n      add\n      0x20\n      swap1\n      div\n      swap1\n      0x00\n      mstore\n      keccak256(0x00, 0x20)\n      swap1\n      dup2\n      add\n      swap1\n      tag_221\n      swap2\n      swap1\n      tag_222\n      jump\t// in\n    tag_221:\n    tag_219:\n      pop\n      jump\t// out\n    tag_212:\n      pop\n      dup1\n      sload\n      0x00\n      dup3\n      sstore\n      0x02\n      mul\n      swap1\n      0x00\n      mstore\n      keccak256(0x00, 0x20)\n      swap1\n      dup2\n      add\n      swap1\n      tag_224\n      swap2\n      swap1\n      tag_217\n      jump\t// in\n    tag_224:\n      pop\n      jump\t// out\n    tag_217:\n    tag_225:\n      dup1\n      dup3\n      gt\n      iszero\n      tag_226\n      jumpi\n      0x00\n      dup1\n      dup3\n      add\n      exp(0x0100, 0x00)\n      dup2\n      sload\n      swap1\n      0xffffffffffffffffffffffffffffffffffffffff\n      mul\n      not\n      and\n      swap1\n      sstore\n      0x01\n      dup3\n      add\n      0x00\n      swap1\n      sstore\n      pop\n      0x02\n      add\n      jump(tag_225)\n    tag_226:\n      pop\n      swap1\n      jump\t// out\n    tag_222:\n    tag_227:\n      dup1\n      dup3\n      gt\n      iszero\n      tag_228\n      jumpi\n      0x00\n      dup2\n      0x00\n      swap1\n      sstore\n      pop\n      0x01\n      add\n      jump(tag_227)\n    tag_228:\n      pop\n      swap1\n      jump\t// out\n        /* \"#utility.yul\":7:82   */\n    tag_229:\n        /* \"#utility.yul\":40:46   */\n      0x00\n        /* \"#utility.yul\":73:75   */\n      0x40\n        /* \"#utility.yul\":67:76   */\n      mload\n        /* \"#utility.yul\":57:76   */\n      swap1\n      pop\n        /* \"#utility.yul\":7:82   */\n      swap1\n      jump\t// out\n        /* \"#utility.yul\":88:205   */\n    tag_230:\n        /* \"#utility.yul\":197:198   */\n      0x00\n        /* \"#utility.yul\":194:195   */\n      dup1\n        /* \"#utility.yul\":187:199   */\n      revert\n        /* \"#utility.yul\":211:328   */\n    tag_231:\n        /* \"#utility.yul\":320:321   */\n      0x00\n        /* \"#utility.yul\":317:318   */\n      dup1\n        /* \"#utility.yul\":310:322   */\n      revert\n        /* \"#utility.yul\":334:411   */\n    tag_232:\n        /* \"#utility.yul\":371:378   */\n      0x00\n        /* \"#utility.yul\":400:405   */\n      dup2\n        /* \"#utility.yul\":389:405   */\n      swap1\n      pop\n        /* \"#utility.yul\":334:411   */\n      swap2\n      swap1\n      pop\n      jump\t// out\n        /* \"#utility.yul\":417:539   */\n    tag_233:\n        /* \"#utility.yul\":490:514   */\n      tag_314\n        /* \"#utility.yul\":508:513   */\n      dup2\n        /* \"#utility.yul\":490:514   */\n      tag_232\n      jump\t// in\n    tag_314:\n        /* \"#utility.yul\":483:488   */\n      dup2\n        /* \"#utility.yul\":480:515   */\n      eq\n        /* \"#utility.yul\":470:533   */\n      tag_315\n      jumpi\n        /* \"#utility.yul\":529:530   */\n      0x00\n        /* \"#utility.yul\":526:527   */\n      dup1\n        /* \"#utility.yul\":519:531   */\n      revert\n        /* \"#utility.yul\":470:533   */\n    tag_315:\n        /* \"#utility.yul\":417:539   */\n      pop\n      jump\t// out\n        /* \"#utility.yul\":545:684   */\n    tag_234:\n        /* \"#utility.yul\":591:596   */\n      0x00\n        /* \"#utility.yul\":629:635   */\n      dup2\n        /* \"#utility.yul\":616:636   */\n      calldataload\n        /* \"#utility.yul\":607:636   */\n      swap1\n      pop\n        /* \"#utility.yul\":645:678   */\n      tag_317\n        /* \"#utility.yul\":672:677   */\n      dup2\n        /* \"#utility.yul\":645:678   */\n      tag_233\n      jump\t// in\n    tag_317:\n        /* \"#utility.yul\":545:684   */\n      swap3\n      swap2\n      pop\n      pop\n      jump\t// out\n        /* \"#utility.yul\":690:780   */\n    tag_235:\n        /* \"#utility.yul\":724:731   */\n      0x00\n        /* \"#utility.yul\":767:772   */\n      dup2\n        /* \"#utility.yul\":760:773   */\n      iszero\n        /* \"#utility.yul\":753:774   */\n      iszero\n        /* \"#utility.yul\":742:774   */\n      swap1\n      pop\n        /* \"#utility.yul\":690:780   */\n      swap2\n      swap1\n      pop\n      jump\t// out\n        /* \"#utility.yul\":786:902   */\n    tag_236:\n        /* \"#utility.yul\":856:877   */\n      tag_320\n        /* \"#utility.yul\":871:876   */\n      dup2\n        /* \"#utility.yul\":856:877   */\n      tag_235\n      jump\t// in\n    tag_320:\n        /* \"#utility.yul\":849:854   */\n      dup2\n        /* \"#utility.yul\":846:878   */\n      eq\n        /* \"#utility.yul\":836:896   */\n      tag_321\n      jumpi\n        /* \"#utility.yul\":892:893   */\n      0x00\n        /* \"#utility.yul\":889:890   */\n      dup1\n        /* \"#utility.yul\":882:894   */\n      revert\n        /* \"#utility.yul\":836:896   */\n    tag_321:\n        /* \"#utility.yul\":786:902   */\n      pop\n      jump\t// out\n        /* \"#utility.yul\":908:1041   */\n    tag_237:\n        /* \"#utility.yul\":951:956   */\n      0x00\n        /* \"#utility.yul\":989:995   */\n      dup2\n        /* \"#utility.yul\":976:996   */\n      calldataload\n        /* \"#utility.yul\":967:996   */\n      swap1\n      pop\n        /* \"#utility.yul\":1005:1035   */\n      tag_323\n        /* \"#utility.yul\":1029:1034   */\n      dup2\n        /* \"#utility.yul\":1005:1035   */\n      tag_236\n      jump\t// in\n    tag_323:\n        /* \"#utility.yul\":908:1041   */\n      swap3\n      swap2\n      pop\n      pop\n      jump\t// out\n        /* \"#utility.yul\":1047:1515   */\n    tag_10:\n        /* \"#utility.yul\":1112:1118   */\n      0x00\n        /* \"#utility.yul\":1120:1126   */\n      dup1\n        /* \"#utility.yul\":1169:1171   */\n      0x40\n        /* \"#utility.yul\":1157:1166   */\n      dup4\n        /* \"#utility.yul\":1148:1155   */\n      dup6\n        /* \"#utility.yul\":1144:1167   */\n      sub\n        /* \"#utility.yul\":1140:1172   */\n      slt\n        /* \"#utility.yul\":1137:1256   */\n      iszero\n      tag_325\n      jumpi\n        /* \"#utility.yul\":1175:1254   */\n      tag_326\n      tag_230\n      jump\t// in\n    tag_326:\n        /* \"#utility.yul\":1137:1256   */\n    tag_325:\n        /* \"#utility.yul\":1295:1296   */\n      0x00\n        /* \"#utility.yul\":1320:1373   */\n      tag_327\n        /* \"#utility.yul\":1365:1372   */\n      dup6\n        /* \"#utility.yul\":1356:1362   */\n      dup3\n        /* \"#utility.yul\":1345:1354   */\n      dup7\n        /* \"#utility.yul\":1341:1363   */\n      add\n        /* \"#utility.yul\":1320:1373   */\n      tag_234\n      jump\t// in\n    tag_327:\n        /* \"#utility.yul\":1310:1373   */\n      swap3\n      pop\n        /* \"#utility.yul\":1266:1383   */\n      pop\n        /* \"#utility.yul\":1422:1424   */\n      0x20\n        /* \"#utility.yul\":1448:1498   */\n      tag_328\n        /* \"#utility.yul\":1490:1497   */\n      dup6\n        /* \"#utility.yul\":1481:1487   */\n      dup3\n        /* \"#utility.yul\":1470:1479   */\n      dup7\n        /* \"#utility.yul\":1466:1488   */\n      add\n        /* \"#utility.yul\":1448:1498   */\n      tag_237\n      jump\t// in\n    tag_328:\n        /* \"#utility.yul\":1438:1498   */\n      swap2\n      pop\n        /* \"#utility.yul\":1393:1508   */\n      pop\n        /* \"#utility.yul\":1047:1515   */\n      swap3\n      pop\n      swap3\n      swap1\n      pop\n      jump\t// out\n        /* \"#utility.yul\":1521:1663   */\n    tag_238:\n        /* \"#utility.yul\":1616:1622   */\n      0x00\n        /* \"#utility.yul\":1650:1655   */\n      dup2\n        /* \"#utility.yul\":1644:1656   */\n      mload\n        /* \"#utility.yul\":1634:1656   */\n      swap1\n      pop\n        /* \"#utility.yul\":1521:1663   */\n      swap2\n      swap1\n      pop\n      jump\t// out\n        /* \"#utility.yul\":1669:1881   */\n    tag_239:\n        /* \"#utility.yul\":1796:1807   */\n      0x00\n        /* \"#utility.yul\":1830:1836   */\n      dup3\n        /* \"#utility.yul\":1825:1828   */\n      dup3\n        /* \"#utility.yul\":1818:1837   */\n      mstore\n        /* \"#utility.yul\":1870:1874   */\n      0x20\n        /* \"#utility.yul\":1865:1868   */\n      dup3\n        /* \"#utility.yul\":1861:1875   */\n      add\n        /* \"#utility.yul\":1846:1875   */\n      swap1\n      pop\n        /* \"#utility.yul\":1669:1881   */\n      swap3\n      swap2\n      pop\n      pop\n      jump\t// out\n        /* \"#utility.yul\":1887:2047   */\n    tag_240:\n        /* \"#utility.yul\":1982:1986   */\n      0x00\n        /* \"#utility.yul\":2005:2008   */\n      dup2\n        /* \"#utility.yul\":1997:2008   */\n      swap1\n      pop\n        /* \"#utility.yul\":2035:2039   */\n      0x20\n        /* \"#utility.yul\":2030:2033   */\n      dup3\n        /* \"#utility.yul\":2026:2040   */\n      add\n        /* \"#utility.yul\":2018:2040   */\n      swap1\n      pop\n        /* \"#utility.yul\":1887:2047   */\n      swap2\n      swap1\n      pop\n      jump\t// out\n        /* \"#utility.yul\":2053:2179   */\n    tag_241:\n        /* \"#utility.yul\":2090:2097   */\n      0x00\n        /* \"#utility.yul\":2130:2172   */\n      0xffffffffffffffffffffffffffffffffffffffff\n        /* \"#utility.yul\":2123:2128   */\n      dup3\n        /* \"#utility.yul\":2119:2173   */\n      and\n        /* \"#utility.yul\":2108:2173   */\n      swap1\n      pop\n        /* \"#utility.yul\":2053:2179   */\n      swap2\n      swap1\n      pop\n      jump\t// out\n        /* \"#utility.yul\":2185:2281   */\n    tag_242:\n        /* \"#utility.yul\":2222:2229   */\n      0x00\n        /* \"#utility.yul\":2251:2275   */\n      tag_334\n        /* \"#utility.yul\":2269:2274   */\n      dup3\n        /* \"#utility.yul\":2251:2275   */\n      tag_241\n      jump\t// in\n    tag_334:\n        /* \"#utility.yul\":2240:2275   */\n      swap1\n      pop\n        /* \"#utility.yul\":2185:2281   */\n      swap2\n      swap1\n      pop\n      jump\t// out\n        /* \"#utility.yul\":2287:2395   */\n    tag_243:\n        /* \"#utility.yul\":2364:2388   */\n      tag_336\n        /* \"#utility.yul\":2382:2387   */\n      dup2\n        /* \"#utility.yul\":2364:2388   */\n      tag_242\n      jump\t// in\n    tag_336:\n        /* \"#utility.yul\":2359:2362   */\n      dup3\n        /* \"#utility.yul\":2352:2389   */\n      mstore\n        /* \"#utility.yul\":2287:2395   */\n      pop\n      pop\n      jump\t// out\n        /* \"#utility.yul\":2401:2509   */\n    tag_244:\n        /* \"#utility.yul\":2478:2502   */\n      tag_338\n        /* \"#utility.yul\":2496:2501   */\n      dup2\n        /* \"#utility.yul\":2478:2502   */\n      tag_232\n      jump\t// in\n    tag_338:\n        /* \"#utility.yul\":2473:2476   */\n      dup3\n        /* \"#utility.yul\":2466:2503   */\n      mstore\n        /* \"#utility.yul\":2401:2509   */\n      pop\n      pop\n      jump\t// out\n        /* \"#utility.yul\":2601:3123   */\n    tag_245:\n        /* \"#utility.yul\":2744:2748   */\n      0x40\n        /* \"#utility.yul\":2739:2742   */\n      dup3\n        /* \"#utility.yul\":2735:2749   */\n      add\n        /* \"#utility.yul\":2841:2845   */\n      0x00\n        /* \"#utility.yul\":2834:2839   */\n      dup3\n        /* \"#utility.yul\":2830:2846   */\n      add\n        /* \"#utility.yul\":2824:2847   */\n      mload\n        /* \"#utility.yul\":2860:2923   */\n      tag_340\n        /* \"#utility.yul\":2917:2921   */\n      0x00\n        /* \"#utility.yul\":2912:2915   */\n      dup6\n        /* \"#utility.yul\":2908:2922   */\n      add\n        /* \"#utility.yul\":2894:2906   */\n      dup3\n        /* \"#utility.yul\":2860:2923   */\n      tag_243\n      jump\t// in\n    tag_340:\n        /* \"#utility.yul\":2759:2933   */\n      pop\n        /* \"#utility.yul\":3024:3028   */\n      0x20\n        /* \"#utility.yul\":3017:3022   */\n      dup3\n        /* \"#utility.yul\":3013:3029   */\n      add\n        /* \"#utility.yul\":3007:3030   */\n      mload\n        /* \"#utility.yul\":3043:3106   */\n      tag_341\n        /* \"#utility.yul\":3100:3104   */\n      0x20\n        /* \"#utility.yul\":3095:3098   */\n      dup6\n        /* \"#utility.yul\":3091:3105   */\n      add\n        /* \"#utility.yul\":3077:3089   */\n      dup3\n        /* \"#utility.yul\":3043:3106   */\n      tag_244\n      jump\t// in\n    tag_341:\n        /* \"#utility.yul\":2943:3116   */\n      pop\n        /* \"#utility.yul\":2713:3123   */\n      pop\n        /* \"#utility.yul\":2601:3123   */\n      pop\n      pop\n      jump\t// out\n        /* \"#utility.yul\":3129:3420   */\n    tag_246:\n        /* \"#utility.yul\":3254:3264   */\n      0x00\n        /* \"#utility.yul\":3275:3377   */\n      tag_343\n        /* \"#utility.yul\":3373:3376   */\n      dup4\n        /* \"#utility.yul\":3365:3371   */\n      dup4\n        /* \"#utility.yul\":3275:3377   */\n      tag_245\n      jump\t// in\n    tag_343:\n        /* \"#utility.yul\":3409:3413   */\n      0x40\n        /* \"#utility.yul\":3404:3407   */\n      dup4\n        /* \"#utility.yul\":3400:3414   */\n      add\n        /* \"#utility.yul\":3386:3414   */\n      swap1\n      pop\n        /* \"#utility.yul\":3129:3420   */\n      swap3\n      swap2\n      pop\n      pop\n      jump\t// out\n        /* \"#utility.yul\":3426:3567   */\n    tag_247:\n        /* \"#utility.yul\":3524:3528   */\n      0x00\n        /* \"#utility.yul\":3556:3560   */\n      0x20\n        /* \"#utility.yul\":3551:3554   */\n      dup3\n        /* \"#utility.yul\":3547:3561   */\n      add\n        /* \"#utility.yul\":3539:3561   */\n      swap1\n      pop\n        /* \"#utility.yul\":3426:3567   */\n      swap2\n      swap1\n      pop\n      jump\t// out\n        /* \"#utility.yul\":3663:4619   */\n    tag_248:\n        /* \"#utility.yul\":3838:3841   */\n      0x00\n        /* \"#utility.yul\":3867:3949   */\n      tag_346\n        /* \"#utility.yul\":3943:3948   */\n      dup3\n        /* \"#utility.yul\":3867:3949   */\n      tag_238\n      jump\t// in\n    tag_346:\n        /* \"#utility.yul\":3965:4079   */\n      tag_347\n        /* \"#utility.yul\":4072:4078   */\n      dup2\n        /* \"#utility.yul\":4067:4070   */\n      dup6\n        /* \"#utility.yul\":3965:4079   */\n      tag_239\n      jump\t// in\n    tag_347:\n        /* \"#utility.yul\":3958:4079   */\n      swap4\n      pop\n        /* \"#utility.yul\":4103:4187   */\n      tag_348\n        /* \"#utility.yul\":4181:4186   */\n      dup4\n        /* \"#utility.yul\":4103:4187   */\n      tag_240\n      jump\t// in\n    tag_348:\n        /* \"#utility.yul\":4210:4217   */\n      dup1\n        /* \"#utility.yul\":4241:4242   */\n      0x00\n        /* \"#utility.yul\":4226:4594   */\n    tag_349:\n        /* \"#utility.yul\":4251:4257   */\n      dup4\n        /* \"#utility.yul\":4248:4249   */\n      dup2\n        /* \"#utility.yul\":4245:4258   */\n      lt\n        /* \"#utility.yul\":4226:4594   */\n      iszero\n      tag_351\n      jumpi\n        /* \"#utility.yul\":4327:4333   */\n      dup2\n        /* \"#utility.yul\":4321:4334   */\n      mload\n        /* \"#utility.yul\":4354:4473   */\n      tag_352\n        /* \"#utility.yul\":4469:4472   */\n      dup9\n        /* \"#utility.yul\":4454:4467   */\n      dup3\n        /* \"#utility.yul\":4354:4473   */\n      tag_246\n      jump\t// in\n    tag_352:\n        /* \"#utility.yul\":4347:4473   */\n      swap8\n      pop\n        /* \"#utility.yul\":4496:4584   */\n      tag_353\n        /* \"#utility.yul\":4577:4583   */\n      dup4\n        /* \"#utility.yul\":4496:4584   */\n      tag_247\n      jump\t// in\n    tag_353:\n        /* \"#utility.yul\":4486:4584   */\n      swap3\n      pop\n        /* \"#utility.yul\":4286:4594   */\n      pop\n        /* \"#utility.yul\":4273:4274   */\n      0x01\n        /* \"#utility.yul\":4270:4271   */\n      dup2\n        /* \"#utility.yul\":4266:4275   */\n      add\n        /* \"#utility.yul\":4261:4275   */\n      swap1\n      pop\n        /* \"#utility.yul\":4226:4594   */\n      jump(tag_349)\n    tag_351:\n        /* \"#utility.yul\":4230:4244   */\n      pop\n        /* \"#utility.yul\":4610:4613   */\n      dup6\n        /* \"#utility.yul\":4603:4613   */\n      swap4\n      pop\n        /* \"#utility.yul\":3843:4619   */\n      pop\n      pop\n      pop\n        /* \"#utility.yul\":3663:4619   */\n      swap3\n      swap2\n      pop\n      pop\n      jump\t// out\n        /* \"#utility.yul\":4625:5110   */\n    tag_13:\n        /* \"#utility.yul\":4824:4828   */\n      0x00\n        /* \"#utility.yul\":4862:4864   */\n      0x20\n        /* \"#utility.yul\":4851:4860   */\n      dup3\n        /* \"#utility.yul\":4847:4865   */\n      add\n        /* \"#utility.yul\":4839:4865   */\n      swap1\n      pop\n        /* \"#utility.yul\":4911:4920   */\n      dup2\n        /* \"#utility.yul\":4905:4909   */\n      dup2\n        /* \"#utility.yul\":4901:4921   */\n      sub\n        /* \"#utility.yul\":4897:4898   */\n      0x00\n        /* \"#utility.yul\":4886:4895   */\n      dup4\n        /* \"#utility.yul\":4882:4899   */\n      add\n        /* \"#utility.yul\":4875:4922   */\n      mstore\n        /* \"#utility.yul\":4939:5103   */\n      tag_355\n        /* \"#utility.yul\":5098:5102   */\n      dup2\n        /* \"#utility.yul\":5089:5095   */\n      dup5\n        /* \"#utility.yul\":4939:5103   */\n      tag_248\n      jump\t// in\n    tag_355:\n        /* \"#utility.yul\":4931:5103   */\n      swap1\n      pop\n        /* \"#utility.yul\":4625:5110   */\n      swap3\n      swap2\n      pop\n      pop\n      jump\t// out\n        /* \"#utility.yul\":5116:5439   */\n    tag_17:\n        /* \"#utility.yul\":5172:5178   */\n      0x00\n        /* \"#utility.yul\":5221:5223   */\n      0x20\n        /* \"#utility.yul\":5209:5218   */\n      dup3\n        /* \"#utility.yul\":5200:5207   */\n      dup5\n        /* \"#utility.yul\":5196:5219   */\n      sub\n        /* \"#utility.yul\":5192:5224   */\n      slt\n        /* \"#utility.yul\":5189:5308   */\n      iszero\n      tag_357\n      jumpi\n        /* \"#utility.yul\":5227:5306   */\n      tag_358\n      tag_230\n      jump\t// in\n    tag_358:\n        /* \"#utility.yul\":5189:5308   */\n    tag_357:\n        /* \"#utility.yul\":5347:5348   */\n      0x00\n        /* \"#utility.yul\":5372:5422   */\n      tag_359\n        /* \"#utility.yul\":5414:5421   */\n      dup5\n        /* \"#utility.yul\":5405:5411   */\n      dup3\n        /* \"#utility.yul\":5394:5403   */\n      dup6\n        /* \"#utility.yul\":5390:5412   */\n      add\n        /* \"#utility.yul\":5372:5422   */\n      tag_237\n      jump\t// in\n    tag_359:\n        /* \"#utility.yul\":5362:5422   */\n      swap2\n      pop\n        /* \"#utility.yul\":5318:5432   */\n      pop\n        /* \"#utility.yul\":5116:5439   */\n      swap3\n      swap2\n      pop\n      pop\n      jump\t// out\n        /* \"#utility.yul\":5445:5589   */\n    tag_249:\n        /* \"#utility.yul\":5542:5548   */\n      0x00\n        /* \"#utility.yul\":5576:5581   */\n      dup2\n        /* \"#utility.yul\":5570:5582   */\n      mload\n        /* \"#utility.yul\":5560:5582   */\n      swap1\n      pop\n        /* \"#utility.yul\":5445:5589   */\n      swap2\n      swap1\n      pop\n      jump\t// out\n        /* \"#utility.yul\":5595:5809   */\n    tag_250:\n        /* \"#utility.yul\":5724:5735   */\n      0x00\n        /* \"#utility.yul\":5758:5764   */\n      dup3\n        /* \"#utility.yul\":5753:5756   */\n      dup3\n        /* \"#utility.yul\":5746:5765   */\n      mstore\n        /* \"#utility.yul\":5798:5802   */\n      0x20\n        /* \"#utility.yul\":5793:5796   */\n      dup3\n        /* \"#utility.yul\":5789:5803   */\n      add\n        /* \"#utility.yul\":5774:5803   */\n      swap1\n      pop\n        /* \"#utility.yul\":5595:5809   */\n      swap3\n      swap2\n      pop\n      pop\n      jump\t// out\n        /* \"#utility.yul\":5815:5977   */\n    tag_251:\n        /* \"#utility.yul\":5912:5916   */\n      0x00\n        /* \"#utility.yul\":5935:5938   */\n      dup2\n        /* \"#utility.yul\":5927:5938   */\n      swap1\n      pop\n        /* \"#utility.yul\":5965:5969   */\n      0x20\n        /* \"#utility.yul\":5960:5963   */\n      dup3\n        /* \"#utility.yul\":5956:5970   */\n      add\n        /* \"#utility.yul\":5948:5970   */\n      swap1\n      pop\n        /* \"#utility.yul\":5815:5977   */\n      swap2\n      swap1\n      pop\n      jump\t// out\n        /* \"#utility.yul\":5983:6087   */\n    tag_252:\n        /* \"#utility.yul\":6028:6035   */\n      0x00\n        /* \"#utility.yul\":6057:6081   */\n      tag_364\n        /* \"#utility.yul\":6075:6080   */\n      dup3\n        /* \"#utility.yul\":6057:6081   */\n      tag_241\n      jump\t// in\n    tag_364:\n        /* \"#utility.yul\":6046:6081   */\n      swap1\n      pop\n        /* \"#utility.yul\":5983:6087   */\n      swap2\n      swap1\n      pop\n      jump\t// out\n        /* \"#utility.yul\":6093:6225   */\n    tag_253:\n        /* \"#utility.yul\":6186:6218   */\n      tag_366\n        /* \"#utility.yul\":6212:6217   */\n      dup2\n        /* \"#utility.yul\":6186:6218   */\n      tag_252\n      jump\t// in\n    tag_366:\n        /* \"#utility.yul\":6181:6184   */\n      dup3\n        /* \"#utility.yul\":6174:6219   */\n      mstore\n        /* \"#utility.yul\":6093:6225   */\n      pop\n      pop\n      jump\t// out\n        /* \"#utility.yul\":6231:6330   */\n    tag_254:\n        /* \"#utility.yul\":6283:6289   */\n      0x00\n        /* \"#utility.yul\":6317:6322   */\n      dup2\n        /* \"#utility.yul\":6311:6323   */\n      mload\n        /* \"#utility.yul\":6301:6323   */\n      swap1\n      pop\n        /* \"#utility.yul\":6231:6330   */\n      swap2\n      swap1\n      pop\n      jump\t// out\n        /* \"#utility.yul\":6336:6495   */\n    tag_255:\n        /* \"#utility.yul\":6410:6421   */\n      0x00\n        /* \"#utility.yul\":6444:6450   */\n      dup3\n        /* \"#utility.yul\":6439:6442   */\n      dup3\n        /* \"#utility.yul\":6432:6451   */\n      mstore\n        /* \"#utility.yul\":6484:6488   */\n      0x20\n        /* \"#utility.yul\":6479:6482   */\n      dup3\n        /* \"#utility.yul\":6475:6489   */\n      add\n        /* \"#utility.yul\":6460:6489   */\n      swap1\n      pop\n        /* \"#utility.yul\":6336:6495   */\n      swap3\n      swap2\n      pop\n      pop\n      jump\t// out\n        /* \"#utility.yul\":6501:6747   */\n    tag_256:\n        /* \"#utility.yul\":6582:6583   */\n      0x00\n        /* \"#utility.yul\":6592:6705   */\n    tag_370:\n        /* \"#utility.yul\":6606:6612   */\n      dup4\n        /* \"#utility.yul\":6603:6604   */\n      dup2\n        /* \"#utility.yul\":6600:6613   */\n      lt\n        /* \"#utility.yul\":6592:6705   */\n      iszero\n      tag_372\n      jumpi\n        /* \"#utility.yul\":6691:6692   */\n      dup1\n        /* \"#utility.yul\":6686:6689   */\n      dup3\n        /* \"#utility.yul\":6682:6693   */\n      add\n        /* \"#utility.yul\":6676:6694   */\n      mload\n        /* \"#utility.yul\":6672:6673   */\n      dup2\n        /* \"#utility.yul\":6667:6670   */\n      dup5\n        /* \"#utility.yul\":6663:6674   */\n      add\n        /* \"#utility.yul\":6656:6695   */\n      mstore\n        /* \"#utility.yul\":6628:6630   */\n      0x20\n        /* \"#utility.yul\":6625:6626   */\n      dup2\n        /* \"#utility.yul\":6621:6631   */\n      add\n        /* \"#utility.yul\":6616:6631   */\n      swap1\n      pop\n        /* \"#utility.yul\":6592:6705   */\n      jump(tag_370)\n    tag_372:\n        /* \"#utility.yul\":6739:6740   */\n      0x00\n        /* \"#utility.yul\":6730:6736   */\n      dup5\n        /* \"#utility.yul\":6725:6728   */\n      dup5\n        /* \"#utility.yul\":6721:6737   */\n      add\n        /* \"#utility.yul\":6714:6741   */\n      mstore\n        /* \"#utility.yul\":6563:6747   */\n      pop\n        /* \"#utility.yul\":6501:6747   */\n      pop\n      pop\n      pop\n      jump\t// out\n        /* \"#utility.yul\":6753:6855   */\n    tag_257:\n        /* \"#utility.yul\":6794:6800   */\n      0x00\n        /* \"#utility.yul\":6845:6847   */\n      0x1f\n        /* \"#utility.yul\":6841:6848   */\n      not\n        /* \"#utility.yul\":6836:6838   */\n      0x1f\n        /* \"#utility.yul\":6829:6834   */\n      dup4\n        /* \"#utility.yul\":6825:6839   */\n      add\n        /* \"#utility.yul\":6821:6849   */\n      and\n        /* \"#utility.yul\":6811:6849   */\n      swap1\n      pop\n        /* \"#utility.yul\":6753:6855   */\n      swap2\n      swap1\n      pop\n      jump\t// out\n        /* \"#utility.yul\":6861:7218   */\n    tag_258:\n        /* \"#utility.yul\":6939:6942   */\n      0x00\n        /* \"#utility.yul\":6967:7006   */\n      tag_375\n        /* \"#utility.yul\":7000:7005   */\n      dup3\n        /* \"#utility.yul\":6967:7006   */\n      tag_254\n      jump\t// in\n    tag_375:\n        /* \"#utility.yul\":7022:7083   */\n      tag_376\n        /* \"#utility.yul\":7076:7082   */\n      dup2\n        /* \"#utility.yul\":7071:7074   */\n      dup6\n        /* \"#utility.yul\":7022:7083   */\n      tag_255\n      jump\t// in\n    tag_376:\n        /* \"#utility.yul\":7015:7083   */\n      swap4\n      pop\n        /* \"#utility.yul\":7092:7157   */\n      tag_377\n        /* \"#utility.yul\":7150:7156   */\n      dup2\n        /* \"#utility.yul\":7145:7148   */\n      dup6\n        /* \"#utility.yul\":7138:7142   */\n      0x20\n        /* \"#utility.yul\":7131:7136   */\n      dup7\n        /* \"#utility.yul\":7127:7143   */\n      add\n        /* \"#utility.yul\":7092:7157   */\n      tag_256\n      jump\t// in\n    tag_377:\n        /* \"#utility.yul\":7182:7211   */\n      tag_378\n        /* \"#utility.yul\":7204:7210   */\n      dup2\n        /* \"#utility.yul\":7182:7211   */\n      tag_257\n      jump\t// in\n    tag_378:\n        /* \"#utility.yul\":7177:7180   */\n      dup5\n        /* \"#utility.yul\":7173:7212   */\n      add\n        /* \"#utility.yul\":7166:7212   */\n      swap2\n      pop\n        /* \"#utility.yul\":6943:7218   */\n      pop\n        /* \"#utility.yul\":6861:7218   */\n      swap3\n      swap2\n      pop\n      pop\n      jump\t// out\n        /* \"#utility.yul\":7224:7426   */\n    tag_259:\n        /* \"#utility.yul\":7341:7352   */\n      0x00\n        /* \"#utility.yul\":7375:7381   */\n      dup3\n        /* \"#utility.yul\":7370:7373   */\n      dup3\n        /* \"#utility.yul\":7363:7382   */\n      mstore\n        /* \"#utility.yul\":7415:7419   */\n      0x20\n        /* \"#utility.yul\":7410:7413   */\n      dup3\n        /* \"#utility.yul\":7406:7420   */\n      add\n        /* \"#utility.yul\":7391:7420   */\n      swap1\n      pop\n        /* \"#utility.yul\":7224:7426   */\n      swap3\n      swap2\n      pop\n      pop\n      jump\t// out\n        /* \"#utility.yul\":7522:8458   */\n    tag_260:\n        /* \"#utility.yul\":7687:7690   */\n      0x00\n        /* \"#utility.yul\":7716:7798   */\n      tag_381\n        /* \"#utility.yul\":7792:7797   */\n      dup3\n        /* \"#utility.yul\":7716:7798   */\n      tag_238\n      jump\t// in\n    tag_381:\n        /* \"#utility.yul\":7814:7918   */\n      tag_382\n        /* \"#utility.yul\":7911:7917   */\n      dup2\n        /* \"#utility.yul\":7906:7909   */\n      dup6\n        /* \"#utility.yul\":7814:7918   */\n      tag_259\n      jump\t// in\n    tag_382:\n        /* \"#utility.yul\":7807:7918   */\n      swap4\n      pop\n        /* \"#utility.yul\":7942:8026   */\n      tag_383\n        /* \"#utility.yul\":8020:8025   */\n      dup4\n        /* \"#utility.yul\":7942:8026   */\n      tag_240\n      jump\t// in\n    tag_383:\n        /* \"#utility.yul\":8049:8056   */\n      dup1\n        /* \"#utility.yul\":8080:8081   */\n      0x00\n        /* \"#utility.yul\":8065:8433   */\n    tag_384:\n        /* \"#utility.yul\":8090:8096   */\n      dup4\n        /* \"#utility.yul\":8087:8088   */\n      dup2\n        /* \"#utility.yul\":8084:8097   */\n      lt\n        /* \"#utility.yul\":8065:8433   */\n      iszero\n      tag_386\n      jumpi\n        /* \"#utility.yul\":8166:8172   */\n      dup2\n        /* \"#utility.yul\":8160:8173   */\n      mload\n        /* \"#utility.yul\":8193:8312   */\n      tag_387\n        /* \"#utility.yul\":8308:8311   */\n      dup9\n        /* \"#utility.yul\":8293:8306   */\n      dup3\n        /* \"#utility.yul\":8193:8312   */\n      tag_246\n      jump\t// in\n    tag_387:\n        /* \"#utility.yul\":8186:8312   */\n      swap8\n      pop\n        /* \"#utility.yul\":8335:8423   */\n      tag_388\n        /* \"#utility.yul\":8416:8422   */\n      dup4\n        /* \"#utility.yul\":8335:8423   */\n      tag_247\n      jump\t// in\n    tag_388:\n        /* \"#utility.yul\":8325:8423   */\n      swap3\n      pop\n        /* \"#utility.yul\":8125:8433   */\n      pop\n        /* \"#utility.yul\":8112:8113   */\n      0x01\n        /* \"#utility.yul\":8109:8110   */\n      dup2\n        /* \"#utility.yul\":8105:8114   */\n      add\n        /* \"#utility.yul\":8100:8114   */\n      swap1\n      pop\n        /* \"#utility.yul\":8065:8433   */\n      jump(tag_384)\n    tag_386:\n        /* \"#utility.yul\":8069:8083   */\n      pop\n        /* \"#utility.yul\":8449:8452   */\n      dup6\n        /* \"#utility.yul\":8442:8452   */\n      swap4\n      pop\n        /* \"#utility.yul\":7692:8458   */\n      pop\n      pop\n      pop\n        /* \"#utility.yul\":7522:8458   */\n      swap3\n      swap2\n      pop\n      pop\n      jump\t// out\n        /* \"#utility.yul\":8552:10317   */\n    tag_261:\n        /* \"#utility.yul\":8671:8674   */\n      0x00\n        /* \"#utility.yul\":8707:8711   */\n      0xe0\n        /* \"#utility.yul\":8702:8705   */\n      dup4\n        /* \"#utility.yul\":8698:8712   */\n      add\n        /* \"#utility.yul\":8801:8805   */\n      0x00\n        /* \"#utility.yul\":8794:8799   */\n      dup4\n        /* \"#utility.yul\":8790:8806   */\n      add\n        /* \"#utility.yul\":8784:8807   */\n      mload\n        /* \"#utility.yul\":8820:8899   */\n      tag_390\n        /* \"#utility.yul\":8893:8897   */\n      0x00\n        /* \"#utility.yul\":8888:8891   */\n      dup7\n        /* \"#utility.yul\":8884:8898   */\n      add\n        /* \"#utility.yul\":8870:8882   */\n      dup3\n        /* \"#utility.yul\":8820:8899   */\n      tag_253\n      jump\t// in\n    tag_390:\n        /* \"#utility.yul\":8722:8909   */\n      pop\n        /* \"#utility.yul\":8995:8999   */\n      0x20\n        /* \"#utility.yul\":8988:8993   */\n      dup4\n        /* \"#utility.yul\":8984:9000   */\n      add\n        /* \"#utility.yul\":8978:9001   */\n      mload\n        /* \"#utility.yul\":9048:9051   */\n      dup5\n        /* \"#utility.yul\":9042:9046   */\n      dup3\n        /* \"#utility.yul\":9038:9052   */\n      sub\n        /* \"#utility.yul\":9031:9035   */\n      0x20\n        /* \"#utility.yul\":9026:9029   */\n      dup7\n        /* \"#utility.yul\":9022:9036   */\n      add\n        /* \"#utility.yul\":9015:9053   */\n      mstore\n        /* \"#utility.yul\":9074:9147   */\n      tag_391\n        /* \"#utility.yul\":9142:9146   */\n      dup3\n        /* \"#utility.yul\":9128:9140   */\n      dup3\n        /* \"#utility.yul\":9074:9147   */\n      tag_258\n      jump\t// in\n    tag_391:\n        /* \"#utility.yul\":9066:9147   */\n      swap2\n      pop\n        /* \"#utility.yul\":8919:9158   */\n      pop\n        /* \"#utility.yul\":9244:9248   */\n      0x40\n        /* \"#utility.yul\":9237:9242   */\n      dup4\n        /* \"#utility.yul\":9233:9249   */\n      add\n        /* \"#utility.yul\":9227:9250   */\n      mload\n        /* \"#utility.yul\":9297:9300   */\n      dup5\n        /* \"#utility.yul\":9291:9295   */\n      dup3\n        /* \"#utility.yul\":9287:9301   */\n      sub\n        /* \"#utility.yul\":9280:9284   */\n      0x40\n        /* \"#utility.yul\":9275:9278   */\n      dup7\n        /* \"#utility.yul\":9271:9285   */\n      add\n        /* \"#utility.yul\":9264:9302   */\n      mstore\n        /* \"#utility.yul\":9323:9396   */\n      tag_392\n        /* \"#utility.yul\":9391:9395   */\n      dup3\n        /* \"#utility.yul\":9377:9389   */\n      dup3\n        /* \"#utility.yul\":9323:9396   */\n      tag_258\n      jump\t// in\n    tag_392:\n        /* \"#utility.yul\":9315:9396   */\n      swap2\n      pop\n        /* \"#utility.yul\":9168:9407   */\n      pop\n        /* \"#utility.yul\":9500:9504   */\n      0x60\n        /* \"#utility.yul\":9493:9498   */\n      dup4\n        /* \"#utility.yul\":9489:9505   */\n      add\n        /* \"#utility.yul\":9483:9506   */\n      mload\n        /* \"#utility.yul\":9519:9582   */\n      tag_393\n        /* \"#utility.yul\":9576:9580   */\n      0x60\n        /* \"#utility.yul\":9571:9574   */\n      dup7\n        /* \"#utility.yul\":9567:9581   */\n      add\n        /* \"#utility.yul\":9553:9565   */\n      dup3\n        /* \"#utility.yul\":9519:9582   */\n      tag_244\n      jump\t// in\n    tag_393:\n        /* \"#utility.yul\":9417:9592   */\n      pop\n        /* \"#utility.yul\":9684:9688   */\n      0x80\n        /* \"#utility.yul\":9677:9682   */\n      dup4\n        /* \"#utility.yul\":9673:9689   */\n      add\n        /* \"#utility.yul\":9667:9690   */\n      mload\n        /* \"#utility.yul\":9703:9766   */\n      tag_394\n        /* \"#utility.yul\":9760:9764   */\n      0x80\n        /* \"#utility.yul\":9755:9758   */\n      dup7\n        /* \"#utility.yul\":9751:9765   */\n      add\n        /* \"#utility.yul\":9737:9749   */\n      dup3\n        /* \"#utility.yul\":9703:9766   */\n      tag_244\n      jump\t// in\n    tag_394:\n        /* \"#utility.yul\":9602:9776   */\n      pop\n        /* \"#utility.yul\":9862:9866   */\n      0xa0\n        /* \"#utility.yul\":9855:9860   */\n      dup4\n        /* \"#utility.yul\":9851:9867   */\n      add\n        /* \"#utility.yul\":9845:9868   */\n      mload\n        /* \"#utility.yul\":9915:9918   */\n      dup5\n        /* \"#utility.yul\":9909:9913   */\n      dup3\n        /* \"#utility.yul\":9905:9919   */\n      sub\n        /* \"#utility.yul\":9898:9902   */\n      0xa0\n        /* \"#utility.yul\":9893:9896   */\n      dup7\n        /* \"#utility.yul\":9889:9903   */\n      add\n        /* \"#utility.yul\":9882:9920   */\n      mstore\n        /* \"#utility.yul\":9941:10100   */\n      tag_395\n        /* \"#utility.yul\":10095:10099   */\n      dup3\n        /* \"#utility.yul\":10081:10093   */\n      dup3\n        /* \"#utility.yul\":9941:10100   */\n      tag_260\n      jump\t// in\n    tag_395:\n        /* \"#utility.yul\":9933:10100   */\n      swap2\n      pop\n        /* \"#utility.yul\":9786:10111   */\n      pop\n        /* \"#utility.yul\":10198:10202   */\n      0xc0\n        /* \"#utility.yul\":10191:10196   */\n      dup4\n        /* \"#utility.yul\":10187:10203   */\n      add\n        /* \"#utility.yul\":10181:10204   */\n      mload\n        /* \"#utility.yul\":10217:10280   */\n      tag_396\n        /* \"#utility.yul\":10274:10278   */\n      0xc0\n        /* \"#utility.yul\":10269:10272   */\n      dup7\n        /* \"#utility.yul\":10265:10279   */\n      add\n        /* \"#utility.yul\":10251:10263   */\n      dup3\n        /* \"#utility.yul\":10217:10280   */\n      tag_244\n      jump\t// in\n    tag_396:\n        /* \"#utility.yul\":10121:10290   */\n      pop\n        /* \"#utility.yul\":10307:10311   */\n      dup1\n        /* \"#utility.yul\":10300:10311   */\n      swap2\n      pop\n        /* \"#utility.yul\":8676:10317   */\n      pop\n        /* \"#utility.yul\":8552:10317   */\n      swap3\n      swap2\n      pop\n      pop\n      jump\t// out\n        /* \"#utility.yul\":10323:10599   */\n    tag_262:\n        /* \"#utility.yul\":10452:10462   */\n      0x00\n        /* \"#utility.yul\":10487:10593   */\n      tag_398\n        /* \"#utility.yul\":10589:10592   */\n      dup4\n        /* \"#utility.yul\":10581:10587   */\n      dup4\n        /* \"#utility.yul\":10487:10593   */\n      tag_261\n      jump\t// in\n    tag_398:\n        /* \"#utility.yul\":10473:10593   */\n      swap1\n      pop\n        /* \"#utility.yul\":10323:10599   */\n      swap3\n      swap2\n      pop\n      pop\n      jump\t// out\n        /* \"#utility.yul\":10605:10748   */\n    tag_263:\n        /* \"#utility.yul\":10705:10709   */\n      0x00\n        /* \"#utility.yul\":10737:10741   */\n      0x20\n        /* \"#utility.yul\":10732:10735   */\n      dup3\n        /* \"#utility.yul\":10728:10742   */\n      add\n        /* \"#utility.yul\":10720:10742   */\n      swap1\n      pop\n        /* \"#utility.yul\":10605:10748   */\n      swap2\n      swap1\n      pop\n      jump\t// out\n        /* \"#utility.yul\":10846:11997   */\n    tag_264:\n        /* \"#utility.yul\":11025:11028   */\n      0x00\n        /* \"#utility.yul\":11054:11138   */\n      tag_401\n        /* \"#utility.yul\":11132:11137   */\n      dup3\n        /* \"#utility.yul\":11054:11138   */\n      tag_249\n      jump\t// in\n    tag_401:\n        /* \"#utility.yul\":11154:11270   */\n      tag_402\n        /* \"#utility.yul\":11263:11269   */\n      dup2\n        /* \"#utility.yul\":11258:11261   */\n      dup6\n        /* \"#utility.yul\":11154:11270   */\n      tag_250\n      jump\t// in\n    tag_402:\n        /* \"#utility.yul\":11147:11270   */\n      swap4\n      pop\n        /* \"#utility.yul\":11296:11299   */\n      dup4\n        /* \"#utility.yul\":11341:11345   */\n      0x20\n        /* \"#utility.yul\":11333:11339   */\n      dup3\n        /* \"#utility.yul\":11329:11346   */\n      mul\n        /* \"#utility.yul\":11324:11327   */\n      dup6\n        /* \"#utility.yul\":11320:11347   */\n      add\n        /* \"#utility.yul\":11371:11457   */\n      tag_403\n        /* \"#utility.yul\":11451:11456   */\n      dup6\n        /* \"#utility.yul\":11371:11457   */\n      tag_251\n      jump\t// in\n    tag_403:\n        /* \"#utility.yul\":11480:11487   */\n      dup1\n        /* \"#utility.yul\":11511:11512   */\n      0x00\n        /* \"#utility.yul\":11496:11952   */\n    tag_404:\n        /* \"#utility.yul\":11521:11527   */\n      dup6\n        /* \"#utility.yul\":11518:11519   */\n      dup2\n        /* \"#utility.yul\":11515:11528   */\n      lt\n        /* \"#utility.yul\":11496:11952   */\n      iszero\n      tag_406\n      jumpi\n        /* \"#utility.yul\":11592:11601   */\n      dup5\n        /* \"#utility.yul\":11586:11590   */\n      dup5\n        /* \"#utility.yul\":11582:11602   */\n      sub\n        /* \"#utility.yul\":11577:11580   */\n      dup10\n        /* \"#utility.yul\":11570:11603   */\n      mstore\n        /* \"#utility.yul\":11643:11649   */\n      dup2\n        /* \"#utility.yul\":11637:11650   */\n      mload\n        /* \"#utility.yul\":11671:11795   */\n      tag_407\n        /* \"#utility.yul\":11790:11794   */\n      dup6\n        /* \"#utility.yul\":11775:11788   */\n      dup3\n        /* \"#utility.yul\":11671:11795   */\n      tag_262\n      jump\t// in\n    tag_407:\n        /* \"#utility.yul\":11663:11795   */\n      swap5\n      pop\n        /* \"#utility.yul\":11818:11908   */\n      tag_408\n        /* \"#utility.yul\":11901:11907   */\n      dup4\n        /* \"#utility.yul\":11818:11908   */\n      tag_263\n      jump\t// in\n    tag_408:\n        /* \"#utility.yul\":11808:11908   */\n      swap3\n      pop\n        /* \"#utility.yul\":11937:11941   */\n      0x20\n        /* \"#utility.yul\":11932:11935   */\n      dup11\n        /* \"#utility.yul\":11928:11942   */\n      add\n        /* \"#utility.yul\":11921:11942   */\n      swap10\n      pop\n        /* \"#utility.yul\":11556:11952   */\n      pop\n        /* \"#utility.yul\":11543:11544   */\n      0x01\n        /* \"#utility.yul\":11540:11541   */\n      dup2\n        /* \"#utility.yul\":11536:11545   */\n      add\n        /* \"#utility.yul\":11531:11545   */\n      swap1\n      pop\n        /* \"#utility.yul\":11496:11952   */\n      jump(tag_404)\n    tag_406:\n        /* \"#utility.yul\":11500:11514   */\n      pop\n        /* \"#utility.yul\":11968:11972   */\n      dup3\n        /* \"#utility.yul\":11961:11972   */\n      swap8\n      pop\n        /* \"#utility.yul\":11988:11991   */\n      dup8\n        /* \"#utility.yul\":11981:11991   */\n      swap6\n      pop\n        /* \"#utility.yul\":11030:11997   */\n      pop\n      pop\n      pop\n      pop\n      pop\n        /* \"#utility.yul\":10846:11997   */\n      swap3\n      swap2\n      pop\n      pop\n      jump\t// out\n        /* \"#utility.yul\":12003:12496   */\n    tag_20:\n        /* \"#utility.yul\":12206:12210   */\n      0x00\n        /* \"#utility.yul\":12244:12246   */\n      0x20\n        /* \"#utility.yul\":12233:12242   */\n      dup3\n        /* \"#utility.yul\":12229:12247   */\n      add\n        /* \"#utility.yul\":12221:12247   */\n      swap1\n      pop\n        /* \"#utility.yul\":12293:12302   */\n      dup2\n        /* \"#utility.yul\":12287:12291   */\n      dup2\n        /* \"#utility.yul\":12283:12303   */\n      sub\n        /* \"#utility.yul\":12279:12280   */\n      0x00\n        /* \"#utility.yul\":12268:12277   */\n      dup4\n        /* \"#utility.yul\":12264:12281   */\n      add\n        /* \"#utility.yul\":12257:12304   */\n      mstore\n        /* \"#utility.yul\":12321:12489   */\n      tag_410\n        /* \"#utility.yul\":12484:12488   */\n      dup2\n        /* \"#utility.yul\":12475:12481   */\n      dup5\n        /* \"#utility.yul\":12321:12489   */\n      tag_264\n      jump\t// in\n    tag_410:\n        /* \"#utility.yul\":12313:12489   */\n      swap1\n      pop\n        /* \"#utility.yul\":12003:12496   */\n      swap3\n      swap2\n      pop\n      pop\n      jump\t// out\n        /* \"#utility.yul\":12590:14365   */\n    tag_265:\n        /* \"#utility.yul\":12719:12722   */\n      0x00\n        /* \"#utility.yul\":12755:12759   */\n      0xe0\n        /* \"#utility.yul\":12750:12753   */\n      dup4\n        /* \"#utility.yul\":12746:12760   */\n      add\n        /* \"#utility.yul\":12849:12853   */\n      0x00\n        /* \"#utility.yul\":12842:12847   */\n      dup4\n        /* \"#utility.yul\":12838:12854   */\n      add\n        /* \"#utility.yul\":12832:12855   */\n      mload\n        /* \"#utility.yul\":12868:12947   */\n      tag_412\n        /* \"#utility.yul\":12941:12945   */\n      0x00\n        /* \"#utility.yul\":12936:12939   */\n      dup7\n        /* \"#utility.yul\":12932:12946   */\n      add\n        /* \"#utility.yul\":12918:12930   */\n      dup3\n        /* \"#utility.yul\":12868:12947   */\n      tag_253\n      jump\t// in\n    tag_412:\n        /* \"#utility.yul\":12770:12957   */\n      pop\n        /* \"#utility.yul\":13043:13047   */\n      0x20\n        /* \"#utility.yul\":13036:13041   */\n      dup4\n        /* \"#utility.yul\":13032:13048   */\n      add\n        /* \"#utility.yul\":13026:13049   */\n      mload\n        /* \"#utility.yul\":13096:13099   */\n      dup5\n        /* \"#utility.yul\":13090:13094   */\n      dup3\n        /* \"#utility.yul\":13086:13100   */\n      sub\n        /* \"#utility.yul\":13079:13083   */\n      0x20\n        /* \"#utility.yul\":13074:13077   */\n      dup7\n        /* \"#utility.yul\":13070:13084   */\n      add\n        /* \"#utility.yul\":13063:13101   */\n      mstore\n        /* \"#utility.yul\":13122:13195   */\n      tag_413\n        /* \"#utility.yul\":13190:13194   */\n      dup3\n        /* \"#utility.yul\":13176:13188   */\n      dup3\n        /* \"#utility.yul\":13122:13195   */\n      tag_258\n      jump\t// in\n    tag_413:\n        /* \"#utility.yul\":13114:13195   */\n      swap2\n      pop\n        /* \"#utility.yul\":12967:13206   */\n      pop\n        /* \"#utility.yul\":13292:13296   */\n      0x40\n        /* \"#utility.yul\":13285:13290   */\n      dup4\n        /* \"#utility.yul\":13281:13297   */\n      add\n        /* \"#utility.yul\":13275:13298   */\n      mload\n        /* \"#utility.yul\":13345:13348   */\n      dup5\n        /* \"#utility.yul\":13339:13343   */\n      dup3\n        /* \"#utility.yul\":13335:13349   */\n      sub\n        /* \"#utility.yul\":13328:13332   */\n      0x40\n        /* \"#utility.yul\":13323:13326   */\n      dup7\n        /* \"#utility.yul\":13319:13333   */\n      add\n        /* \"#utility.yul\":13312:13350   */\n      mstore\n        /* \"#utility.yul\":13371:13444   */\n      tag_414\n        /* \"#utility.yul\":13439:13443   */\n      dup3\n        /* \"#utility.yul\":13425:13437   */\n      dup3\n        /* \"#utility.yul\":13371:13444   */\n      tag_258\n      jump\t// in\n    tag_414:\n        /* \"#utility.yul\":13363:13444   */\n      swap2\n      pop\n        /* \"#utility.yul\":13216:13455   */\n      pop\n        /* \"#utility.yul\":13548:13552   */\n      0x60\n        /* \"#utility.yul\":13541:13546   */\n      dup4\n        /* \"#utility.yul\":13537:13553   */\n      add\n        /* \"#utility.yul\":13531:13554   */\n      mload\n        /* \"#utility.yul\":13567:13630   */\n      tag_415\n        /* \"#utility.yul\":13624:13628   */\n      0x60\n        /* \"#utility.yul\":13619:13622   */\n      dup7\n        /* \"#utility.yul\":13615:13629   */\n      add\n        /* \"#utility.yul\":13601:13613   */\n      dup3\n        /* \"#utility.yul\":13567:13630   */\n      tag_244\n      jump\t// in\n    tag_415:\n        /* \"#utility.yul\":13465:13640   */\n      pop\n        /* \"#utility.yul\":13732:13736   */\n      0x80\n        /* \"#utility.yul\":13725:13730   */\n      dup4\n        /* \"#utility.yul\":13721:13737   */\n      add\n        /* \"#utility.yul\":13715:13738   */\n      mload\n        /* \"#utility.yul\":13751:13814   */\n      tag_416\n        /* \"#utility.yul\":13808:13812   */\n      0x80\n        /* \"#utility.yul\":13803:13806   */\n      dup7\n        /* \"#utility.yul\":13799:13813   */\n      add\n        /* \"#utility.yul\":13785:13797   */\n      dup3\n        /* \"#utility.yul\":13751:13814   */\n      tag_244\n      jump\t// in\n    tag_416:\n        /* \"#utility.yul\":13650:13824   */\n      pop\n        /* \"#utility.yul\":13910:13914   */\n      0xa0\n        /* \"#utility.yul\":13903:13908   */\n      dup4\n        /* \"#utility.yul\":13899:13915   */\n      add\n        /* \"#utility.yul\":13893:13916   */\n      mload\n        /* \"#utility.yul\":13963:13966   */\n      dup5\n        /* \"#utility.yul\":13957:13961   */\n      dup3\n        /* \"#utility.yul\":13953:13967   */\n      sub\n        /* \"#utility.yul\":13946:13950   */\n      0xa0\n        /* \"#utility.yul\":13941:13944   */\n      dup7\n        /* \"#utility.yul\":13937:13951   */\n      add\n        /* \"#utility.yul\":13930:13968   */\n      mstore\n        /* \"#utility.yul\":13989:14148   */\n      tag_417\n        /* \"#utility.yul\":14143:14147   */\n      dup3\n        /* \"#utility.yul\":14129:14141   */\n      dup3\n        /* \"#utility.yul\":13989:14148   */\n      tag_260\n      jump\t// in\n    tag_417:\n        /* \"#utility.yul\":13981:14148   */\n      swap2\n      pop\n        /* \"#utility.yul\":13834:14159   */\n      pop\n        /* \"#utility.yul\":14246:14250   */\n      0xc0\n        /* \"#utility.yul\":14239:14244   */\n      dup4\n        /* \"#utility.yul\":14235:14251   */\n      add\n        /* \"#utility.yul\":14229:14252   */\n      mload\n        /* \"#utility.yul\":14265:14328   */\n      tag_418\n        /* \"#utility.yul\":14322:14326   */\n      0xc0\n        /* \"#utility.yul\":14317:14320   */\n      dup7\n        /* \"#utility.yul\":14313:14327   */\n      add\n        /* \"#utility.yul\":14299:14311   */\n      dup3\n        /* \"#utility.yul\":14265:14328   */\n      tag_244\n      jump\t// in\n    tag_418:\n        /* \"#utility.yul\":14169:14338   */\n      pop\n        /* \"#utility.yul\":14355:14359   */\n      dup1\n        /* \"#utility.yul\":14348:14359   */\n      swap2\n      pop\n        /* \"#utility.yul\":12724:14365   */\n      pop\n        /* \"#utility.yul\":12590:14365   */\n      swap3\n      swap2\n      pop\n      pop\n      jump\t// out\n        /* \"#utility.yul\":14371:14764   */\n    tag_26:\n        /* \"#utility.yul\":14524:14528   */\n      0x00\n        /* \"#utility.yul\":14562:14564   */\n      0x20\n        /* \"#utility.yul\":14551:14560   */\n      dup3\n        /* \"#utility.yul\":14547:14565   */\n      add\n        /* \"#utility.yul\":14539:14565   */\n      swap1\n      pop\n        /* \"#utility.yul\":14611:14620   */\n      dup2\n        /* \"#utility.yul\":14605:14609   */\n      dup2\n        /* \"#utility.yul\":14601:14621   */\n      sub\n        /* \"#utility.yul\":14597:14598   */\n      0x00\n        /* \"#utility.yul\":14586:14595   */\n      dup4\n        /* \"#utility.yul\":14582:14599   */\n      add\n        /* \"#utility.yul\":14575:14622   */\n      mstore\n        /* \"#utility.yul\":14639:14757   */\n      tag_420\n        /* \"#utility.yul\":14752:14756   */\n      dup2\n        /* \"#utility.yul\":14743:14749   */\n      dup5\n        /* \"#utility.yul\":14639:14757   */\n      tag_265\n      jump\t// in\n    tag_420:\n        /* \"#utility.yul\":14631:14757   */\n      swap1\n      pop\n        /* \"#utility.yul\":14371:14764   */\n      swap3\n      swap2\n      pop\n      pop\n      jump\t// out\n        /* \"#utility.yul\":14770:14908   */\n    tag_266:\n        /* \"#utility.yul\":14851:14883   */\n      tag_422\n        /* \"#utility.yul\":14877:14882   */\n      dup2\n        /* \"#utility.yul\":14851:14883   */\n      tag_252\n      jump\t// in\n    tag_422:\n        /* \"#utility.yul\":14844:14849   */\n      dup2\n        /* \"#utility.yul\":14841:14884   */\n      eq\n        /* \"#utility.yul\":14831:14902   */\n      tag_423\n      jumpi\n        /* \"#utility.yul\":14898:14899   */\n      0x00\n        /* \"#utility.yul\":14895:14896   */\n      dup1\n        /* \"#utility.yul\":14888:14900   */\n      revert\n        /* \"#utility.yul\":14831:14902   */\n    tag_423:\n        /* \"#utility.yul\":14770:14908   */\n      pop\n      jump\t// out\n        /* \"#utility.yul\":14914:15069   */\n    tag_267:\n        /* \"#utility.yul\":14968:14973   */\n      0x00\n        /* \"#utility.yul\":15006:15012   */\n      dup2\n        /* \"#utility.yul\":14993:15013   */\n      calldataload\n        /* \"#utility.yul\":14984:15013   */\n      swap1\n      pop\n        /* \"#utility.yul\":15022:15063   */\n      tag_425\n        /* \"#utility.yul\":15057:15062   */\n      dup2\n        /* \"#utility.yul\":15022:15063   */\n      tag_266\n      jump\t// in\n    tag_425:\n        /* \"#utility.yul\":14914:15069   */\n      swap3\n      swap2\n      pop\n      pop\n      jump\t// out\n        /* \"#utility.yul\":15075:15192   */\n    tag_268:\n        /* \"#utility.yul\":15184:15185   */\n      0x00\n        /* \"#utility.yul\":15181:15182   */\n      dup1\n        /* \"#utility.yul\":15174:15186   */\n      revert\n        /* \"#utility.yul\":15198:15315   */\n    tag_269:\n        /* \"#utility.yul\":15307:15308   */\n      0x00\n        /* \"#utility.yul\":15304:15305   */\n      dup1\n        /* \"#utility.yul\":15297:15309   */\n      revert\n        /* \"#utility.yul\":15321:15501   */\n    tag_270:\n        /* \"#utility.yul\":15369:15446   */\n      0x4e487b7100000000000000000000000000000000000000000000000000000000\n        /* \"#utility.yul\":15366:15367   */\n      0x00\n        /* \"#utility.yul\":15359:15447   */\n      mstore\n        /* \"#utility.yul\":15466:15470   */\n      0x41\n        /* \"#utility.yul\":15463:15464   */\n      0x04\n        /* \"#utility.yul\":15456:15471   */\n      mstore\n        /* \"#utility.yul\":15490:15494   */\n      0x24\n        /* \"#utility.yul\":15487:15488   */\n      0x00\n        /* \"#utility.yul\":15480:15495   */\n      revert\n        /* \"#utility.yul\":15507:15788   */\n    tag_271:\n        /* \"#utility.yul\":15590:15617   */\n      tag_430\n        /* \"#utility.yul\":15612:15616   */\n      dup3\n        /* \"#utility.yul\":15590:15617   */\n      tag_257\n      jump\t// in\n    tag_430:\n        /* \"#utility.yul\":15582:15588   */\n      dup2\n        /* \"#utility.yul\":15578:15618   */\n      add\n        /* \"#utility.yul\":15720:15726   */\n      dup2\n        /* \"#utility.yul\":15708:15718   */\n      dup2\n        /* \"#utility.yul\":15705:15727   */\n      lt\n        /* \"#utility.yul\":15684:15702   */\n      0xffffffffffffffff\n        /* \"#utility.yul\":15672:15682   */\n      dup3\n        /* \"#utility.yul\":15669:15703   */\n      gt\n        /* \"#utility.yul\":15666:15728   */\n      or\n        /* \"#utility.yul\":15663:15751   */\n      iszero\n      tag_431\n      jumpi\n        /* \"#utility.yul\":15731:15749   */\n      tag_432\n      tag_270\n      jump\t// in\n    tag_432:\n        /* \"#utility.yul\":15663:15751   */\n    tag_431:\n        /* \"#utility.yul\":15771:15781   */\n      dup1\n        /* \"#utility.yul\":15767:15769   */\n      0x40\n        /* \"#utility.yul\":15760:15782   */\n      mstore\n        /* \"#utility.yul\":15550:15788   */\n      pop\n        /* \"#utility.yul\":15507:15788   */\n      pop\n      pop\n      jump\t// out\n        /* \"#utility.yul\":15794:15923   */\n    tag_272:\n        /* \"#utility.yul\":15828:15834   */\n      0x00\n        /* \"#utility.yul\":15855:15875   */\n      tag_434\n      tag_229\n      jump\t// in\n    tag_434:\n        /* \"#utility.yul\":15845:15875   */\n      swap1\n      pop\n        /* \"#utility.yul\":15884:15917   */\n      tag_435\n        /* \"#utility.yul\":15912:15916   */\n      dup3\n        /* \"#utility.yul\":15904:15910   */\n      dup3\n        /* \"#utility.yul\":15884:15917   */\n      tag_271\n      jump\t// in\n    tag_435:\n        /* \"#utility.yul\":15794:15923   */\n      swap2\n      swap1\n      pop\n      jump\t// out\n        /* \"#utility.yul\":15929:16237   */\n    tag_273:\n        /* \"#utility.yul\":15991:15995   */\n      0x00\n        /* \"#utility.yul\":16081:16099   */\n      0xffffffffffffffff\n        /* \"#utility.yul\":16073:16079   */\n      dup3\n        /* \"#utility.yul\":16070:16100   */\n      gt\n        /* \"#utility.yul\":16067:16123   */\n      iszero\n      tag_437\n      jumpi\n        /* \"#utility.yul\":16103:16121   */\n      tag_438\n      tag_270\n      jump\t// in\n    tag_438:\n        /* \"#utility.yul\":16067:16123   */\n    tag_437:\n        /* \"#utility.yul\":16141:16170   */\n      tag_439\n        /* \"#utility.yul\":16163:16169   */\n      dup3\n        /* \"#utility.yul\":16141:16170   */\n      tag_257\n      jump\t// in\n    tag_439:\n        /* \"#utility.yul\":16133:16170   */\n      swap1\n      pop\n        /* \"#utility.yul\":16225:16229   */\n      0x20\n        /* \"#utility.yul\":16219:16223   */\n      dup2\n        /* \"#utility.yul\":16215:16230   */\n      add\n        /* \"#utility.yul\":16207:16230   */\n      swap1\n      pop\n        /* \"#utility.yul\":15929:16237   */\n      swap2\n      swap1\n      pop\n      jump\t// out\n        /* \"#utility.yul\":16243:16389   */\n    tag_274:\n        /* \"#utility.yul\":16340:16346   */\n      dup3\n        /* \"#utility.yul\":16335:16338   */\n      dup2\n        /* \"#utility.yul\":16330:16333   */\n      dup4\n        /* \"#utility.yul\":16317:16347   */\n      calldatacopy\n        /* \"#utility.yul\":16381:16382   */\n      0x00\n        /* \"#utility.yul\":16372:16378   */\n      dup4\n        /* \"#utility.yul\":16367:16370   */\n      dup4\n        /* \"#utility.yul\":16363:16379   */\n      add\n        /* \"#utility.yul\":16356:16383   */\n      mstore\n        /* \"#utility.yul\":16243:16389   */\n      pop\n      pop\n      pop\n      jump\t// out\n        /* \"#utility.yul\":16395:16820   */\n    tag_275:\n        /* \"#utility.yul\":16473:16478   */\n      0x00\n        /* \"#utility.yul\":16498:16564   */\n      tag_442\n        /* \"#utility.yul\":16514:16563   */\n      tag_443\n        /* \"#utility.yul\":16556:16562   */\n      dup5\n        /* \"#utility.yul\":16514:16563   */\n      tag_273\n      jump\t// in\n    tag_443:\n        /* \"#utility.yul\":16498:16564   */\n      tag_272\n      jump\t// in\n    tag_442:\n        /* \"#utility.yul\":16489:16564   */\n      swap1\n      pop\n        /* \"#utility.yul\":16587:16593   */\n      dup3\n        /* \"#utility.yul\":16580:16585   */\n      dup2\n        /* \"#utility.yul\":16573:16594   */\n      mstore\n        /* \"#utility.yul\":16625:16629   */\n      0x20\n        /* \"#utility.yul\":16618:16623   */\n      dup2\n        /* \"#utility.yul\":16614:16630   */\n      add\n        /* \"#utility.yul\":16663:16666   */\n      dup5\n        /* \"#utility.yul\":16654:16660   */\n      dup5\n        /* \"#utility.yul\":16649:16652   */\n      dup5\n        /* \"#utility.yul\":16645:16661   */\n      add\n        /* \"#utility.yul\":16642:16667   */\n      gt\n        /* \"#utility.yul\":16639:16751   */\n      iszero\n      tag_444\n      jumpi\n        /* \"#utility.yul\":16670:16749   */\n      tag_445\n      tag_269\n      jump\t// in\n    tag_445:\n        /* \"#utility.yul\":16639:16751   */\n    tag_444:\n        /* \"#utility.yul\":16760:16814   */\n      tag_446\n        /* \"#utility.yul\":16807:16813   */\n      dup5\n        /* \"#utility.yul\":16802:16805   */\n      dup3\n        /* \"#utility.yul\":16797:16800   */\n      dup6\n        /* \"#utility.yul\":16760:16814   */\n      tag_274\n      jump\t// in\n    tag_446:\n        /* \"#utility.yul\":16479:16820   */\n      pop\n        /* \"#utility.yul\":16395:16820   */\n      swap4\n      swap3\n      pop\n      pop\n      pop\n      jump\t// out\n        /* \"#utility.yul\":16840:17180   */\n    tag_276:\n        /* \"#utility.yul\":16896:16901   */\n      0x00\n        /* \"#utility.yul\":16945:16948   */\n      dup3\n        /* \"#utility.yul\":16938:16942   */\n      0x1f\n        /* \"#utility.yul\":16930:16936   */\n      dup4\n        /* \"#utility.yul\":16926:16943   */\n      add\n        /* \"#utility.yul\":16922:16949   */\n      slt\n        /* \"#utility.yul\":16912:17034   */\n      tag_448\n      jumpi\n        /* \"#utility.yul\":16953:17032   */\n      tag_449\n      tag_268\n      jump\t// in\n    tag_449:\n        /* \"#utility.yul\":16912:17034   */\n    tag_448:\n        /* \"#utility.yul\":17070:17076   */\n      dup2\n        /* \"#utility.yul\":17057:17077   */\n      calldataload\n        /* \"#utility.yul\":17095:17174   */\n      tag_450\n        /* \"#utility.yul\":17170:17173   */\n      dup5\n        /* \"#utility.yul\":17162:17168   */\n      dup3\n        /* \"#utility.yul\":17155:17159   */\n      0x20\n        /* \"#utility.yul\":17147:17153   */\n      dup7\n        /* \"#utility.yul\":17143:17160   */\n      add\n        /* \"#utility.yul\":17095:17174   */\n      tag_275\n      jump\t// in\n    tag_450:\n        /* \"#utility.yul\":17086:17174   */\n      swap2\n      pop\n        /* \"#utility.yul\":16902:17180   */\n      pop\n        /* \"#utility.yul\":16840:17180   */\n      swap3\n      swap2\n      pop\n      pop\n      jump\t// out\n        /* \"#utility.yul\":17186:18327   */\n    tag_30:\n        /* \"#utility.yul\":17300:17306   */\n      0x00\n        /* \"#utility.yul\":17308:17314   */\n      dup1\n        /* \"#utility.yul\":17316:17322   */\n      0x00\n        /* \"#utility.yul\":17324:17330   */\n      dup1\n        /* \"#utility.yul\":17373:17376   */\n      0x80\n        /* \"#utility.yul\":17361:17370   */\n      dup6\n        /* \"#utility.yul\":17352:17359   */\n      dup8\n        /* \"#utility.yul\":17348:17371   */\n      sub\n        /* \"#utility.yul\":17344:17377   */\n      slt\n        /* \"#utility.yul\":17341:17461   */\n      iszero\n      tag_452\n      jumpi\n        /* \"#utility.yul\":17380:17459   */\n      tag_453\n      tag_230\n      jump\t// in\n    tag_453:\n        /* \"#utility.yul\":17341:17461   */\n    tag_452:\n        /* \"#utility.yul\":17500:17501   */\n      0x00\n        /* \"#utility.yul\":17525:17586   */\n      tag_454\n        /* \"#utility.yul\":17578:17585   */\n      dup8\n        /* \"#utility.yul\":17569:17575   */\n      dup3\n        /* \"#utility.yul\":17558:17567   */\n      dup9\n        /* \"#utility.yul\":17554:17576   */\n      add\n        /* \"#utility.yul\":17525:17586   */\n      tag_267\n      jump\t// in\n    tag_454:\n        /* \"#utility.yul\":17515:17586   */\n      swap5\n      pop\n        /* \"#utility.yul\":17471:17596   */\n      pop\n        /* \"#utility.yul\":17663:17665   */\n      0x20\n        /* \"#utility.yul\":17652:17661   */\n      dup6\n        /* \"#utility.yul\":17648:17666   */\n      add\n        /* \"#utility.yul\":17635:17667   */\n      calldataload\n        /* \"#utility.yul\":17694:17712   */\n      0xffffffffffffffff\n        /* \"#utility.yul\":17686:17692   */\n      dup2\n        /* \"#utility.yul\":17683:17713   */\n      gt\n        /* \"#utility.yul\":17680:17797   */\n      iszero\n      tag_455\n      jumpi\n        /* \"#utility.yul\":17716:17795   */\n      tag_456\n      tag_231\n      jump\t// in\n    tag_456:\n        /* \"#utility.yul\":17680:17797   */\n    tag_455:\n        /* \"#utility.yul\":17821:17884   */\n      tag_457\n        /* \"#utility.yul\":17876:17883   */\n      dup8\n        /* \"#utility.yul\":17867:17873   */\n      dup3\n        /* \"#utility.yul\":17856:17865   */\n      dup9\n        /* \"#utility.yul\":17852:17874   */\n      add\n        /* \"#utility.yul\":17821:17884   */\n      tag_276\n      jump\t// in\n    tag_457:\n        /* \"#utility.yul\":17811:17884   */\n      swap4\n      pop\n        /* \"#utility.yul\":17606:17894   */\n      pop\n        /* \"#utility.yul\":17961:17963   */\n      0x40\n        /* \"#utility.yul\":17950:17959   */\n      dup6\n        /* \"#utility.yul\":17946:17964   */\n      add\n        /* \"#utility.yul\":17933:17965   */\n      calldataload\n        /* \"#utility.yul\":17992:18010   */\n      0xffffffffffffffff\n        /* \"#utility.yul\":17984:17990   */\n      dup2\n        /* \"#utility.yul\":17981:18011   */\n      gt\n        /* \"#utility.yul\":17978:18095   */\n      iszero\n      tag_458\n      jumpi\n        /* \"#utility.yul\":18014:18093   */\n      tag_459\n      tag_231\n      jump\t// in\n    tag_459:\n        /* \"#utility.yul\":17978:18095   */\n    tag_458:\n        /* \"#utility.yul\":18119:18182   */\n      tag_460\n        /* \"#utility.yul\":18174:18181   */\n      dup8\n        /* \"#utility.yul\":18165:18171   */\n      dup3\n        /* \"#utility.yul\":18154:18163   */\n      dup9\n        /* \"#utility.yul\":18150:18172   */\n      add\n        /* \"#utility.yul\":18119:18182   */\n      tag_276\n      jump\t// in\n    tag_460:\n        /* \"#utility.yul\":18109:18182   */\n      swap3\n      pop\n        /* \"#utility.yul\":17904:18192   */\n      pop\n        /* \"#utility.yul\":18231:18233   */\n      0x60\n        /* \"#utility.yul\":18257:18310   */\n      tag_461\n        /* \"#utility.yul\":18302:18309   */\n      dup8\n        /* \"#utility.yul\":18293:18299   */\n      dup3\n        /* \"#utility.yul\":18282:18291   */\n      dup9\n        /* \"#utility.yul\":18278:18300   */\n      add\n        /* \"#utility.yul\":18257:18310   */\n      tag_234\n      jump\t// in\n    tag_461:\n        /* \"#utility.yul\":18247:18310   */\n      swap2\n      pop\n        /* \"#utility.yul\":18202:18320   */\n      pop\n        /* \"#utility.yul\":17186:18327   */\n      swap3\n      swap6\n      swap2\n      swap5\n      pop\n      swap3\n      pop\n      jump\t// out\n        /* \"#utility.yul\":18333:18662   */\n    tag_34:\n        /* \"#utility.yul\":18392:18398   */\n      0x00\n        /* \"#utility.yul\":18441:18443   */\n      0x20\n        /* \"#utility.yul\":18429:18438   */\n      dup3\n        /* \"#utility.yul\":18420:18427   */\n      dup5\n        /* \"#utility.yul\":18416:18439   */\n      sub\n        /* \"#utility.yul\":18412:18444   */\n      slt\n        /* \"#utility.yul\":18409:18528   */\n      iszero\n      tag_463\n      jumpi\n        /* \"#utility.yul\":18447:18526   */\n      tag_464\n      tag_230\n      jump\t// in\n    tag_464:\n        /* \"#utility.yul\":18409:18528   */\n    tag_463:\n        /* \"#utility.yul\":18567:18568   */\n      0x00\n        /* \"#utility.yul\":18592:18645   */\n      tag_465\n        /* \"#utility.yul\":18637:18644   */\n      dup5\n        /* \"#utility.yul\":18628:18634   */\n      dup3\n        /* \"#utility.yul\":18617:18626   */\n      dup6\n        /* \"#utility.yul\":18613:18635   */\n      add\n        /* \"#utility.yul\":18592:18645   */\n      tag_234\n      jump\t// in\n    tag_465:\n        /* \"#utility.yul\":18582:18645   */\n      swap2\n      pop\n        /* \"#utility.yul\":18538:18655   */\n      pop\n        /* \"#utility.yul\":18333:18662   */\n      swap3\n      swap2\n      pop\n      pop\n      jump\t// out\n        /* \"#utility.yul\":18668:18848   */\n    tag_40:\n        /* \"#utility.yul\":18716:18793   */\n      0x4e487b7100000000000000000000000000000000000000000000000000000000\n        /* \"#utility.yul\":18713:18714   */\n      0x00\n        /* \"#utility.yul\":18706:18794   */\n      mstore\n        /* \"#utility.yul\":18813:18817   */\n      0x32\n        /* \"#utility.yul\":18810:18811   */\n      0x04\n        /* \"#utility.yul\":18803:18818   */\n      mstore\n        /* \"#utility.yul\":18837:18841   */\n      0x24\n        /* \"#utility.yul\":18834:18835   */\n      0x00\n        /* \"#utility.yul\":18827:18842   */\n      revert\n        /* \"#utility.yul\":18854:19034   */\n    tag_277:\n        /* \"#utility.yul\":18902:18979   */\n      0x4e487b7100000000000000000000000000000000000000000000000000000000\n        /* \"#utility.yul\":18899:18900   */\n      0x00\n        /* \"#utility.yul\":18892:18980   */\n      mstore\n        /* \"#utility.yul\":18999:19003   */\n      0x22\n        /* \"#utility.yul\":18996:18997   */\n      0x04\n        /* \"#utility.yul\":18989:19004   */\n      mstore\n        /* \"#utility.yul\":19023:19027   */\n      0x24\n        /* \"#utility.yul\":19020:19021   */\n      0x00\n        /* \"#utility.yul\":19013:19028   */\n      revert\n        /* \"#utility.yul\":19040:19360   */\n    tag_57:\n        /* \"#utility.yul\":19084:19090   */\n      0x00\n        /* \"#utility.yul\":19121:19122   */\n      0x02\n        /* \"#utility.yul\":19115:19119   */\n      dup3\n        /* \"#utility.yul\":19111:19123   */\n      div\n        /* \"#utility.yul\":19101:19123   */\n      swap1\n      pop\n        /* \"#utility.yul\":19168:19169   */\n      0x01\n        /* \"#utility.yul\":19162:19166   */\n      dup3\n        /* \"#utility.yul\":19158:19170   */\n      and\n        /* \"#utility.yul\":19189:19207   */\n      dup1\n        /* \"#utility.yul\":19179:19260   */\n      tag_469\n      jumpi\n        /* \"#utility.yul\":19245:19249   */\n      0x7f\n        /* \"#utility.yul\":19237:19243   */\n      dup3\n        /* \"#utility.yul\":19233:19250   */\n      and\n        /* \"#utility.yul\":19223:19250   */\n      swap2\n      pop\n        /* \"#utility.yul\":19179:19260   */\n    tag_469:\n        /* \"#utility.yul\":19307:19309   */\n      0x20\n        /* \"#utility.yul\":19299:19305   */\n      dup3\n        /* \"#utility.yul\":19296:19310   */\n      lt\n        /* \"#utility.yul\":19276:19294   */\n      dup2\n        /* \"#utility.yul\":19273:19311   */\n      sub\n        /* \"#utility.yul\":19270:19354   */\n      tag_470\n      jumpi\n        /* \"#utility.yul\":19326:19344   */\n      tag_471\n      tag_277\n      jump\t// in\n    tag_471:\n        /* \"#utility.yul\":19270:19354   */\n    tag_470:\n        /* \"#utility.yul\":19091:19360   */\n      pop\n        /* \"#utility.yul\":19040:19360   */\n      swap2\n      swap1\n      pop\n      jump\t// out\n        /* \"#utility.yul\":19366:19535   */\n    tag_278:\n        /* \"#utility.yul\":19450:19461   */\n      0x00\n        /* \"#utility.yul\":19484:19490   */\n      dup3\n        /* \"#utility.yul\":19479:19482   */\n      dup3\n        /* \"#utility.yul\":19472:19491   */\n      mstore\n        /* \"#utility.yul\":19524:19528   */\n      0x20\n        /* \"#utility.yul\":19519:19522   */\n      dup3\n        /* \"#utility.yul\":19515:19529   */\n      add\n        /* \"#utility.yul\":19500:19529   */\n      swap1\n      pop\n        /* \"#utility.yul\":19366:19535   */\n      swap3\n      swap2\n      pop\n      pop\n      jump\t// out\n        /* \"#utility.yul\":19541:19723   */\n    tag_279:\n        /* \"#utility.yul\":19681:19715   */\n      0x52657175657374656420616d6f756e742063616e206e6f74206265207a65726f\n        /* \"#utility.yul\":19677:19678   */\n      0x00\n        /* \"#utility.yul\":19669:19675   */\n      dup3\n        /* \"#utility.yul\":19665:19679   */\n      add\n        /* \"#utility.yul\":19658:19716   */\n      mstore\n        /* \"#utility.yul\":19541:19723   */\n      pop\n      jump\t// out\n        /* \"#utility.yul\":19729:20095   */\n    tag_280:\n        /* \"#utility.yul\":19871:19874   */\n      0x00\n        /* \"#utility.yul\":19892:19959   */\n      tag_475\n        /* \"#utility.yul\":19956:19958   */\n      0x20\n        /* \"#utility.yul\":19951:19954   */\n      dup4\n        /* \"#utility.yul\":19892:19959   */\n      tag_278\n      jump\t// in\n    tag_475:\n        /* \"#utility.yul\":19885:19959   */\n      swap2\n      pop\n        /* \"#utility.yul\":19968:20061   */\n      tag_476\n        /* \"#utility.yul\":20057:20060   */\n      dup3\n        /* \"#utility.yul\":19968:20061   */\n      tag_279\n      jump\t// in\n    tag_476:\n        /* \"#utility.yul\":20086:20088   */\n      0x20\n        /* \"#utility.yul\":20081:20084   */\n      dup3\n        /* \"#utility.yul\":20077:20089   */\n      add\n        /* \"#utility.yul\":20070:20089   */\n      swap1\n      pop\n        /* \"#utility.yul\":19729:20095   */\n      swap2\n      swap1\n      pop\n      jump\t// out\n        /* \"#utility.yul\":20101:20520   */\n    tag_125:\n        /* \"#utility.yul\":20267:20271   */\n      0x00\n        /* \"#utility.yul\":20305:20307   */\n      0x20\n        /* \"#utility.yul\":20294:20303   */\n      dup3\n        /* \"#utility.yul\":20290:20308   */\n      add\n        /* \"#utility.yul\":20282:20308   */\n      swap1\n      pop\n        /* \"#utility.yul\":20354:20363   */\n      dup2\n        /* \"#utility.yul\":20348:20352   */\n      dup2\n        /* \"#utility.yul\":20344:20364   */\n      sub\n        /* \"#utility.yul\":20340:20341   */\n      0x00\n        /* \"#utility.yul\":20329:20338   */\n      dup4\n        /* \"#utility.yul\":20325:20342   */\n      add\n        /* \"#utility.yul\":20318:20365   */\n      mstore\n        /* \"#utility.yul\":20382:20513   */\n      tag_478\n        /* \"#utility.yul\":20508:20512   */\n      dup2\n        /* \"#utility.yul\":20382:20513   */\n      tag_280\n      jump\t// in\n    tag_478:\n        /* \"#utility.yul\":20374:20513   */\n      swap1\n      pop\n        /* \"#utility.yul\":20101:20520   */\n      swap2\n      swap1\n      pop\n      jump\t// out\n        /* \"#utility.yul\":20526:20701   */\n    tag_281:\n        /* \"#utility.yul\":20666:20693   */\n      0x596f75206861766520746f2061646420706f7374207465787400000000000000\n        /* \"#utility.yul\":20662:20663   */\n      0x00\n        /* \"#utility.yul\":20654:20660   */\n      dup3\n        /* \"#utility.yul\":20650:20664   */\n      add\n        /* \"#utility.yul\":20643:20694   */\n      mstore\n        /* \"#utility.yul\":20526:20701   */\n      pop\n      jump\t// out\n        /* \"#utility.yul\":20707:21073   */\n    tag_282:\n        /* \"#utility.yul\":20849:20852   */\n      0x00\n        /* \"#utility.yul\":20870:20937   */\n      tag_481\n        /* \"#utility.yul\":20934:20936   */\n      0x19\n        /* \"#utility.yul\":20929:20932   */\n      dup4\n        /* \"#utility.yul\":20870:20937   */\n      tag_278\n      jump\t// in\n    tag_481:\n        /* \"#utility.yul\":20863:20937   */\n      swap2\n      pop\n        /* \"#utility.yul\":20946:21039   */\n      tag_482\n        /* \"#utility.yul\":21035:21038   */\n      dup3\n        /* \"#utility.yul\":20946:21039   */\n      tag_281\n      jump\t// in\n    tag_482:\n        /* \"#utility.yul\":21064:21066   */\n      0x20\n        /* \"#utility.yul\":21059:21062   */\n      dup3\n        /* \"#utility.yul\":21055:21067   */\n      add\n        /* \"#utility.yul\":21048:21067   */\n      swap1\n      pop\n        /* \"#utility.yul\":20707:21073   */\n      swap2\n      swap1\n      pop\n      jump\t// out\n        /* \"#utility.yul\":21079:21498   */\n    tag_128:\n        /* \"#utility.yul\":21245:21249   */\n      0x00\n        /* \"#utility.yul\":21283:21285   */\n      0x20\n        /* \"#utility.yul\":21272:21281   */\n      dup3\n        /* \"#utility.yul\":21268:21286   */\n      add\n        /* \"#utility.yul\":21260:21286   */\n      swap1\n      pop\n        /* \"#utility.yul\":21332:21341   */\n      dup2\n        /* \"#utility.yul\":21326:21330   */\n      dup2\n        /* \"#utility.yul\":21322:21342   */\n      sub\n        /* \"#utility.yul\":21318:21319   */\n      0x00\n        /* \"#utility.yul\":21307:21316   */\n      dup4\n        /* \"#utility.yul\":21303:21320   */\n      add\n        /* \"#utility.yul\":21296:21343   */\n      mstore\n        /* \"#utility.yul\":21360:21491   */\n      tag_484\n        /* \"#utility.yul\":21486:21490   */\n      dup2\n        /* \"#utility.yul\":21360:21491   */\n      tag_282\n      jump\t// in\n    tag_484:\n        /* \"#utility.yul\":21352:21491   */\n      swap1\n      pop\n        /* \"#utility.yul\":21079:21498   */\n      swap2\n      swap1\n      pop\n      jump\t// out\n        /* \"#utility.yul\":21504:21645   */\n    tag_283:\n        /* \"#utility.yul\":21553:21557   */\n      0x00\n        /* \"#utility.yul\":21576:21579   */\n      dup2\n        /* \"#utility.yul\":21568:21579   */\n      swap1\n      pop\n        /* \"#utility.yul\":21599:21602   */\n      dup2\n        /* \"#utility.yul\":21596:21597   */\n      0x00\n        /* \"#utility.yul\":21589:21603   */\n      mstore\n        /* \"#utility.yul\":21633:21637   */\n      0x20\n        /* \"#utility.yul\":21630:21631   */\n      0x00\n        /* \"#utility.yul\":21620:21638   */\n      keccak256\n        /* \"#utility.yul\":21612:21638   */\n      swap1\n      pop\n        /* \"#utility.yul\":21504:21645   */\n      swap2\n      swap1\n      pop\n      jump\t// out\n        /* \"#utility.yul\":21651:21744   */\n    tag_284:\n        /* \"#utility.yul\":21688:21694   */\n      0x00\n        /* \"#utility.yul\":21735:21737   */\n      0x20\n        /* \"#utility.yul\":21730:21732   */\n      0x1f\n        /* \"#utility.yul\":21723:21728   */\n      dup4\n        /* \"#utility.yul\":21719:21733   */\n      add\n        /* \"#utility.yul\":21715:21738   */\n      div\n        /* \"#utility.yul\":21705:21738   */\n      swap1\n      pop\n        /* \"#utility.yul\":21651:21744   */\n      swap2\n      swap1\n      pop\n      jump\t// out\n        /* \"#utility.yul\":21750:21857   */\n    tag_285:\n        /* \"#utility.yul\":21794:21802   */\n      0x00\n        /* \"#utility.yul\":21844:21849   */\n      dup3\n        /* \"#utility.yul\":21838:21842   */\n      dup3\n        /* \"#utility.yul\":21834:21850   */\n      shl\n        /* \"#utility.yul\":21813:21850   */\n      swap1\n      pop\n        /* \"#utility.yul\":21750:21857   */\n      swap3\n      swap2\n      pop\n      pop\n      jump\t// out\n        /* \"#utility.yul\":21863:22256   */\n    tag_286:\n        /* \"#utility.yul\":21932:21938   */\n      0x00\n        /* \"#utility.yul\":21982:21983   */\n      0x08\n        /* \"#utility.yul\":21970:21980   */\n      dup4\n        /* \"#utility.yul\":21966:21984   */\n      mul\n        /* \"#utility.yul\":22005:22102   */\n      tag_489\n        /* \"#utility.yul\":22035:22101   */\n      0xffffffffffffffffffffffffffffffffffffffffffffffffffffffffffffffff\n        /* \"#utility.yul\":22024:22033   */\n      dup3\n        /* \"#utility.yul\":22005:22102   */\n      tag_285\n      jump\t// in\n    tag_489:\n        /* \"#utility.yul\":22123:22162   */\n      tag_490\n        /* \"#utility.yul\":22153:22161   */\n      dup7\n        /* \"#utility.yul\":22142:22151   */\n      dup4\n        /* \"#utility.yul\":22123:22162   */\n      tag_285\n      jump\t// in\n    tag_490:\n        /* \"#utility.yul\":22111:22162   */\n      swap6\n      pop\n        /* \"#utility.yul\":22195:22199   */\n      dup1\n        /* \"#utility.yul\":22191:22200   */\n      not\n        /* \"#utility.yul\":22184:22189   */\n      dup5\n        /* \"#utility.yul\":22180:22201   */\n      and\n        /* \"#utility.yul\":22171:22201   */\n      swap4\n      pop\n        /* \"#utility.yul\":22244:22248   */\n      dup1\n        /* \"#utility.yul\":22234:22242   */\n      dup7\n        /* \"#utility.yul\":22230:22249   */\n      and\n        /* \"#utility.yul\":22223:22228   */\n      dup5\n        /* \"#utility.yul\":22220:22250   */\n      or\n        /* \"#utility.yul\":22210:22250   */\n      swap3\n      pop\n        /* \"#utility.yul\":21939:22256   */\n      pop\n      pop\n        /* \"#utility.yul\":21863:22256   */\n      swap4\n      swap3\n      pop\n      pop\n      pop\n      jump\t// out\n        /* \"#utility.yul\":22262:22322   */\n    tag_287:\n        /* \"#utility.yul\":22290:22293   */\n      0x00\n        /* \"#utility.yul\":22311:22316   */\n      dup2\n        /* \"#utility.yul\":22304:22316   */\n      swap1\n      pop\n        /* \"#utility.yul\":22262:22322   */\n      swap2\n      swap1\n      pop\n      jump\t// out\n        /* \"#utility.yul\":22328:22470   */\n    tag_288:\n        /* \"#utility.yul\":22378:22387   */\n      0x00\n        /* \"#utility.yul\":22411:22464   */\n      tag_493\n        /* \"#utility.yul\":22429:22463   */\n      tag_494\n        /* \"#utility.yul\":22438:22462   */\n      tag_495\n        /* \"#utility.yul\":22456:22461   */\n      dup5\n        /* \"#utility.yul\":22438:22462   */\n      tag_232\n      jump\t// in\n    tag_495:\n        /* \"#utility.yul\":22429:22463   */\n      tag_287\n      jump\t// in\n    tag_494:\n        /* \"#utility.yul\":22411:22464   */\n      tag_232\n      jump\t// in\n    tag_493:\n        /* \"#utility.yul\":22398:22464   */\n      swap1\n      pop\n        /* \"#utility.yul\":22328:22470   */\n      swap2\n      swap1\n      pop\n      jump\t// out\n        /* \"#utility.yul\":22476:22551   */\n    tag_289:\n        /* \"#utility.yul\":22519:22522   */\n      0x00\n        /* \"#utility.yul\":22540:22545   */\n      dup2\n        /* \"#utility.yul\":22533:22545   */\n      swap1\n      pop\n        /* \"#utility.yul\":22476:22551   */\n      swap2\n      swap1\n      pop\n      jump\t// out\n        /* \"#utility.yul\":22557:22826   */\n    tag_290:\n        /* \"#utility.yul\":22667:22706   */\n      tag_498\n        /* \"#utility.yul\":22698:22705   */\n      dup4\n        /* \"#utility.yul\":22667:22706   */\n      tag_288\n      jump\t// in\n    tag_498:\n        /* \"#utility.yul\":22728:22819   */\n      tag_499\n        /* \"#utility.yul\":22777:22818   */\n      tag_500\n        /* \"#utility.yul\":22801:22817   */\n      dup3\n        /* \"#utility.yul\":22777:22818   */\n      tag_289\n      jump\t// in\n    tag_500:\n        /* \"#utility.yul\":22769:22775   */\n      dup5\n        /* \"#utility.yul\":22762:22766   */\n      dup5\n        /* \"#utility.yul\":22756:22767   */\n      sload\n        /* \"#utility.yul\":22728:22819   */\n      tag_286\n      jump\t// in\n    tag_499:\n        /* \"#utility.yul\":22722:22726   */\n      dup3\n        /* \"#utility.yul\":22715:22820   */\n      sstore\n        /* \"#utility.yul\":22633:22826   */\n      pop\n        /* \"#utility.yul\":22557:22826   */\n      pop\n      pop\n      pop\n      jump\t// out\n        /* \"#utility.yul\":22832:22905   */\n    tag_291:\n        /* \"#utility.yul\":22877:22880   */\n      0x00\n        /* \"#utility.yul\":22832:22905   */\n      swap1\n      jump\t// out\n        /* \"#utility.yul\":22911:23100   */\n    tag_292:\n        /* \"#utility.yul\":22988:23020   */\n      tag_503\n      tag_291\n      jump\t// in\n    tag_503:\n        /* \"#utility.yul\":23029:23094   */\n      tag_504\n        /* \"#utility.yul\":23087:23093   */\n      dup2\n        /* \"#utility.yul\":23079:23085   */\n      dup5\n        /* \"#utility.yul\":23073:23077   */\n      dup5\n        /* \"#utility.yul\":23029:23094   */\n      tag_290\n      jump\t// in\n    tag_504:\n        /* \"#utility.yul\":22964:23100   */\n      pop\n        /* \"#utility.yul\":22911:23100   */\n      pop\n      pop\n      jump\t// out\n        /* \"#utility.yul\":23106:23292   */\n    tag_293:\n        /* \"#utility.yul\":23166:23286   */\n    tag_506:\n        /* \"#utility.yul\":23183:23186   */\n      dup2\n        /* \"#utility.yul\":23176:23181   */\n      dup2\n        /* \"#utility.yul\":23173:23187   */\n      lt\n        /* \"#utility.yul\":23166:23286   */\n      iszero\n      tag_508\n      jumpi\n        /* \"#utility.yul\":23237:23276   */\n      tag_509\n        /* \"#utility.yul\":23274:23275   */\n      0x00\n        /* \"#utility.yul\":23267:23272   */\n      dup3\n        /* \"#utility.yul\":23237:23276   */\n      tag_292\n      jump\t// in\n    tag_509:\n        /* \"#utility.yul\":23210:23211   */\n      0x01\n        /* \"#utility.yul\":23203:23208   */\n      dup2\n        /* \"#utility.yul\":23199:23212   */\n      add\n        /* \"#utility.yul\":23190:23212   */\n      swap1\n      pop\n        /* \"#utility.yul\":23166:23286   */\n      jump(tag_506)\n    tag_508:\n        /* \"#utility.yul\":23106:23292   */\n      pop\n      pop\n      jump\t// out\n        /* \"#utility.yul\":23298:23841   */\n    tag_294:\n        /* \"#utility.yul\":23399:23401   */\n      0x1f\n        /* \"#utility.yul\":23394:23397   */\n      dup3\n        /* \"#utility.yul\":23391:23402   */\n      gt\n        /* \"#utility.yul\":23388:23834   */\n      iszero\n      tag_511\n      jumpi\n        /* \"#utility.yul\":23433:23471   */\n      tag_512\n        /* \"#utility.yul\":23465:23470   */\n      dup2\n        /* \"#utility.yul\":23433:23471   */\n      tag_283\n      jump\t// in\n    tag_512:\n        /* \"#utility.yul\":23517:23546   */\n      tag_513\n        /* \"#utility.yul\":23535:23545   */\n      dup5\n        /* \"#utility.yul\":23517:23546   */\n      tag_284\n      jump\t// in\n    tag_513:\n        /* \"#utility.yul\":23507:23515   */\n      dup2\n        /* \"#utility.yul\":23503:23547   */\n      add\n        /* \"#utility.yul\":23700:23702   */\n      0x20\n        /* \"#utility.yul\":23688:23698   */\n      dup6\n        /* \"#utility.yul\":23685:23703   */\n      lt\n        /* \"#utility.yul\":23682:23731   */\n      iszero\n      tag_514\n      jumpi\n        /* \"#utility.yul\":23721:23729   */\n      dup2\n        /* \"#utility.yul\":23706:23729   */\n      swap1\n      pop\n        /* \"#utility.yul\":23682:23731   */\n    tag_514:\n        /* \"#utility.yul\":23744:23824   */\n      tag_515\n        /* \"#utility.yul\":23800:23822   */\n      tag_516\n        /* \"#utility.yul\":23818:23821   */\n      dup6\n        /* \"#utility.yul\":23800:23822   */\n      tag_284\n      jump\t// in\n    tag_516:\n        /* \"#utility.yul\":23790:23798   */\n      dup4\n        /* \"#utility.yul\":23786:23823   */\n      add\n        /* \"#utility.yul\":23773:23784   */\n      dup3\n        /* \"#utility.yul\":23744:23824   */\n      tag_293\n      jump\t// in\n    tag_515:\n        /* \"#utility.yul\":23403:23834   */\n      pop\n      pop\n        /* \"#utility.yul\":23388:23834   */\n    tag_511:\n        /* \"#utility.yul\":23298:23841   */\n      pop\n      pop\n      pop\n      jump\t// out\n        /* \"#utility.yul\":23847:23964   */\n    tag_295:\n        /* \"#utility.yul\":23901:23909   */\n      0x00\n        /* \"#utility.yul\":23951:23956   */\n      dup3\n        /* \"#utility.yul\":23945:23949   */\n      dup3\n        /* \"#utility.yul\":23941:23957   */\n      shr\n        /* \"#utility.yul\":23920:23957   */\n      swap1\n      pop\n        /* \"#utility.yul\":23847:23964   */\n      swap3\n      swap2\n      pop\n      pop\n      jump\t// out\n        /* \"#utility.yul\":23970:24139   */\n    tag_296:\n        /* \"#utility.yul\":24014:24020   */\n      0x00\n        /* \"#utility.yul\":24047:24098   */\n      tag_519\n        /* \"#utility.yul\":24095:24096   */\n      0x00\n        /* \"#utility.yul\":24091:24097   */\n      not\n        /* \"#utility.yul\":24083:24088   */\n      dup5\n        /* \"#utility.yul\":24080:24081   */\n      0x08\n        /* \"#utility.yul\":24076:24089   */\n      mul\n        /* \"#utility.yul\":24047:24098   */\n      tag_295\n      jump\t// in\n    tag_519:\n        /* \"#utility.yul\":24043:24099   */\n      not\n        /* \"#utility.yul\":24128:24132   */\n      dup1\n        /* \"#utility.yul\":24122:24126   */\n      dup4\n        /* \"#utility.yul\":24118:24133   */\n      and\n        /* \"#utility.yul\":24108:24133   */\n      swap2\n      pop\n        /* \"#utility.yul\":24021:24139   */\n      pop\n        /* \"#utility.yul\":23970:24139   */\n      swap3\n      swap2\n      pop\n      pop\n      jump\t// out\n        /* \"#utility.yul\":24144:24439   */\n    tag_297:\n        /* \"#utility.yul\":24220:24224   */\n      0x00\n        /* \"#utility.yul\":24366:24395   */\n      tag_521\n        /* \"#utility.yul\":24391:24394   */\n      dup4\n        /* \"#utility.yul\":24385:24389   */\n      dup4\n        /* \"#utility.yul\":24366:24395   */\n      tag_296\n      jump\t// in\n    tag_521:\n        /* \"#utility.yul\":24358:24395   */\n      swap2\n      pop\n        /* \"#utility.yul\":24428:24431   */\n      dup3\n        /* \"#utility.yul\":24425:24426   */\n      0x02\n        /* \"#utility.yul\":24421:24432   */\n      mul\n        /* \"#utility.yul\":24415:24419   */\n      dup3\n        /* \"#utility.yul\":24412:24433   */\n      or\n        /* \"#utility.yul\":24404:24433   */\n      swap1\n      pop\n        /* \"#utility.yul\":24144:24439   */\n      swap3\n      swap2\n      pop\n      pop\n      jump\t// out\n        /* \"#utility.yul\":24444:25839   */\n    tag_130:\n        /* \"#utility.yul\":24561:24598   */\n      tag_523\n        /* \"#utility.yul\":24594:24597   */\n      dup3\n        /* \"#utility.yul\":24561:24598   */\n      tag_254\n      jump\t// in\n    tag_523:\n        /* \"#utility.yul\":24663:24681   */\n      0xffffffffffffffff\n        /* \"#utility.yul\":24655:24661   */\n      dup2\n        /* \"#utility.yul\":24652:24682   */\n      gt\n        /* \"#utility.yul\":24649:24705   */\n      iszero\n      tag_524\n      jumpi\n        /* \"#utility.yul\":24685:24703   */\n      tag_525\n      tag_270\n      jump\t// in\n    tag_525:\n        /* \"#utility.yul\":24649:24705   */\n    tag_524:\n        /* \"#utility.yul\":24729:24767   */\n      tag_526\n        /* \"#utility.yul\":24761:24765   */\n      dup3\n        /* \"#utility.yul\":24755:24766   */\n      sload\n        /* \"#utility.yul\":24729:24767   */\n      tag_57\n      jump\t// in\n    tag_526:\n        /* \"#utility.yul\":24814:24881   */\n      tag_527\n        /* \"#utility.yul\":24874:24880   */\n      dup3\n        /* \"#utility.yul\":24866:24872   */\n      dup3\n        /* \"#utility.yul\":24860:24864   */\n      dup6\n        /* \"#utility.yul\":24814:24881   */\n      tag_294\n      jump\t// in\n    tag_527:\n        /* \"#utility.yul\":24908:24909   */\n      0x00\n        /* \"#utility.yul\":24932:24936   */\n      0x20\n        /* \"#utility.yul\":24919:24936   */\n      swap1\n      pop\n        /* \"#utility.yul\":24964:24966   */\n      0x1f\n        /* \"#utility.yul\":24956:24962   */\n      dup4\n        /* \"#utility.yul\":24953:24967   */\n      gt\n        /* \"#utility.yul\":24981:24982   */\n      0x01\n        /* \"#utility.yul\":24976:25594   */\n      dup2\n      eq\n      tag_529\n      jumpi\n        /* \"#utility.yul\":25638:25639   */\n      0x00\n        /* \"#utility.yul\":25655:25661   */\n      dup5\n        /* \"#utility.yul\":25652:25729   */\n      iszero\n      tag_530\n      jumpi\n        /* \"#utility.yul\":25704:25713   */\n      dup3\n        /* \"#utility.yul\":25699:25702   */\n      dup8\n        /* \"#utility.yul\":25695:25714   */\n      add\n        /* \"#utility.yul\":25689:25715   */\n      mload\n        /* \"#utility.yul\":25680:25715   */\n      swap1\n      pop\n        /* \"#utility.yul\":25652:25729   */\n    tag_530:\n        /* \"#utility.yul\":25755:25822   */\n      tag_531\n        /* \"#utility.yul\":25815:25821   */\n      dup6\n        /* \"#utility.yul\":25808:25813   */\n      dup3\n        /* \"#utility.yul\":25755:25822   */\n      tag_297\n      jump\t// in\n    tag_531:\n        /* \"#utility.yul\":25749:25753   */\n      dup7\n        /* \"#utility.yul\":25742:25823   */\n      sstore\n        /* \"#utility.yul\":25611:25833   */\n      pop\n        /* \"#utility.yul\":24946:25833   */\n      jump(tag_528)\n        /* \"#utility.yul\":24976:25594   */\n    tag_529:\n        /* \"#utility.yul\":25028:25032   */\n      0x1f\n        /* \"#utility.yul\":25024:25033   */\n      not\n        /* \"#utility.yul\":25016:25022   */\n      dup5\n        /* \"#utility.yul\":25012:25034   */\n      and\n        /* \"#utility.yul\":25062:25099   */\n      tag_532\n        /* \"#utility.yul\":25094:25098   */\n      dup7\n        /* \"#utility.yul\":25062:25099   */\n      tag_283\n      jump\t// in\n    tag_532:\n        /* \"#utility.yul\":25121:25122   */\n      0x00\n        /* \"#utility.yul\":25135:25343   */\n    tag_533:\n        /* \"#utility.yul\":25149:25156   */\n      dup3\n        /* \"#utility.yul\":25146:25147   */\n      dup2\n        /* \"#utility.yul\":25143:25157   */\n      lt\n        /* \"#utility.yul\":25135:25343   */\n      iszero\n      tag_535\n      jumpi\n        /* \"#utility.yul\":25228:25237   */\n      dup5\n        /* \"#utility.yul\":25223:25226   */\n      dup10\n        /* \"#utility.yul\":25219:25238   */\n      add\n        /* \"#utility.yul\":25213:25239   */\n      mload\n        /* \"#utility.yul\":25205:25211   */\n      dup3\n        /* \"#utility.yul\":25198:25240   */\n      sstore\n        /* \"#utility.yul\":25279:25280   */\n      0x01\n        /* \"#utility.yul\":25271:25277   */\n      dup3\n        /* \"#utility.yul\":25267:25281   */\n      add\n        /* \"#utility.yul\":25257:25281   */\n      swap2\n      pop\n        /* \"#utility.yul\":25326:25328   */\n      0x20\n        /* \"#utility.yul\":25315:25324   */\n      dup6\n        /* \"#utility.yul\":25311:25329   */\n      add\n        /* \"#utility.yul\":25298:25329   */\n      swap5\n      pop\n        /* \"#utility.yul\":25172:25176   */\n      0x20\n        /* \"#utility.yul\":25169:25170   */\n      dup2\n        /* \"#utility.yul\":25165:25177   */\n      add\n        /* \"#utility.yul\":25160:25177   */\n      swap1\n      pop\n        /* \"#utility.yul\":25135:25343   */\n      jump(tag_533)\n    tag_535:\n        /* \"#utility.yul\":25371:25377   */\n      dup7\n        /* \"#utility.yul\":25362:25369   */\n      dup4\n        /* \"#utility.yul\":25359:25378   */\n      lt\n        /* \"#utility.yul\":25356:25535   */\n      iszero\n      tag_536\n      jumpi\n        /* \"#utility.yul\":25429:25438   */\n      dup5\n        /* \"#utility.yul\":25424:25427   */\n      dup10\n        /* \"#utility.yul\":25420:25439   */\n      add\n        /* \"#utility.yul\":25414:25440   */\n      mload\n        /* \"#utility.yul\":25472:25520   */\n      tag_537\n        /* \"#utility.yul\":25514:25518   */\n      0x1f\n        /* \"#utility.yul\":25506:25512   */\n      dup10\n        /* \"#utility.yul\":25502:25519   */\n      and\n        /* \"#utility.yul\":25491:25500   */\n      dup3\n        /* \"#utility.yul\":25472:25520   */\n      tag_296\n      jump\t// in\n    tag_537:\n        /* \"#utility.yul\":25464:25470   */\n      dup4\n        /* \"#utility.yul\":25457:25521   */\n      sstore\n        /* \"#utility.yul\":25379:25535   */\n      pop\n        /* \"#utility.yul\":25356:25535   */\n    tag_536:\n        /* \"#utility.yul\":25581:25582   */\n      0x01\n        /* \"#utility.yul\":25577:25578   */\n      0x02\n        /* \"#utility.yul\":25569:25575   */\n      dup9\n        /* \"#utility.yul\":25565:25579   */\n      mul\n        /* \"#utility.yul\":25561:25583   */\n      add\n        /* \"#utility.yul\":25555:25559   */\n      dup9\n        /* \"#utility.yul\":25548:25584   */\n      sstore\n        /* \"#utility.yul\":24983:25594   */\n      pop\n      pop\n      pop\n        /* \"#utility.yul\":24946:25833   */\n    tag_528:\n      pop\n        /* \"#utility.yul\":24536:25839   */\n      pop\n      pop\n      pop\n        /* \"#utility.yul\":24444:25839   */\n      pop\n      pop\n      jump\t// out\n        /* \"#utility.yul\":25845:25994   */\n    tag_298:\n        /* \"#utility.yul\":25894:25900   */\n      0x00\n        /* \"#utility.yul\":25928:25933   */\n      dup2\n        /* \"#utility.yul\":25922:25934   */\n      sload\n        /* \"#utility.yul\":25912:25934   */\n      swap1\n      pop\n        /* \"#utility.yul\":25954:25987   */\n      tag_539\n        /* \"#utility.yul\":25980:25986   */\n      dup2\n        /* \"#utility.yul\":25954:25987   */\n      tag_57\n      jump\t// in\n    tag_539:\n        /* \"#utility.yul\":25944:25987   */\n      swap1\n      pop\n        /* \"#utility.yul\":25845:25994   */\n      swap2\n      swap1\n      pop\n      jump\t// out\n        /* \"#utility.yul\":26000:27451   */\n    tag_134:\n        /* \"#utility.yul\":26111:26114   */\n      dup2\n        /* \"#utility.yul\":26105:26109   */\n      dup2\n        /* \"#utility.yul\":26102:26115   */\n      sub\n        /* \"#utility.yul\":26099:26125   */\n      tag_541\n      jumpi\n        /* \"#utility.yul\":26118:26123   */\n      pop\n      pop\n      jump(tag_540)\n        /* \"#utility.yul\":26099:26125   */\n    tag_541:\n        /* \"#utility.yul\":26149:26183   */\n      tag_542\n        /* \"#utility.yul\":26179:26182   */\n      dup3\n        /* \"#utility.yul\":26149:26183   */\n      tag_298\n      jump\t// in\n    tag_542:\n        /* \"#utility.yul\":26248:26266   */\n      0xffffffffffffffff\n        /* \"#utility.yul\":26240:26246   */\n      dup2\n        /* \"#utility.yul\":26237:26267   */\n      gt\n        /* \"#utility.yul\":26234:26290   */\n      iszero\n      tag_543\n      jumpi\n        /* \"#utility.yul\":26270:26288   */\n      tag_544\n      tag_270\n      jump\t// in\n    tag_544:\n        /* \"#utility.yul\":26234:26290   */\n    tag_543:\n        /* \"#utility.yul\":26314:26352   */\n      tag_545\n        /* \"#utility.yul\":26346:26350   */\n      dup3\n        /* \"#utility.yul\":26340:26351   */\n      sload\n        /* \"#utility.yul\":26314:26352   */\n      tag_57\n      jump\t// in\n    tag_545:\n        /* \"#utility.yul\":26399:26466   */\n      tag_546\n        /* \"#utility.yul\":26459:26465   */\n      dup3\n        /* \"#utility.yul\":26451:26457   */\n      dup3\n        /* \"#utility.yul\":26445:26449   */\n      dup6\n        /* \"#utility.yul\":26399:26466   */\n      tag_294\n      jump\t// in\n    tag_546:\n        /* \"#utility.yul\":26493:26494   */\n      0x00\n        /* \"#utility.yul\":26522:26524   */\n      0x1f\n        /* \"#utility.yul\":26514:26520   */\n      dup4\n        /* \"#utility.yul\":26511:26525   */\n      gt\n        /* \"#utility.yul\":26539:26540   */\n      0x01\n        /* \"#utility.yul\":26534:27206   */\n      dup2\n      eq\n      tag_548\n      jumpi\n        /* \"#utility.yul\":27250:27251   */\n      0x00\n        /* \"#utility.yul\":27267:27273   */\n      dup5\n        /* \"#utility.yul\":27264:27341   */\n      iszero\n      tag_549\n      jumpi\n        /* \"#utility.yul\":27316:27325   */\n      dup3\n        /* \"#utility.yul\":27311:27314   */\n      dup8\n        /* \"#utility.yul\":27307:27326   */\n      add\n        /* \"#utility.yul\":27301:27327   */\n      sload\n        /* \"#utility.yul\":27292:27327   */\n      swap1\n      pop\n        /* \"#utility.yul\":27264:27341   */\n    tag_549:\n        /* \"#utility.yul\":27367:27434   */\n      tag_550\n        /* \"#utility.yul\":27427:27433   */\n      dup6\n        /* \"#utility.yul\":27420:27425   */\n      dup3\n        /* \"#utility.yul\":27367:27434   */\n      tag_297\n      jump\t// in\n    tag_550:\n        /* \"#utility.yul\":27361:27365   */\n      dup7\n        /* \"#utility.yul\":27354:27435   */\n      sstore\n        /* \"#utility.yul\":27223:27445   */\n      pop\n        /* \"#utility.yul\":26504:27445   */\n      jump(tag_547)\n        /* \"#utility.yul\":26534:27206   */\n    tag_548:\n        /* \"#utility.yul\":26586:26590   */\n      0x1f\n        /* \"#utility.yul\":26582:26591   */\n      not\n        /* \"#utility.yul\":26574:26580   */\n      dup5\n        /* \"#utility.yul\":26570:26592   */\n      and\n        /* \"#utility.yul\":26612:26648   */\n      tag_551\n        /* \"#utility.yul\":26644:26647   */\n      dup8\n        /* \"#utility.yul\":26612:26648   */\n      tag_283\n      jump\t// in\n    tag_551:\n        /* \"#utility.yul\":26605:26648   */\n      swap7\n      pop\n        /* \"#utility.yul\":26675:26712   */\n      tag_552\n        /* \"#utility.yul\":26707:26711   */\n      dup7\n        /* \"#utility.yul\":26675:26712   */\n      tag_283\n      jump\t// in\n    tag_552:\n        /* \"#utility.yul\":26734:26735   */\n      0x00\n        /* \"#utility.yul\":26748:26955   */\n    tag_553:\n        /* \"#utility.yul\":26762:26769   */\n      dup3\n        /* \"#utility.yul\":26759:26760   */\n      dup2\n        /* \"#utility.yul\":26756:26770   */\n      lt\n        /* \"#utility.yul\":26748:26955   */\n      iszero\n      tag_555\n      jumpi\n        /* \"#utility.yul\":26841:26850   */\n      dup5\n        /* \"#utility.yul\":26836:26839   */\n      dup10\n        /* \"#utility.yul\":26832:26851   */\n      add\n        /* \"#utility.yul\":26826:26852   */\n      sload\n        /* \"#utility.yul\":26818:26824   */\n      dup3\n        /* \"#utility.yul\":26811:26853   */\n      sstore\n        /* \"#utility.yul\":26892:26893   */\n      0x01\n        /* \"#utility.yul\":26884:26890   */\n      dup3\n        /* \"#utility.yul\":26880:26894   */\n      add\n        /* \"#utility.yul\":26870:26894   */\n      swap2\n      pop\n        /* \"#utility.yul\":26939:26940   */\n      0x01\n        /* \"#utility.yul\":26928:26937   */\n      dup6\n        /* \"#utility.yul\":26924:26941   */\n      add\n        /* \"#utility.yul\":26911:26941   */\n      swap5\n      pop\n        /* \"#utility.yul\":26785:26789   */\n      0x20\n        /* \"#utility.yul\":26782:26783   */\n      dup2\n        /* \"#utility.yul\":26778:26790   */\n      add\n        /* \"#utility.yul\":26773:26790   */\n      swap1\n      pop\n        /* \"#utility.yul\":26748:26955   */\n      jump(tag_553)\n    tag_555:\n        /* \"#utility.yul\":26983:26989   */\n      dup7\n        /* \"#utility.yul\":26974:26981   */\n      dup4\n        /* \"#utility.yul\":26971:26990   */\n      lt\n        /* \"#utility.yul\":26968:27147   */\n      iszero\n      tag_556\n      jumpi\n        /* \"#utility.yul\":27041:27050   */\n      dup5\n        /* \"#utility.yul\":27036:27039   */\n      dup10\n        /* \"#utility.yul\":27032:27051   */\n      add\n        /* \"#utility.yul\":27026:27052   */\n      sload\n        /* \"#utility.yul\":27084:27132   */\n      tag_557\n        /* \"#utility.yul\":27126:27130   */\n      0x1f\n        /* \"#utility.yul\":27118:27124   */\n      dup10\n        /* \"#utility.yul\":27114:27131   */\n      and\n        /* \"#utility.yul\":27103:27112   */\n      dup3\n        /* \"#utility.yul\":27084:27132   */\n      tag_296\n      jump\t// in\n    tag_557:\n        /* \"#utility.yul\":27076:27082   */\n      dup4\n        /* \"#utility.yul\":27069:27133   */\n      sstore\n        /* \"#utility.yul\":26991:27147   */\n      pop\n        /* \"#utility.yul\":26968:27147   */\n    tag_556:\n        /* \"#utility.yul\":27193:27194   */\n      0x01\n        /* \"#utility.yul\":27189:27190   */\n      0x02\n        /* \"#utility.yul\":27181:27187   */\n      dup9\n        /* \"#utility.yul\":27177:27191   */\n      mul\n        /* \"#utility.yul\":27173:27195   */\n      add\n        /* \"#utility.yul\":27167:27171   */\n      dup9\n        /* \"#utility.yul\":27160:27196   */\n      sstore\n        /* \"#utility.yul\":26541:27206   */\n      pop\n      pop\n      pop\n        /* \"#utility.yul\":26504:27445   */\n    tag_547:\n      pop\n        /* \"#utility.yul\":26089:27451   */\n      pop\n      pop\n      pop\n        /* \"#utility.yul\":26000:27451   */\n      pop\n      pop\n    tag_540:\n      jump\t// out\n        /* \"#utility.yul\":27457:27637   */\n    tag_299:\n        /* \"#utility.yul\":27505:27582   */\n      0x4e487b7100000000000000000000000000000000000000000000000000000000\n        /* \"#utility.yul\":27502:27503   */\n      0x00\n        /* \"#utility.yul\":27495:27583   */\n      mstore\n        /* \"#utility.yul\":27602:27606   */\n      0x11\n        /* \"#utility.yul\":27599:27600   */\n      0x04\n        /* \"#utility.yul\":27592:27607   */\n      mstore\n        /* \"#utility.yul\":27626:27630   */\n      0x24\n        /* \"#utility.yul\":27623:27624   */\n      0x00\n        /* \"#utility.yul\":27616:27631   */\n      revert\n        /* \"#utility.yul\":27643:27876   */\n    tag_139:\n        /* \"#utility.yul\":27682:27685   */\n      0x00\n        /* \"#utility.yul\":27705:27729   */\n      tag_560\n        /* \"#utility.yul\":27723:27728   */\n      dup3\n        /* \"#utility.yul\":27705:27729   */\n      tag_232\n      jump\t// in\n    tag_560:\n        /* \"#utility.yul\":27696:27729   */\n      swap2\n      pop\n        /* \"#utility.yul\":27751:27817   */\n      0xffffffffffffffffffffffffffffffffffffffffffffffffffffffffffffffff\n        /* \"#utility.yul\":27744:27749   */\n      dup3\n        /* \"#utility.yul\":27741:27818   */\n      sub\n        /* \"#utility.yul\":27738:27841   */\n      tag_561\n      jumpi\n        /* \"#utility.yul\":27821:27839   */\n      tag_562\n      tag_299\n      jump\t// in\n    tag_562:\n        /* \"#utility.yul\":27738:27841   */\n    tag_561:\n        /* \"#utility.yul\":27868:27869   */\n      0x01\n        /* \"#utility.yul\":27861:27866   */\n      dup3\n        /* \"#utility.yul\":27857:27870   */\n      add\n        /* \"#utility.yul\":27850:27870   */\n      swap1\n      pop\n        /* \"#utility.yul\":27643:27876   */\n      swap2\n      swap1\n      pop\n      jump\t// out\n        /* \"#utility.yul\":27882:28076   */\n    tag_148:\n        /* \"#utility.yul\":27922:27926   */\n      0x00\n        /* \"#utility.yul\":27942:27962   */\n      tag_564\n        /* \"#utility.yul\":27960:27961   */\n      dup3\n        /* \"#utility.yul\":27942:27962   */\n      tag_232\n      jump\t// in\n    tag_564:\n        /* \"#utility.yul\":27937:27962   */\n      swap2\n      pop\n        /* \"#utility.yul\":27976:27996   */\n      tag_565\n        /* \"#utility.yul\":27994:27995   */\n      dup4\n        /* \"#utility.yul\":27976:27996   */\n      tag_232\n      jump\t// in\n    tag_565:\n        /* \"#utility.yul\":27971:27996   */\n      swap3\n      pop\n        /* \"#utility.yul\":28020:28021   */\n      dup3\n        /* \"#utility.yul\":28017:28018   */\n      dup3\n        /* \"#utility.yul\":28013:28022   */\n      sub\n        /* \"#utility.yul\":28005:28022   */\n      swap1\n      pop\n        /* \"#utility.yul\":28044:28045   */\n      dup2\n        /* \"#utility.yul\":28038:28042   */\n      dup2\n        /* \"#utility.yul\":28035:28046   */\n      gt\n        /* \"#utility.yul\":28032:28069   */\n      iszero\n      tag_566\n      jumpi\n        /* \"#utility.yul\":28049:28067   */\n      tag_567\n      tag_299\n      jump\t// in\n    tag_567:\n        /* \"#utility.yul\":28032:28069   */\n    tag_566:\n        /* \"#utility.yul\":27882:28076   */\n      swap3\n      swap2\n      pop\n      pop\n      jump\t// out\n        /* \"#utility.yul\":28082:28250   */\n    tag_300:\n        /* \"#utility.yul\":28222:28242   */\n      0x43616e206e6f742073656e642065787472610000000000000000000000000000\n        /* \"#utility.yul\":28218:28219   */\n      0x00\n        /* \"#utility.yul\":28210:28216   */\n      dup3\n        /* \"#utility.yul\":28206:28220   */\n      add\n        /* \"#utility.yul\":28199:28243   */\n      mstore\n        /* \"#utility.yul\":28082:28250   */\n      pop\n      jump\t// out\n        /* \"#utility.yul\":28256:28622   */\n    tag_301:\n        /* \"#utility.yul\":28398:28401   */\n      0x00\n        /* \"#utility.yul\":28419:28486   */\n      tag_570\n        /* \"#utility.yul\":28483:28485   */\n      0x12\n        /* \"#utility.yul\":28478:28481   */\n      dup4\n        /* \"#utility.yul\":28419:28486   */\n      tag_278\n      jump\t// in\n    tag_570:\n        /* \"#utility.yul\":28412:28486   */\n      swap2\n      pop\n        /* \"#utility.yul\":28495:28588   */\n      tag_571\n        /* \"#utility.yul\":28584:28587   */\n      dup3\n        /* \"#utility.yul\":28495:28588   */\n      tag_300\n      jump\t// in\n    tag_571:\n        /* \"#utility.yul\":28613:28615   */\n      0x20\n        /* \"#utility.yul\":28608:28611   */\n      dup3\n        /* \"#utility.yul\":28604:28616   */\n      add\n        /* \"#utility.yul\":28597:28616   */\n      swap1\n      pop\n        /* \"#utility.yul\":28256:28622   */\n      swap2\n      swap1\n      pop\n      jump\t// out\n        /* \"#utility.yul\":28628:29047   */\n    tag_151:\n        /* \"#utility.yul\":28794:28798   */\n      0x00\n        /* \"#utility.yul\":28832:28834   */\n      0x20\n        /* \"#utility.yul\":28821:28830   */\n      dup3\n        /* \"#utility.yul\":28817:28835   */\n      add\n        /* \"#utility.yul\":28809:28835   */\n      swap1\n      pop\n        /* \"#utility.yul\":28881:28890   */\n      dup2\n        /* \"#utility.yul\":28875:28879   */\n      dup2\n        /* \"#utility.yul\":28871:28891   */\n      sub\n        /* \"#utility.yul\":28867:28868   */\n      0x00\n        /* \"#utility.yul\":28856:28865   */\n      dup4\n        /* \"#utility.yul\":28852:28869   */\n      add\n        /* \"#utility.yul\":28845:28892   */\n      mstore\n        /* \"#utility.yul\":28909:29040   */\n      tag_573\n        /* \"#utility.yul\":29035:29039   */\n      dup2\n        /* \"#utility.yul\":28909:29040   */\n      tag_301\n      jump\t// in\n    tag_573:\n        /* \"#utility.yul\":28901:29040   */\n      swap1\n      pop\n        /* \"#utility.yul\":28628:29047   */\n      swap2\n      swap1\n      pop\n      jump\t// out\n        /* \"#utility.yul\":29053:29233   */\n    tag_302:\n        /* \"#utility.yul\":29101:29178   */\n      0x4e487b7100000000000000000000000000000000000000000000000000000000\n        /* \"#utility.yul\":29098:29099   */\n      0x00\n        /* \"#utility.yul\":29091:29179   */\n      mstore\n        /* \"#utility.yul\":29198:29202   */\n      0x12\n        /* \"#utility.yul\":29195:29196   */\n      0x04\n        /* \"#utility.yul\":29188:29203   */\n      mstore\n        /* \"#utility.yul\":29222:29226   */\n      0x24\n        /* \"#utility.yul\":29219:29220   */\n      0x00\n        /* \"#utility.yul\":29212:29227   */\n      revert\n        /* \"#utility.yul\":29239:29424   */\n    tag_156:\n        /* \"#utility.yul\":29279:29280   */\n      0x00\n        /* \"#utility.yul\":29296:29316   */\n      tag_576\n        /* \"#utility.yul\":29314:29315   */\n      dup3\n        /* \"#utility.yul\":29296:29316   */\n      tag_232\n      jump\t// in\n    tag_576:\n        /* \"#utility.yul\":29291:29316   */\n      swap2\n      pop\n        /* \"#utility.yul\":29330:29350   */\n      tag_577\n        /* \"#utility.yul\":29348:29349   */\n      dup4\n        /* \"#utility.yul\":29330:29350   */\n      tag_232\n      jump\t// in\n    tag_577:\n        /* \"#utility.yul\":29325:29350   */\n      swap3\n      pop\n        /* \"#utility.yul\":29369:29370   */\n      dup3\n        /* \"#utility.yul\":29359:29394   */\n      tag_578\n      jumpi\n        /* \"#utility.yul\":29374:29392   */\n      tag_579\n      tag_302\n      jump\t// in\n    tag_579:\n        /* \"#utility.yul\":29359:29394   */\n    tag_578:\n        /* \"#utility.yul\":29416:29417   */\n      dup3\n        /* \"#utility.yul\":29413:29414   */\n      dup3\n        /* \"#utility.yul\":29409:29418   */\n      div\n        /* \"#utility.yul\":29404:29418   */\n      swap1\n      pop\n        /* \"#utility.yul\":29239:29424   */\n      swap3\n      swap2\n      pop\n      pop\n      jump\t// out\n        /* \"#utility.yul\":29430:29577   */\n    tag_303:\n        /* \"#utility.yul\":29531:29542   */\n      0x00\n        /* \"#utility.yul\":29568:29571   */\n      dup2\n        /* \"#utility.yul\":29553:29571   */\n      swap1\n      pop\n        /* \"#utility.yul\":29430:29577   */\n      swap3\n      swap2\n      pop\n      pop\n      jump\t// out\n        /* \"#utility.yul\":29583:29697   */\n    tag_304:\n      pop\n      jump\t// out\n        /* \"#utility.yul\":29703:30101   */\n    tag_305:\n        /* \"#utility.yul\":29862:29865   */\n      0x00\n        /* \"#utility.yul\":29883:29966   */\n      tag_583\n        /* \"#utility.yul\":29964:29965   */\n      0x00\n        /* \"#utility.yul\":29959:29962   */\n      dup4\n        /* \"#utility.yul\":29883:29966   */\n      tag_303\n      jump\t// in\n    tag_583:\n        /* \"#utility.yul\":29876:29966   */\n      swap2\n      pop\n        /* \"#utility.yul\":29975:30068   */\n      tag_584\n        /* \"#utility.yul\":30064:30067   */\n      dup3\n        /* \"#utility.yul\":29975:30068   */\n      tag_304\n      jump\t// in\n    tag_584:\n        /* \"#utility.yul\":30093:30094   */\n      0x00\n        /* \"#utility.yul\":30088:30091   */\n      dup3\n        /* \"#utility.yul\":30084:30095   */\n      add\n        /* \"#utility.yul\":30077:30095   */\n      swap1\n      pop\n        /* \"#utility.yul\":29703:30101   */\n      swap2\n      swap1\n      pop\n      jump\t// out\n        /* \"#utility.yul\":30107:30486   */\n    tag_158:\n        /* \"#utility.yul\":30291:30294   */\n      0x00\n        /* \"#utility.yul\":30313:30460   */\n      tag_586\n        /* \"#utility.yul\":30456:30459   */\n      dup3\n        /* \"#utility.yul\":30313:30460   */\n      tag_305\n      jump\t// in\n    tag_586:\n        /* \"#utility.yul\":30306:30460   */\n      swap2\n      pop\n        /* \"#utility.yul\":30477:30480   */\n      dup2\n        /* \"#utility.yul\":30470:30480   */\n      swap1\n      pop\n        /* \"#utility.yul\":30107:30486   */\n      swap2\n      swap1\n      pop\n      jump\t// out\n        /* \"#utility.yul\":30492:30662   */\n    tag_306:\n        /* \"#utility.yul\":30632:30654   */\n      0x4661696c656420746f2073656e64204574686572000000000000000000000000\n        /* \"#utility.yul\":30628:30629   */\n      0x00\n        /* \"#utility.yul\":30620:30626   */\n      dup3\n        /* \"#utility.yul\":30616:30630   */\n      add\n        /* \"#utility.yul\":30609:30655   */\n      mstore\n        /* \"#utility.yul\":30492:30662   */\n      pop\n      jump\t// out\n        /* \"#utility.yul\":30668:31034   */\n    tag_307:\n        /* \"#utility.yul\":30810:30813   */\n      0x00\n        /* \"#utility.yul\":30831:30898   */\n      tag_589\n        /* \"#utility.yul\":30895:30897   */\n      0x14\n        /* \"#utility.yul\":30890:30893   */\n      dup4\n        /* \"#utility.yul\":30831:30898   */\n      tag_278\n      jump\t// in\n    tag_589:\n        /* \"#utility.yul\":30824:30898   */\n      swap2\n      pop\n        /* \"#utility.yul\":30907:31000   */\n      tag_590\n        /* \"#utility.yul\":30996:30999   */\n      dup3\n        /* \"#utility.yul\":30907:31000   */\n      tag_306\n      jump\t// in\n    tag_590:\n        /* \"#utility.yul\":31025:31027   */\n      0x20\n        /* \"#utility.yul\":31020:31023   */\n      dup3\n        /* \"#utility.yul\":31016:31028   */\n      add\n        /* \"#utility.yul\":31009:31028   */\n      swap1\n      pop\n        /* \"#utility.yul\":30668:31034   */\n      swap2\n      swap1\n      pop\n      jump\t// out\n        /* \"#utility.yul\":31040:31459   */\n    tag_164:\n        /* \"#utility.yul\":31206:31210   */\n      0x00\n        /* \"#utility.yul\":31244:31246   */\n      0x20\n        /* \"#utility.yul\":31233:31242   */\n      dup3\n        /* \"#utility.yul\":31229:31247   */\n      add\n        /* \"#utility.yul\":31221:31247   */\n      swap1\n      pop\n        /* \"#utility.yul\":31293:31302   */\n      dup2\n        /* \"#utility.yul\":31287:31291   */\n      dup2\n        /* \"#utility.yul\":31283:31303   */\n      sub\n        /* \"#utility.yul\":31279:31280   */\n      0x00\n        /* \"#utility.yul\":31268:31277   */\n      dup4\n        /* \"#utility.yul\":31264:31281   */\n      add\n        /* \"#utility.yul\":31257:31304   */\n      mstore\n        /* \"#utility.yul\":31321:31452   */\n      tag_592\n        /* \"#utility.yul\":31447:31451   */\n      dup2\n        /* \"#utility.yul\":31321:31452   */\n      tag_307\n      jump\t// in\n    tag_592:\n        /* \"#utility.yul\":31313:31452   */\n      swap1\n      pop\n        /* \"#utility.yul\":31040:31459   */\n      swap2\n      swap1\n      pop\n      jump\t// out\n        /* \"#utility.yul\":31465:31656   */\n    tag_175:\n        /* \"#utility.yul\":31505:31508   */\n      0x00\n        /* \"#utility.yul\":31524:31544   */\n      tag_594\n        /* \"#utility.yul\":31542:31543   */\n      dup3\n        /* \"#utility.yul\":31524:31544   */\n      tag_232\n      jump\t// in\n    tag_594:\n        /* \"#utility.yul\":31519:31544   */\n      swap2\n      pop\n        /* \"#utility.yul\":31558:31578   */\n      tag_595\n        /* \"#utility.yul\":31576:31577   */\n      dup4\n        /* \"#utility.yul\":31558:31578   */\n      tag_232\n      jump\t// in\n    tag_595:\n        /* \"#utility.yul\":31553:31578   */\n      swap3\n      pop\n        /* \"#utility.yul\":31601:31602   */\n      dup3\n        /* \"#utility.yul\":31598:31599   */\n      dup3\n        /* \"#utility.yul\":31594:31603   */\n      add\n        /* \"#utility.yul\":31587:31603   */\n      swap1\n      pop\n        /* \"#utility.yul\":31622:31625   */\n      dup1\n        /* \"#utility.yul\":31619:31620   */\n      dup3\n        /* \"#utility.yul\":31616:31626   */\n      gt\n        /* \"#utility.yul\":31613:31649   */\n      iszero\n      tag_596\n      jumpi\n        /* \"#utility.yul\":31629:31647   */\n      tag_597\n      tag_299\n      jump\t// in\n    tag_597:\n        /* \"#utility.yul\":31613:31649   */\n    tag_596:\n        /* \"#utility.yul\":31465:31656   */\n      swap3\n      swap2\n      pop\n      pop\n      jump\t// out\n        /* \"#utility.yul\":31662:31842   */\n    tag_206:\n        /* \"#utility.yul\":31710:31787   */\n      0x4e487b7100000000000000000000000000000000000000000000000000000000\n        /* \"#utility.yul\":31707:31708   */\n      0x00\n        /* \"#utility.yul\":31700:31788   */\n      mstore\n        /* \"#utility.yul\":31807:31811   */\n      0x31\n        /* \"#utility.yul\":31804:31805   */\n      0x04\n        /* \"#utility.yul\":31797:31812   */\n      mstore\n        /* \"#utility.yul\":31831:31835   */\n      0x24\n        /* \"#utility.yul\":31828:31829   */\n      0x00\n        /* \"#utility.yul\":31821:31836   */\n      revert\n\n    auxdata: 0xa26469706673582212206d26e0bd51468ca6fecbb4e7f6f7eb8fd27249c9807a0e77a71e1cf104fafe7164736f6c63430008100033\n}\n",
    "bytecode": {
      "linkReferences": {},
      "object": "60806040526000600b556000600c5534801561001a57600080fd5b506127cf8061002a6000396000f3fe60806040526004361061004a5760003560e01c80631788db6b1461004f57806365d054fd1461008c57806367c59b56146100c95780637c64cff114610106578063f14faf6f1461012f575b600080fd5b34801561005b57600080fd5b50610076600480360381019061007191906118b5565b61014b565b6040516100839190611a23565b60405180910390f35b34801561009857600080fd5b506100b360048036038101906100ae9190611a45565b610319565b6040516100c09190611cfe565b60405180910390f35b3480156100d557600080fd5b506100f060048036038101906100eb91906118b5565b61088e565b6040516100fd9190611dca565b60405180910390f35b34801561011257600080fd5b5061012d60048036038101906101289190611f4d565b610db4565b005b61014960048036038101906101449190611fec565b610fd8565b005b6060811561023557600a838154811061016757610166612019565b5b9060005260206000209060070201600501805480602002602001604051908101604052809291908181526020016000905b8282101561022a57838290600052602060002090600202016040518060400160405290816000820160009054906101000a900473ffffffffffffffffffffffffffffffffffffffff1673ffffffffffffffffffffffffffffffffffffffff1673ffffffffffffffffffffffffffffffffffffffff16815260200160018201548152505081526020019060010190610198565b505050509050610313565b6009838154811061024957610248612019565b5b9060005260206000209060070201600501805480602002602001604051908101604052809291908181526020016000905b8282101561030c57838290600052602060002090600202016040518060400160405290816000820160009054906101000a900473ffffffffffffffffffffffffffffffffffffffff1673ffffffffffffffffffffffffffffffffffffffff1673ffffffffffffffffffffffffffffffffffffffff1681526020016001820154815250508152602001906001019061027a565b5050505090505b92915050565b606081156105d757600a805480602002602001604051908101604052809291908181526020016000905b828210156105cc57838290600052602060002090600702016040518060e00160405290816000820160009054906101000a900473ffffffffffffffffffffffffffffffffffffffff1673ffffffffffffffffffffffffffffffffffffffff1673ffffffffffffffffffffffffffffffffffffffff1681526020016001820180546103cc90612077565b80601f01602080910402602001604051908101604052809291908181526020018280546103f890612077565b80156104455780601f1061041a57610100808354040283529160200191610445565b820191906000526020600020905b81548152906001019060200180831161042857829003601f168201915b5050505050815260200160028201805461045e90612077565b80601f016020809104026020016040519081016040528092919081815260200182805461048a90612077565b80156104d75780601f106104ac576101008083540402835291602001916104d7565b820191906000526020600020905b8154815290600101906020018083116104ba57829003601f168201915b50505050508152602001600382015481526020016004820154815260200160058201805480602002602001604051908101604052809291908181526020016000905b828210156105ab57838290600052602060002090600202016040518060400160405290816000820160009054906101000a900473ffffffffffffffffffffffffffffffffffffffff1673ffffffffffffffffffffffffffffffffffffffff1673ffffffffffffffffffffffffffffffffffffffff16815260200160018201548152505081526020019060010190610519565b50505050815260200160068201548152505081526020019060010190610343565b505050509050610889565b6009805480602002602001604051908101604052809291908181526020016000905b8282101561088257838290600052602060002090600702016040518060e00160405290816000820160009054906101000a900473ffffffffffffffffffffffffffffffffffffffff1673ffffffffffffffffffffffffffffffffffffffff1673ffffffffffffffffffffffffffffffffffffffff16815260200160018201805461068290612077565b80601f01602080910402602001604051908101604052809291908181526020018280546106ae90612077565b80156106fb5780601f106106d0576101008083540402835291602001916106fb565b820191906000526020600020905b8154815290600101906020018083116106de57829003601f168201915b5050505050815260200160028201805461071490612077565b80601f016020809104026020016040519081016040528092919081815260200182805461074090612077565b801561078d5780601f106107625761010080835404028352916020019161078d565b820191906000526020600020905b81548152906001019060200180831161077057829003601f168201915b50505050508152602001600382015481526020016004820154815260200160058201805480602002602001604051908101604052809291908181526020016000905b8282101561086157838290600052602060002090600202016040518060400160405290816000820160009054906101000a900473ffffffffffffffffffffffffffffffffffffffff1673ffffffffffffffffffffffffffffffffffffffff1673ffffffffffffffffffffffffffffffffffffffff168152602001600182015481525050815260200190600101906107cf565b505050508152602001600682015481525050815260200190600101906105f9565b5050505090505b919050565b610896611650565b8115610b2757600a83815481106108b0576108af612019565b5b90600052602060002090600702016040518060e00160405290816000820160009054906101000a900473ffffffffffffffffffffffffffffffffffffffff1673ffffffffffffffffffffffffffffffffffffffff1673ffffffffffffffffffffffffffffffffffffffff16815260200160018201805461092f90612077565b80601f016020809104026020016040519081016040528092919081815260200182805461095b90612077565b80156109a85780601f1061097d576101008083540402835291602001916109a8565b820191906000526020600020905b81548152906001019060200180831161098b57829003601f168201915b505050505081526020016002820180546109c190612077565b80601f01602080910402602001604051908101604052809291908181526020018280546109ed90612077565b8015610a3a5780601f10610a0f57610100808354040283529160200191610a3a565b820191906000526020600020905b815481529060010190602001808311610a1d57829003601f168201915b50505050508152602001600382015481526020016004820154815260200160058201805480602002602001604051908101604052809291908181526020016000905b82821015610b0e57838290600052602060002090600202016040518060400160405290816000820160009054906101000a900473ffffffffffffffffffffffffffffffffffffffff1673ffffffffffffffffffffffffffffffffffffffff1673ffffffffffffffffffffffffffffffffffffffff16815260200160018201548152505081526020019060010190610a7c565b5050505081526020016006820154815250509050610dae565b60098381548110610b3b57610b3a612019565b5b90600052602060002090600702016040518060e00160405290816000820160009054906101000a900473ffffffffffffffffffffffffffffffffffffffff1673ffffffffffffffffffffffffffffffffffffffff1673ffffffffffffffffffffffffffffffffffffffff168152602001600182018054610bba90612077565b80601f0160208091040260200160405190810160405280929190818152602001828054610be690612077565b8015610c335780601f10610c0857610100808354040283529160200191610c33565b820191906000526020600020905b815481529060010190602001808311610c1657829003601f168201915b50505050508152602001600282018054610c4c90612077565b80601f0160208091040260200160405190810160405280929190818152602001828054610c7890612077565b8015610cc55780601f10610c9a57610100808354040283529160200191610cc5565b820191906000526020600020905b815481529060010190602001808311610ca857829003601f168201915b50505050508152602001600382015481526020016004820154815260200160058201805480602002602001604051908101604052809291908181526020016000905b82821015610d9957838290600052602060002090600202016040518060400160405290816000820160009054906101000a900473ffffffffffffffffffffffffffffffffffffffff1673ffffffffffffffffffffffffffffffffffffffff1673ffffffffffffffffffffffffffffffffffffffff16815260200160018201548152505081526020019060010190610d07565b50505050815260200160068201548152505090505b92915050565b60008103610df7576040517f08c379a0000000000000000000000000000000000000000000000000000000008152600401610dee90612105565b60405180910390fd5b6000835103610e3b576040517f08c379a0000000000000000000000000000000000000000000000000000000008152600401610e3290612171565b60405180910390fd5b83600260000160006101000a81548173ffffffffffffffffffffffffffffffffffffffff021916908373ffffffffffffffffffffffffffffffffffffffff1602179055508260026001019081610e91919061233d565b5081600280019081610ea3919061233d565b50806002600301819055506000600260040181905550600b54600260060181905550600a600290806001815401808255809150506001900390600052602060002090600702016000909190919091506000820160009054906101000a900473ffffffffffffffffffffffffffffffffffffffff168160000160006101000a81548173ffffffffffffffffffffffffffffffffffffffff021916908373ffffffffffffffffffffffffffffffffffffffff16021790555060018201816001019081610f6d9190612425565b5060028201816002019081610f829190612425565b5060038201548160030155600482015481600401556005820181600501908054610fad9291906116a3565b50600682015481600601555050600b6000815480929190610fcd9061253c565b919050555050505050565b600a8181548110610fec57610feb612019565b5b906000526020600020906007020160040154600a828154811061101257611011612019565b5b90600052602060002090600702016003015461102e9190612584565b341115611070576040517f08c379a000000000000000000000000000000000000000000000000000000000815260040161106790612604565b60405180910390fd5b600080600a838154811061108757611086612019565b5b906000526020600020906007020160000160009054906101000a900473ffffffffffffffffffffffffffffffffffffffff1673ffffffffffffffffffffffffffffffffffffffff16670de0b6b3a7640000346110e39190612653565b6040516110ef906126b5565b60006040518083038185875af1925050503d806000811461112c576040519150601f19603f3d011682016040523d82523d6000602084013e611131565b606091505b509150915081611176576040517f08c379a000000000000000000000000000000000000000000000000000000000815260040161116d90612716565b60405180910390fd5b336000800160006101000a81548173ffffffffffffffffffffffffffffffffffffffff021916908373ffffffffffffffffffffffffffffffffffffffff160217905550670de0b6b3a7640000346111cd9190612653565b600060010181905550600a83815481106111ea576111e9612019565b5b9060005260206000209060070201600501600090806001815401808255809150506001900390600052602060002090600202016000909190919091506000820160009054906101000a900473ffffffffffffffffffffffffffffffffffffffff168160000160006101000a81548173ffffffffffffffffffffffffffffffffffffffff021916908373ffffffffffffffffffffffffffffffffffffffff160217905550600182015481600101555050670de0b6b3a7640000346112ad9190612653565b600a84815481106112c1576112c0612019565b5b906000526020600020906007020160040160008282546112e19190612736565b92505081905550600a83815481106112fc576112fb612019565b5b906000526020600020906007020160040154600a848154811061132257611321612019565b5b9060005260206000209060070201600301540361164b57600c54600a84815481106113505761134f612019565b5b9060005260206000209060070201600601819055506009600a848154811061137b5761137a612019565b5b906000526020600020906007020190806001815401808255809150506001900390600052602060002090600702016000909190919091506000820160009054906101000a900473ffffffffffffffffffffffffffffffffffffffff168160000160006101000a81548173ffffffffffffffffffffffffffffffffffffffff021916908373ffffffffffffffffffffffffffffffffffffffff1602179055506001820181600101908161142d9190612425565b50600282018160020190816114429190612425565b506003820154816003015560048201548160040155600582018160050190805461146d9291906116a3565b50600682015481600601555050600c600081548092919061148d9061253c565b9190505550600a6001600a805490506114a69190612584565b815481106114b7576114b6612019565b5b9060005260206000209060070201600a84815481106114d9576114d8612019565b5b90600052602060002090600702016000820160009054906101000a900473ffffffffffffffffffffffffffffffffffffffff168160000160006101000a81548173ffffffffffffffffffffffffffffffffffffffff021916908373ffffffffffffffffffffffffffffffffffffffff160217905550600182018160010190816115629190612425565b50600282018160020190816115779190612425565b50600382015481600301556004820154816004015560058201816005019080546115a29291906116a3565b5060068201548160060155905050600a8054806115c2576115c161276a565b5b6001900381819060005260206000209060070201600080820160006101000a81549073ffffffffffffffffffffffffffffffffffffffff021916905560018201600061160e919061176c565b60028201600061161e919061176c565b6003820160009055600482016000905560058201600061163e91906117ac565b6006820160009055505090555b505050565b6040518060e00160405280600073ffffffffffffffffffffffffffffffffffffffff1681526020016060815260200160608152602001600081526020016000815260200160608152602001600081525090565b82805482825590600052602060002090600202810192821561175b5760005260206000209160020282015b8281111561175a5782826000820160009054906101000a900473ffffffffffffffffffffffffffffffffffffffff168160000160006101000a81548173ffffffffffffffffffffffffffffffffffffffff021916908373ffffffffffffffffffffffffffffffffffffffff160217905550600182015481600101555050916002019190600201906116ce565b5b50905061176891906117d0565b5090565b50805461177890612077565b6000825580601f1061178a57506117a9565b601f0160209004906000526020600020908101906117a89190611816565b5b50565b50805460008255600202906000526020600020908101906117cd91906117d0565b50565b5b8082111561181257600080820160006101000a81549073ffffffffffffffffffffffffffffffffffffffff02191690556001820160009055506002016117d1565b5090565b5b8082111561182f576000816000905550600101611817565b5090565b6000604051905090565b600080fd5b600080fd5b6000819050919050565b61185a81611847565b811461186557600080fd5b50565b60008135905061187781611851565b92915050565b60008115159050919050565b6118928161187d565b811461189d57600080fd5b50565b6000813590506118af81611889565b92915050565b600080604083850312156118cc576118cb61183d565b5b60006118da85828601611868565b92505060206118eb858286016118a0565b9150509250929050565b600081519050919050565b600082825260208201905092915050565b6000819050602082019050919050565b600073ffffffffffffffffffffffffffffffffffffffff82169050919050565b600061194c82611921565b9050919050565b61195c81611941565b82525050565b61196b81611847565b82525050565b6040820160008201516119876000850182611953565b50602082015161199a6020850182611962565b50505050565b60006119ac8383611971565b60408301905092915050565b6000602082019050919050565b60006119d0826118f5565b6119da8185611900565b93506119e583611911565b8060005b83811015611a165781516119fd88826119a0565b9750611a08836119b8565b9250506001810190506119e9565b5085935050505092915050565b60006020820190508181036000830152611a3d81846119c5565b905092915050565b600060208284031215611a5b57611a5a61183d565b5b6000611a69848285016118a0565b91505092915050565b600081519050919050565b600082825260208201905092915050565b6000819050602082019050919050565b6000611aa982611921565b9050919050565b611ab981611a9e565b82525050565b600081519050919050565b600082825260208201905092915050565b60005b83811015611af9578082015181840152602081019050611ade565b60008484015250505050565b6000601f19601f8301169050919050565b6000611b2182611abf565b611b2b8185611aca565b9350611b3b818560208601611adb565b611b4481611b05565b840191505092915050565b600082825260208201905092915050565b6000611b6b826118f5565b611b758185611b4f565b9350611b8083611911565b8060005b83811015611bb1578151611b9888826119a0565b9750611ba3836119b8565b925050600181019050611b84565b5085935050505092915050565b600060e083016000830151611bd66000860182611ab0565b5060208301518482036020860152611bee8282611b16565b91505060408301518482036040860152611c088282611b16565b9150506060830151611c1d6060860182611962565b506080830151611c306080860182611962565b5060a083015184820360a0860152611c488282611b60565b91505060c0830151611c5d60c0860182611962565b508091505092915050565b6000611c748383611bbe565b905092915050565b6000602082019050919050565b6000611c9482611a72565b611c9e8185611a7d565b935083602082028501611cb085611a8e565b8060005b85811015611cec5784840389528151611ccd8582611c68565b9450611cd883611c7c565b925060208a01995050600181019050611cb4565b50829750879550505050505092915050565b60006020820190508181036000830152611d188184611c89565b905092915050565b600060e083016000830151611d386000860182611ab0565b5060208301518482036020860152611d508282611b16565b91505060408301518482036040860152611d6a8282611b16565b9150506060830151611d7f6060860182611962565b506080830151611d926080860182611962565b5060a083015184820360a0860152611daa8282611b60565b91505060c0830151611dbf60c0860182611962565b508091505092915050565b60006020820190508181036000830152611de48184611d20565b905092915050565b611df581611a9e565b8114611e0057600080fd5b50565b600081359050611e1281611dec565b92915050565b600080fd5b600080fd5b7f4e487b7100000000000000000000000000000000000000000000000000000000600052604160045260246000fd5b611e5a82611b05565b810181811067ffffffffffffffff82111715611e7957611e78611e22565b5b80604052505050565b6000611e8c611833565b9050611e988282611e51565b919050565b600067ffffffffffffffff821115611eb857611eb7611e22565b5b611ec182611b05565b9050602081019050919050565b82818337600083830152505050565b6000611ef0611eeb84611e9d565b611e82565b905082815260208101848484011115611f0c57611f0b611e1d565b5b611f17848285611ece565b509392505050565b600082601f830112611f3457611f33611e18565b5b8135611f44848260208601611edd565b91505092915050565b60008060008060808587031215611f6757611f6661183d565b5b6000611f7587828801611e03565b945050602085013567ffffffffffffffff811115611f9657611f95611842565b5b611fa287828801611f1f565b935050604085013567ffffffffffffffff811115611fc357611fc2611842565b5b611fcf87828801611f1f565b9250506060611fe087828801611868565b91505092959194509250565b6000602082840312156120025761200161183d565b5b600061201084828501611868565b91505092915050565b7f4e487b7100000000000000000000000000000000000000000000000000000000600052603260045260246000fd5b7f4e487b7100000000000000000000000000000000000000000000000000000000600052602260045260246000fd5b6000600282049050600182168061208f57607f821691505b6020821081036120a2576120a1612048565b5b50919050565b600082825260208201905092915050565b7f52657175657374656420616d6f756e742063616e206e6f74206265207a65726f600082015250565b60006120ef6020836120a8565b91506120fa826120b9565b602082019050919050565b6000602082019050818103600083015261211e816120e2565b9050919050565b7f596f75206861766520746f2061646420706f7374207465787400000000000000600082015250565b600061215b6019836120a8565b915061216682612125565b602082019050919050565b6000602082019050818103600083015261218a8161214e565b9050919050565b60008190508160005260206000209050919050565b60006020601f8301049050919050565b600082821b905092915050565b6000600883026121f37fffffffffffffffffffffffffffffffffffffffffffffffffffffffffffffffff826121b6565b6121fd86836121b6565b95508019841693508086168417925050509392505050565b6000819050919050565b600061223a61223561223084611847565b612215565b611847565b9050919050565b6000819050919050565b6122548361221f565b61226861226082612241565b8484546121c3565b825550505050565b600090565b61227d612270565b61228881848461224b565b505050565b5b818110156122ac576122a1600082612275565b60018101905061228e565b5050565b601f8211156122f1576122c281612191565b6122cb846121a6565b810160208510156122da578190505b6122ee6122e6856121a6565b83018261228d565b50505b505050565b600082821c905092915050565b6000612314600019846008026122f6565b1980831691505092915050565b600061232d8383612303565b9150826002028217905092915050565b61234682611abf565b67ffffffffffffffff81111561235f5761235e611e22565b5b6123698254612077565b6123748282856122b0565b600060209050601f8311600181146123a75760008415612395578287015190505b61239f8582612321565b865550612407565b601f1984166123b586612191565b60005b828110156123dd578489015182556001820191506020850194506020810190506123b8565b868310156123fa57848901516123f6601f891682612303565b8355505b6001600288020188555050505b505050505050565b60008154905061241e81612077565b9050919050565b81810361243357505061250b565b61243c8261240f565b67ffffffffffffffff81111561245557612454611e22565b5b61245f8254612077565b61246a8282856122b0565b6000601f8311600181146124995760008415612487578287015490505b6124918582612321565b865550612504565b601f1984166124a787612191565b96506124b286612191565b60005b828110156124da578489015482556001820191506001850194506020810190506124b5565b868310156124f757848901546124f3601f891682612303565b8355505b6001600288020188555050505b5050505050505b565b7f4e487b7100000000000000000000000000000000000000000000000000000000600052601160045260246000fd5b600061254782611847565b91507fffffffffffffffffffffffffffffffffffffffffffffffffffffffffffffffff82036125795761257861250d565b5b600182019050919050565b600061258f82611847565b915061259a83611847565b92508282039050818111156125b2576125b161250d565b5b92915050565b7f43616e206e6f742073656e642065787472610000000000000000000000000000600082015250565b60006125ee6012836120a8565b91506125f9826125b8565b602082019050919050565b6000602082019050818103600083015261261d816125e1565b9050919050565b7f4e487b7100000000000000000000000000000000000000000000000000000000600052601260045260246000fd5b600061265e82611847565b915061266983611847565b92508261267957612678612624565b5b828204905092915050565b600081905092915050565b50565b600061269f600083612684565b91506126aa8261268f565b600082019050919050565b60006126c082612692565b9150819050919050565b7f4661696c656420746f2073656e64204574686572000000000000000000000000600082015250565b60006127006014836120a8565b915061270b826126ca565b602082019050919050565b6000602082019050818103600083015261272f816126f3565b9050919050565b600061274182611847565b915061274c83611847565b92508282019050808211156127645761276361250d565b5b92915050565b7f4e487b7100000000000000000000000000000000000000000000000000000000600052603160045260246000fdfea26469706673582212206d26e0bd51468ca6fecbb4e7f6f7eb8fd27249c9807a0e77a71e1cf104fafe7164736f6c63430008100033",
      "opcodes": "PUSH1 0x80 PUSH1 0x40 MSTORE PUSH1 0x0 PUSH1 0xB SSTORE PUSH1 0x0 PUSH1 0xC SSTORE CALLVALUE DUP1 ISZERO PUSH2 0x1A JUMPI PUSH1 0x0 DUP1 REVERT JUMPDEST POP PUSH2 0x27CF DUP1 PUSH2 0x2A PUSH1 0x0 CODECOPY PUSH1 0x0 RETURN INVALID PUSH1 0x80 PUSH1 0x40 MSTORE PUSH1 0x4 CALLDATASIZE LT PUSH2 0x4A JUMPI PUSH1 0x0 CALLDATALOAD PUSH1 0xE0 SHR DUP1 PUSH4 0x1788DB6B EQ PUSH2 0x4F JUMPI DUP1 PUSH4 0x65D054FD EQ PUSH2 0x8C JUMPI DUP1 PUSH4 0x67C59B56 EQ PUSH2 0xC9 JUMPI DUP1 PUSH4 0x7C64CFF1 EQ PUSH2 0x106 JUMPI DUP1 PUSH4 0xF14FAF6F EQ PUSH2 0x12F JUMPI JUMPDEST PUSH1 0x0 DUP1 REVERT JUMPDEST CALLVALUE DUP1 ISZERO PUSH2 0x5B JUMPI PUSH1 0x0 DUP1 REVERT JUMPDEST POP PUSH2 0x76 PUSH1 0x4 DUP1 CALLDATASIZE SUB DUP2 ADD SWAP1 PUSH2 0x71 SWAP2 SWAP1 PUSH2 0x18B5 JUMP JUMPDEST PUSH2 0x14B JUMP JUMPDEST PUSH1 0x40 MLOAD PUSH2 0x83 SWAP2 SWAP1 PUSH2 0x1A23 JUMP JUMPDEST PUSH1 0x40 MLOAD DUP1 SWAP2 SUB SWAP1 RETURN JUMPDEST CALLVALUE DUP1 ISZERO PUSH2 0x98 JUMPI PUSH1 0x0 DUP1 REVERT JUMPDEST POP PUSH2 0xB3 PUSH1 0x4 DUP1 CALLDATASIZE SUB DUP2 ADD SWAP1 PUSH2 0xAE SWAP2 SWAP1 PUSH2 0x1A45 JUMP JUMPDEST PUSH2 0x319 JUMP JUMPDEST PUSH1 0x40 MLOAD PUSH2 0xC0 SWAP2 SWAP1 PUSH2 0x1CFE JUMP JUMPDEST PUSH1 0x40 MLOAD DUP1 SWAP2 SUB SWAP1 RETURN JUMPDEST CALLVALUE DUP1 ISZERO PUSH2 0xD5 JUMPI PUSH1 0x0 DUP1 REVERT JUMPDEST POP PUSH2 0xF0 PUSH1 0x4 DUP1 CALLDATASIZE SUB DUP2 ADD SWAP1 PUSH2 0xEB SWAP2 SWAP1 PUSH2 0x18B5 JUMP JUMPDEST PUSH2 0x88E JUMP JUMPDEST PUSH1 0x40 MLOAD PUSH2 0xFD SWAP2 SWAP1 PUSH2 0x1DCA JUMP JUMPDEST PUSH1 0x40 MLOAD DUP1 SWAP2 SUB SWAP1 RETURN JUMPDEST CALLVALUE DUP1 ISZERO PUSH2 0x112 JUMPI PUSH1 0x0 DUP1 REVERT JUMPDEST POP PUSH2 0x12D PUSH1 0x4 DUP1 CALLDATASIZE SUB DUP2 ADD SWAP1 PUSH2 0x128 SWAP2 SWAP1 PUSH2 0x1F4D JUMP JUMPDEST PUSH2 0xDB4 JUMP JUMPDEST STOP JUMPDEST PUSH2 0x149 PUSH1 0x4 DUP1 CALLDATASIZE SUB DUP2 ADD SWAP1 PUSH2 0x144 SWAP2 SWAP1 PUSH2 0x1FEC JUMP JUMPDEST PUSH2 0xFD8 JUMP JUMPDEST STOP JUMPDEST PUSH1 0x60 DUP2 ISZERO PUSH2 0x235 JUMPI PUSH1 0xA DUP4 DUP2 SLOAD DUP2 LT PUSH2 0x167 JUMPI PUSH2 0x166 PUSH2 0x2019 JUMP JUMPDEST JUMPDEST SWAP1 PUSH1 0x0 MSTORE PUSH1 0x20 PUSH1 0x0 KECCAK256 SWAP1 PUSH1 0x7 MUL ADD PUSH1 0x5 ADD DUP1 SLOAD DUP1 PUSH1 0x20 MUL PUSH1 0x20 ADD PUSH1 0x40 MLOAD SWAP1 DUP2 ADD PUSH1 0x40 MSTORE DUP1 SWAP3 SWAP2 SWAP1 DUP2 DUP2 MSTORE PUSH1 0x20 ADD PUSH1 0x0 SWAP1 JUMPDEST DUP3 DUP3 LT ISZERO PUSH2 0x22A JUMPI DUP4 DUP3 SWAP1 PUSH1 0x0 MSTORE PUSH1 0x20 PUSH1 0x0 KECCAK256 SWAP1 PUSH1 0x2 MUL ADD PUSH1 0x40 MLOAD DUP1 PUSH1 0x40 ADD PUSH1 0x40 MSTORE SWAP1 DUP2 PUSH1 0x0 DUP3 ADD PUSH1 0x0 SWAP1 SLOAD SWAP1 PUSH2 0x100 EXP SWAP1 DIV PUSH20 0xFFFFFFFFFFFFFFFFFFFFFFFFFFFFFFFFFFFFFFFF AND PUSH20 0xFFFFFFFFFFFFFFFFFFFFFFFFFFFFFFFFFFFFFFFF AND PUSH20 0xFFFFFFFFFFFFFFFFFFFFFFFFFFFFFFFFFFFFFFFF AND DUP2 MSTORE PUSH1 0x20 ADD PUSH1 0x1 DUP3 ADD SLOAD DUP2 MSTORE POP POP DUP2 MSTORE PUSH1 0x20 ADD SWAP1 PUSH1 0x1 ADD SWAP1 PUSH2 0x198 JUMP JUMPDEST POP POP POP POP SWAP1 POP PUSH2 0x313 JUMP JUMPDEST PUSH1 0x9 DUP4 DUP2 SLOAD DUP2 LT PUSH2 0x249 JUMPI PUSH2 0x248 PUSH2 0x2019 JUMP JUMPDEST JUMPDEST SWAP1 PUSH1 0x0 MSTORE PUSH1 0x20 PUSH1 0x0 KECCAK256 SWAP1 PUSH1 0x7 MUL ADD PUSH1 0x5 ADD DUP1 SLOAD DUP1 PUSH1 0x20 MUL PUSH1 0x20 ADD PUSH1 0x40 MLOAD SWAP1 DUP2 ADD PUSH1 0x40 MSTORE DUP1 SWAP3 SWAP2 SWAP1 DUP2 DUP2 MSTORE PUSH1 0x20 ADD PUSH1 0x0 SWAP1 JUMPDEST DUP3 DUP3 LT ISZERO PUSH2 0x30C JUMPI DUP4 DUP3 SWAP1 PUSH1 0x0 MSTORE PUSH1 0x20 PUSH1 0x0 KECCAK256 SWAP1 PUSH1 0x2 MUL ADD PUSH1 0x40 MLOAD DUP1 PUSH1 0x40 ADD PUSH1 0x40 MSTORE SWAP1 DUP2 PUSH1 0x0 DUP3 ADD PUSH1 0x0 SWAP1 SLOAD SWAP1 PUSH2 0x100 EXP SWAP1 DIV PUSH20 0xFFFFFFFFFFFFFFFFFFFFFFFFFFFFFFFFFFFFFFFF AND PUSH20 0xFFFFFFFFFFFFFFFFFFFFFFFFFFFFFFFFFFFFFFFF AND PUSH20 0xFFFFFFFFFFFFFFFFFFFFFFFFFFFFFFFFFFFFFFFF AND DUP2 MSTORE PUSH1 0x20 ADD PUSH1 0x1 DUP3 ADD SLOAD DUP2 MSTORE POP POP DUP2 MSTORE PUSH1 0x20 ADD SWAP1 PUSH1 0x1 ADD SWAP1 PUSH2 0x27A JUMP JUMPDEST POP POP POP POP SWAP1 POP JUMPDEST SWAP3 SWAP2 POP POP JUMP JUMPDEST PUSH1 0x60 DUP2 ISZERO PUSH2 0x5D7 JUMPI PUSH1 0xA DUP1 SLOAD DUP1 PUSH1 0x20 MUL PUSH1 0x20 ADD PUSH1 0x40 MLOAD SWAP1 DUP2 ADD PUSH1 0x40 MSTORE DUP1 SWAP3 SWAP2 SWAP1 DUP2 DUP2 MSTORE PUSH1 0x20 ADD PUSH1 0x0 SWAP1 JUMPDEST DUP3 DUP3 LT ISZERO PUSH2 0x5CC JUMPI DUP4 DUP3 SWAP1 PUSH1 0x0 MSTORE PUSH1 0x20 PUSH1 0x0 KECCAK256 SWAP1 PUSH1 0x7 MUL ADD PUSH1 0x40 MLOAD DUP1 PUSH1 0xE0 ADD PUSH1 0x40 MSTORE SWAP1 DUP2 PUSH1 0x0 DUP3 ADD PUSH1 0x0 SWAP1 SLOAD SWAP1 PUSH2 0x100 EXP SWAP1 DIV PUSH20 0xFFFFFFFFFFFFFFFFFFFFFFFFFFFFFFFFFFFFFFFF AND PUSH20 0xFFFFFFFFFFFFFFFFFFFFFFFFFFFFFFFFFFFFFFFF AND PUSH20 0xFFFFFFFFFFFFFFFFFFFFFFFFFFFFFFFFFFFFFFFF AND DUP2 MSTORE PUSH1 0x20 ADD PUSH1 0x1 DUP3 ADD DUP1 SLOAD PUSH2 0x3CC SWAP1 PUSH2 0x2077 JUMP JUMPDEST DUP1 PUSH1 0x1F ADD PUSH1 0x20 DUP1 SWAP2 DIV MUL PUSH1 0x20 ADD PUSH1 0x40 MLOAD SWAP1 DUP2 ADD PUSH1 0x40 MSTORE DUP1 SWAP3 SWAP2 SWAP1 DUP2 DUP2 MSTORE PUSH1 0x20 ADD DUP3 DUP1 SLOAD PUSH2 0x3F8 SWAP1 PUSH2 0x2077 JUMP JUMPDEST DUP1 ISZERO PUSH2 0x445 JUMPI DUP1 PUSH1 0x1F LT PUSH2 0x41A JUMPI PUSH2 0x100 DUP1 DUP4 SLOAD DIV MUL DUP4 MSTORE SWAP2 PUSH1 0x20 ADD SWAP2 PUSH2 0x445 JUMP JUMPDEST DUP3 ADD SWAP2 SWAP1 PUSH1 0x0 MSTORE PUSH1 0x20 PUSH1 0x0 KECCAK256 SWAP1 JUMPDEST DUP2 SLOAD DUP2 MSTORE SWAP1 PUSH1 0x1 ADD SWAP1 PUSH1 0x20 ADD DUP1 DUP4 GT PUSH2 0x428 JUMPI DUP3 SWAP1 SUB PUSH1 0x1F AND DUP3 ADD SWAP2 JUMPDEST POP POP POP POP POP DUP2 MSTORE PUSH1 0x20 ADD PUSH1 0x2 DUP3 ADD DUP1 SLOAD PUSH2 0x45E SWAP1 PUSH2 0x2077 JUMP JUMPDEST DUP1 PUSH1 0x1F ADD PUSH1 0x20 DUP1 SWAP2 DIV MUL PUSH1 0x20 ADD PUSH1 0x40 MLOAD SWAP1 DUP2 ADD PUSH1 0x40 MSTORE DUP1 SWAP3 SWAP2 SWAP1 DUP2 DUP2 MSTORE PUSH1 0x20 ADD DUP3 DUP1 SLOAD PUSH2 0x48A SWAP1 PUSH2 0x2077 JUMP JUMPDEST DUP1 ISZERO PUSH2 0x4D7 JUMPI DUP1 PUSH1 0x1F LT PUSH2 0x4AC JUMPI PUSH2 0x100 DUP1 DUP4 SLOAD DIV MUL DUP4 MSTORE SWAP2 PUSH1 0x20 ADD SWAP2 PUSH2 0x4D7 JUMP JUMPDEST DUP3 ADD SWAP2 SWAP1 PUSH1 0x0 MSTORE PUSH1 0x20 PUSH1 0x0 KECCAK256 SWAP1 JUMPDEST DUP2 SLOAD DUP2 MSTORE SWAP1 PUSH1 0x1 ADD SWAP1 PUSH1 0x20 ADD DUP1 DUP4 GT PUSH2 0x4BA JUMPI DUP3 SWAP1 SUB PUSH1 0x1F AND DUP3 ADD SWAP2 JUMPDEST POP POP POP POP POP DUP2 MSTORE PUSH1 0x20 ADD PUSH1 0x3 DUP3 ADD SLOAD DUP2 MSTORE PUSH1 0x20 ADD PUSH1 0x4 DUP3 ADD SLOAD DUP2 MSTORE PUSH1 0x20 ADD PUSH1 0x5 DUP3 ADD DUP1 SLOAD DUP1 PUSH1 0x20 MUL PUSH1 0x20 ADD PUSH1 0x40 MLOAD SWAP1 DUP2 ADD PUSH1 0x40 MSTORE DUP1 SWAP3 SWAP2 SWAP1 DUP2 DUP2 MSTORE PUSH1 0x20 ADD PUSH1 0x0 SWAP1 JUMPDEST DUP3 DUP3 LT ISZERO PUSH2 0x5AB JUMPI DUP4 DUP3 SWAP1 PUSH1 0x0 MSTORE PUSH1 0x20 PUSH1 0x0 KECCAK256 SWAP1 PUSH1 0x2 MUL ADD PUSH1 0x40 MLOAD DUP1 PUSH1 0x40 ADD PUSH1 0x40 MSTORE SWAP1 DUP2 PUSH1 0x0 DUP3 ADD PUSH1 0x0 SWAP1 SLOAD SWAP1 PUSH2 0x100 EXP SWAP1 DIV PUSH20 0xFFFFFFFFFFFFFFFFFFFFFFFFFFFFFFFFFFFFFFFF AND PUSH20 0xFFFFFFFFFFFFFFFFFFFFFFFFFFFFFFFFFFFFFFFF AND PUSH20 0xFFFFFFFFFFFFFFFFFFFFFFFFFFFFFFFFFFFFFFFF AND DUP2 MSTORE PUSH1 0x20 ADD PUSH1 0x1 DUP3 ADD SLOAD DUP2 MSTORE POP POP DUP2 MSTORE PUSH1 0x20 ADD SWAP1 PUSH1 0x1 ADD SWAP1 PUSH2 0x519 JUMP JUMPDEST POP POP POP POP DUP2 MSTORE PUSH1 0x20 ADD PUSH1 0x6 DUP3 ADD SLOAD DUP2 MSTORE POP POP DUP2 MSTORE PUSH1 0x20 ADD SWAP1 PUSH1 0x1 ADD SWAP1 PUSH2 0x343 JUMP JUMPDEST POP POP POP POP SWAP1 POP PUSH2 0x889 JUMP JUMPDEST PUSH1 0x9 DUP1 SLOAD DUP1 PUSH1 0x20 MUL PUSH1 0x20 ADD PUSH1 0x40 MLOAD SWAP1 DUP2 ADD PUSH1 0x40 MSTORE DUP1 SWAP3 SWAP2 SWAP1 DUP2 DUP2 MSTORE PUSH1 0x20 ADD PUSH1 0x0 SWAP1 JUMPDEST DUP3 DUP3 LT ISZERO PUSH2 0x882 JUMPI DUP4 DUP3 SWAP1 PUSH1 0x0 MSTORE PUSH1 0x20 PUSH1 0x0 KECCAK256 SWAP1 PUSH1 0x7 MUL ADD PUSH1 0x40 MLOAD DUP1 PUSH1 0xE0 ADD PUSH1 0x40 MSTORE SWAP1 DUP2 PUSH1 0x0 DUP3 ADD PUSH1 0x0 SWAP1 SLOAD SWAP1 PUSH2 0x100 EXP SWAP1 DIV PUSH20 0xFFFFFFFFFFFFFFFFFFFFFFFFFFFFFFFFFFFFFFFF AND PUSH20 0xFFFFFFFFFFFFFFFFFFFFFFFFFFFFFFFFFFFFFFFF AND PUSH20 0xFFFFFFFFFFFFFFFFFFFFFFFFFFFFFFFFFFFFFFFF AND DUP2 MSTORE PUSH1 0x20 ADD PUSH1 0x1 DUP3 ADD DUP1 SLOAD PUSH2 0x682 SWAP1 PUSH2 0x2077 JUMP JUMPDEST DUP1 PUSH1 0x1F ADD PUSH1 0x20 DUP1 SWAP2 DIV MUL PUSH1 0x20 ADD PUSH1 0x40 MLOAD SWAP1 DUP2 ADD PUSH1 0x40 MSTORE DUP1 SWAP3 SWAP2 SWAP1 DUP2 DUP2 MSTORE PUSH1 0x20 ADD DUP3 DUP1 SLOAD PUSH2 0x6AE SWAP1 PUSH2 0x2077 JUMP JUMPDEST DUP1 ISZERO PUSH2 0x6FB JUMPI DUP1 PUSH1 0x1F LT PUSH2 0x6D0 JUMPI PUSH2 0x100 DUP1 DUP4 SLOAD DIV MUL DUP4 MSTORE SWAP2 PUSH1 0x20 ADD SWAP2 PUSH2 0x6FB JUMP JUMPDEST DUP3 ADD SWAP2 SWAP1 PUSH1 0x0 MSTORE PUSH1 0x20 PUSH1 0x0 KECCAK256 SWAP1 JUMPDEST DUP2 SLOAD DUP2 MSTORE SWAP1 PUSH1 0x1 ADD SWAP1 PUSH1 0x20 ADD DUP1 DUP4 GT PUSH2 0x6DE JUMPI DUP3 SWAP1 SUB PUSH1 0x1F AND DUP3 ADD SWAP2 JUMPDEST POP POP POP POP POP DUP2 MSTORE PUSH1 0x20 ADD PUSH1 0x2 DUP3 ADD DUP1 SLOAD PUSH2 0x714 SWAP1 PUSH2 0x2077 JUMP JUMPDEST DUP1 PUSH1 0x1F ADD PUSH1 0x20 DUP1 SWAP2 DIV MUL PUSH1 0x20 ADD PUSH1 0x40 MLOAD SWAP1 DUP2 ADD PUSH1 0x40 MSTORE DUP1 SWAP3 SWAP2 SWAP1 DUP2 DUP2 MSTORE PUSH1 0x20 ADD DUP3 DUP1 SLOAD PUSH2 0x740 SWAP1 PUSH2 0x2077 JUMP JUMPDEST DUP1 ISZERO PUSH2 0x78D JUMPI DUP1 PUSH1 0x1F LT PUSH2 0x762 JUMPI PUSH2 0x100 DUP1 DUP4 SLOAD DIV MUL DUP4 MSTORE SWAP2 PUSH1 0x20 ADD SWAP2 PUSH2 0x78D JUMP JUMPDEST DUP3 ADD SWAP2 SWAP1 PUSH1 0x0 MSTORE PUSH1 0x20 PUSH1 0x0 KECCAK256 SWAP1 JUMPDEST DUP2 SLOAD DUP2 MSTORE SWAP1 PUSH1 0x1 ADD SWAP1 PUSH1 0x20 ADD DUP1 DUP4 GT PUSH2 0x770 JUMPI DUP3 SWAP1 SUB PUSH1 0x1F AND DUP3 ADD SWAP2 JUMPDEST POP POP POP POP POP DUP2 MSTORE PUSH1 0x20 ADD PUSH1 0x3 DUP3 ADD SLOAD DUP2 MSTORE PUSH1 0x20 ADD PUSH1 0x4 DUP3 ADD SLOAD DUP2 MSTORE PUSH1 0x20 ADD PUSH1 0x5 DUP3 ADD DUP1 SLOAD DUP1 PUSH1 0x20 MUL PUSH1 0x20 ADD PUSH1 0x40 MLOAD SWAP1 DUP2 ADD PUSH1 0x40 MSTORE DUP1 SWAP3 SWAP2 SWAP1 DUP2 DUP2 MSTORE PUSH1 0x20 ADD PUSH1 0x0 SWAP1 JUMPDEST DUP3 DUP3 LT ISZERO PUSH2 0x861 JUMPI DUP4 DUP3 SWAP1 PUSH1 0x0 MSTORE PUSH1 0x20 PUSH1 0x0 KECCAK256 SWAP1 PUSH1 0x2 MUL ADD PUSH1 0x40 MLOAD DUP1 PUSH1 0x40 ADD PUSH1 0x40 MSTORE SWAP1 DUP2 PUSH1 0x0 DUP3 ADD PUSH1 0x0 SWAP1 SLOAD SWAP1 PUSH2 0x100 EXP SWAP1 DIV PUSH20 0xFFFFFFFFFFFFFFFFFFFFFFFFFFFFFFFFFFFFFFFF AND PUSH20 0xFFFFFFFFFFFFFFFFFFFFFFFFFFFFFFFFFFFFFFFF AND PUSH20 0xFFFFFFFFFFFFFFFFFFFFFFFFFFFFFFFFFFFFFFFF AND DUP2 MSTORE PUSH1 0x20 ADD PUSH1 0x1 DUP3 ADD SLOAD DUP2 MSTORE POP POP DUP2 MSTORE PUSH1 0x20 ADD SWAP1 PUSH1 0x1 ADD SWAP1 PUSH2 0x7CF JUMP JUMPDEST POP POP POP POP DUP2 MSTORE PUSH1 0x20 ADD PUSH1 0x6 DUP3 ADD SLOAD DUP2 MSTORE POP POP DUP2 MSTORE PUSH1 0x20 ADD SWAP1 PUSH1 0x1 ADD SWAP1 PUSH2 0x5F9 JUMP JUMPDEST POP POP POP POP SWAP1 POP JUMPDEST SWAP2 SWAP1 POP JUMP JUMPDEST PUSH2 0x896 PUSH2 0x1650 JUMP JUMPDEST DUP2 ISZERO PUSH2 0xB27 JUMPI PUSH1 0xA DUP4 DUP2 SLOAD DUP2 LT PUSH2 0x8B0 JUMPI PUSH2 0x8AF PUSH2 0x2019 JUMP JUMPDEST JUMPDEST SWAP1 PUSH1 0x0 MSTORE PUSH1 0x20 PUSH1 0x0 KECCAK256 SWAP1 PUSH1 0x7 MUL ADD PUSH1 0x40 MLOAD DUP1 PUSH1 0xE0 ADD PUSH1 0x40 MSTORE SWAP1 DUP2 PUSH1 0x0 DUP3 ADD PUSH1 0x0 SWAP1 SLOAD SWAP1 PUSH2 0x100 EXP SWAP1 DIV PUSH20 0xFFFFFFFFFFFFFFFFFFFFFFFFFFFFFFFFFFFFFFFF AND PUSH20 0xFFFFFFFFFFFFFFFFFFFFFFFFFFFFFFFFFFFFFFFF AND PUSH20 0xFFFFFFFFFFFFFFFFFFFFFFFFFFFFFFFFFFFFFFFF AND DUP2 MSTORE PUSH1 0x20 ADD PUSH1 0x1 DUP3 ADD DUP1 SLOAD PUSH2 0x92F SWAP1 PUSH2 0x2077 JUMP JUMPDEST DUP1 PUSH1 0x1F ADD PUSH1 0x20 DUP1 SWAP2 DIV MUL PUSH1 0x20 ADD PUSH1 0x40 MLOAD SWAP1 DUP2 ADD PUSH1 0x40 MSTORE DUP1 SWAP3 SWAP2 SWAP1 DUP2 DUP2 MSTORE PUSH1 0x20 ADD DUP3 DUP1 SLOAD PUSH2 0x95B SWAP1 PUSH2 0x2077 JUMP JUMPDEST DUP1 ISZERO PUSH2 0x9A8 JUMPI DUP1 PUSH1 0x1F LT PUSH2 0x97D JUMPI PUSH2 0x100 DUP1 DUP4 SLOAD DIV MUL DUP4 MSTORE SWAP2 PUSH1 0x20 ADD SWAP2 PUSH2 0x9A8 JUMP JUMPDEST DUP3 ADD SWAP2 SWAP1 PUSH1 0x0 MSTORE PUSH1 0x20 PUSH1 0x0 KECCAK256 SWAP1 JUMPDEST DUP2 SLOAD DUP2 MSTORE SWAP1 PUSH1 0x1 ADD SWAP1 PUSH1 0x20 ADD DUP1 DUP4 GT PUSH2 0x98B JUMPI DUP3 SWAP1 SUB PUSH1 0x1F AND DUP3 ADD SWAP2 JUMPDEST POP POP POP POP POP DUP2 MSTORE PUSH1 0x20 ADD PUSH1 0x2 DUP3 ADD DUP1 SLOAD PUSH2 0x9C1 SWAP1 PUSH2 0x2077 JUMP JUMPDEST DUP1 PUSH1 0x1F ADD PUSH1 0x20 DUP1 SWAP2 DIV MUL PUSH1 0x20 ADD PUSH1 0x40 MLOAD SWAP1 DUP2 ADD PUSH1 0x40 MSTORE DUP1 SWAP3 SWAP2 SWAP1 DUP2 DUP2 MSTORE PUSH1 0x20 ADD DUP3 DUP1 SLOAD PUSH2 0x9ED SWAP1 PUSH2 0x2077 JUMP JUMPDEST DUP1 ISZERO PUSH2 0xA3A JUMPI DUP1 PUSH1 0x1F LT PUSH2 0xA0F JUMPI PUSH2 0x100 DUP1 DUP4 SLOAD DIV MUL DUP4 MSTORE SWAP2 PUSH1 0x20 ADD SWAP2 PUSH2 0xA3A JUMP JUMPDEST DUP3 ADD SWAP2 SWAP1 PUSH1 0x0 MSTORE PUSH1 0x20 PUSH1 0x0 KECCAK256 SWAP1 JUMPDEST DUP2 SLOAD DUP2 MSTORE SWAP1 PUSH1 0x1 ADD SWAP1 PUSH1 0x20 ADD DUP1 DUP4 GT PUSH2 0xA1D JUMPI DUP3 SWAP1 SUB PUSH1 0x1F AND DUP3 ADD SWAP2 JUMPDEST POP POP POP POP POP DUP2 MSTORE PUSH1 0x20 ADD PUSH1 0x3 DUP3 ADD SLOAD DUP2 MSTORE PUSH1 0x20 ADD PUSH1 0x4 DUP3 ADD SLOAD DUP2 MSTORE PUSH1 0x20 ADD PUSH1 0x5 DUP3 ADD DUP1 SLOAD DUP1 PUSH1 0x20 MUL PUSH1 0x20 ADD PUSH1 0x40 MLOAD SWAP1 DUP2 ADD PUSH1 0x40 MSTORE DUP1 SWAP3 SWAP2 SWAP1 DUP2 DUP2 MSTORE PUSH1 0x20 ADD PUSH1 0x0 SWAP1 JUMPDEST DUP3 DUP3 LT ISZERO PUSH2 0xB0E JUMPI DUP4 DUP3 SWAP1 PUSH1 0x0 MSTORE PUSH1 0x20 PUSH1 0x0 KECCAK256 SWAP1 PUSH1 0x2 MUL ADD PUSH1 0x40 MLOAD DUP1 PUSH1 0x40 ADD PUSH1 0x40 MSTORE SWAP1 DUP2 PUSH1 0x0 DUP3 ADD PUSH1 0x0 SWAP1 SLOAD SWAP1 PUSH2 0x100 EXP SWAP1 DIV PUSH20 0xFFFFFFFFFFFFFFFFFFFFFFFFFFFFFFFFFFFFFFFF AND PUSH20 0xFFFFFFFFFFFFFFFFFFFFFFFFFFFFFFFFFFFFFFFF AND PUSH20 0xFFFFFFFFFFFFFFFFFFFFFFFFFFFFFFFFFFFFFFFF AND DUP2 MSTORE PUSH1 0x20 ADD PUSH1 0x1 DUP3 ADD SLOAD DUP2 MSTORE POP POP DUP2 MSTORE PUSH1 0x20 ADD SWAP1 PUSH1 0x1 ADD SWAP1 PUSH2 0xA7C JUMP JUMPDEST POP POP POP POP DUP2 MSTORE PUSH1 0x20 ADD PUSH1 0x6 DUP3 ADD SLOAD DUP2 MSTORE POP POP SWAP1 POP PUSH2 0xDAE JUMP JUMPDEST PUSH1 0x9 DUP4 DUP2 SLOAD DUP2 LT PUSH2 0xB3B JUMPI PUSH2 0xB3A PUSH2 0x2019 JUMP JUMPDEST JUMPDEST SWAP1 PUSH1 0x0 MSTORE PUSH1 0x20 PUSH1 0x0 KECCAK256 SWAP1 PUSH1 0x7 MUL ADD PUSH1 0x40 MLOAD DUP1 PUSH1 0xE0 ADD PUSH1 0x40 MSTORE SWAP1 DUP2 PUSH1 0x0 DUP3 ADD PUSH1 0x0 SWAP1 SLOAD SWAP1 PUSH2 0x100 EXP SWAP1 DIV PUSH20 0xFFFFFFFFFFFFFFFFFFFFFFFFFFFFFFFFFFFFFFFF AND PUSH20 0xFFFFFFFFFFFFFFFFFFFFFFFFFFFFFFFFFFFFFFFF AND PUSH20 0xFFFFFFFFFFFFFFFFFFFFFFFFFFFFFFFFFFFFFFFF AND DUP2 MSTORE PUSH1 0x20 ADD PUSH1 0x1 DUP3 ADD DUP1 SLOAD PUSH2 0xBBA SWAP1 PUSH2 0x2077 JUMP JUMPDEST DUP1 PUSH1 0x1F ADD PUSH1 0x20 DUP1 SWAP2 DIV MUL PUSH1 0x20 ADD PUSH1 0x40 MLOAD SWAP1 DUP2 ADD PUSH1 0x40 MSTORE DUP1 SWAP3 SWAP2 SWAP1 DUP2 DUP2 MSTORE PUSH1 0x20 ADD DUP3 DUP1 SLOAD PUSH2 0xBE6 SWAP1 PUSH2 0x2077 JUMP JUMPDEST DUP1 ISZERO PUSH2 0xC33 JUMPI DUP1 PUSH1 0x1F LT PUSH2 0xC08 JUMPI PUSH2 0x100 DUP1 DUP4 SLOAD DIV MUL DUP4 MSTORE SWAP2 PUSH1 0x20 ADD SWAP2 PUSH2 0xC33 JUMP JUMPDEST DUP3 ADD SWAP2 SWAP1 PUSH1 0x0 MSTORE PUSH1 0x20 PUSH1 0x0 KECCAK256 SWAP1 JUMPDEST DUP2 SLOAD DUP2 MSTORE SWAP1 PUSH1 0x1 ADD SWAP1 PUSH1 0x20 ADD DUP1 DUP4 GT PUSH2 0xC16 JUMPI DUP3 SWAP1 SUB PUSH1 0x1F AND DUP3 ADD SWAP2 JUMPDEST POP POP POP POP POP DUP2 MSTORE PUSH1 0x20 ADD PUSH1 0x2 DUP3 ADD DUP1 SLOAD PUSH2 0xC4C SWAP1 PUSH2 0x2077 JUMP JUMPDEST DUP1 PUSH1 0x1F ADD PUSH1 0x20 DUP1 SWAP2 DIV MUL PUSH1 0x20 ADD PUSH1 0x40 MLOAD SWAP1 DUP2 ADD PUSH1 0x40 MSTORE DUP1 SWAP3 SWAP2 SWAP1 DUP2 DUP2 MSTORE PUSH1 0x20 ADD DUP3 DUP1 SLOAD PUSH2 0xC78 SWAP1 PUSH2 0x2077 JUMP JUMPDEST DUP1 ISZERO PUSH2 0xCC5 JUMPI DUP1 PUSH1 0x1F LT PUSH2 0xC9A JUMPI PUSH2 0x100 DUP1 DUP4 SLOAD DIV MUL DUP4 MSTORE SWAP2 PUSH1 0x20 ADD SWAP2 PUSH2 0xCC5 JUMP JUMPDEST DUP3 ADD SWAP2 SWAP1 PUSH1 0x0 MSTORE PUSH1 0x20 PUSH1 0x0 KECCAK256 SWAP1 JUMPDEST DUP2 SLOAD DUP2 MSTORE SWAP1 PUSH1 0x1 ADD SWAP1 PUSH1 0x20 ADD DUP1 DUP4 GT PUSH2 0xCA8 JUMPI DUP3 SWAP1 SUB PUSH1 0x1F AND DUP3 ADD SWAP2 JUMPDEST POP POP POP POP POP DUP2 MSTORE PUSH1 0x20 ADD PUSH1 0x3 DUP3 ADD SLOAD DUP2 MSTORE PUSH1 0x20 ADD PUSH1 0x4 DUP3 ADD SLOAD DUP2 MSTORE PUSH1 0x20 ADD PUSH1 0x5 DUP3 ADD DUP1 SLOAD DUP1 PUSH1 0x20 MUL PUSH1 0x20 ADD PUSH1 0x40 MLOAD SWAP1 DUP2 ADD PUSH1 0x40 MSTORE DUP1 SWAP3 SWAP2 SWAP1 DUP2 DUP2 MSTORE PUSH1 0x20 ADD PUSH1 0x0 SWAP1 JUMPDEST DUP3 DUP3 LT ISZERO PUSH2 0xD99 JUMPI DUP4 DUP3 SWAP1 PUSH1 0x0 MSTORE PUSH1 0x20 PUSH1 0x0 KECCAK256 SWAP1 PUSH1 0x2 MUL ADD PUSH1 0x40 MLOAD DUP1 PUSH1 0x40 ADD PUSH1 0x40 MSTORE SWAP1 DUP2 PUSH1 0x0 DUP3 ADD PUSH1 0x0 SWAP1 SLOAD SWAP1 PUSH2 0x100 EXP SWAP1 DIV PUSH20 0xFFFFFFFFFFFFFFFFFFFFFFFFFFFFFFFFFFFFFFFF AND PUSH20 0xFFFFFFFFFFFFFFFFFFFFFFFFFFFFFFFFFFFFFFFF AND PUSH20 0xFFFFFFFFFFFFFFFFFFFFFFFFFFFFFFFFFFFFFFFF AND DUP2 MSTORE PUSH1 0x20 ADD PUSH1 0x1 DUP3 ADD SLOAD DUP2 MSTORE POP POP DUP2 MSTORE PUSH1 0x20 ADD SWAP1 PUSH1 0x1 ADD SWAP1 PUSH2 0xD07 JUMP JUMPDEST POP POP POP POP DUP2 MSTORE PUSH1 0x20 ADD PUSH1 0x6 DUP3 ADD SLOAD DUP2 MSTORE POP POP SWAP1 POP JUMPDEST SWAP3 SWAP2 POP POP JUMP JUMPDEST PUSH1 0x0 DUP2 SUB PUSH2 0xDF7 JUMPI PUSH1 0x40 MLOAD PUSH32 0x8C379A000000000000000000000000000000000000000000000000000000000 DUP2 MSTORE PUSH1 0x4 ADD PUSH2 0xDEE SWAP1 PUSH2 0x2105 JUMP JUMPDEST PUSH1 0x40 MLOAD DUP1 SWAP2 SUB SWAP1 REVERT JUMPDEST PUSH1 0x0 DUP4 MLOAD SUB PUSH2 0xE3B JUMPI PUSH1 0x40 MLOAD PUSH32 0x8C379A000000000000000000000000000000000000000000000000000000000 DUP2 MSTORE PUSH1 0x4 ADD PUSH2 0xE32 SWAP1 PUSH2 0x2171 JUMP JUMPDEST PUSH1 0x40 MLOAD DUP1 SWAP2 SUB SWAP1 REVERT JUMPDEST DUP4 PUSH1 0x2 PUSH1 0x0 ADD PUSH1 0x0 PUSH2 0x100 EXP DUP2 SLOAD DUP2 PUSH20 0xFFFFFFFFFFFFFFFFFFFFFFFFFFFFFFFFFFFFFFFF MUL NOT AND SWAP1 DUP4 PUSH20 0xFFFFFFFFFFFFFFFFFFFFFFFFFFFFFFFFFFFFFFFF AND MUL OR SWAP1 SSTORE POP DUP3 PUSH1 0x2 PUSH1 0x1 ADD SWAP1 DUP2 PUSH2 0xE91 SWAP2 SWAP1 PUSH2 0x233D JUMP JUMPDEST POP DUP2 PUSH1 0x2 DUP1 ADD SWAP1 DUP2 PUSH2 0xEA3 SWAP2 SWAP1 PUSH2 0x233D JUMP JUMPDEST POP DUP1 PUSH1 0x2 PUSH1 0x3 ADD DUP2 SWAP1 SSTORE POP PUSH1 0x0 PUSH1 0x2 PUSH1 0x4 ADD DUP2 SWAP1 SSTORE POP PUSH1 0xB SLOAD PUSH1 0x2 PUSH1 0x6 ADD DUP2 SWAP1 SSTORE POP PUSH1 0xA PUSH1 0x2 SWAP1 DUP1 PUSH1 0x1 DUP2 SLOAD ADD DUP1 DUP3 SSTORE DUP1 SWAP2 POP POP PUSH1 0x1 SWAP1 SUB SWAP1 PUSH1 0x0 MSTORE PUSH1 0x20 PUSH1 0x0 KECCAK256 SWAP1 PUSH1 0x7 MUL ADD PUSH1 0x0 SWAP1 SWAP2 SWAP1 SWAP2 SWAP1 SWAP2 POP PUSH1 0x0 DUP3 ADD PUSH1 0x0 SWAP1 SLOAD SWAP1 PUSH2 0x100 EXP SWAP1 DIV PUSH20 0xFFFFFFFFFFFFFFFFFFFFFFFFFFFFFFFFFFFFFFFF AND DUP2 PUSH1 0x0 ADD PUSH1 0x0 PUSH2 0x100 EXP DUP2 SLOAD DUP2 PUSH20 0xFFFFFFFFFFFFFFFFFFFFFFFFFFFFFFFFFFFFFFFF MUL NOT AND SWAP1 DUP4 PUSH20 0xFFFFFFFFFFFFFFFFFFFFFFFFFFFFFFFFFFFFFFFF AND MUL OR SWAP1 SSTORE POP PUSH1 0x1 DUP3 ADD DUP2 PUSH1 0x1 ADD SWAP1 DUP2 PUSH2 0xF6D SWAP2 SWAP1 PUSH2 0x2425 JUMP JUMPDEST POP PUSH1 0x2 DUP3 ADD DUP2 PUSH1 0x2 ADD SWAP1 DUP2 PUSH2 0xF82 SWAP2 SWAP1 PUSH2 0x2425 JUMP JUMPDEST POP PUSH1 0x3 DUP3 ADD SLOAD DUP2 PUSH1 0x3 ADD SSTORE PUSH1 0x4 DUP3 ADD SLOAD DUP2 PUSH1 0x4 ADD SSTORE PUSH1 0x5 DUP3 ADD DUP2 PUSH1 0x5 ADD SWAP1 DUP1 SLOAD PUSH2 0xFAD SWAP3 SWAP2 SWAP1 PUSH2 0x16A3 JUMP JUMPDEST POP PUSH1 0x6 DUP3 ADD SLOAD DUP2 PUSH1 0x6 ADD SSTORE POP POP PUSH1 0xB PUSH1 0x0 DUP2 SLOAD DUP1 SWAP3 SWAP2 SWAP1 PUSH2 0xFCD SWAP1 PUSH2 0x253C JUMP JUMPDEST SWAP2 SWAP1 POP SSTORE POP POP POP POP POP JUMP JUMPDEST PUSH1 0xA DUP2 DUP2 SLOAD DUP2 LT PUSH2 0xFEC JUMPI PUSH2 0xFEB PUSH2 0x2019 JUMP JUMPDEST JUMPDEST SWAP1 PUSH1 0x0 MSTORE PUSH1 0x20 PUSH1 0x0 KECCAK256 SWAP1 PUSH1 0x7 MUL ADD PUSH1 0x4 ADD SLOAD PUSH1 0xA DUP3 DUP2 SLOAD DUP2 LT PUSH2 0x1012 JUMPI PUSH2 0x1011 PUSH2 0x2019 JUMP JUMPDEST JUMPDEST SWAP1 PUSH1 0x0 MSTORE PUSH1 0x20 PUSH1 0x0 KECCAK256 SWAP1 PUSH1 0x7 MUL ADD PUSH1 0x3 ADD SLOAD PUSH2 0x102E SWAP2 SWAP1 PUSH2 0x2584 JUMP JUMPDEST CALLVALUE GT ISZERO PUSH2 0x1070 JUMPI PUSH1 0x40 MLOAD PUSH32 0x8C379A000000000000000000000000000000000000000000000000000000000 DUP2 MSTORE PUSH1 0x4 ADD PUSH2 0x1067 SWAP1 PUSH2 0x2604 JUMP JUMPDEST PUSH1 0x40 MLOAD DUP1 SWAP2 SUB SWAP1 REVERT JUMPDEST PUSH1 0x0 DUP1 PUSH1 0xA DUP4 DUP2 SLOAD DUP2 LT PUSH2 0x1087 JUMPI PUSH2 0x1086 PUSH2 0x2019 JUMP JUMPDEST JUMPDEST SWAP1 PUSH1 0x0 MSTORE PUSH1 0x20 PUSH1 0x0 KECCAK256 SWAP1 PUSH1 0x7 MUL ADD PUSH1 0x0 ADD PUSH1 0x0 SWAP1 SLOAD SWAP1 PUSH2 0x100 EXP SWAP1 DIV PUSH20 0xFFFFFFFFFFFFFFFFFFFFFFFFFFFFFFFFFFFFFFFF AND PUSH20 0xFFFFFFFFFFFFFFFFFFFFFFFFFFFFFFFFFFFFFFFF AND PUSH8 0xDE0B6B3A7640000 CALLVALUE PUSH2 0x10E3 SWAP2 SWAP1 PUSH2 0x2653 JUMP JUMPDEST PUSH1 0x40 MLOAD PUSH2 0x10EF SWAP1 PUSH2 0x26B5 JUMP JUMPDEST PUSH1 0x0 PUSH1 0x40 MLOAD DUP1 DUP4 SUB DUP2 DUP6 DUP8 GAS CALL SWAP3 POP POP POP RETURNDATASIZE DUP1 PUSH1 0x0 DUP2 EQ PUSH2 0x112C JUMPI PUSH1 0x40 MLOAD SWAP2 POP PUSH1 0x1F NOT PUSH1 0x3F RETURNDATASIZE ADD AND DUP3 ADD PUSH1 0x40 MSTORE RETURNDATASIZE DUP3 MSTORE RETURNDATASIZE PUSH1 0x0 PUSH1 0x20 DUP5 ADD RETURNDATACOPY PUSH2 0x1131 JUMP JUMPDEST PUSH1 0x60 SWAP2 POP JUMPDEST POP SWAP2 POP SWAP2 POP DUP2 PUSH2 0x1176 JUMPI PUSH1 0x40 MLOAD PUSH32 0x8C379A000000000000000000000000000000000000000000000000000000000 DUP2 MSTORE PUSH1 0x4 ADD PUSH2 0x116D SWAP1 PUSH2 0x2716 JUMP JUMPDEST PUSH1 0x40 MLOAD DUP1 SWAP2 SUB SWAP1 REVERT JUMPDEST CALLER PUSH1 0x0 DUP1 ADD PUSH1 0x0 PUSH2 0x100 EXP DUP2 SLOAD DUP2 PUSH20 0xFFFFFFFFFFFFFFFFFFFFFFFFFFFFFFFFFFFFFFFF MUL NOT AND SWAP1 DUP4 PUSH20 0xFFFFFFFFFFFFFFFFFFFFFFFFFFFFFFFFFFFFFFFF AND MUL OR SWAP1 SSTORE POP PUSH8 0xDE0B6B3A7640000 CALLVALUE PUSH2 0x11CD SWAP2 SWAP1 PUSH2 0x2653 JUMP JUMPDEST PUSH1 0x0 PUSH1 0x1 ADD DUP2 SWAP1 SSTORE POP PUSH1 0xA DUP4 DUP2 SLOAD DUP2 LT PUSH2 0x11EA JUMPI PUSH2 0x11E9 PUSH2 0x2019 JUMP JUMPDEST JUMPDEST SWAP1 PUSH1 0x0 MSTORE PUSH1 0x20 PUSH1 0x0 KECCAK256 SWAP1 PUSH1 0x7 MUL ADD PUSH1 0x5 ADD PUSH1 0x0 SWAP1 DUP1 PUSH1 0x1 DUP2 SLOAD ADD DUP1 DUP3 SSTORE DUP1 SWAP2 POP POP PUSH1 0x1 SWAP1 SUB SWAP1 PUSH1 0x0 MSTORE PUSH1 0x20 PUSH1 0x0 KECCAK256 SWAP1 PUSH1 0x2 MUL ADD PUSH1 0x0 SWAP1 SWAP2 SWAP1 SWAP2 SWAP1 SWAP2 POP PUSH1 0x0 DUP3 ADD PUSH1 0x0 SWAP1 SLOAD SWAP1 PUSH2 0x100 EXP SWAP1 DIV PUSH20 0xFFFFFFFFFFFFFFFFFFFFFFFFFFFFFFFFFFFFFFFF AND DUP2 PUSH1 0x0 ADD PUSH1 0x0 PUSH2 0x100 EXP DUP2 SLOAD DUP2 PUSH20 0xFFFFFFFFFFFFFFFFFFFFFFFFFFFFFFFFFFFFFFFF MUL NOT AND SWAP1 DUP4 PUSH20 0xFFFFFFFFFFFFFFFFFFFFFFFFFFFFFFFFFFFFFFFF AND MUL OR SWAP1 SSTORE POP PUSH1 0x1 DUP3 ADD SLOAD DUP2 PUSH1 0x1 ADD SSTORE POP POP PUSH8 0xDE0B6B3A7640000 CALLVALUE PUSH2 0x12AD SWAP2 SWAP1 PUSH2 0x2653 JUMP JUMPDEST PUSH1 0xA DUP5 DUP2 SLOAD DUP2 LT PUSH2 0x12C1 JUMPI PUSH2 0x12C0 PUSH2 0x2019 JUMP JUMPDEST JUMPDEST SWAP1 PUSH1 0x0 MSTORE PUSH1 0x20 PUSH1 0x0 KECCAK256 SWAP1 PUSH1 0x7 MUL ADD PUSH1 0x4 ADD PUSH1 0x0 DUP3 DUP3 SLOAD PUSH2 0x12E1 SWAP2 SWAP1 PUSH2 0x2736 JUMP JUMPDEST SWAP3 POP POP DUP2 SWAP1 SSTORE POP PUSH1 0xA DUP4 DUP2 SLOAD DUP2 LT PUSH2 0x12FC JUMPI PUSH2 0x12FB PUSH2 0x2019 JUMP JUMPDEST JUMPDEST SWAP1 PUSH1 0x0 MSTORE PUSH1 0x20 PUSH1 0x0 KECCAK256 SWAP1 PUSH1 0x7 MUL ADD PUSH1 0x4 ADD SLOAD PUSH1 0xA DUP5 DUP2 SLOAD DUP2 LT PUSH2 0x1322 JUMPI PUSH2 0x1321 PUSH2 0x2019 JUMP JUMPDEST JUMPDEST SWAP1 PUSH1 0x0 MSTORE PUSH1 0x20 PUSH1 0x0 KECCAK256 SWAP1 PUSH1 0x7 MUL ADD PUSH1 0x3 ADD SLOAD SUB PUSH2 0x164B JUMPI PUSH1 0xC SLOAD PUSH1 0xA DUP5 DUP2 SLOAD DUP2 LT PUSH2 0x1350 JUMPI PUSH2 0x134F PUSH2 0x2019 JUMP JUMPDEST JUMPDEST SWAP1 PUSH1 0x0 MSTORE PUSH1 0x20 PUSH1 0x0 KECCAK256 SWAP1 PUSH1 0x7 MUL ADD PUSH1 0x6 ADD DUP2 SWAP1 SSTORE POP PUSH1 0x9 PUSH1 0xA DUP5 DUP2 SLOAD DUP2 LT PUSH2 0x137B JUMPI PUSH2 0x137A PUSH2 0x2019 JUMP JUMPDEST JUMPDEST SWAP1 PUSH1 0x0 MSTORE PUSH1 0x20 PUSH1 0x0 KECCAK256 SWAP1 PUSH1 0x7 MUL ADD SWAP1 DUP1 PUSH1 0x1 DUP2 SLOAD ADD DUP1 DUP3 SSTORE DUP1 SWAP2 POP POP PUSH1 0x1 SWAP1 SUB SWAP1 PUSH1 0x0 MSTORE PUSH1 0x20 PUSH1 0x0 KECCAK256 SWAP1 PUSH1 0x7 MUL ADD PUSH1 0x0 SWAP1 SWAP2 SWAP1 SWAP2 SWAP1 SWAP2 POP PUSH1 0x0 DUP3 ADD PUSH1 0x0 SWAP1 SLOAD SWAP1 PUSH2 0x100 EXP SWAP1 DIV PUSH20 0xFFFFFFFFFFFFFFFFFFFFFFFFFFFFFFFFFFFFFFFF AND DUP2 PUSH1 0x0 ADD PUSH1 0x0 PUSH2 0x100 EXP DUP2 SLOAD DUP2 PUSH20 0xFFFFFFFFFFFFFFFFFFFFFFFFFFFFFFFFFFFFFFFF MUL NOT AND SWAP1 DUP4 PUSH20 0xFFFFFFFFFFFFFFFFFFFFFFFFFFFFFFFFFFFFFFFF AND MUL OR SWAP1 SSTORE POP PUSH1 0x1 DUP3 ADD DUP2 PUSH1 0x1 ADD SWAP1 DUP2 PUSH2 0x142D SWAP2 SWAP1 PUSH2 0x2425 JUMP JUMPDEST POP PUSH1 0x2 DUP3 ADD DUP2 PUSH1 0x2 ADD SWAP1 DUP2 PUSH2 0x1442 SWAP2 SWAP1 PUSH2 0x2425 JUMP JUMPDEST POP PUSH1 0x3 DUP3 ADD SLOAD DUP2 PUSH1 0x3 ADD SSTORE PUSH1 0x4 DUP3 ADD SLOAD DUP2 PUSH1 0x4 ADD SSTORE PUSH1 0x5 DUP3 ADD DUP2 PUSH1 0x5 ADD SWAP1 DUP1 SLOAD PUSH2 0x146D SWAP3 SWAP2 SWAP1 PUSH2 0x16A3 JUMP JUMPDEST POP PUSH1 0x6 DUP3 ADD SLOAD DUP2 PUSH1 0x6 ADD SSTORE POP POP PUSH1 0xC PUSH1 0x0 DUP2 SLOAD DUP1 SWAP3 SWAP2 SWAP1 PUSH2 0x148D SWAP1 PUSH2 0x253C JUMP JUMPDEST SWAP2 SWAP1 POP SSTORE POP PUSH1 0xA PUSH1 0x1 PUSH1 0xA DUP1 SLOAD SWAP1 POP PUSH2 0x14A6 SWAP2 SWAP1 PUSH2 0x2584 JUMP JUMPDEST DUP2 SLOAD DUP2 LT PUSH2 0x14B7 JUMPI PUSH2 0x14B6 PUSH2 0x2019 JUMP JUMPDEST JUMPDEST SWAP1 PUSH1 0x0 MSTORE PUSH1 0x20 PUSH1 0x0 KECCAK256 SWAP1 PUSH1 0x7 MUL ADD PUSH1 0xA DUP5 DUP2 SLOAD DUP2 LT PUSH2 0x14D9 JUMPI PUSH2 0x14D8 PUSH2 0x2019 JUMP JUMPDEST JUMPDEST SWAP1 PUSH1 0x0 MSTORE PUSH1 0x20 PUSH1 0x0 KECCAK256 SWAP1 PUSH1 0x7 MUL ADD PUSH1 0x0 DUP3 ADD PUSH1 0x0 SWAP1 SLOAD SWAP1 PUSH2 0x100 EXP SWAP1 DIV PUSH20 0xFFFFFFFFFFFFFFFFFFFFFFFFFFFFFFFFFFFFFFFF AND DUP2 PUSH1 0x0 ADD PUSH1 0x0 PUSH2 0x100 EXP DUP2 SLOAD DUP2 PUSH20 0xFFFFFFFFFFFFFFFFFFFFFFFFFFFFFFFFFFFFFFFF MUL NOT AND SWAP1 DUP4 PUSH20 0xFFFFFFFFFFFFFFFFFFFFFFFFFFFFFFFFFFFFFFFF AND MUL OR SWAP1 SSTORE POP PUSH1 0x1 DUP3 ADD DUP2 PUSH1 0x1 ADD SWAP1 DUP2 PUSH2 0x1562 SWAP2 SWAP1 PUSH2 0x2425 JUMP JUMPDEST POP PUSH1 0x2 DUP3 ADD DUP2 PUSH1 0x2 ADD SWAP1 DUP2 PUSH2 0x1577 SWAP2 SWAP1 PUSH2 0x2425 JUMP JUMPDEST POP PUSH1 0x3 DUP3 ADD SLOAD DUP2 PUSH1 0x3 ADD SSTORE PUSH1 0x4 DUP3 ADD SLOAD DUP2 PUSH1 0x4 ADD SSTORE PUSH1 0x5 DUP3 ADD DUP2 PUSH1 0x5 ADD SWAP1 DUP1 SLOAD PUSH2 0x15A2 SWAP3 SWAP2 SWAP1 PUSH2 0x16A3 JUMP JUMPDEST POP PUSH1 0x6 DUP3 ADD SLOAD DUP2 PUSH1 0x6 ADD SSTORE SWAP1 POP POP PUSH1 0xA DUP1 SLOAD DUP1 PUSH2 0x15C2 JUMPI PUSH2 0x15C1 PUSH2 0x276A JUMP JUMPDEST JUMPDEST PUSH1 0x1 SWAP1 SUB DUP2 DUP2 SWAP1 PUSH1 0x0 MSTORE PUSH1 0x20 PUSH1 0x0 KECCAK256 SWAP1 PUSH1 0x7 MUL ADD PUSH1 0x0 DUP1 DUP3 ADD PUSH1 0x0 PUSH2 0x100 EXP DUP2 SLOAD SWAP1 PUSH20 0xFFFFFFFFFFFFFFFFFFFFFFFFFFFFFFFFFFFFFFFF MUL NOT AND SWAP1 SSTORE PUSH1 0x1 DUP3 ADD PUSH1 0x0 PUSH2 0x160E SWAP2 SWAP1 PUSH2 0x176C JUMP JUMPDEST PUSH1 0x2 DUP3 ADD PUSH1 0x0 PUSH2 0x161E SWAP2 SWAP1 PUSH2 0x176C JUMP JUMPDEST PUSH1 0x3 DUP3 ADD PUSH1 0x0 SWAP1 SSTORE PUSH1 0x4 DUP3 ADD PUSH1 0x0 SWAP1 SSTORE PUSH1 0x5 DUP3 ADD PUSH1 0x0 PUSH2 0x163E SWAP2 SWAP1 PUSH2 0x17AC JUMP JUMPDEST PUSH1 0x6 DUP3 ADD PUSH1 0x0 SWAP1 SSTORE POP POP SWAP1 SSTORE JUMPDEST POP POP POP JUMP JUMPDEST PUSH1 0x40 MLOAD DUP1 PUSH1 0xE0 ADD PUSH1 0x40 MSTORE DUP1 PUSH1 0x0 PUSH20 0xFFFFFFFFFFFFFFFFFFFFFFFFFFFFFFFFFFFFFFFF AND DUP2 MSTORE PUSH1 0x20 ADD PUSH1 0x60 DUP2 MSTORE PUSH1 0x20 ADD PUSH1 0x60 DUP2 MSTORE PUSH1 0x20 ADD PUSH1 0x0 DUP2 MSTORE PUSH1 0x20 ADD PUSH1 0x0 DUP2 MSTORE PUSH1 0x20 ADD PUSH1 0x60 DUP2 MSTORE PUSH1 0x20 ADD PUSH1 0x0 DUP2 MSTORE POP SWAP1 JUMP JUMPDEST DUP3 DUP1 SLOAD DUP3 DUP3 SSTORE SWAP1 PUSH1 0x0 MSTORE PUSH1 0x20 PUSH1 0x0 KECCAK256 SWAP1 PUSH1 0x2 MUL DUP2 ADD SWAP3 DUP3 ISZERO PUSH2 0x175B JUMPI PUSH1 0x0 MSTORE PUSH1 0x20 PUSH1 0x0 KECCAK256 SWAP2 PUSH1 0x2 MUL DUP3 ADD JUMPDEST DUP3 DUP2 GT ISZERO PUSH2 0x175A JUMPI DUP3 DUP3 PUSH1 0x0 DUP3 ADD PUSH1 0x0 SWAP1 SLOAD SWAP1 PUSH2 0x100 EXP SWAP1 DIV PUSH20 0xFFFFFFFFFFFFFFFFFFFFFFFFFFFFFFFFFFFFFFFF AND DUP2 PUSH1 0x0 ADD PUSH1 0x0 PUSH2 0x100 EXP DUP2 SLOAD DUP2 PUSH20 0xFFFFFFFFFFFFFFFFFFFFFFFFFFFFFFFFFFFFFFFF MUL NOT AND SWAP1 DUP4 PUSH20 0xFFFFFFFFFFFFFFFFFFFFFFFFFFFFFFFFFFFFFFFF AND MUL OR SWAP1 SSTORE POP PUSH1 0x1 DUP3 ADD SLOAD DUP2 PUSH1 0x1 ADD SSTORE POP POP SWAP2 PUSH1 0x2 ADD SWAP2 SWAP1 PUSH1 0x2 ADD SWAP1 PUSH2 0x16CE JUMP JUMPDEST JUMPDEST POP SWAP1 POP PUSH2 0x1768 SWAP2 SWAP1 PUSH2 0x17D0 JUMP JUMPDEST POP SWAP1 JUMP JUMPDEST POP DUP1 SLOAD PUSH2 0x1778 SWAP1 PUSH2 0x2077 JUMP JUMPDEST PUSH1 0x0 DUP3 SSTORE DUP1 PUSH1 0x1F LT PUSH2 0x178A JUMPI POP PUSH2 0x17A9 JUMP JUMPDEST PUSH1 0x1F ADD PUSH1 0x20 SWAP1 DIV SWAP1 PUSH1 0x0 MSTORE PUSH1 0x20 PUSH1 0x0 KECCAK256 SWAP1 DUP2 ADD SWAP1 PUSH2 0x17A8 SWAP2 SWAP1 PUSH2 0x1816 JUMP JUMPDEST JUMPDEST POP JUMP JUMPDEST POP DUP1 SLOAD PUSH1 0x0 DUP3 SSTORE PUSH1 0x2 MUL SWAP1 PUSH1 0x0 MSTORE PUSH1 0x20 PUSH1 0x0 KECCAK256 SWAP1 DUP2 ADD SWAP1 PUSH2 0x17CD SWAP2 SWAP1 PUSH2 0x17D0 JUMP JUMPDEST POP JUMP JUMPDEST JUMPDEST DUP1 DUP3 GT ISZERO PUSH2 0x1812 JUMPI PUSH1 0x0 DUP1 DUP3 ADD PUSH1 0x0 PUSH2 0x100 EXP DUP2 SLOAD SWAP1 PUSH20 0xFFFFFFFFFFFFFFFFFFFFFFFFFFFFFFFFFFFFFFFF MUL NOT AND SWAP1 SSTORE PUSH1 0x1 DUP3 ADD PUSH1 0x0 SWAP1 SSTORE POP PUSH1 0x2 ADD PUSH2 0x17D1 JUMP JUMPDEST POP SWAP1 JUMP JUMPDEST JUMPDEST DUP1 DUP3 GT ISZERO PUSH2 0x182F JUMPI PUSH1 0x0 DUP2 PUSH1 0x0 SWAP1 SSTORE POP PUSH1 0x1 ADD PUSH2 0x1817 JUMP JUMPDEST POP SWAP1 JUMP JUMPDEST PUSH1 0x0 PUSH1 0x40 MLOAD SWAP1 POP SWAP1 JUMP JUMPDEST PUSH1 0x0 DUP1 REVERT JUMPDEST PUSH1 0x0 DUP1 REVERT JUMPDEST PUSH1 0x0 DUP2 SWAP1 POP SWAP2 SWAP1 POP JUMP JUMPDEST PUSH2 0x185A DUP2 PUSH2 0x1847 JUMP JUMPDEST DUP2 EQ PUSH2 0x1865 JUMPI PUSH1 0x0 DUP1 REVERT JUMPDEST POP JUMP JUMPDEST PUSH1 0x0 DUP2 CALLDATALOAD SWAP1 POP PUSH2 0x1877 DUP2 PUSH2 0x1851 JUMP JUMPDEST SWAP3 SWAP2 POP POP JUMP JUMPDEST PUSH1 0x0 DUP2 ISZERO ISZERO SWAP1 POP SWAP2 SWAP1 POP JUMP JUMPDEST PUSH2 0x1892 DUP2 PUSH2 0x187D JUMP JUMPDEST DUP2 EQ PUSH2 0x189D JUMPI PUSH1 0x0 DUP1 REVERT JUMPDEST POP JUMP JUMPDEST PUSH1 0x0 DUP2 CALLDATALOAD SWAP1 POP PUSH2 0x18AF DUP2 PUSH2 0x1889 JUMP JUMPDEST SWAP3 SWAP2 POP POP JUMP JUMPDEST PUSH1 0x0 DUP1 PUSH1 0x40 DUP4 DUP6 SUB SLT ISZERO PUSH2 0x18CC JUMPI PUSH2 0x18CB PUSH2 0x183D JUMP JUMPDEST JUMPDEST PUSH1 0x0 PUSH2 0x18DA DUP6 DUP3 DUP7 ADD PUSH2 0x1868 JUMP JUMPDEST SWAP3 POP POP PUSH1 0x20 PUSH2 0x18EB DUP6 DUP3 DUP7 ADD PUSH2 0x18A0 JUMP JUMPDEST SWAP2 POP POP SWAP3 POP SWAP3 SWAP1 POP JUMP JUMPDEST PUSH1 0x0 DUP2 MLOAD SWAP1 POP SWAP2 SWAP1 POP JUMP JUMPDEST PUSH1 0x0 DUP3 DUP3 MSTORE PUSH1 0x20 DUP3 ADD SWAP1 POP SWAP3 SWAP2 POP POP JUMP JUMPDEST PUSH1 0x0 DUP2 SWAP1 POP PUSH1 0x20 DUP3 ADD SWAP1 POP SWAP2 SWAP1 POP JUMP JUMPDEST PUSH1 0x0 PUSH20 0xFFFFFFFFFFFFFFFFFFFFFFFFFFFFFFFFFFFFFFFF DUP3 AND SWAP1 POP SWAP2 SWAP1 POP JUMP JUMPDEST PUSH1 0x0 PUSH2 0x194C DUP3 PUSH2 0x1921 JUMP JUMPDEST SWAP1 POP SWAP2 SWAP1 POP JUMP JUMPDEST PUSH2 0x195C DUP2 PUSH2 0x1941 JUMP JUMPDEST DUP3 MSTORE POP POP JUMP JUMPDEST PUSH2 0x196B DUP2 PUSH2 0x1847 JUMP JUMPDEST DUP3 MSTORE POP POP JUMP JUMPDEST PUSH1 0x40 DUP3 ADD PUSH1 0x0 DUP3 ADD MLOAD PUSH2 0x1987 PUSH1 0x0 DUP6 ADD DUP3 PUSH2 0x1953 JUMP JUMPDEST POP PUSH1 0x20 DUP3 ADD MLOAD PUSH2 0x199A PUSH1 0x20 DUP6 ADD DUP3 PUSH2 0x1962 JUMP JUMPDEST POP POP POP POP JUMP JUMPDEST PUSH1 0x0 PUSH2 0x19AC DUP4 DUP4 PUSH2 0x1971 JUMP JUMPDEST PUSH1 0x40 DUP4 ADD SWAP1 POP SWAP3 SWAP2 POP POP JUMP JUMPDEST PUSH1 0x0 PUSH1 0x20 DUP3 ADD SWAP1 POP SWAP2 SWAP1 POP JUMP JUMPDEST PUSH1 0x0 PUSH2 0x19D0 DUP3 PUSH2 0x18F5 JUMP JUMPDEST PUSH2 0x19DA DUP2 DUP6 PUSH2 0x1900 JUMP JUMPDEST SWAP4 POP PUSH2 0x19E5 DUP4 PUSH2 0x1911 JUMP JUMPDEST DUP1 PUSH1 0x0 JUMPDEST DUP4 DUP2 LT ISZERO PUSH2 0x1A16 JUMPI DUP2 MLOAD PUSH2 0x19FD DUP9 DUP3 PUSH2 0x19A0 JUMP JUMPDEST SWAP8 POP PUSH2 0x1A08 DUP4 PUSH2 0x19B8 JUMP JUMPDEST SWAP3 POP POP PUSH1 0x1 DUP2 ADD SWAP1 POP PUSH2 0x19E9 JUMP JUMPDEST POP DUP6 SWAP4 POP POP POP POP SWAP3 SWAP2 POP POP JUMP JUMPDEST PUSH1 0x0 PUSH1 0x20 DUP3 ADD SWAP1 POP DUP2 DUP2 SUB PUSH1 0x0 DUP4 ADD MSTORE PUSH2 0x1A3D DUP2 DUP5 PUSH2 0x19C5 JUMP JUMPDEST SWAP1 POP SWAP3 SWAP2 POP POP JUMP JUMPDEST PUSH1 0x0 PUSH1 0x20 DUP3 DUP5 SUB SLT ISZERO PUSH2 0x1A5B JUMPI PUSH2 0x1A5A PUSH2 0x183D JUMP JUMPDEST JUMPDEST PUSH1 0x0 PUSH2 0x1A69 DUP5 DUP3 DUP6 ADD PUSH2 0x18A0 JUMP JUMPDEST SWAP2 POP POP SWAP3 SWAP2 POP POP JUMP JUMPDEST PUSH1 0x0 DUP2 MLOAD SWAP1 POP SWAP2 SWAP1 POP JUMP JUMPDEST PUSH1 0x0 DUP3 DUP3 MSTORE PUSH1 0x20 DUP3 ADD SWAP1 POP SWAP3 SWAP2 POP POP JUMP JUMPDEST PUSH1 0x0 DUP2 SWAP1 POP PUSH1 0x20 DUP3 ADD SWAP1 POP SWAP2 SWAP1 POP JUMP JUMPDEST PUSH1 0x0 PUSH2 0x1AA9 DUP3 PUSH2 0x1921 JUMP JUMPDEST SWAP1 POP SWAP2 SWAP1 POP JUMP JUMPDEST PUSH2 0x1AB9 DUP2 PUSH2 0x1A9E JUMP JUMPDEST DUP3 MSTORE POP POP JUMP JUMPDEST PUSH1 0x0 DUP2 MLOAD SWAP1 POP SWAP2 SWAP1 POP JUMP JUMPDEST PUSH1 0x0 DUP3 DUP3 MSTORE PUSH1 0x20 DUP3 ADD SWAP1 POP SWAP3 SWAP2 POP POP JUMP JUMPDEST PUSH1 0x0 JUMPDEST DUP4 DUP2 LT ISZERO PUSH2 0x1AF9 JUMPI DUP1 DUP3 ADD MLOAD DUP2 DUP5 ADD MSTORE PUSH1 0x20 DUP2 ADD SWAP1 POP PUSH2 0x1ADE JUMP JUMPDEST PUSH1 0x0 DUP5 DUP5 ADD MSTORE POP POP POP POP JUMP JUMPDEST PUSH1 0x0 PUSH1 0x1F NOT PUSH1 0x1F DUP4 ADD AND SWAP1 POP SWAP2 SWAP1 POP JUMP JUMPDEST PUSH1 0x0 PUSH2 0x1B21 DUP3 PUSH2 0x1ABF JUMP JUMPDEST PUSH2 0x1B2B DUP2 DUP6 PUSH2 0x1ACA JUMP JUMPDEST SWAP4 POP PUSH2 0x1B3B DUP2 DUP6 PUSH1 0x20 DUP7 ADD PUSH2 0x1ADB JUMP JUMPDEST PUSH2 0x1B44 DUP2 PUSH2 0x1B05 JUMP JUMPDEST DUP5 ADD SWAP2 POP POP SWAP3 SWAP2 POP POP JUMP JUMPDEST PUSH1 0x0 DUP3 DUP3 MSTORE PUSH1 0x20 DUP3 ADD SWAP1 POP SWAP3 SWAP2 POP POP JUMP JUMPDEST PUSH1 0x0 PUSH2 0x1B6B DUP3 PUSH2 0x18F5 JUMP JUMPDEST PUSH2 0x1B75 DUP2 DUP6 PUSH2 0x1B4F JUMP JUMPDEST SWAP4 POP PUSH2 0x1B80 DUP4 PUSH2 0x1911 JUMP JUMPDEST DUP1 PUSH1 0x0 JUMPDEST DUP4 DUP2 LT ISZERO PUSH2 0x1BB1 JUMPI DUP2 MLOAD PUSH2 0x1B98 DUP9 DUP3 PUSH2 0x19A0 JUMP JUMPDEST SWAP8 POP PUSH2 0x1BA3 DUP4 PUSH2 0x19B8 JUMP JUMPDEST SWAP3 POP POP PUSH1 0x1 DUP2 ADD SWAP1 POP PUSH2 0x1B84 JUMP JUMPDEST POP DUP6 SWAP4 POP POP POP POP SWAP3 SWAP2 POP POP JUMP JUMPDEST PUSH1 0x0 PUSH1 0xE0 DUP4 ADD PUSH1 0x0 DUP4 ADD MLOAD PUSH2 0x1BD6 PUSH1 0x0 DUP7 ADD DUP3 PUSH2 0x1AB0 JUMP JUMPDEST POP PUSH1 0x20 DUP4 ADD MLOAD DUP5 DUP3 SUB PUSH1 0x20 DUP7 ADD MSTORE PUSH2 0x1BEE DUP3 DUP3 PUSH2 0x1B16 JUMP JUMPDEST SWAP2 POP POP PUSH1 0x40 DUP4 ADD MLOAD DUP5 DUP3 SUB PUSH1 0x40 DUP7 ADD MSTORE PUSH2 0x1C08 DUP3 DUP3 PUSH2 0x1B16 JUMP JUMPDEST SWAP2 POP POP PUSH1 0x60 DUP4 ADD MLOAD PUSH2 0x1C1D PUSH1 0x60 DUP7 ADD DUP3 PUSH2 0x1962 JUMP JUMPDEST POP PUSH1 0x80 DUP4 ADD MLOAD PUSH2 0x1C30 PUSH1 0x80 DUP7 ADD DUP3 PUSH2 0x1962 JUMP JUMPDEST POP PUSH1 0xA0 DUP4 ADD MLOAD DUP5 DUP3 SUB PUSH1 0xA0 DUP7 ADD MSTORE PUSH2 0x1C48 DUP3 DUP3 PUSH2 0x1B60 JUMP JUMPDEST SWAP2 POP POP PUSH1 0xC0 DUP4 ADD MLOAD PUSH2 0x1C5D PUSH1 0xC0 DUP7 ADD DUP3 PUSH2 0x1962 JUMP JUMPDEST POP DUP1 SWAP2 POP POP SWAP3 SWAP2 POP POP JUMP JUMPDEST PUSH1 0x0 PUSH2 0x1C74 DUP4 DUP4 PUSH2 0x1BBE JUMP JUMPDEST SWAP1 POP SWAP3 SWAP2 POP POP JUMP JUMPDEST PUSH1 0x0 PUSH1 0x20 DUP3 ADD SWAP1 POP SWAP2 SWAP1 POP JUMP JUMPDEST PUSH1 0x0 PUSH2 0x1C94 DUP3 PUSH2 0x1A72 JUMP JUMPDEST PUSH2 0x1C9E DUP2 DUP6 PUSH2 0x1A7D JUMP JUMPDEST SWAP4 POP DUP4 PUSH1 0x20 DUP3 MUL DUP6 ADD PUSH2 0x1CB0 DUP6 PUSH2 0x1A8E JUMP JUMPDEST DUP1 PUSH1 0x0 JUMPDEST DUP6 DUP2 LT ISZERO PUSH2 0x1CEC JUMPI DUP5 DUP5 SUB DUP10 MSTORE DUP2 MLOAD PUSH2 0x1CCD DUP6 DUP3 PUSH2 0x1C68 JUMP JUMPDEST SWAP5 POP PUSH2 0x1CD8 DUP4 PUSH2 0x1C7C JUMP JUMPDEST SWAP3 POP PUSH1 0x20 DUP11 ADD SWAP10 POP POP PUSH1 0x1 DUP2 ADD SWAP1 POP PUSH2 0x1CB4 JUMP JUMPDEST POP DUP3 SWAP8 POP DUP8 SWAP6 POP POP POP POP POP POP SWAP3 SWAP2 POP POP JUMP JUMPDEST PUSH1 0x0 PUSH1 0x20 DUP3 ADD SWAP1 POP DUP2 DUP2 SUB PUSH1 0x0 DUP4 ADD MSTORE PUSH2 0x1D18 DUP2 DUP5 PUSH2 0x1C89 JUMP JUMPDEST SWAP1 POP SWAP3 SWAP2 POP POP JUMP JUMPDEST PUSH1 0x0 PUSH1 0xE0 DUP4 ADD PUSH1 0x0 DUP4 ADD MLOAD PUSH2 0x1D38 PUSH1 0x0 DUP7 ADD DUP3 PUSH2 0x1AB0 JUMP JUMPDEST POP PUSH1 0x20 DUP4 ADD MLOAD DUP5 DUP3 SUB PUSH1 0x20 DUP7 ADD MSTORE PUSH2 0x1D50 DUP3 DUP3 PUSH2 0x1B16 JUMP JUMPDEST SWAP2 POP POP PUSH1 0x40 DUP4 ADD MLOAD DUP5 DUP3 SUB PUSH1 0x40 DUP7 ADD MSTORE PUSH2 0x1D6A DUP3 DUP3 PUSH2 0x1B16 JUMP JUMPDEST SWAP2 POP POP PUSH1 0x60 DUP4 ADD MLOAD PUSH2 0x1D7F PUSH1 0x60 DUP7 ADD DUP3 PUSH2 0x1962 JUMP JUMPDEST POP PUSH1 0x80 DUP4 ADD MLOAD PUSH2 0x1D92 PUSH1 0x80 DUP7 ADD DUP3 PUSH2 0x1962 JUMP JUMPDEST POP PUSH1 0xA0 DUP4 ADD MLOAD DUP5 DUP3 SUB PUSH1 0xA0 DUP7 ADD MSTORE PUSH2 0x1DAA DUP3 DUP3 PUSH2 0x1B60 JUMP JUMPDEST SWAP2 POP POP PUSH1 0xC0 DUP4 ADD MLOAD PUSH2 0x1DBF PUSH1 0xC0 DUP7 ADD DUP3 PUSH2 0x1962 JUMP JUMPDEST POP DUP1 SWAP2 POP POP SWAP3 SWAP2 POP POP JUMP JUMPDEST PUSH1 0x0 PUSH1 0x20 DUP3 ADD SWAP1 POP DUP2 DUP2 SUB PUSH1 0x0 DUP4 ADD MSTORE PUSH2 0x1DE4 DUP2 DUP5 PUSH2 0x1D20 JUMP JUMPDEST SWAP1 POP SWAP3 SWAP2 POP POP JUMP JUMPDEST PUSH2 0x1DF5 DUP2 PUSH2 0x1A9E JUMP JUMPDEST DUP2 EQ PUSH2 0x1E00 JUMPI PUSH1 0x0 DUP1 REVERT JUMPDEST POP JUMP JUMPDEST PUSH1 0x0 DUP2 CALLDATALOAD SWAP1 POP PUSH2 0x1E12 DUP2 PUSH2 0x1DEC JUMP JUMPDEST SWAP3 SWAP2 POP POP JUMP JUMPDEST PUSH1 0x0 DUP1 REVERT JUMPDEST PUSH1 0x0 DUP1 REVERT JUMPDEST PUSH32 0x4E487B7100000000000000000000000000000000000000000000000000000000 PUSH1 0x0 MSTORE PUSH1 0x41 PUSH1 0x4 MSTORE PUSH1 0x24 PUSH1 0x0 REVERT JUMPDEST PUSH2 0x1E5A DUP3 PUSH2 0x1B05 JUMP JUMPDEST DUP2 ADD DUP2 DUP2 LT PUSH8 0xFFFFFFFFFFFFFFFF DUP3 GT OR ISZERO PUSH2 0x1E79 JUMPI PUSH2 0x1E78 PUSH2 0x1E22 JUMP JUMPDEST JUMPDEST DUP1 PUSH1 0x40 MSTORE POP POP POP JUMP JUMPDEST PUSH1 0x0 PUSH2 0x1E8C PUSH2 0x1833 JUMP JUMPDEST SWAP1 POP PUSH2 0x1E98 DUP3 DUP3 PUSH2 0x1E51 JUMP JUMPDEST SWAP2 SWAP1 POP JUMP JUMPDEST PUSH1 0x0 PUSH8 0xFFFFFFFFFFFFFFFF DUP3 GT ISZERO PUSH2 0x1EB8 JUMPI PUSH2 0x1EB7 PUSH2 0x1E22 JUMP JUMPDEST JUMPDEST PUSH2 0x1EC1 DUP3 PUSH2 0x1B05 JUMP JUMPDEST SWAP1 POP PUSH1 0x20 DUP2 ADD SWAP1 POP SWAP2 SWAP1 POP JUMP JUMPDEST DUP3 DUP2 DUP4 CALLDATACOPY PUSH1 0x0 DUP4 DUP4 ADD MSTORE POP POP POP JUMP JUMPDEST PUSH1 0x0 PUSH2 0x1EF0 PUSH2 0x1EEB DUP5 PUSH2 0x1E9D JUMP JUMPDEST PUSH2 0x1E82 JUMP JUMPDEST SWAP1 POP DUP3 DUP2 MSTORE PUSH1 0x20 DUP2 ADD DUP5 DUP5 DUP5 ADD GT ISZERO PUSH2 0x1F0C JUMPI PUSH2 0x1F0B PUSH2 0x1E1D JUMP JUMPDEST JUMPDEST PUSH2 0x1F17 DUP5 DUP3 DUP6 PUSH2 0x1ECE JUMP JUMPDEST POP SWAP4 SWAP3 POP POP POP JUMP JUMPDEST PUSH1 0x0 DUP3 PUSH1 0x1F DUP4 ADD SLT PUSH2 0x1F34 JUMPI PUSH2 0x1F33 PUSH2 0x1E18 JUMP JUMPDEST JUMPDEST DUP2 CALLDATALOAD PUSH2 0x1F44 DUP5 DUP3 PUSH1 0x20 DUP7 ADD PUSH2 0x1EDD JUMP JUMPDEST SWAP2 POP POP SWAP3 SWAP2 POP POP JUMP JUMPDEST PUSH1 0x0 DUP1 PUSH1 0x0 DUP1 PUSH1 0x80 DUP6 DUP8 SUB SLT ISZERO PUSH2 0x1F67 JUMPI PUSH2 0x1F66 PUSH2 0x183D JUMP JUMPDEST JUMPDEST PUSH1 0x0 PUSH2 0x1F75 DUP8 DUP3 DUP9 ADD PUSH2 0x1E03 JUMP JUMPDEST SWAP5 POP POP PUSH1 0x20 DUP6 ADD CALLDATALOAD PUSH8 0xFFFFFFFFFFFFFFFF DUP2 GT ISZERO PUSH2 0x1F96 JUMPI PUSH2 0x1F95 PUSH2 0x1842 JUMP JUMPDEST JUMPDEST PUSH2 0x1FA2 DUP8 DUP3 DUP9 ADD PUSH2 0x1F1F JUMP JUMPDEST SWAP4 POP POP PUSH1 0x40 DUP6 ADD CALLDATALOAD PUSH8 0xFFFFFFFFFFFFFFFF DUP2 GT ISZERO PUSH2 0x1FC3 JUMPI PUSH2 0x1FC2 PUSH2 0x1842 JUMP JUMPDEST JUMPDEST PUSH2 0x1FCF DUP8 DUP3 DUP9 ADD PUSH2 0x1F1F JUMP JUMPDEST SWAP3 POP POP PUSH1 0x60 PUSH2 0x1FE0 DUP8 DUP3 DUP9 ADD PUSH2 0x1868 JUMP JUMPDEST SWAP2 POP POP SWAP3 SWAP6 SWAP2 SWAP5 POP SWAP3 POP JUMP JUMPDEST PUSH1 0x0 PUSH1 0x20 DUP3 DUP5 SUB SLT ISZERO PUSH2 0x2002 JUMPI PUSH2 0x2001 PUSH2 0x183D JUMP JUMPDEST JUMPDEST PUSH1 0x0 PUSH2 0x2010 DUP5 DUP3 DUP6 ADD PUSH2 0x1868 JUMP JUMPDEST SWAP2 POP POP SWAP3 SWAP2 POP POP JUMP JUMPDEST PUSH32 0x4E487B7100000000000000000000000000000000000000000000000000000000 PUSH1 0x0 MSTORE PUSH1 0x32 PUSH1 0x4 MSTORE PUSH1 0x24 PUSH1 0x0 REVERT JUMPDEST PUSH32 0x4E487B7100000000000000000000000000000000000000000000000000000000 PUSH1 0x0 MSTORE PUSH1 0x22 PUSH1 0x4 MSTORE PUSH1 0x24 PUSH1 0x0 REVERT JUMPDEST PUSH1 0x0 PUSH1 0x2 DUP3 DIV SWAP1 POP PUSH1 0x1 DUP3 AND DUP1 PUSH2 0x208F JUMPI PUSH1 0x7F DUP3 AND SWAP2 POP JUMPDEST PUSH1 0x20 DUP3 LT DUP2 SUB PUSH2 0x20A2 JUMPI PUSH2 0x20A1 PUSH2 0x2048 JUMP JUMPDEST JUMPDEST POP SWAP2 SWAP1 POP JUMP JUMPDEST PUSH1 0x0 DUP3 DUP3 MSTORE PUSH1 0x20 DUP3 ADD SWAP1 POP SWAP3 SWAP2 POP POP JUMP JUMPDEST PUSH32 0x52657175657374656420616D6F756E742063616E206E6F74206265207A65726F PUSH1 0x0 DUP3 ADD MSTORE POP JUMP JUMPDEST PUSH1 0x0 PUSH2 0x20EF PUSH1 0x20 DUP4 PUSH2 0x20A8 JUMP JUMPDEST SWAP2 POP PUSH2 0x20FA DUP3 PUSH2 0x20B9 JUMP JUMPDEST PUSH1 0x20 DUP3 ADD SWAP1 POP SWAP2 SWAP1 POP JUMP JUMPDEST PUSH1 0x0 PUSH1 0x20 DUP3 ADD SWAP1 POP DUP2 DUP2 SUB PUSH1 0x0 DUP4 ADD MSTORE PUSH2 0x211E DUP2 PUSH2 0x20E2 JUMP JUMPDEST SWAP1 POP SWAP2 SWAP1 POP JUMP JUMPDEST PUSH32 0x596F75206861766520746F2061646420706F7374207465787400000000000000 PUSH1 0x0 DUP3 ADD MSTORE POP JUMP JUMPDEST PUSH1 0x0 PUSH2 0x215B PUSH1 0x19 DUP4 PUSH2 0x20A8 JUMP JUMPDEST SWAP2 POP PUSH2 0x2166 DUP3 PUSH2 0x2125 JUMP JUMPDEST PUSH1 0x20 DUP3 ADD SWAP1 POP SWAP2 SWAP1 POP JUMP JUMPDEST PUSH1 0x0 PUSH1 0x20 DUP3 ADD SWAP1 POP DUP2 DUP2 SUB PUSH1 0x0 DUP4 ADD MSTORE PUSH2 0x218A DUP2 PUSH2 0x214E JUMP JUMPDEST SWAP1 POP SWAP2 SWAP1 POP JUMP JUMPDEST PUSH1 0x0 DUP2 SWAP1 POP DUP2 PUSH1 0x0 MSTORE PUSH1 0x20 PUSH1 0x0 KECCAK256 SWAP1 POP SWAP2 SWAP1 POP JUMP JUMPDEST PUSH1 0x0 PUSH1 0x20 PUSH1 0x1F DUP4 ADD DIV SWAP1 POP SWAP2 SWAP1 POP JUMP JUMPDEST PUSH1 0x0 DUP3 DUP3 SHL SWAP1 POP SWAP3 SWAP2 POP POP JUMP JUMPDEST PUSH1 0x0 PUSH1 0x8 DUP4 MUL PUSH2 0x21F3 PUSH32 0xFFFFFFFFFFFFFFFFFFFFFFFFFFFFFFFFFFFFFFFFFFFFFFFFFFFFFFFFFFFFFFFF DUP3 PUSH2 0x21B6 JUMP JUMPDEST PUSH2 0x21FD DUP7 DUP4 PUSH2 0x21B6 JUMP JUMPDEST SWAP6 POP DUP1 NOT DUP5 AND SWAP4 POP DUP1 DUP7 AND DUP5 OR SWAP3 POP POP POP SWAP4 SWAP3 POP POP POP JUMP JUMPDEST PUSH1 0x0 DUP2 SWAP1 POP SWAP2 SWAP1 POP JUMP JUMPDEST PUSH1 0x0 PUSH2 0x223A PUSH2 0x2235 PUSH2 0x2230 DUP5 PUSH2 0x1847 JUMP JUMPDEST PUSH2 0x2215 JUMP JUMPDEST PUSH2 0x1847 JUMP JUMPDEST SWAP1 POP SWAP2 SWAP1 POP JUMP JUMPDEST PUSH1 0x0 DUP2 SWAP1 POP SWAP2 SWAP1 POP JUMP JUMPDEST PUSH2 0x2254 DUP4 PUSH2 0x221F JUMP JUMPDEST PUSH2 0x2268 PUSH2 0x2260 DUP3 PUSH2 0x2241 JUMP JUMPDEST DUP5 DUP5 SLOAD PUSH2 0x21C3 JUMP JUMPDEST DUP3 SSTORE POP POP POP POP JUMP JUMPDEST PUSH1 0x0 SWAP1 JUMP JUMPDEST PUSH2 0x227D PUSH2 0x2270 JUMP JUMPDEST PUSH2 0x2288 DUP2 DUP5 DUP5 PUSH2 0x224B JUMP JUMPDEST POP POP POP JUMP JUMPDEST JUMPDEST DUP2 DUP2 LT ISZERO PUSH2 0x22AC JUMPI PUSH2 0x22A1 PUSH1 0x0 DUP3 PUSH2 0x2275 JUMP JUMPDEST PUSH1 0x1 DUP2 ADD SWAP1 POP PUSH2 0x228E JUMP JUMPDEST POP POP JUMP JUMPDEST PUSH1 0x1F DUP3 GT ISZERO PUSH2 0x22F1 JUMPI PUSH2 0x22C2 DUP2 PUSH2 0x2191 JUMP JUMPDEST PUSH2 0x22CB DUP5 PUSH2 0x21A6 JUMP JUMPDEST DUP2 ADD PUSH1 0x20 DUP6 LT ISZERO PUSH2 0x22DA JUMPI DUP2 SWAP1 POP JUMPDEST PUSH2 0x22EE PUSH2 0x22E6 DUP6 PUSH2 0x21A6 JUMP JUMPDEST DUP4 ADD DUP3 PUSH2 0x228D JUMP JUMPDEST POP POP JUMPDEST POP POP POP JUMP JUMPDEST PUSH1 0x0 DUP3 DUP3 SHR SWAP1 POP SWAP3 SWAP2 POP POP JUMP JUMPDEST PUSH1 0x0 PUSH2 0x2314 PUSH1 0x0 NOT DUP5 PUSH1 0x8 MUL PUSH2 0x22F6 JUMP JUMPDEST NOT DUP1 DUP4 AND SWAP2 POP POP SWAP3 SWAP2 POP POP JUMP JUMPDEST PUSH1 0x0 PUSH2 0x232D DUP4 DUP4 PUSH2 0x2303 JUMP JUMPDEST SWAP2 POP DUP3 PUSH1 0x2 MUL DUP3 OR SWAP1 POP SWAP3 SWAP2 POP POP JUMP JUMPDEST PUSH2 0x2346 DUP3 PUSH2 0x1ABF JUMP JUMPDEST PUSH8 0xFFFFFFFFFFFFFFFF DUP2 GT ISZERO PUSH2 0x235F JUMPI PUSH2 0x235E PUSH2 0x1E22 JUMP JUMPDEST JUMPDEST PUSH2 0x2369 DUP3 SLOAD PUSH2 0x2077 JUMP JUMPDEST PUSH2 0x2374 DUP3 DUP3 DUP6 PUSH2 0x22B0 JUMP JUMPDEST PUSH1 0x0 PUSH1 0x20 SWAP1 POP PUSH1 0x1F DUP4 GT PUSH1 0x1 DUP2 EQ PUSH2 0x23A7 JUMPI PUSH1 0x0 DUP5 ISZERO PUSH2 0x2395 JUMPI DUP3 DUP8 ADD MLOAD SWAP1 POP JUMPDEST PUSH2 0x239F DUP6 DUP3 PUSH2 0x2321 JUMP JUMPDEST DUP7 SSTORE POP PUSH2 0x2407 JUMP JUMPDEST PUSH1 0x1F NOT DUP5 AND PUSH2 0x23B5 DUP7 PUSH2 0x2191 JUMP JUMPDEST PUSH1 0x0 JUMPDEST DUP3 DUP2 LT ISZERO PUSH2 0x23DD JUMPI DUP5 DUP10 ADD MLOAD DUP3 SSTORE PUSH1 0x1 DUP3 ADD SWAP2 POP PUSH1 0x20 DUP6 ADD SWAP5 POP PUSH1 0x20 DUP2 ADD SWAP1 POP PUSH2 0x23B8 JUMP JUMPDEST DUP7 DUP4 LT ISZERO PUSH2 0x23FA JUMPI DUP5 DUP10 ADD MLOAD PUSH2 0x23F6 PUSH1 0x1F DUP10 AND DUP3 PUSH2 0x2303 JUMP JUMPDEST DUP4 SSTORE POP JUMPDEST PUSH1 0x1 PUSH1 0x2 DUP9 MUL ADD DUP9 SSTORE POP POP POP JUMPDEST POP POP POP POP POP POP JUMP JUMPDEST PUSH1 0x0 DUP2 SLOAD SWAP1 POP PUSH2 0x241E DUP2 PUSH2 0x2077 JUMP JUMPDEST SWAP1 POP SWAP2 SWAP1 POP JUMP JUMPDEST DUP2 DUP2 SUB PUSH2 0x2433 JUMPI POP POP PUSH2 0x250B JUMP JUMPDEST PUSH2 0x243C DUP3 PUSH2 0x240F JUMP JUMPDEST PUSH8 0xFFFFFFFFFFFFFFFF DUP2 GT ISZERO PUSH2 0x2455 JUMPI PUSH2 0x2454 PUSH2 0x1E22 JUMP JUMPDEST JUMPDEST PUSH2 0x245F DUP3 SLOAD PUSH2 0x2077 JUMP JUMPDEST PUSH2 0x246A DUP3 DUP3 DUP6 PUSH2 0x22B0 JUMP JUMPDEST PUSH1 0x0 PUSH1 0x1F DUP4 GT PUSH1 0x1 DUP2 EQ PUSH2 0x2499 JUMPI PUSH1 0x0 DUP5 ISZERO PUSH2 0x2487 JUMPI DUP3 DUP8 ADD SLOAD SWAP1 POP JUMPDEST PUSH2 0x2491 DUP6 DUP3 PUSH2 0x2321 JUMP JUMPDEST DUP7 SSTORE POP PUSH2 0x2504 JUMP JUMPDEST PUSH1 0x1F NOT DUP5 AND PUSH2 0x24A7 DUP8 PUSH2 0x2191 JUMP JUMPDEST SWAP7 POP PUSH2 0x24B2 DUP7 PUSH2 0x2191 JUMP JUMPDEST PUSH1 0x0 JUMPDEST DUP3 DUP2 LT ISZERO PUSH2 0x24DA JUMPI DUP5 DUP10 ADD SLOAD DUP3 SSTORE PUSH1 0x1 DUP3 ADD SWAP2 POP PUSH1 0x1 DUP6 ADD SWAP5 POP PUSH1 0x20 DUP2 ADD SWAP1 POP PUSH2 0x24B5 JUMP JUMPDEST DUP7 DUP4 LT ISZERO PUSH2 0x24F7 JUMPI DUP5 DUP10 ADD SLOAD PUSH2 0x24F3 PUSH1 0x1F DUP10 AND DUP3 PUSH2 0x2303 JUMP JUMPDEST DUP4 SSTORE POP JUMPDEST PUSH1 0x1 PUSH1 0x2 DUP9 MUL ADD DUP9 SSTORE POP POP POP JUMPDEST POP POP POP POP POP POP JUMPDEST JUMP JUMPDEST PUSH32 0x4E487B7100000000000000000000000000000000000000000000000000000000 PUSH1 0x0 MSTORE PUSH1 0x11 PUSH1 0x4 MSTORE PUSH1 0x24 PUSH1 0x0 REVERT JUMPDEST PUSH1 0x0 PUSH2 0x2547 DUP3 PUSH2 0x1847 JUMP JUMPDEST SWAP2 POP PUSH32 0xFFFFFFFFFFFFFFFFFFFFFFFFFFFFFFFFFFFFFFFFFFFFFFFFFFFFFFFFFFFFFFFF DUP3 SUB PUSH2 0x2579 JUMPI PUSH2 0x2578 PUSH2 0x250D JUMP JUMPDEST JUMPDEST PUSH1 0x1 DUP3 ADD SWAP1 POP SWAP2 SWAP1 POP JUMP JUMPDEST PUSH1 0x0 PUSH2 0x258F DUP3 PUSH2 0x1847 JUMP JUMPDEST SWAP2 POP PUSH2 0x259A DUP4 PUSH2 0x1847 JUMP JUMPDEST SWAP3 POP DUP3 DUP3 SUB SWAP1 POP DUP2 DUP2 GT ISZERO PUSH2 0x25B2 JUMPI PUSH2 0x25B1 PUSH2 0x250D JUMP JUMPDEST JUMPDEST SWAP3 SWAP2 POP POP JUMP JUMPDEST PUSH32 0x43616E206E6F742073656E642065787472610000000000000000000000000000 PUSH1 0x0 DUP3 ADD MSTORE POP JUMP JUMPDEST PUSH1 0x0 PUSH2 0x25EE PUSH1 0x12 DUP4 PUSH2 0x20A8 JUMP JUMPDEST SWAP2 POP PUSH2 0x25F9 DUP3 PUSH2 0x25B8 JUMP JUMPDEST PUSH1 0x20 DUP3 ADD SWAP1 POP SWAP2 SWAP1 POP JUMP JUMPDEST PUSH1 0x0 PUSH1 0x20 DUP3 ADD SWAP1 POP DUP2 DUP2 SUB PUSH1 0x0 DUP4 ADD MSTORE PUSH2 0x261D DUP2 PUSH2 0x25E1 JUMP JUMPDEST SWAP1 POP SWAP2 SWAP1 POP JUMP JUMPDEST PUSH32 0x4E487B7100000000000000000000000000000000000000000000000000000000 PUSH1 0x0 MSTORE PUSH1 0x12 PUSH1 0x4 MSTORE PUSH1 0x24 PUSH1 0x0 REVERT JUMPDEST PUSH1 0x0 PUSH2 0x265E DUP3 PUSH2 0x1847 JUMP JUMPDEST SWAP2 POP PUSH2 0x2669 DUP4 PUSH2 0x1847 JUMP JUMPDEST SWAP3 POP DUP3 PUSH2 0x2679 JUMPI PUSH2 0x2678 PUSH2 0x2624 JUMP JUMPDEST JUMPDEST DUP3 DUP3 DIV SWAP1 POP SWAP3 SWAP2 POP POP JUMP JUMPDEST PUSH1 0x0 DUP2 SWAP1 POP SWAP3 SWAP2 POP POP JUMP JUMPDEST POP JUMP JUMPDEST PUSH1 0x0 PUSH2 0x269F PUSH1 0x0 DUP4 PUSH2 0x2684 JUMP JUMPDEST SWAP2 POP PUSH2 0x26AA DUP3 PUSH2 0x268F JUMP JUMPDEST PUSH1 0x0 DUP3 ADD SWAP1 POP SWAP2 SWAP1 POP JUMP JUMPDEST PUSH1 0x0 PUSH2 0x26C0 DUP3 PUSH2 0x2692 JUMP JUMPDEST SWAP2 POP DUP2 SWAP1 POP SWAP2 SWAP1 POP JUMP JUMPDEST PUSH32 0x4661696C656420746F2073656E64204574686572000000000000000000000000 PUSH1 0x0 DUP3 ADD MSTORE POP JUMP JUMPDEST PUSH1 0x0 PUSH2 0x2700 PUSH1 0x14 DUP4 PUSH2 0x20A8 JUMP JUMPDEST SWAP2 POP PUSH2 0x270B DUP3 PUSH2 0x26CA JUMP JUMPDEST PUSH1 0x20 DUP3 ADD SWAP1 POP SWAP2 SWAP1 POP JUMP JUMPDEST PUSH1 0x0 PUSH1 0x20 DUP3 ADD SWAP1 POP DUP2 DUP2 SUB PUSH1 0x0 DUP4 ADD MSTORE PUSH2 0x272F DUP2 PUSH2 0x26F3 JUMP JUMPDEST SWAP1 POP SWAP2 SWAP1 POP JUMP JUMPDEST PUSH1 0x0 PUSH2 0x2741 DUP3 PUSH2 0x1847 JUMP JUMPDEST SWAP2 POP PUSH2 0x274C DUP4 PUSH2 0x1847 JUMP JUMPDEST SWAP3 POP DUP3 DUP3 ADD SWAP1 POP DUP1 DUP3 GT ISZERO PUSH2 0x2764 JUMPI PUSH2 0x2763 PUSH2 0x250D JUMP JUMPDEST JUMPDEST SWAP3 SWAP2 POP POP JUMP JUMPDEST PUSH32 0x4E487B7100000000000000000000000000000000000000000000000000000000 PUSH1 0x0 MSTORE PUSH1 0x31 PUSH1 0x4 MSTORE PUSH1 0x24 PUSH1 0x0 REVERT INVALID LOG2 PUSH5 0x6970667358 0x22 SLT KECCAK256 PUSH14 0x26E0BD51468CA6FECBB4E7F6F7EB DUP16 0xD2 PUSH19 0x49C9807A0E77A71E1CF104FAFE7164736F6C63 NUMBER STOP ADDMOD LT STOP CALLER "
    },
    "gasEstimates": {
      "creation": {
        "codeDepositCost": "2038200",
        "executionCost": "12175",
        "totalCost": "2050375"
      },
      "external": {
        "createPost(address,string,string,uint256)": "infinite",
        "donate(uint256)": "infinite",
        "getDonations(bool)": "infinite",
        "getDonatorsOfPost(uint256,bool)": "infinite",
        "getSingleDonation(uint256,bool)": "infinite"
      }
    },
    "methodIdentifiers": {
      "createPost(address,string,string,uint256)": "7c64cff1",
      "donate(uint256)": "f14faf6f",
      "getDonations(bool)": "65d054fd",
      "getDonatorsOfPost(uint256,bool)": "1788db6b",
      "getSingleDonation(uint256,bool)": "67c59b56"
    }
  },
  "storageLayout": {
    "storage": [
      {
        "astId": 9,
        "contract": "DonationContract.sol:DonationContract",
        "label": "instanceOfDonator",
        "offset": 0,
        "slot": "0",
        "type": "t_struct(DonatorStruct)6_storage"
      },
      {
        "astId": 29,
        "contract": "DonationContract.sol:DonationContract",
        "label": "instanceOfPostStruct",
        "offset": 0,
        "slot": "2",
        "type": "t_struct(DonationStruct)26_storage"
      },
      {
        "astId": 33,
        "contract": "DonationContract.sol:DonationContract",
        "label": "finishedDonations",
        "offset": 0,
        "slot": "9",
        "type": "t_array(t_struct(DonationStruct)26_storage)dyn_storage"
      },
      {
        "astId": 37,
        "contract": "DonationContract.sol:DonationContract",
        "label": "ongoingDonations",
        "offset": 0,
        "slot": "10",
        "type": "t_array(t_struct(DonationStruct)26_storage)dyn_storage"
      },
      {
        "astId": 40,
        "contract": "DonationContract.sol:DonationContract",
        "label": "ongoingIndex",
        "offset": 0,
        "slot": "11",
        "type": "t_uint256"
      },
      {
        "astId": 43,
        "contract": "DonationContract.sol:DonationContract",
        "label": "finishedIndex",
        "offset": 0,
        "slot": "12",
        "type": "t_uint256"
      }
    ],
    "types": {
      "t_address": {
        "encoding": "inplace",
        "label": "address",
        "numberOfBytes": "20"
      },
      "t_address_payable": {
        "encoding": "inplace",
        "label": "address payable",
        "numberOfBytes": "20"
      },
      "t_array(t_struct(DonationStruct)26_storage)dyn_storage": {
        "base": "t_struct(DonationStruct)26_storage",
        "encoding": "dynamic_array",
        "label": "struct DonationContract.DonationStruct[]",
        "numberOfBytes": "32"
      },
      "t_array(t_struct(DonatorStruct)6_storage)dyn_storage": {
        "base": "t_struct(DonatorStruct)6_storage",
        "encoding": "dynamic_array",
        "label": "struct DonationContract.DonatorStruct[]",
        "numberOfBytes": "32"
      },
      "t_string_storage": {
        "encoding": "bytes",
        "label": "string",
        "numberOfBytes": "32"
      },
      "t_struct(DonationStruct)26_storage": {
        "encoding": "inplace",
        "label": "struct DonationContract.DonationStruct",
        "members": [
          {
            "astId": 11,
            "contract": "DonationContract.sol:DonationContract",
            "label": "postCreator",
            "offset": 0,
            "slot": "0",
            "type": "t_address_payable"
          },
          {
            "astId": 13,
            "contract": "DonationContract.sol:DonationContract",
            "label": "postText",
            "offset": 0,
            "slot": "1",
            "type": "t_string_storage"
          },
          {
            "astId": 15,
            "contract": "DonationContract.sol:DonationContract",
            "label": "postDate",
            "offset": 0,
            "slot": "2",
            "type": "t_string_storage"
          },
          {
            "astId": 17,
            "contract": "DonationContract.sol:DonationContract",
            "label": "requestedAmount",
            "offset": 0,
            "slot": "3",
            "type": "t_uint256"
          },
          {
            "astId": 19,
            "contract": "DonationContract.sol:DonationContract",
            "label": "receivedAmount",
            "offset": 0,
            "slot": "4",
            "type": "t_uint256"
          },
          {
            "astId": 23,
            "contract": "DonationContract.sol:DonationContract",
            "label": "donators",
            "offset": 0,
            "slot": "5",
            "type": "t_array(t_struct(DonatorStruct)6_storage)dyn_storage"
          },
          {
            "astId": 25,
            "contract": "DonationContract.sol:DonationContract",
            "label": "postIndex",
            "offset": 0,
            "slot": "6",
            "type": "t_uint256"
          }
        ],
        "numberOfBytes": "224"
      },
      "t_struct(DonatorStruct)6_storage": {
        "encoding": "inplace",
        "label": "struct DonationContract.DonatorStruct",
        "members": [
          {
            "astId": 3,
            "contract": "DonationContract.sol:DonationContract",
            "label": "donatorAddress",
            "offset": 0,
            "slot": "0",
            "type": "t_address"
          },
          {
            "astId": 5,
            "contract": "DonationContract.sol:DonationContract",
            "label": "donatedAmount",
            "offset": 0,
            "slot": "1",
            "type": "t_uint256"
          }
        ],
        "numberOfBytes": "64"
      },
      "t_uint256": {
        "encoding": "inplace",
        "label": "uint256",
        "numberOfBytes": "32"
      }
    }
  },
  "userdoc": {
    "kind": "user",
    "methods": {},
    "version": 1
  }
}